S00B00006170702E73726563D8
S113000006C2000024C2000022C2000020C2000078
S11300101EC200001CC200001AC2000018C2000068
S113002016C2000014C2000012C2000010C2000078
S11300309EC600000CC200000AC2000008C20000F4
S113004006C2000004C2000002C2000000C2000098
S1130050FEC10000FCC10000FAC10000F8C10000AC
S1130060F6C100000C94B5160C940717F0C10000FB
S1130070EEC10000ECC10000EAC10000E8C10000CC
S1130080E6C10000E4C10000E2C10000E0C10000DC
S11300900C944B170C949D17DAC100000C94512258
S11300A0D6C10000D4C10000D2C10000D0C10000FC
S11300B0CEC10000CCC10000CAC10000C8C100000C
S11300C0C6C10000C4C10000C2C100000C94E11705
S11300D00C943318BCC100000C9477180C94C91804
S11300E0B6C10000960196019601C501CD01DC015F
S11300F096019601C501CD017322E322E322E32296
S1130100E322E322E322E3227322E322E322E32233
S1130110E322E322E322E3227522E322E322E32221
S1130120E322E322E322E322E322E322E322E322A3
S1130130E322E322E322E3227522E322E322E32201
S1130140E322E322E322E322E322E322E322E32283
S1130150E322E322E322E322DF22E322E322E32277
S1130160E322E322E322E322AA22E322E322E3229C
S1130170E322E322E322E322E322E322E322E32253
S1130180E322E322E322E3229E22E322E322E32288
S1130190E322E322E322E322C22204EF17E00F2E3C
S11301A0FCE1EF2EF8E0FF2EF02D8091F307882379
S11301B011F10FB6F8940F92D8011596ED91FC91B8
S11301C01697C681D781CE01029637D48091E9076C
S11301D081508093E9078091F30781508093F3075E
S11301E00F900FBE8F89988DB5D3CE01B3D3809174
S11301F0F3078111DECFF7018081823008F0F2D459
S11302000E94C914D2CFCF93DF9300D000D0CDB7D2
S1130210DEB7CE0101964C0144244394E12CF12C29
S1130220512CC82ED92CE0914A08F0914B088081BA
S1130230882309F4D8C00580F681E02DA080B18020
S11302400E94350EC4010E945B148C0189818111C6
S113025049C00A151B05B0F10E94FF0EE0914A083F
S1130260F0914B080580F681E02D66807780C3010C
S11302700296E3D3D30153968C91539782FF17C010
S11302801C966D917C911D976A0D7B1D9501A801AB
S1130290C3010E949C13882369F00E2D1F2D2E2D5F
S11302A03F2DA501652DC3010E94141403C08E7F48
S11302B0F301838BD3015096ED91FC915197C301C7
S11302C0199585C0452DB501601B710B80914608B9
S11302D0909147080E94250A0E94FF0E811177C061
S11302E081D475C00E94FF0E72C0898188230CF4EA
S11302F06EC0AC80BD80F50182859385892B19F091
S1130300C50102969AD3CE0106960E945B14AC01F5
S1130310E9810E2E000CFF0BEA30F10508F057C0FE
S11303208827EE58FF4F8F4F0C94F524D501539630
S11303308C915397816053968C9353972A813B8178
S11303401C966D917C911D97620F731FC5010E94CD
S11303509C138823E1F1D5015096ED91FC915197BE
S1130360C5011995F501838982FF31C04A815B81FA
S113037084859585480F591F0E2D1F2D2E2D3F2D39
S1130380652DC5010E94141422C0D50153968C9189
S113039053978E7F53968C931AC0F501838981609D
S11303A0838B6A817B8175876487640F751F9A01CB
S11303B0C5010E949C130BC0D50153968C9181FDFD
S11303C003C0C501C7D203C08E7FF501838B4E2DB8
S11303D05F2D6C2D7D2D8091460890914708F0D6B5
S11303E0811183CF20CF0E94350EC4010E945B147B
S11303F08C018981811176CFE0914808F0914908F8
S11304008081442D8111452DAE2CBF2C5CCF11244D
S11304101FBECFEFD1E2DEBFCDBF00E00CBF17E0BF
S1130420A0E0B2E0ECE2F3E500E00BBF02C007900D
S11304300D92A63DB107D9F72AE0A6EDB7E001C0B9
S11304401D92A435B207E1F7F4D10C949429D8CDC8
S113045081E492E00E9489261F928EE38F9386E5C1
S113046092E09F938F930E9476260F900F900F90A7
S11304700F900F2EFEE5CF2EF2E0DF2EF02D0F2E83
S1130480F3E7EF2EF2E0FF2EF02DC8E2DAE008E801
S113049012E088EE93E00E947C0F0E94A219282F9C
S11304A030E02115310569F02330310551F01F92F8
S11304B08F93DF92CF920E9476260F900F900F9029
S11304C00F9084E690E00E947C0F0E94B719282FB9
S11304D030E02115310569F02330310551F01F92C8
S11304E08F93FF92EF920E9476260F900F900F90B9
S11304F00F9084E690E00E947C0F6FEF7FEF809175
S1130500D6079091D707E5D60E94C8190E94E41433
S11305107B836A830E94DD190E94E41468837983D3
S11305207F936F938B818F938A818F931F930F9304
S11305300E94762620E040E050E060E070E0809188
S1130540D6079091D70757D50F900F900F900F9023
S11305500F900F909ECFCF93DF93C82FD92F6FEFBB
S11305607FEF8091D6079091D707B3D6E8E2FAE0FF
S1130570C483D583DF93CF938BE992E09F938F93CA
S11305800E94762620E040E050E060E070E0809138
S1130590D6079091D7072FD50F900F900F900F90FB
S11305A0DF91CF910895CF93DF9300D01F92CDB701
S11305B0DEB7813029F08AEA92E00E94892632C0AF
S11305C0CE0101960E949720811128C06FEF7FEF22
S11305D08091D6079091D7077CD669817A818B81E7
S11305E09C810E94E914E8E2FAE0668377837F93B2
S11305F06F9381EC92E09F938F930E94762620E084
S113060040E050E060E070E08091D6079091D70719
S1130610F2D40F900F900F900F9004C08CEC92E0E6
S11306200E9489260F900F900F900F90DF91CF9129
S11306300895EF92FF921F93CF93DF930E94501C73
S11306400E947C1E9F938F9389E393E09F938F93E3
S11306500E9476260E947D1D0E947C1E9F938F938C
S11306608BE493E09F938F930E94762684EC99E029
S11306700E94621C0E947C1EC4ECD9E0DF93CF93DD
S11306809F938F9384E693E09F938F930E947626A3
S1130690CE010E947E1C0E947C1E9F938F93DF9349
S11306A0CF9389E793E09F938F930E947626AE01C0
S11306B06EE873E08FEA93E00E945B1E0E947C1E4A
S11306C09F938F93DF93CF938EE893E09F938F93C1
S11306D08FEA93E09F938F9380EC93E09F938F93A3
S11306E00E9476260E94B11C0E947C1E9F938F93C9
S11306F086EF93E09F938F930E9476268DB79EB7E3
S113070082960FB6F8949EBF0FBE8DBF81E00E9403
S1130710721D0E947C1E9F938F9385E094E09F93AB
S11307208F930E9476260F900F900F900F90C5E044
S1130730D0E00F2EF6E2EF2EF4E0FF2EF02D80E055
S11307400E94B71C182F0E947C1E9F938F93DF93E7
S1130750CF93FF92EF920E9476260F900F900F9006
S11307600F900F900F90183011F0219741F7DF91FF
S1130770CF911F91FF90EF900895CF93DF93CDB762
S1130780DEB766970FB6F894DEBF0FBECDBF86E422
S113079094E00E94892681E00E943C1C86E990E056
S11307A00E947C0F80E00E943C1C86E990E00E943D
S11307B07C0F0E94F91B3DDF88EC90E00E947C0FC7
S11307C087E08A8382E0898308E21AE00F2EF2E54B
S11307D0EF2EF4E0FF2EF02D6FEF7FEF8091D60720
S11307E09091D70776D5F80182818B8380818C83A1
S11307F0848195819D838E83868197819F83888759
S113080080858987BE016F5F7F4F80E00E94DA1C7C
S11308100E947C1E9F938F93FF92EF920E947626F4
S113082088EE93E00E947C0F0F900F900F900F9032
S1130830D3CFEF92FF920F9383E00E942C1981E0B3
S11308400E94001C80E00E945C150F2EFAEDEF2E32
S1130850F7E0FF2EF02D01E020E030E040EC50E026
S113086067E674E088E292E00E94E40C81E058D4E8
S11308709093D7078093D6070F2EF8EDEF2EF7E06D
S1130880FF2EF02D03E020E030E040EC50E06FE775
S113089074E08DEB93E00E94E40C0E948B198111AB
S11308A02CC00E94EC1F6BEA72E083E00E94A51F3B
S11308B083ED92E00E946720882361F01F928F935A
S11308C08BEA94E09F938F930E9476260F900F906B
S11308D00F900F900E948220882361F01F928F93C3
S11308E082ED94E09F938F930E9476260F900F9051
S11308F00F900F900E94020EFFCF83E894E00E94B5
S1130900892681E090E00F91FF90EF900895E8E050
S1130910F1E09081907F908390818F70982B9083E9
S11309200895E8E0F1E08081807F80830895CF938B
S1130930DF93EC010E94350ECE010E941725EC01D5
S11309400E94FF0E209711F40E94CA14CE01DF9179
S1130950CF910895CF93DF93009741F0EC010E946B
S1130960350ECE010E94AF250E94FF0EDF91CF917C
S11309700895FC010396928381832FEF3FEF348324
S11309802383968385839087878310820895FC014F
S1130990118610860895CF93DF939C01FB01DC013F
S11309A01196CD91DC911297D383C2838C819D8162
S11309B0958384838C819D81DC0113967C936E9353
S11309C012977D836C8331872087F90180818F5F43
S11309D08083DF91CF910895CF93DF93EB0148811A
S11309E059814F3F2FEF520721F4FC01A781B085B5
S11309F00DC0DC01139601C0DF011296ED91FC914C
S1130A0013972081318142175307B0F71296ED9165
S1130A10FC911397FB83EA83D583C483BD83AC83A2
S1130A201396DC93CE93129799878887FC012081D3
S1130A302F5F2083DF91CF910895CF93DF93FC0143
S1130A40A085B185C281D381848195819D838C8366
S1130A50C481D581828193819B838A8311968D91F0
S1130A609C911297E817F90731F4848195811296C5
S1130A709C938E931197118610868C9181508C9340
S1130A808C91DF91CF91089531E1FC01308331974E
S1130A9022E220833197A3E3A083319760833197C7
S1130AA070833197108231971082319760E86083A8
S1130AB0319710823197108231971082319762E01A
S1130AC06083319763E06083319764E0608331979A
S1130AD065E06083319766E06083319767E0608307
S1130AE0319768E06083319769E06083319760E112
S1130AF0608331973083319732E13083319733E12A
S1130B003083319734E13083319735E13083319745
S1130B1036E13083319737E13083319738E13083E0
S1130B20319739E13083319730E23083319731E2C4
S1130B30308331972083319723E220833197408398
S1130B4031975083319726E22083319727E220831F
S1130B50319728E22083319729E22083319720E3DB
S1130B602083319721E3208389970895A89590ECF9
S1130B7088E10FB6F894A895809360000FBE909317
S1130B806000A0914008B0914108CD91CDBFDD91A6
S1130B90DEBFFF91EF91DF91CF91BF91AF919F9114
S1130BA08F917F916F915F914F913F912F911F9101
S1130BB00F91FF90EF90DF90CF90BF90AF909F90F8
S1130BC08F907F906F905F904F903F902F901F90E9
S1130BD00F900CBE0F900BBE0F900FBE0F90089598
S1130BE081E008950F920FB6F8940F920BB60F920E
S1130BF00CB60F921F9211242F923F924F925F9244
S1130C006F927F928F929F92AF92BF92CF92DF9218
S1130C10EF92FF920F931F932F933F934F935F9302
S1130C206F937F938F939F93AF93BF93CF93DF93F0
S1130C30EF93FF93A0914008B09141080DB60D9237
S1130C400EB60D920E948D0FA0914008B0914108FC
S1130C50CD91CDBFDD91DEBFFF91EF91DF91CF91BB
S1130C60BF91AF919F918F917F916F915F914F91C0
S1130C703F912F911F910F91FF90EF90DF90CF90B4
S1130C80BF90AF909F908F907F906F905F904F90A8
S1130C903F902F901F900F900CBE0F900BBE0F90A3
S1130CA00FBE0F9008950F920FB6F8940F920BB6E3
S1130CB00F920CB60F921F9211242F923F924F92D3
S1130CC05F926F927F928F929F92AF92BF92CF92D8
S1130CD0DF92EF92FF920F931F932F933F934F93C3
S1130CE05F936F937F938F939F93AF93BF93CF93B0
S1130CF0DF93EF93FF93A0914008B09141080DB6A4
S1130D000D920EB60D9213BEC0D781110E948D0FA5
S1130D10A0914008B0914108CD91CDBFDD91DEBFD7
S1130D20FF91EF91DF91CF91BF91AF919F918F91FF
S1130D307F916F915F914F913F912F911F910F91EF
S1130D40FF90EF90DF90CF90BF90AF909F908F90E7
S1130D507F906F905F904F903F902F901F900F90D7
S1130D600CBE0F900BBE0F900FBE0F9008959BDF2B
S1130D7018950FB6F8940F92FC01928D0F900FBE48
S1130D8081E0911180E008950F931F93CF93DF9337
S1130D90EC01042F1A8D4C8D41110CC0888199816E
S1130DA0892B09F042C08C819D810E9455111D82BE
S1130DB01C8242C0011117C050E08A819B810E94AD
S1130DC03C262C8D8A819B81820F911D9B838A8373
S1130DD02C813D818217930750F1888199819B83EF
S1130DE08A8380E029C050E08E819F810E943C2646
S1130DF08C8D90E09195819591092E813F81280FEA
S1130E00391F3F832E83488159812417350730F4D5
S1130E102C813D81820F931F9F838E83023049F47E
S1130E20112349F0115080E007C080E005C080E044
S1130E3003C080E001C080E01F5F1A8FDF91CF9173
S1130E401F910F910895FC01448D4423A9F050E0B3
S1130E5026813781240F351F37832683848195812A
S1130E602817390720F08081918197838683CB01ED
S1130E70668177810C943C260895EF92FF920F933C
S1130E801F93CF938C010FB6F8940F92FC01C68D7B
S1130E901C16ACF48189811106C011C0F801818946
S1130EA0811105C00CC07801F1E1EF0EF11CC701FE
S1130EB00E94441081110E94CC10C15079F78FEF29
S1130EC0F801868F0F900FBE0FB6F8940F92C58D60
S1130ED01C16ACF48085811106C011C0F801808510
S1130EE0811105C00CC07801F8E0EF0EF11CC701B8
S1130EF00E94441081110E94CC10C15079F78FEFE9
S1130F00F801858F0F900FBECF911F910F91FF9025
S1130F10EF900895CF93DF93EC010FB6F8940F92FE
S1130F20E881F9818B8D2C8D90E030E0829FA001C7
S1130F30839F500D929F500D11244E0F5F1F5D83B0
S1130F404C831A8EFB83EA830197829FA001839FBF
S1130F50500D929F500D1124CF01840F951F9F8334
S1130F608E838FEF8D8F8E8F61110BC088858823C0
S1130F7071F0CE0108960E944410882341F032DEBD
S1130F8006C0CE010896F5DCCE014196F2DC0F9046
S1130F900FBE81E0DF91CF910895FF920F931F93CD
S1130FA0CF93DF93082F162FF42E6623B9F0869F74
S1130FB0C00111248196BBDCEC01009741F414C0FC
S1130FC00B8F1C8F61E0CE01A5DFF8A20DC08196C6
S1130FD099838883F5CFD983C883F2CF81E290E0E7
S1130FE0A6DCEC01892BB9F7CE01DF91CF911F91DB
S1130FF00F91FF9008959F92AF92BF92CF92DF928C
S1131000EF92FF920F931F93CF93DF9300D01F9221
S11310101F92CDB7DEB78C016B015D834C83A22E8A
S1131020B12C992493947C0188E0E80EF11C0FB64E
S1131030F8940F92F801928D838D981718F0F2E0CE
S1131040AF1216C04A2DB601C8019EDEF80191897F
S1131050992341F0C80141960E944410882321F04D
S1131060C1DD02C08111BEDD0F900FBE81E047C01B
S11310708C819D81892B21F40F900FBE80E03FC0AD
S1131080B11005C0CE0101960E948C10B92C0F90AE
S11310900FBEEBD50FB6F8940F92F801858D8F3FF4
S11310A009F4158EF801868D8F3F09F4168E0F9082
S11310B00FBEBE016C5F7F4FCE0101960E94971058
S11310C0811119C00FB6F8940F92F801928D838D97
S11310D00F900FBE98130BC06C817D81C701ABD7F5
S11310E0C801CBDE8CD68111A2CF7CDDA0CFC80194
S11310F0C4DE85D69CCFC801C0DE81D680E00F90C7
S11311000F900F900F900F90DF91CF911F910F913F
S1131110FF90EF90DF90CF90BF90AF909F90089595
S1131120CF93DF93482F60E081E037DFEC01009735
S113113059F01D821C82198218821E8220E040E030
S113114050E060E070E057DFCE01DF91CF91089569
S1131150EF92FF920F931F93CF93DF938A01FC01C9
S1131160528D338D531710F02230E1F4422F780161
S1131170EC011E8D09DE1F3F79F489898823A1F0D3
S1131180CE01419681D7882389F0E114F10481F0DE
S113119081E0F70180830DC0FF24F394F10EFE8EED
S11311A081E007C080E005C081E003C081E001C0A8
S11311B081E0DF91CF911F910F91FF90EF900895FF
S11311C09F92AF92BF92CF92DF92EF92FF920F93D2
S11311D01F93CF93DF9300D01F921F92CDB7DEB73A
S11311E08C015B015D834C83E12C992493946C0105
S11311F081E1C80ED11C0FB6F8940F92F801F28C5D
S1131200FF2091F0B501C8011EDEFA94F801F28EB8
S11312108085882329F0C801089636D78111E2DC3D
S11312200F900FBE81E044C08C819D81892B21F4F5
S11312300F900FBE80E03CC0E11004C0CE010196C7
S11312406BD7E92C0F900FBE10D50FB6F8940F9200
S1131250F801858D8F3F09F4158EF801868D8F3F37
S113126009F4168E0F900FBEBE016C5F7F4FCE0146
S113127001965DD7811113C0C8017BDD882359F025
S11312806C817D81C601D7D6C801F7DDB8D581113F
S1131290B2CFA8DCB0CFC801F0DDB1D5ACCFC80166
S11312A0ECDDADD5C80165DD882309F4A4CF80E069
S11312B00F900F900F900F900F90DF91CF911F918F
S11312C00F91FF90EF90DF90CF90BF90AF909F90E1
S11312D00895BF92CF92DF92EF92FF920F931F93E4
S11312E0CF93DF9300D01F921F92CDB7DEB78C014E
S11312F07D836C83B12CD12CCC24C3947C0181E1FB
S1131300E80EF11C0FB6F8940F92D8015A968C91FE
S11313105A978823D9F081505A968C935A978D9175
S11313209C91892B29F40E94E511F801958384830B
S1131330D80118968C91882329F0C8010896A4D660
S1131340811150DC0F900FBE81E070C08C819D81B3
S1131350892B21F40F900FBE80E068C0D11004C027
S1131360CE010196D9D6DC2C0F900FBE7ED40FB6D9
S1131370F8940F92F801858D8F3F09F4158ED801EA
S11313805E968C915E978F3F11F45E961C920F903F
S11313900FBEBE016C5F7F4FCE010196C8D681118E
S11313A021C0C801E6DC8823C9F0F801808191815D
S11313B0892B49F40FB6F8940F928481958103D751
S11313C0B82E0F900FBE6C817D81C70134D6C80141
S11313D054DD15D5811196CF05DC94CFC8014DDDC0
S11313E00ED590CFC80149DD0AD5C801C2DC8823D7
S11313F009F488CFBB20C9F00FB6F8940F92F80116
S11314008189882339F00688F789E02D808164E09A
S1131410681B01C060E0D80114968D919C911597CA
S113142084D70F900FBE80E001C080E00F900F9032
S11314300F900F900F90DF91CF911F910F91FF901C
S1131440EF90DF90CF90BF900895CF93DF93EC019E
S11314500FB6F8940F928D8D8F3F09F41D8E8E8DEB
S11314608F3F09F41E8E0F900FBE8A8D811103C029
S1131470CE014196F1D5CE0100DDDF91CF910895E3
S1131480FC014481558122813381240F351F8081E1
S11314909181B901681B790BCB016417750710F0B2
S11314A0841B950B0895AF92BF92CF92DF92EF9277
S11314B0FF920F931F93CF93DF936C015B017A012B
S11314C0FC01C281D381048115810C1B1D0B4017C3
S11314D0510708F48A01F60184859585A801B501B0
S11314E08C0F9D1F0E943C260E151F0558F4A70162
S11314F0401B510BB501600F711FF6018485958562
S11315000E943C26CE018E0D9F1DF601248135815B
S11315108217930710F0821B930BF6019383828347
S1131520C701DF91CF911F910F91FF90EF90DF9052
S1131530CF90BF90AF900895CF92DF92EF92FF9239
S11315400F931F93CF93DF931F921F92CDB7DEB7F4
S11315505A83498321153105C9F06B017C01FC01D3
S1131560868580FD08C0CA012417350708F4C9011F
S11315709A83898311C02017310758F042E050E064
S1131580BE016F5F7F4FC7018EDF06C080E090E031
S113159008C080E090E005C049815A81B601C701C6
S11315A082DF0F900F90DF91CF911F910F91FF90E9
S11315B0EF90DF90CF900895AF92BF92CF92DF92D9
S11315C0EF92FF920F931F93CF93DF937C015B0104
S11315D0E9014217530708F4EA01209779F1F7016A
S11315E000811181C480D580C01AD10ACC15DD05D3
S11315F008F46E01F70164857585600F711FA601FB
S1131600C5010E943C26CC16DD0658F4AE014C19E7
S11316105D09F70164857585C5018C0D9D1D0E94CA
S11316203C260C0F1D1FF7018481958108171907AB
S113163010F0081B190BF70111830083CE01DF9111
S1131640CF911F910F91FF90EF90DF90CF90BF90BB
S1131650AF900895EF92FF921F93CF93DF93EB0126
S113166011E0413009F010E0209711F4C1E0D0E01E
S11316707C012FEFE21AF20A419659D9009781F0C2
S113168020E1FC0111922A95E9F79C01205F3F4F6C
S1131690FC0135872487F582E482D783C6831687C5
S11316A0DF91CF911F91FF90EF900895CF93DF9337
S11316B0FC0127850FB6F8940F9280859185892BBC
S11316C0D1F482859385892BC1F48685468157811F
S11316D064817581A485B58590E1EF0119929A958D
S11316E0E9F7B587A4877583648357834683868720
S11316F0278781E003C080E001C080E00F900FBE27
S1131700DF91CF910895FC012481358180819181FD
S113171042815381820F931F0197841B950B82177B
S1131720930710F0821B930B0895AF92BF92CF9250
S1131730DF92EF92FF920F931F93CF93DF93EC010D
S11317405B016A0179018E8580FF04C08A010E5F06
S11317501F4F01C08A01CE01D6DF9C01A601B5014D
S1131760CE01EADE6C01892BB1F0CE0189DE2E8137
S11317703F818217930778F088859985892B59F0E2
S11317808885998500E010E020E040E050E0BA014F
S11317902FD719861886C601DF91CF911F910F911B
S11317A0FF90EF90DF90CF90BF90AF9008956F922D
S11317B07F928F929F92AF92BF92CF92DF92EF92DD
S11317C0FF920F931F93CF93DF931F921F92CDB776
S11317D0DEB76C013B014A017901FC01868580FD7D
S11317E003C0A12CB12C04C06894AA24A1F8B12C84
S11317F0E114F10429F10FB6F8940F92C60140DE0A
S11318008C01A816B90638F080E090E081D7C8D4DE
S1131810F601918780870F900FBEA016B106B0F035
S113182000E010E020E030E0A90160E070E0CB01CE
S1131830DED5F60111861086C60122DE8C0103C0B6
S1131840C6011EDE8C01A016B106B8F5A114B104C0
S1131850C1F0F601E080F1809801A501BE016F5F3F
S11318607F4FC601A9DE89819A810A191B0988164E
S1131870990630F4F601F182E082812C912C01C0AA
S11318804C019801A401B301C60196DE7C01892BA9
S1131890B1F0EBD1F60182859385892B61F08285C5
S11318A0938500E010E020E040E050E0BA0122D649
S11318B0F60113861286A3D202C0E12CF12CC701D3
S11318C00F900F90DF91CF911F910F91FF90EF90A8
S11318D0DF90CF90BF90AF909F908F907F906F904C
S11318E00895E0910808F09109088081811107C0EA
S11318F08FEF9FEF9093E0078093DF070895E091C7
S11319000808F09109080580F681E02D0680F7812A
S1131910E02D828193819093E0078093DF070895FF
S1131920FF920F931F93CF93DF93EC01F62E009158
S1131930E7071091E80780914008909141080296CA
S11319407CD8CF3F8FEFD80761F4FF2051F060912E
S11319504008709141086E5F7F4F8AEE97E01BD874
S11319602DC0C00FD11FE0914008F0914108D383EE
S1131970C283C017D10760F4609140087091410898
S113198080910608909107086E5F7F4F25D816C096
S1131990609140087091410880910808909109086D
S11319A06E5F7F4F19D88091DF079091E007C817C9
S11319B0D90720F4D093E007C093DF07DF91CF91DC
S11319C01F910F91FF9008954F925F926F927F92B3
S11319D08F929F92AF92BF92CF92DF92EF92FF923B
S11319E00F93CF93DF934C016B015A012901CA0174
S11319F00E9497043C01892B09F4F3C08CE290E027
S1131A000E949704EC01892B99F0788E6F8AA501C6
S1131A1065EA70E0C3010E94452681E0A81AB10876
S1131A208F89988DA80EB91EC114D10429F420C041
S1131A30C3010E94AA04D5C0D6018C91898F8C91D0
S1131A408823A1F0AE01465E5F4FF6013196B8E0FF
S1131A50CB0ED11CCF012191DA012D93AD01DC0114
S1131A608C91882319F0EC15FD05A1F718A201C08B
S1131A70198E043008F003E00E8B0BA31CA26E0138
S1131A80B2E0CB0ED11CC6010E94C704CE010C9655
S1131A900E94C704D987C88784E090E0801B91091D
S1131AA09D878C87DB8BCA8B1EA21DA21FA218A642
S1131AB019A61AA61BA6A201B401C5010E944405D9
S1131AC099838883E114F10419F0F701D183C08369
S1131AD00FB6F8940F928091E9078F5F8093E9071E
S1131AE08091400890914108892BD1F5D093410809
S1131AF0C09340088091E907813009F041C08CE12E
S1131B0098E00E94B90485E298E00E94B9048EE24C
S1131B1098E00E94B90487E398E00E94B90483E145
S1131B2098E00E94B9048AE098E00E94B9048DEF1D
S1131B3097E00E94B90484EF97E00E94B9048AEE0A
S1131B4097E00E94B90483E198E090930908809398
S1131B5008088AE098E0909307088093060810C06C
S1131B608091E50781110CC0E0914008F091410893
S1131B7096898E89891720F0D0934108C093400834
S1131B808091E1078F5F8093E10789A38E8990910B
S1131B90E607981710F48093E60790E09C01220F63
S1131BA0331F220F331F220F331F820F931FB601DF
S1131BB0845E974F0E94CB040F900FBE8091E5077F
S1131BC0882359F0E0914008F091410896898E8964
S1131BD0981728F407D881E005C081E003C081E0AC
S1131BE001C08FEFDF91CF910F91FF90EF90DF90C5
S1131BF0CF90BF90AF909F908F907F906F905F90A9
S1131C004F900895EF92FF920F930F2EFDEDEF2E5C
S1131C10F7E0FF2EF02D00E020E030E040EC50E053
S1131C2064EF74E08DEC90E0CFDE8130D1F4DCD54C
S1131C308130B9F4F8948FEF9FEF9093E00780938D
S1131C40DF0781E08093E5071092E8071092E70729
S1131C50E0914008F091410885A10E9487040E9408
S1131C60B6050F91FF90EF9008958091DC078F5F88
S1131C708093DC0708950FB6F8940F928091E707DC
S1131C809091E8070F900FBE0895CF92DF92EF92E4
S1131C90FF920F931F93CF93DF938091DC07811101
S1131CA098C0E090E707F090E8078FEFE81AF80A89
S1131CB0F092E807E092E707E114F104B1F48091AF
S1131CC0080890910908209106083091070830937C
S1131CD009082093080890930708809306088091C8
S1131CE0E2078F5F8093E207FCDD8091DF0790912C
S1131CF0E007E816F90610F4D12C53C0D12CCC24FB
S1131D00C394E0910808F09109088081811107C00B
S1131D108FEF9FEF9093E0078093DF0742C0E0913D
S1131D200808F09109080580F681E02DC681D78165
S1131D308A819B81E816F90628F49093E007809342
S1131D40DF072FC08E010E5F1F4FC8010E941D05C3
S1131D508C899D89892B21F0CE010C960E941D054A
S1131D608E899091E607981710F48093E60790E027
S1131D709C01220F331F220F331F220F331F820FA8
S1131D80931FB801845E974F0E94CB04E0914008F2
S1131D90F09141089E898689981708F4B2CFDC2C0B
S1131DA0B0CFE0914008F0914108868990E0FC01B1
S1131DB0EE0FFF1FEE0FFF1FEE0FFF1F8E0F9F1F73
S1131DC0FC01E45EF74F8081823048F0DD24D39437
S1131DD006C08091E4078F5F8093E407D12C809143
S1131DE0E307882311F0DD24D3948D2DDF91CF9167
S1131DF01F910F91FF90EF90DF90CF900895DF92A5
S1131E00EF92FF920F931F93CF93DF930FB6F89443
S1131E100F928091DC0781508093DC078091DC076E
S1131E2081115DC08091E907811133C05BC0D70186
S1131E301596ED91FC911697C681D781CE010C962B
S1131E400E941D058E010E5F1F4FC8010E941D05D3
S1131E508E899091E607981710F48093E60790E036
S1131E609C01220F331F220F331F220F331F820FB7
S1131E70931FB801845E974F0E94CB04E091400801
S1131E80F09141089E898689981768F0D092E307FB
S1131E900AC0C0E0D0E00F2EFDEFEF2EF7E0FF2EDA
S1131EA0F02DDD24D394F70180818111C0CFCD2B97
S1131EB009F017DDC091E407CC2349F0D1E0E5DE59
S1131EC08111D093E307C150D1F71092E4078091B8
S1131ED0E307882331F00E94F20581E003C080E02B
S1131EE001C080E00F900FBEDF91CF911F910F9141
S1131EF0FF90EF90DF900895CF93DF93EC01892B4F
S1131F0039F0B3DE60E0CE010BDD79DF811102C070
S1131F100E94F205DF91CF9108958091DC07882318
S1131F2021F081E08093E30708951092E307E091A4
S1131F304008F091410885A10E949104A0914008B5
S1131F40B0914108E0914008F09141082D913C91F5
S1131F508789908D8217930758F06091400870919B
S1131F6041088091400890914108675E7F4F1FD5DA
S1131F702091E607822F90E0FC01EE0FFF1FEE0F89
S1131F80FF1FEE0FFF1FE80FF91FE45EF74F3081CC
S1131F90311111C02150822F90E0FC01EE0FFF1F80
S1131FA0EE0FFF1FEE0FFF1FE80FF91FE45EF74F60
S1131FB03081332379F3AC01440F551F440F551F6F
S1131FC0440F551F480F591FDA01A45EB74F1196ED
S1131FD0ED91FC9112970280F381E02D1296FC930F
S1131FE0EE931197415E574FE417F50729F44281A8
S1131FF05381FD0152834183FC01EE0FFF1FEE0F5D
S1132000FF1FEE0FFF1F8E0F9F1FFC01E45EF74FB3
S11320100180F281E02D868197819093410880931D
S113202040082093E607E0914008F091410885A11B
S11320300C9487040895CF93DF93EB0160914008DB
S113204070914108645F7F4F0E94EC0461E0CE010F
S113205067DCDF91CF9108950F931F93CF938B018A
S1132060C42F6091400870914108645F7F4F0E94C3
S1132070CB04CC2311F00FEF1FEF6C2FC80150DC01
S1132080CF911F910F9108950F931F93CF93DF93D7
S1132090DC011596ED91FC911697C681D7818E01CE
S11320A0045F1F4FC8010E941D058091DC07811148
S11320B01CC00A501109C8010E941D058E89909107
S11320C0E607981710F48093E60790E09C01220F2E
S11320D0331F220F331F220F331F820F931FB801A8
S11320E0845E974F0E94CB0405C0B8018DEF97E042
S11320F00E94CB04E0914008F09141089E898689B2
S1132100891720F481E08093E30701C080E0DF9128
S1132110CF911F910F9108952091E207FC01208334
S11321202091E7073091E807328321830895CF9304
S1132130DF930FB6F8940F922091E7073091E807E8
S1132140DB014D915C914F3FBFEF5B07E9F0EC0180
S1132150E981FA81A091E207B881BA1719F02E1724
S11321603F07A0F42E1B3F0B2417350740F4FB0157
S1132170421B530B51834083CFDF80E008C0FB0137
S11321801182108281E003C080E001C081E00F90E1
S11321900FBEDF91CF91089581E08093E307089506
S11321A0809140089091410808958091E507882323
S11321B031F08091DC07882321F080E0089581E0EC
S11321C0089582E008950F931F93CF93DF93FC014A
S11321D0892B09F464C02689A0914008B091410874
S11321E056968C91281708F04EC0848595859923BE
S11321F064F0A0914008B091410856963C9184E067
S113220090E0831B91099587848730E0C901880F8A
S1132210991F880F991F880F991F280F391F245E53
S1132220374F828593858217930721F58F01EF013C
S11322302296CE010E941D05E0914008F0914108CC
S11322408689F801868B9091E607981710F480939D
S1132250E60790E09C01220F331F220F331F220F49
S1132260331F820F931FBE01845E974F0E94CB04DD
S113227081E016C0A0914008B091410856968C9117
S1132280868B81E00DC0A0914008B091410881E0A7
S113229023A156969C91291718F080E001C080E094
S11322A0DF91CF911F910F9108950F931F93CF93B7
S11322B0DF93FC01892B79F184A1815084A32689C1
S11322C093A1291751F181112AC0EF018F010E5FEB
S11322D01F4FC8010E941D058BA18E8B24E030E0A6
S11322E0281B31093D872C879091E607981710F435
S11322F08093E60790E09C01220F331F220F331FC7
S1132300220F331F820F931FB801845E974F0E94E0
S1132310CB0481E005C080E003C080E001C080E020
S1132320DF91CF911F910F9108950F931F93CF9336
S1132330DF93FC01892B09F443C093A1961708F499
S1132340962F86898917E1F124A12130C9F5968B4E
S113235024853585332334F024E030E0291B31090A
S11323603587248790E09C01220F331F220F331FEF
S1132370220F331F820F931F845E974F228533856C
S113238028173907E9F4EF018F010E5F1F4FC801C9
S11323900E941D058E899091E607981710F480938A
S11323A0E60790E09C01220F331F220F331F220FF8
S11323B0331F820F931FB801845E974F0E94CB0492
S11323C0DF91CF911F910F910895809140089091D2
S11323D04108892B39F0E0914008F091410884A12B
S11323E08F5F84A3809140089091410808954F9293
S11323F05F926F927F928F929F92AF92BF92EF9271
S1132400FF920F931F9349015A010FB6F8940F924C
S1132410E0914008F091410823A5223021F1E09198
S11324204008F091410847A050A461A472A4DC01C3
S1132430CB0180959095A095B09584219521A621F6
S1132440B72187A390A7A1A7B2A7E0914008F09174
S1132450410881E083A7E114F10429F061E0C70198
S11324605FDA0E94F2050F900FBE0FB6F8940F9238
S11324700115110569F0E0914008F091410887A128
S113248090A5A1A5B2A5F80180839183A283B3830B
S1132490E0914008F091410883A58230B1F4E091C5
S11324A04008F091410887A190A5A1A5B2A5809408
S11324B09094A094B09488229922AA22BB2287A245
S11324C090A6A1A6B2A681E001C080E0E0914008F8
S11324D0F091410813A60F900FBE1F910F91FF902A
S11324E0EF90BF90AF909F908F907F906F905F9090
S11324F04F9008950F931F93CF93DF93FC010FB672
S1132500F8940F920115110549F087A190A5A1A592
S1132510B2A5E80188839983AA83BB8383A592E04B
S113252093A72230B1F018F4213031F02AC02330BF
S1132530E9F0243001F125C007A110A521A532A599
S1132540402B512B622B732B47A350A761A772A773
S113255018C047A150A561A572A54F5F5F4F6F4F8B
S11325607F4F47A350A761A772A70BC047A350A7EB
S113257061A772A706C0823079F147A350A761A76B
S113258072A7813059F5EF018F010E5F1F4FC8010B
S11325900E941D058E899091E607981710F4809388
S11325A0E60790E09C01220F331F220F331F220FF6
S11325B0331F820F931FB801845E974F0E94CB0490
S11325C0E0914008F09141089E898689891740F47A
S11325D00E94F20581E005C080E003C081E001C0F3
S11325E081E00F900FBEDF91CF911F910F9108955D
S11325F0EF92FF920F931F93CF93DF93FC0101158A
S1132600110549F087A190A5A1A5B2A5E801888389
S11326109983AA83BB8383A592E093A72230B1F068
S113262018F4213031F02BC02330E9F0243001F1CB
S113263026C007A110A521A532A5402B512B622B42
S1132640732B47A350A761A772A719C047A150A530
S113265061A572A54F5F5F4F6F4F7F4F47A350A790
S113266061A772A70CC047A350A761A772A707C0B0
S1132670823009F441C047A350A761A772A78130F3
S1132680E9F5EF018091DC0781111DC08F010E5F18
S11326901F4FC8010E941D058E899091E607981767
S11326A010F48093E60790E09C01220F331F220F61
S11326B0331F220F331F820F931FB801845E974F7D
S11326C00E94CB0407C0BF01645F7F4F8DEF97E08A
S11326D00E94CB04E0914008F09141089E898689CC
S11326E0891770F4E114F10419F081E0F701808393
S11326F081E08093E30705C080E003C081E001C06E
S113270081E0DF91CF911F910F91FF90EF90089599
S1132710009721F480914008909141080FB6F894F5
S11327200F92FC0123A5223019F413A681E001C005
S113273080E00F900FBE0895FC017383628391873C
S113274080874617570790F0421B530B8485958565
S113275048175907E0F4BF016E5F7F4F8091480826
S1132760909149080E94EC0480E0089542175307B1
S113277018F46217730768F4BF016E5F7F4F80918E
S11327804A0890914B080E94EC0480E0089581E08F
S1132790089581E008950FB6F8940F928091460849
S11327A090914708892BE9F485E598E00E94B904E3
S11327B08CE498E00E94B90485E598E090934B0876
S11327C080934A088CE498E09093490880934808E1
S11327D040E065E08AE00E94CD079093470880932B
S11327E046080F900FBE0895EF92FF920F93D3DF28
S11327F08091460890914708892B89F00F2EF4E4C4
S1132800EF2EF8E0FF2EF02D06E020E030E045E565
S113281050E069EF74E083E091E0D6D801C080E035
S11328200F91FF90EF9008950F931F93CF93DF9331
S113283000D01F921F92CDB7DEB7E0914608F09109
S11328404708309769F1D90169835B834A839D8383
S11328508C836630E4F4A9DC823061F420E0A801C2
S1132860BE016F5F7F4F80914608909147080E9498
S1132870FB0717C020E040E050E0BE016F5F7F4FD0
S113288080914608909147080E94FB070AC020E007
S1132890AD01BE016F5F7F4FCF010E94A80801C048
S11328A080E00F900F900F900F900F90DF91CF91D9
S11328B01F910F910895AF92BF92CF92DF92EF9242
S11328C0FF920F931F93CF93DF936C01D4D97C01B4
S11328D08091420890914308E816F90608F047C031
S11328E02FC00580F681E02DA080B180C681D781FC
S11328F08E010E5F1F4FC8010E941D05E889F989EA
S1132900CE0119958B8982FF1BC08C859D858A0D0C
S11329109B1DA816B90660F49B838A83D987C88750
S1132920B80180914A0890914B080E94EC0408C0B9
S113293000E010E020E030E0A50160E0CE0174DFAB
S1132940E0914A08F0914B0880818111CACF8091AF
S113295048089091490890934B0880934A08F09353
S11329604908E093480881E0F601808302C0F6013B
S11329701082F0924308E0924208C701DF91CF91A0
S11329801F910F91FF90EF90DF90CF90BF90AF9089
S113299008950895279A2F9A2FEF80E792E0215007
S11329A080409040E1F700C000001F9AF5CF279ABD
S11329B02F9A2FEF87EA91E6215080409040E1F76B
S11329C000C000001F9AF5CF04D06894B11150C024
S11329D0089533D088F09F5790F0B92F9927B751B5
S11329E0A0F0D1F0660F771F881F991F1AF0BA95CF
S11329F0C9F712C0B13081F03AD0B1E0089537C0C0
S1132A00672F782F8827B85F39F0B93FCCF38695C4
S1132A1077956795B395D9F73EF490958095709521
S1132A2061957F4F8F4F9F4F089557FD9058440FE6
S1132A30551F59F05F3F71F04795880F97FB991F19
S1132A4061F09F3F79F087950895121613061406D6
S1132A50551FF2CF4695F1DF08C016161706180663
S1132A60991FF1CF86957105610508940895E8943E
S1132A70BB2766277727CB0197F90895CF93DF9378
S1132A801F92CDB7DEB7BE016F5F7F4F80915E08A6
S1132A9090915F084ED18111F6CF898190E00F901B
S1132AA0DF91CF910895682F80915E0890915F081F
S1132AB0CBD080E090E008958F929F92AF92CF9216
S1132AC0EF920F93812C912C6894AA24A7F8689410
S1132AD0CC24C7F8E12C00E023E040E051EE60E0B4
S1132AE070E013D090935F0880935E08EEE4FAE000
S1132AF086E092E091838083938382830F91EF90A9
S1132B00CF90AF909F908F9008952F923F924F92C5
S1132B105F926F927F928F929F92AF92CF92EF9239
S1132B20FF920F931F93CF93DF93CDB7DEB7F82EA9
S1132B302A013B0188E090E00E9417258C018F2D2B
S1132B4090E0880F991FFC01E05AF74F118300832E
S1132B50FC01EC5EFD4F80819181D8018D939C93A3
S1132B606C2D70E084E090E00E94FD241C0161E083
S1132B7070E086E090E00E94FD247C014C2DB101C0
S1132B804CD3F801F582E4826A2D70E084E090E091
S1132B900E94FD241C0161E070E086E090E00E9448
S1132BA0FD247C014A2DB10138D3D8011396FC923F
S1132BB0EE92129717969C928E921697FFB6F894FF
S1132BC0ED91FC91119736978081826080838D907E
S1132BD09C90C301B2010E94E02320E030E040E079
S1132BE051E40E9449249B01AC0160E074E284E753
S1132BF09BE40E94752320E030E040E85FE30E94FC
S1132C000E23E7DEF40132976083D801ED91FC9145
S1132C101197359788E98083ED91FC91349786E08C
S1132C208083FFBEC801DF91CF911F910F91FF9068
S1132C30EF90CF90AF909F908F907F906F905F9028
S1132C404F903F902F900895CF93DF93EC01EA814A
S1132C50FB81938182812581981B9223848198171B
S1132C60A1F0938126952923A081B181A20FB11DE2
S1132C706C939F5F258192239383E881F981359733
S1132C8080818062808380E001C082E0DF91CF9107
S1132C900895EF92FF920F931F93CF93DF937C01DC
S1132CA0DC011296ED91FC91139793818281981B1C
S1132CB0858198238481891B861798F1662341F1C5
S1132CC0842F952FDC016150462F50E04F5F5F4FFA
S1132CD0480F591FE701EA81FB8193818281258195
S1132CE0981B92238481981779F08C91938126956F
S1132CF02923608171818B01020F111DE8018883F2
S1132D009F5F8581982393831196A417B50711F7C4
S1132D10D701ED91FC91359780818062808380E0BA
S1132D2001C082E0DF91CF911F910F91FF90EF904E
S1132D300895DC011496ED91FC911597938182819D
S1132D40981789F09281858186958923A081B18124
S1132D50A80FB11D8C91DB018C939F5F8581982313
S1132D60928380E0089583E008951F920F920FB636
S1132D700F9211240BB60F922F933F934F935F93AF
S1132D806F937F938F939F93AF93BF93CF93DF936F
S1132D90EF93FF93A0916008B0916108109711F12F
S1132DA06091C6001496ED91FC91159793818281F0
S1132DB02581981B92238481981761F0838126953D
S1132DC02823C081D181C20FD11D68838F5F958173
S1132DD0892383831696ED91FC911797309711F010
S1132DE0CD011995FF91EF91DF91CF91BF91AF91F3
S1132DF09F918F917F916F915F914F913F912F910F
S1132E000F900BBE0F900FBE0F901F9018951F923E
S1132E100F920FB60F9211240BB60F922F938F932C
S1132E209F93AF93BF93EF93FF93E0916008F0916A
S1132E3061083097B9F00280F381E02D938182819B
S1132E409817B1F092818581282F26952923A08196
S1132E50B181A20FB11D2C919F5F8923828320939E
S1132E60C6000BC0E1ECF0E080818F7D808305C05B
S1132E70E1ECF0E080818F7D8083FF91EF91BF9141
S1132E80AF919F918F912F910F900BBE0F900FBE1A
S1132E900F901F9018951F920F920FB60F92112446
S1132EA00BB60F922F933F934F935F936F937F9340
S1132EB08F939F93AF93BF93CF93DF93EF93FF933E
S1132EC0A0916208B0916308109711F16091CE004F
S1132ED01496ED91FC911597938182812581981B1D
S1132EE092238481981761F0838126952823C081D9
S1132EF0D181C20FD11D68838F5F9581892383831C
S1132F001696ED91FC911797309711F0CD01199514
S1132F10FF91EF91DF91CF91BF91AF919F918F91ED
S1132F207F916F915F914F913F912F910F900BBEC5
S1132F300F900FBE0F901F9018951F920F920FB60F
S1132F400F9211240BB60F922F938F939F93AF93ED
S1132F50BF93EF93FF93E0916208F0916308309779
S1132F60B9F00280F381E02D938182819817B1F04A
S1132F7092818581282F26952923A081B181A20FD2
S1132F80B11D2C919F5F892382832093CE000BC0B7
S1132F90E9ECF0E080818F7D808305C0E9ECF0E00E
S1132FA080818F7D8083FF91EF91BF91AF919F913D
S1132FB08F912F910F900BBE0F900FBE0F901F900B
S1132FC018951F920F920FB60F9211240BB60F9201
S1132FD02F933F934F935F936F937F938F939F931D
S1132FE0AF93BF93CF93DF93EF93FF93A0916408C4
S1132FF0B0916508109711F16091D6001496ED9187
S1133000FC911597938182812581981B9223848159
S1133010981761F0838126952823C081D181C20F3E
S1133020D11D68838F5F9581892383831696ED91E3
S1133030FC911797309711F0CD011995FF91EF91FD
S1133040DF91CF91BF91AF919F918F917F916F91BC
S11330505F914F913F912F910F900BBE0F900FBE38
S11330600F901F9018951F920F920FB60F92112474
S11330700BB60F922F938F939F93AF93BF93EF93BE
S1133080FF93E0916408F09165083097B9F00280ED
S1133090F381E02D938182819817B1F0928185812B
S11330A0282F26952923A081B181A20FB11D2C912F
S11330B09F5F892382832093D6000BC0E1EDF0E06B
S11330C080818F7D808305C0E1EDF0E080818F7D7C
S11330D08083FF91EF91BF91AF919F918F912F9139
S11330E00F900BBE0F900FBE0F901F9018951F925C
S11330F00F920FB60F9211240BB60F922F933F939A
S11331004F935F936F937F938F939F93AF93BF93EB
S1133110CF93DF93EF93FF93A0916608B091670874
S1133120109711F1609136011496ED91FC91159769
S1133130938182812581981B92238481981761F061
S1133140838126952823C081D181C20FD11D688334
S11331508F5F9581892383831696ED91FC91179750
S1133160309711F0CD011995FF91EF91DF91CF9137
S1133170BF91AF919F918F917F916F915F914F918B
S11331803F912F910F900BBE0F900FBE0F901F9089
S113319018951F920F920FB60F9211240BB60F922F
S11331A02F938F939F93AF93BF93EF93FF93E091EC
S11331B06608F09167083097B9F00280F381E02D3A
S11331C0938182819817B1F092818581282F269569
S11331D02923A081B181A20FB11D2C919F5F892366
S11331E08283209336010BC0E1E3F1E080818F7D7F
S11331F0808305C0E1E3F1E080818F7D8083FF91CE
S1133200EF91BF91AF919F918F912F910F900BBE32
S11332100F900FBE0F901F901895FC01411102C032
S11332200E943826842F90E09C012150310982238A
S11332309323892B11F00E943826413810F00E9404
S11332403826128213824483440F4150458371838C
S1133250608380E090E00895E4E3FAE02DEF3EE13E
S11332603183208320E03FE1338322832BE03FE15D
S1133270358324832FE03FE13783268325E13FE133
S11332803187208721E23FE13387228726E23FE12D
S11332903587248722E33FE13787268722E13FE110
S11332A0318B208B27E33FE1338B228B24E43FE1F6
S11332B0358B248B682FCF013BC108956530F1F421
S11332C0FA0180818F7390E0982F88272181822BC7
S11332D090931F0280931E028281F0E48F9FC001AD
S11332E01124FA01238126952695822B90931D02A1
S11332F080931C0281E0809368080895643051F043
S113330080E090E490931D0280931C0290931F022E
S113331080931E0208950F931F930EE519E120E098
S113332034E244EF50E060E087E2EBD790936A0820
S11333308093690821E0892B09F020E0822F1F91F6
S11333400F9108958091690890916A08009759F047
S113335040E060E070E00E94D221843031F41092A9
S1133360680880E0089582E0089583E008958091DC
S1133370690890916A08009739F064E00E941E225F
S1133380853021F083E0089582E0089580E0089577
S113339060911E0270911F0280E090E00E94E02381
S11333A020E030E048EC52E40E94492420E038EF69
S11333B04FE756E40C947523089560911C027091B4
S11333C01D0280E090E00E94E02320E030E045E22E
S11333D053E40E94492420E038EF4FE756E40E946A
S11333E0752320E030E040E252E40C940E2308956B
S11333F0CF93DF9390E0FC01EE0FFF1FE80FF91F5E
S1133400EE0FFF1FE559F74F238121110AC0EF0189
S1133410E0913C0AF0913D0A6A818881998119956D
S113342012C0DC01AA0FBB1FED01C80FD91FCC0FBE
S1133430DD1FC559D74FE091460AF091470A6A81CA
S1133440888199811995DF91CF910895CF93DF9366
S113345090E0FC01EE0FFF1FE80FF91FEE0FFF1FB6
S1133460E559F74F238121110AC0EF01E091460A83
S1133470F091470A6A8188819981199512C0DC010B
S1133480AA0FBB1FED01C80FD91FCC0FDD1FC559F3
S1133490D74FE0913C0AF0913D0A6A818881998175
S11334A01995DF91CF91089581E095E00E948926D6
S11334B00F2EF4E3CF2EFAE0DF2EF02D04E0CBE65E
S11334C0D8E010E08C81813069F0E8F0823039F581
S11334D0D6011C96ED91FC911D976A818881998192
S11334E019951DC08D818F5F8A3010F48D8317C0AC
S11334F01D82D6011C96ED91FC911D976A818881ED
S1133500998119950CC08D81882331F0812F9EDF1C
S11335108D8181508D8303C00C83812F69DF1F5FF0
S11335202696143079F685E090E00E947C0FC7CF90
S1133530CF92DF92EF92FF920F931F93CF93DF937B
S1133540062F0F2EF4E3EF2EFAE0FF2EF02DD70115
S11335501896ED91FC91199766E087E290E0199531
S1133560CBE6D8E00F2EF8E2CF2ED12CF02DD98265
S1133570C88286E08A831B8214E01C8380E038DFE3
S1133580D7011896ED91FC91199767E087E290E0D6
S11335901995DF82CE8287E0888719861A8781E0B1
S11335A027DFD7011896ED91FC91199765E083E325
S11335B090E01995D7011896ED91FC91199761E067
S11335C084E390E0199584E390E09D878C8785E0FF
S11335D08E871F86188B82E00BDFD7011896ED913A
S11335E0FC91199764E081E091E01995D701189650
S11335F0ED91FC91199761E082E091E0199582E0E8
S113360091E09B8B8A8B1C8B1D8A1E8B83E0F0DEE2
S1133610E12CF12C20E030E040EC50E068E175E072
S113362084E59AE10E94E40CDF91CF911F910F9100
S1133630FF90EF90DF90CF9008950F931F93CF9357
S1133640DF931F921F92CDB7DEB78C0119822DC074
S1133650E091E708EC3250F481E08E0F8093E708A4
S1133660F0E0E95EF64F8A81808302C01092E70899
S11336708A818A30D1F44091E70850E0FA01EB5E88
S1133680F64F1082415051099E012F5F3F4F67E171
S113369079E08091E8089091E9080E94950B89816E
S11336A081110E94F2051092E708BE016E5F7F4F00
S11336B0C8013FDB882361F20F900F90DF91CF9117
S11336C01F910F9108950F931F93CF93DF938C0154
S11336D0EB018091E8089091E9080E94560BB8012B
S11336E083E898E00E945726209779F0E3E8F8E011
S11336F001900020E9F7319780E290E09183808384
S1133700BE0183E898E00E944C26E3E8F8E0DF017C
S11337100D900020E9F711978DE09AE011969C93A3
S11337208E9312961C9201900020E9F73197E3588A
S1133730F840AE2F83E898E0AC016A2F8091EA0844
S11337409091EB08A6DA81110FC028E235E04DE232
S113375050E061E779E08091E8089091E9080E94DF
S1133760D70B81E799E002C080E090E0DF91CF9130
S11337701F910F910895AF92BF92CF92DF92EF9273
S1133780FF920F931F93CF93DF936C01FC01019081
S11337900020E9F731977F01E81AF90A04EA17E0F3
S11337A0C0E0D0E0F80160817181A701C6010E94E8
S11337B05E26892B49F4FE01EE0FFF1FEC0FFD1F5F
S11337C0ED55F84F808107C021960D5F1F4FC13121
S11337D0D10541F780E1DF91CF911F910F91FF90C7
S11337E0EF90DF90CF90BF90AF9008956CDFC3CF80
S11337F008958091E8089091E9080C94560B089577
S11338008F929F92AF92CF92EF920F93CF93C82F44
S113381041E060E070E088EC90E00E942A0B909315
S1133820E9088093E8080F2EFDE18F2EFBE19F2E1F
S1133830F02D6894AA24A6F86894CC24C6F8E12C48
S113384000E023E040E051EE60E070E08C2F5DD9B1
S11338509093EB088093EA08E0913C0AF0913D0ACA
S113386064E087E091E01995CF910F91EF90CF90AC
S1133870AF909F908F900895882349F0E091460A75
S1133880F091470A64E088E091E019950895E09189
S11338903C0AF0913D0A64E088E091E019950895AE
S11338A060E070E08FE395E00EDFE1E7F9E001907E
S11338B00020E9F73197E157F94081E0759708F066
S11338C080E00895CF93DF93EC0160E070E080E541
S11338D095E0F9DEE1E7F9E001900020E9F7E2582C
S11338E0F94039F461E779E0CE010E94572680E07F
S11338F002C0188281E0DF91CF910895FC0101900C
S11339000020E9F79F01215131092817390729F4CB
S1133910BC018EE795E06ACF089589E00895FC0123
S113392001900020E9F79F01215131092817390737
S113393029F4BC018DE895E059CF089589E00895F4
S1133940FC0101900020E9F79F0121523109281759
S1133950390729F4BC018CE995E048CF089589E042
S1133960089560E070E08BED95E040CF0895E82F76
S1133970F0E0EE0FFF1FE156F84F6081718184EE95
S113398095E034DF811112C028E235E04DE250E0C9
S113399061E779E08091E8089091E9080E94D70BEB
S11339A0882321F081E799E0E6CE089581E799E044
S11339B0E2CE0895CF93DF931F92CDB7DEB7DB013C
S11339C011969C911197953108F087C0992381F144
S11339D060E070E0272F30E0462F50E0FD01E40F57
S11339E0F51F928192959F709A3010F0995C01C0F6
S11339F0905DF901EE5FF64F90832F5F3F4FFD011D
S1133A00E40FF51F92819F70492F50E04A30510511
S1133A1014F0995C01C0905DF901EE5FF64F90835C
S1133A207E5F6F5F11969C911197691798F201C0A0
S1133A3070E0E72FF0E0EE5FF64F10824C918111B9
S1133A4003C08DEE95E002C08FEE95E022E039E0F0
S1133A503F932F931F924F939F938F9383EF95E000
S1133A609F938F9384E499E09F938F930E94B92648
S1133A7060E070E084E499E0B9DE0FB6F894DEBF4C
S1133A800FBECDBF8E3051F587E08983BE016F5FD5
S1133A907F4F81E799E03CD18093EC08E981F0E025
S1133AA0EF58F64FDF010D900020E9F71197AE1B98
S1133AB0BF0BAA2381F0BB271197CD010AF401960D
S1133AC0959587958093ED08AF014F5F5F4F64E153
S1133AD08EEE98E049D18EE001C084E10F90DF9131
S1133AE0CF910895813019F063E076E002C063EC71
S1133AF076E087E096E07ACE08952F923F924F9237
S1133B005F926F927F928F929F92AF92BF92CF9269
S1133B10DF92EF92FF920F931F93CF93DF93CDB772
S1133B20DEB7A0970FB6F894DEBF0FBECDBF6CE42E
S1133B3076E088E596E0C7DD1EDE8111A3C080E251
S1133B40E1E2F2E0DE01119601900D928A95E1F72F
S1133B509E012F5F3F4F6901E12CF12C0F2EF4E6FB
S1133B60AF2EF6E0BF2EF02D04E419E00F2EFDE792
S1133B704F2EF6E05F2EF02D0F2EF4E98F2EF6E097
S1133B809F2EF02D0F2EFEEA6F2EF6E07F2EF02DE5
S1133B903E2C2F2CFF92EF92BF92AF921F930F9364
S1133BA00E94B92660E070E0C8018DDDE4DD0F906D
S1133BB00F900F900F900F900F90811163C032E01F
S1133BC03E15E8F4F60183818F9382818F9381817E
S1133BD08F9380818F93FF92EF925F924F921F9306
S1133BE00F930E94B92660E070E0C8016CDDC3DD6C
S1133BF00FB6F894DEBF0FBECDBF811143C02F9224
S1133C003F929F928F921F930F930E94B92660E078
S1133C1070E0C80158DDAFDD0F900F900F900F904A
S1133C200F900F9081112EC02F923F927F926F922E
S1133C301F930F930E94B92660E070E0C80143DD32
S1133C409ADD0F900F900F900F900F900F908111AD
S1133C5019C03FEFE31AF30A84E0C80ED11C98E0C0
S1133C60E916F10409F094CF60E070E086EC96E088
S1133C702ADD81DD811106C060E070E087ED96E009
S1133C8022DD79DDA0960FB6F894DEBF0FBECDBF5E
S1133C90DF91CF911F910F91FF90EF90DF90CF9024
S1133CA0BF90AF909F908F907F906F905F904F9058
S1133CB03F902F900895EF92FF920F931F93CF930D
S1133CC0DF93EC018B017A0181E00CDF81110DC0DF
S1133CD0CE0125DE811109C0C80132DE811105C083
S1133CE0C7010CDE811101C03CDEDF91CF911F9131
S1133CF00F91FF90EF90089590E0FC01EE0FFF1FED
S1133D008E0F9F1FFC01ED55F84F8181928108951C
S1133D10DC01009729F1FB012081FC0101900020C6
S1133D20E9F73197E81BF90B822F90E0E817F907C0
S1133D30C8F080E008C0880F382F330F330F830F8B
S1133D408053890F2F5FFD01E20FF11D908130ED4B
S1133D50390F3A3010F49111EECFFB01208308950E
S1133D6080E0089580E008950F931F93CF93DF932D
S1133D70DC01EA012097E1F1FA0101900020E9F762
S1133D803197E41BF50B329710F532C08D01040F07
S1133D90151F30E0AE01420F531FFA019081913498
S1133DA028F09753592F5295507F03C0592F52959D
S1133DB0507F2C0F3D1FF9019181913410F09753DE
S1133DC001C09053950FF80190838F5F01C080E08C
S1133DD0282F220F482F50E0FE0101900020E9F720
S1133DE03197EC1BFD0B4E175F0710F48613CECFF3
S1133DF0DF91CF911F910F910895FC018081089567
S1133E00FC01208181E090E002C0880F991F6A952F
S1133E10E2F782230895FC01808186230895FC0142
S1133E2060830895FC0110820895FC01408121E023
S1133E3030E002C0220F331F6A95E2F7242B20835F
S1133E400895FC012081622B60830895FC01408168
S1133E5021E030E002C0220F331F6A95E2F72427E5
S1133E6020830895FC012081622760830895FC016A
S1133E70908121E030E002C0220F331F6A95E2F7FF
S1133E802095292320830895FC019081609569235E
S1133E90608308958091A109860F8093A109909170
S1133EA0A409913079F028F09230A9F0933019F1F7
S1133EB008956F3F09F048C01092A10981E08093F2
S1133EC0A4090895663809F03FC01092A00982E061
S1133ED08093A4090895E091A00981E08E0F809356
S1133EE0A009F0E0E256F64F6083823069F583E082
S1133EF08093A40908959091A00921E0290F2093AB
S1133F00A009963009F581110EC0EEE9F9E080812F
S1133F1090E0982F88272181820F911D9093A60904
S1133F208093A50904C01092A6091092A5091092C5
S1133F30A409E091A209F091A309309729F0809196
S1133F40A5099091A609199508958F929F92AF9211
S1133F50CF92EF920F93CF93DF93EB010F2EFAE4FE
S1133F608F2EFFE19F2EF02D6894AA24A4F8689464
S1133F70CC24C4F8E12C00E023E040E855E260E002
S1133F8070E00E9485159093A8098093A709D093A7
S1133F90A309C093A209DF91CF910F91EF90CF9025
S1133FA0AF909F908F90089565360CF064E66C395D
S1133FB00CF46CE996EF6902B00111246854744F53
S1133FC0811105C0709329016093280108957093AD
S1133FD02B0160932A010895EAE0F1E08081886171
S1133FE080838FE39CE9909327018093260160E00E
S1133FF080E0DADF60E081E0D7DFE0E2F1E08081B9
S1134000826A8083E1E2F1E080818A61808308959D
S1134010E091B109F091B209309709F0199508952A
S11340206450623008F03BC02091B009223079F02E
S113403018F4213031F030C0233081F02430A1F065
S11340402BC022E02093B00961E0F8C10895FA0181
S113405080818093AD0982E0DBCF089524E0209332
S1134060B00964E0EBC10895FA01818190E0982FD2
S113407088272081822B9093AC098093AB0983819C
S113408090E0982F88272281822B9093AA0980930D
S1134090A90981E0BDCF089580E0BACF08951092B8
S11340A0B00986E0B5CF08952091B3093091B409E1
S11340B02115310541F0462FBC01C90173D182306D
S11340C021F080E0089587E0089585E008950F9336
S11340D01F939093B2098093B10900E110E220E0AC
S11340E034E244EF50E060E089E20BD19093B409EC
S11340F08093B309892B11F080E001C088E01F91FF
S11341000F910895CF93DF931F921F92CDB7DEB71F
S113411080EA898383E08A831092B00962E0CE0149
S11341200196C2DF0F900F90DF91CF9108952F92E7
S11341303F924F925F926F927F928F929F92AF9233
S1134140BF92CF92DF92EF92FF920F931F93CF9380
S1134150DF93C091A909D091AA09CF3F2FEFD207CD
S113416041F06091AB097091AC096F3FEFEF7E07AE
S113417059F44FEF5FEF6FE77FE7FC014083518312
S11341806283738383E099C01C0180E090E018D3BC
S11341902B013C01BE0180E090E012D34B015C0195
S11341A08091AE0990E0019624E6289FB001299FF2
S11341B0700D11248091AF09803269F08033A1F031
S11341C08031E1F40F2EC12CD12CF8ECEF2EF1E468
S11341D0FF2EF02D1BC00F2EC12CD12CF6EDEF2E8F
S11341E0F3E4FF2EF02D12C00F2EC12CF0E5DF2ECC
S11341F0FAE1EF2EF6E4FF2EF02D08C00F2EC12CAD
S1134200D12CF0E8EF2EFFE3FF2EF02D072E000C4B
S1134210880B990BD7D2A70196013BD320E030E05D
S11342204CEC53E462D26B017C0125E83BEE41ED9A
S11342305FE3C501B4012DD39B01AC01C301B201FD
S1134240EDD1A701960151D2162FD72FC82F092FD0
S11342502DE33AE047E15FE3C301B2011AD32B0136
S11342603C0126EF38E24CE55FE3C501B40111D30C
S11342709B01AC01C301B201D1D1A701960135D292
S1134280C62ED72EE82EF92E262F372F482F592F3A
S1134290612F7D2F8C2F902FF8D2181624F01C2D0F
S11342A0DD2DCE2D0F2D412F5D2F6C2F702FF101A1
S11342B0408351836283738380E0DF91CF911F91A8
S11342C00F91FF90EF90DF90CF90BF90AF909F90B1
S11342D08F907F906F905F904F903F902F900895B4
S11342E08091C30981110CC08CE08093B8008FEFDA
S11342F08093BB0084E08093BC0081E08093C30979
S11343000895AF92BF92CF92DF92EF92FF920F93F4
S11343101F93CF93DF93A82EB62E69017A0184E010
S113432090E085D3EC01892B61F1A88281E0B81279
S113433012C0C701B60120EA36E841E050E033D3A9
S1134340DA01C9014097A109B109B695A7959795D6
S11343508795898311C0C701B60120E83AE146E098
S113436050E021D3DA01C9014097A109B109B695FA
S1134370A7959795879589831B830A838C2F9D2FF7
S113438002C080E090E0DF91CF911F910F91FF90E8
S1134390EF90DF90CF90BF90AF9008958091BC00D4
S11343A081700895FF920F931F93CF93DF9300972B
S11343B0D1F14A30D0F5F42E8B01EC01EFDF8111FD
S11343C036C08091B6099091B709C817D90741F052
S11343D087DF89818093B800D093B709C093B60969
S11343E081E08F0D8093B8098881880F8093B90983
S11343F0FF2089F0F801AAEBB9E04FEF4F0D642FCD
S113440070E0CB010196B801680F791F81918D93FB
S1134410E617F707D9F788EF8093200285EA80939F
S1134420BC0084E005C086E003C087E001C082E0F0
S1134430DF91CF911F910F91FF9008951F93CF9318
S1134440DF93009729F16B3028F5162FEC01A6DFD6
S1134450811122C08091B6099091B709C817D90774
S113446041F03EDF89818093B800D093B709C093AF
S1134470B6091093B8098881880F81608093B909BF
S113448088EF8093200285EA8093BC0085E005C014
S113449086E003C087E001C082E0DF91CF911F91E5
S11344A008951F920F920FB60F9211240BB60F921C
S11344B02F933F934F935F936F937F938F939F9328
S11344C0AF93BF93EF93FF93E091B9008E2F90E0E9
S11344D0FC013897E135F10508F075C08827E458E8
S11344E0FF4F8F4F82C21092B509E091B5098091B8
S11344F0B809E81770F481E08E0F8093B509F0E0F5
S1134500E754F64F80818093BB0085E88093BC001C
S113451072C084E98093BC008091B6099091B70978
S1134520DC011296ED91FC911397309709F463C066
S113453020E040E050E064E019955DC0E091B509E9
S113454081E08E0F8093B5098091BB00F0E0E754C1
S1134550F64F80838091B900803411F41092B5092C
S11345602091B50930E08091B80990E001972817AF
S1134570390724F485EC8093BC003DC085E8809322
S1134580BC0039C08091BB00E091B509F0E0E7546C
S1134590F64F808384E98093BC008091B6099091A2
S11345A0B709DC011296ED91FC911397309719F13C
S11345B02091B80949EB59E065E019951CC085EADA
S11345C08093BC0018C08091B9008093200284E0DD
S11345D08093BC008091B6099091B709DC011296D2
S11345E0ED91FC911397309731F020E040E050E0DA
S11345F0609120021995FF91EF91BF91AF919F9126
S11346008F917F916F915F914F913F912F910F9077
S11346100BBE0F900FBE0F901F9018955058BB27DC
S1134620AA270ED021C112D130F017D120F031F4D5
S11346309F3F11F41EF407C10EF4E095E7FBFDC0A3
S1134640E92F0E94151578F3BA17620773078407D8
S1134650950720F079F4A6F50C9437150EF4E0953F
S11346600B2EBA2FA02D0B01B90190010C01CA0128
S1134670A0011124FF27591B99F0593F50F4503ED3
S113468068F11A16F040A22F232F342F4427585FC5
S1134690F3CF469537952795A795F0405395C9F7DD
S11346A07EF41F16BA0B620B730B840BBAF0915095
S11346B0A1F0FF0FBB1F661F771F881FC2F70EC034
S11346C0BA0F621F731F841F48F487957795679507
S11346D0B795F7959E3F08F0B1CF9395880F08F0F2
S11346E09927EE0F9795879508950DD0BDC0B5D045
S11346F048F0ACD038F021F45F3F21F09EC0511156
S11347000C943815A0C00E94151588F39923B9F3A9
S11347105523A1F3951B550BBB27AA2762177307D3
S1134720840738F09F5F5F4F220F331F441FAA1F77
S1134730A9F334D00E2E3AF0E0E831D09150504035
S1134740E695001CCAF72AD0FE2F28D0660F771FE3
S1134750881FBB1F261737074807AB07B0E809F0C7
S1134760BB0B802DBF01FF2793585F4F32F09E3F54
S1134770510570F062C00C9438155F3FE4F3983E25
S1134780D4F3869577956795B795F7959F5FC9F7A5
S1134790880F911D9695879597F90895E1E0660F26
S11347A0771F881FBB1F621773078407BA0720F09F
S11347B0621B730B840BBA0BEE1F88F7E095089508
S11347C0E89409C097FB3EF49095809570956195A7
S11347D07F4F8F4F9F4F9923A9F0F92F96E9BB275D
S11347E09395F695879577956795B795F111F8CFD9
S11347F0FAF4BB0F11F460FF1BC06F5F7F4F8F4F44
S11348009F4F16C0882311F096E911C0772321F039
S11348109EE8872F762F05C0662371F096E8862FD1
S113482070E060E02AF09A95660F771F881FDAF728
S1134830880F9695879597F9089597F99F6780E86B
S113484070E060E008959FEF80EC089500240A94DE
S11348501616170618060906089500240A94121657
S11348601306140605060895092E0394000C11F48A
S1134870882352F0BB0F40F4BF2B11F460FF04C037
S11348806F5F7F4F8F4F9F4F089569D008F48FEF6C
S113489008950CD0E9CFDADF28F0DFDF18F0952394
S11348A009F0CBCFD0CF11240C9438150E941515E4
S11348B090F3959FC1F3950F50E0551F629FF0014F
S11348C0729FBB27F00DB11D639FAA27F00DB11D88
S11348D0AA1F649F6627B00DA11D661F829F222711
S11348E0B00DA11D621F739FB00DA11D621F839F98
S11348F0A00D611D221F749F3327A00D611D231F6E
S1134900849F600D211D822F762F6A2F11249F57BB
S1134910504092F0E9F088234AF0EE0FFF1FBB1FCE
S1134920661F771F881F91505040A9F79E3F51057D
S113493078F083CF0C9438155F3FE4F3983ED4F3BA
S1134940869577956795B795F795E7959F5FC1F736
S1134950FE2B880F911D9695879597F90895990FC9
S11349600008550FAA0BE0E8FEEF16161706E80735
S1134970F907C0F012161306E407F50798F0621B56
S1134980730B840B950B39F40A2661F0232B242B2B
S1134990252B21F408950A2609F4A140A6958FEF4A
S11349A0811D811D0895A1E21A2EAA1BBB1BFD01C6
S11349B00DC0AA1FBB1FEE1FFF1FA217B307E407FA
S11349C0F50720F0A21BB30BE40BF50B661F771F52
S11349D0881F991F1A9469F7609570958095909532
S11349E09B01AC01BD01CF010895EE0FFF1F881F8D
S11349F08BBF0790F691E02D19940F931F93CF93DB
S1134A00DF93869F8001879F100D969F100D1124C0
S1134A10C8010DD0EC01009721F0A80160E070E01E
S1134A2034D1CE01DF91CF911F910F9108950F934F
S1134A301F93CF93DF938230910510F482E090E0CE
S1134A40E0914C0AF0914D0A20E030E0A0E0B0E0A3
S1134A50309719F140815181028113814817590718
S1134A60C8F08417950769F4109731F012960C93E7
S1134A70129713961C9327C000934C0A10934D0A67
S1134A8022C02115310519F04217530718F49A0171
S1134A90BD01EF01DF01F801DBCF21153105F9F08C
S1134AA0281B390B2430310580F48A819B816115E0
S1134AB0710521F0FB019383828304C090934D0A16
S1134AC080934C0AFE01329644C0FE01E20FF31FAC
S1134AD08193919322503109398328833AC02091DC
S1134AE04A0A30914B0A232B41F42091020230915F
S1134AF0030230934B0A20934A0A2091000230911A
S1134B0001022115310541F42DB73EB7409104024D
S1134B1050910502241B350BE0914A0AF0914B0A8F
S1134B20E217F307A0F42E1B3F0B2817390778F080
S1134B30AC014E5F5F4F2417350748F04E0F5F1FDF
S1134B4050934B0A40934A0A8193919302C0E0E048
S1134B50F0E0CF01DF91CF911F910F910895CF9392
S1134B60DF93009709F481C0FC013297138212820B
S1134B70A0914C0AB0914D0A109781F420813181A3
S1134B80820F931F20914A0A30914B0A2817390744
S1134B9051F5F0934B0AE0934A0A67C0ED0120E017
S1134BA030E0CE17DF0740F44A815B819E01411556
S1134BB05105F1F0EA01F5CFD383C28340815181DD
S1134BC0840F951FC817D90759F488819981840FD8
S1134BD0951F0296918380838A819B81938382832C
S1134BE02115310529F4F0934D0AE0934C0A3DC098
S1134BF0E901FB83EA8349915991C40FD51FEC174E
S1134C00FD0761F480819181840F951F0296E9016B
S1134C1099838883828193819B838A83E0E0F0E097
S1134C2012968D919C911397009719F0FD01DC0168
S1134C30F7CF8D919C9111979D012E5F3F4F820F6D
S1134C40931F20914A0A30914B0A2817390769F4B7
S1134C50309729F410924D0A10924C0A02C0138224
S1134C601282B0934B0AA0934A0ADF91CF91089520
S1134C7081E090E0F89458C3FB01DC0102C001908C
S1134C800D9241505040D8F70895DC0101C06D9356
S1134C9041505040E0F70895FB01DC010D900020E5
S1134CA0E9F7119701900D920020E1F70895FB01B7
S1134CB0DC0101900D920020E1F70895FB01DC0175
S1134CC04150504088F08D9181341CF08B350CF4A8
S1134CD0805E619161341CF06B350CF4605E861B60
S1134CE0611171F3990B0895881BFCCFCF93DF9367
S1134CF0CDB7DEB7AE014A5F5F4FFA0161917191A2
S1134D00AF018091500A9091510A61D0DF91CF9107
S1134D1008950F931F93CF93DF93E091500AF0917E
S1134D20510A238121FF1BC08C01D0E0C0E0F801AF
S1134D3081918F016091500A7091510ADB0118969C
S1134D40ED91FC911997882331F01995892B79F30A
S1134D50DFEFCFEFECCF8AE01995892B19F08FEFB5
S1134D609FEF02C08D2F9C2FDF91CF911F910F9148
S1134D7008950F931F93CF93DF93CDB7DEB72E978C
S1134D800FB6F894DEBF0FBECDBF0E891F8986E033
S1134D908C831A8309838FEF9FE79E838D83AE01F3
S1134DA0465E5F4F688D798DCE01019610D0EF81FC
S1134DB0F885E00FF11F10822E960FB6F894DEBF2F
S1134DC00FBECDBFDF91CF911F910F9108952F9208
S1134DD03F924F925F926F927F928F929F92AF9287
S1134DE0BF92CF92DF92EF92FF920F931F93CF93D4
S1134DF0DF93CDB7DEB72B970FB6F894DEBF0FBEA7
S1134E00CDBF6C017B018A01FC011782168283816C
S1134E1081FFBFC1CE0101963C01F6019381F701E8
S1134E2093FD859193FF81917F01882309F4ADC19E
S1134E30853239F493FD859193FF81917F01853209
S1134E4021F4B60190E0D6D1E8CF912C212C312C5D
S1134E50FFE1F315D8F08B3279F038F4803279F031
S1134E608332A1F4232D20611DC08D3261F0803383
S1134E7069F4232D216016C0832D8260382EE32D22
S1134E80E4603E2E2AC0F32DF8601DC037FC2DC00F
S1134E9020ED280F2A3040F08E32B9F436FC75C16B
S1134EA0232D2064322E19C036FE06C08AE0989E57
S1134EB0200D1124922E11C0EAE02E9E200D112403
S1134EC0222EF32DF0623F2E08C08C3621F4832D60
S1134ED08068382E02C0883641F4F70193FD85912D
S1134EE093FF81917F018111B3CF982F9F7D9554BA
S1134EF0933028F40C5F1F4F9FE399830DC08336D2
S1134F0031F0833771F0833509F055C020C0F801C2
S1134F10808189830E5F1F4F88248394912C5301D1
S1134F2012C02801F2E04F0E511CF801A080B1809C
S1134F3036FE03C0692D70E002C06FEF7FEFC5013C
S1134F404ED14C018201F32DFF773F2E15C028016D
S1134F5022E0420E511CF801A080B18036FE03C04D
S1134F60692D70E002C06FEF7FEFC5012DD14C01B8
S1134F70F32DF0683F2E820133FC19C0822D90E09E
S1134F8088169906A0F4B60180E290E033D12A9401
S1134F90F5CFF50137FC859137FE81915F01B601AC
S1134FA090E028D121102A9421E0821A91088114DA
S1134FB0910479F7E1C0843611F0893639F5F801A6
S1134FC037FE07C060817181828193810C5F1F4F1E
S1134FD008C060817181072E000C880B990B0E5F4D
S1134FE01F4FF32DFF763F2E97FF09C090958095B4
S1134FF0709561957F4F8F4F9F4FF0683F2E2AE049
S113500030E0A30133D1882E861844C0853731F4AB
S1135010232D2F7EB22E2AE030E025C0932D997FD8
S1135020B92E8F36C1F018F4883579F0AEC08037C8
S113503019F0883721F0A9C0E92FE061BE2EB4FE33
S11350400DC0FB2DF460BF2E09C034FE0AC0292F09
S11350502660B22E06C028E030E005C020E130E032
S113506002C020E132E0F801B7FE07C0608171811F
S1135070828193810C5F1F4F06C06081718180E043
S113508090E00E5F1F4FA301F1D0882E8618FB2DF0
S1135090FF773F2E36FE0DC0232D2E7FA22E8914BE
S11350A058F434FE0BC032FC09C0832D8E7EA82E2A
S11350B005C0B82CA32C03C0B82C01C0B92CA4FE85
S11350C00FC0FE01E80DF11D8081803321F49A2D7B
S11350D0997EA92E09C0A2FE06C0B394B39404C05D
S11350E08A2D867809F0B394A3FC10C0A0FE06C0F4
S11350F0B21480F4280C922C9B180DC0B21458F4EE
S1135100B60180E290E076D0B394F8CFB21418F4EC
S11351102B1802C0982C212CA4FE0FC0B60180E3EA
S113512090E068D0A2FE16C0A1FC03C088E790E01E
S113513002C088E590E0B6010CC08A2D867851F053
S1135140A1FE02C08BE201C080E2A7FC8DE2B601A1
S113515090E050D0891430F4B60180E390E04AD056
S11351609A94F8CF8A94F301E80DF11D8081B60179
S113517090E040D08110F6CF222009F44ECEB60143
S113518080E290E037D02A94F7CFF60186819781A8
S113519002C08FEF9FEF2B960FB6F894DEBF0FBEC1
S11351A0CDBFDF91CF911F910F91FF90EF90DF90D2
S11351B0CF90BF90AF909F908F907F906F905F90B3
S11351C04F903F902F900895FC01059061507040DE
S11351D00110D8F7809590958E0F9F1F0895FC01BC
S11351E06150704001900110D8F7809590958E0F12
S11351F09F1F08950F931F93CF93DF93FB01238188
S113520021FD03C08FEF9FEF2CC022FF16C0468103
S11352105781248135814217530744F4A081B18119
S11352209D012F5F3F4F318320838C9326813781EB
S11352302F5F3F4F3783268314C08B01EC01FB01A2
S11352400084F185E02D1995892BE1F6D801169695
S11352508D919C911797019617969C938E93169710
S1135260CE01DF91CF911F910F910895FA01AA27E2
S1135270283051F1203181F1E8946F936E7F6E5F95
S11352807F4F8F4F9F4FAF4FB1E03ED0B4E03CD043
S1135290670F781F891F9A1FA11D680F791F8A1F26
S11352A0911DA11D6A0F711D811D911DA11D20D08D
S11352B009F468943F912AE0269F11243019305D47
S11352C03193DEF6CF010895462F4770405D419338
S11352D0B3E00FD0C9F7F6CF462F4F70405D4A3385
S11352E018F0495D31FD4052419302D0A9F7EACF4D
S11352F0B4E0A6959795879577956795BA95C9F77C
S113530000976105710508959B01AC010A2E06946E
S11353105795479537952795BA95C9F7620F731F27
S10F5320841F951FA01D0895F894FFCF72
S113532C0000540A20000000000300000000531584
S113533C3E150000C600CE00D600360100400040E9
S113534CF8A027BE33E034C1332042C43360E5AE49
S113535C33A0F2B133E0FFB433200DB833601ABB81
S113536C3354656D702073656E736F722073746142
S113537C7274212121007469636B202564007465A7
S113538C6D702D77616B65206572726F723A202592
S113539C640A0054656D702D7265616420657272C7
S11353AC6F723A2025640A0048756D3A20256420F2
S11353BC2054656D703A2025640A00434F32206CEA
S11353CC6576656C3A2025750A004C69676874200B
S11353DC73656E736F72206E6F742072656164797D
S11353EC004C696768743A2025640A004C7578206F
S11353FC6F766572666C6F7700434F322073656EFF
S113540C736F723A202564004C6967687420736565
S113541C6E736F7220737461727421212100466162
S113542C696C656420746F206665746368206C69AC
S113543C67687420646174613A2025640A00506CB6
S113544C616E7420686173206265656E2077617487
S113545C657265642121212100466163746F727940
S113546C52657374203E25733C0A00436F6E666963
S113547C6775726520746F204555383638203E2583
S113548C733C0A004765742048574555493A202512
S113549C73203E25733C200A0053657420446576C2
S11354AC4555493A202573203E25733C0A0030317A
S11354BC3863633235663732346138353137636279
S11354CC66643736336463313132363631340063D3
S11354DC35336538663966313038303166633400BB
S11354EC536574204F544141204964656E7469744A
S11354FC79206170704555493A2573206170704B61
S113550C45593A2573206465764555493A257320E7
S113551C3E25733C0A0053617665206D6163203E21
S113552C25733C0A00536574204164617074697678
S113553C65204461746120526174653A204F4E2099
S113554C3E25733C0A004A6F696E204E6574776F72
S113555C726B2054726965734C6566743A256420C9
S113556C3E25733C0A0048414C4C4F20544845524C
S113557C450055706C6F6164204D6573736167658C
S113558C203E25733C0A0054656D70657261747518
S113559C7265206D6561737572656D656E74004C12
S11355AC6564004661696C656420746F20696E697A
S11355BC7469616C697A652074656D706572617467
S11355CC7572652073656E736F72004661696C65E4
S11355DC6420746F20696E697469616C697A6520E2
S11355EC6C696768742073656E736F723A202564F6
S11355FC0A004661696C656420746F20656E616293
S113560C6C65206C696768742073656E736F7220A7
S113561C25640A0049444C4500546D72205376634A
S113562C0048414C206C6564207461736B20737466
S113563C617274656421210048414C5F4C454400FF
S113564C737973207265736574006D616320706186
S113565C757365006D616320726573756D65007398
S113566C797320666163746F7279524553455400A3
S113567C73797320676574206877657569006D614B
S113568C63206765742067776E62006D61632073B5
S113569C6574206C696E6B63686B202564006D61A6
S11356AC632073657420646576657569006D616348
S11356BC2073657420617070657569006D61632079
S11356CC736574206170706B6579006D6163207310
S11356DC6574206E776B736B6579006D61632073F1
S11356EC657420617070736B6579006D61632073F0
S11356FC65742064657661646472006D6163207303
S113570C617665006D6163206A6F696E00756E6306
S113571C6E66006D616320747820257320256420E7
S113572C2573006F6666006D616320736574206178
S113573C6472006D61632067657420616472006D2E
S113574C616320736574206472202564006D616349
S113575C20676574206472006D6163207365742026
S113576C727864656C617931202564003320383695
S113577C39353235303030006D61632073657420F7
S113578C727832006D6163207365742063682064E1
S113579C6379636C6520256420373939006D616346
S11357AC20736574206368206672657120256420FB
S11357BC256C75006D6163207365742063682064C7
S11357CC7272616E676520256420302037006D612C
S11357DC632073657420636820737461747573201B
S11357EC2564206F6E006D6163207365742070777F
S11357FC726964782031006D616320736574207262
S113580C6574782037006F74616100616270004BBD
S113581C4559535F4E4F545F494E4954004E4F5FA8
S113582C465245455F43480053494C454E5400424B
S113583C555359004D41435F504155534544004421
S113584C454E494544004143434550544544004961
S113585C4E56414C49445F504152414D004E4F54B9
S113586C5F4A4F494E454400494E56414C49445FAA
S113587C444154415F4C454E004652414D455F43B3
S113588C4F554E5445525F4552525F52454A4F490B
S113589C4E5F4E4545444544004D41435F54585F6B
S11358AC4F4B004D41435F52585F4F4B004D4143AA
S11358BC5F4552524F5200554E4B4E4F574E00E6D9
S11358CC06EB06008A0701910702EF0603FD0604A6
S11358DC0807050F07061407071F07082607092FD3
S11358EC070A3D070B48070C59070D79070E830768
S10958FC0F8D0710970751
S9030000FC
