:10000000C2C00000E0C00000DEC00000DCC0000094
:10001000DAC00000D8C00000D6C00000D4C0000084
:10002000D2C00000D0C00000CEC00000CCC0000094
:10003000A4C10000C8C00000C6C00000C4C00000C9
:10004000C2C00000C0C00000BEC00000BCC00000B4
:10005000BAC00000B8C00000B6C00000B4C00000C4
:10006000B2C000006EC40000BEC40000ACC00000FE
:10007000AAC00000A8C00000A6C00000A4C00000E4
:10008000A2C00000A0C000009EC000009CC00000F4
:10009000EEC400003EC5000096C00000C6C60000C9
:1000A00092C0000090C000008EC000008CC0000014
:1000B0008AC0000088C0000086C0000084C0000024
:1000C00082C0000080C000007EC0000066C5000045
:1000D000B6C5000078C00000F6C5000046C60000A6
:1000E00072C000003707A707A707A707A707A7073A
:1000F000A707A7073707A707A707A707A707A70700
:10010000A707A7073907A707A707A707A707A707ED
:10011000A707A707A707A707A707A707A707A7076F
:10012000A707A7073907A707A707A707A707A707CD
:10013000A707A707A707A707A707A707A707A7074F
:10014000A707A707A307A707A707A707A707A70743
:10015000A707A7076E07A707A707A707A707A70768
:10016000A707A707A707A707A707A707A707A7071F
:10017000A707A7076207A707A707A707A707A70754
:10018000A707A707860711241FBECFEFD1E2DEBF66
:10019000CDBF00E00CBF12E0A0E0B2E0E8E2FBE17E
:1001A00000E00BBF02C007900D92A63DB107D9F742
:1001B00023E0A6EDB2E001C01D92AB32B207E1F739
:1001C00003D00C94920D1CCF80E0BBD278948FEFBB
:1001D00087B92FEF80E792E0215080409040E1F70F
:1001E00000C0000081E088B92FEF89E698E1215036
:1001F00080409040E1F700C0000087EC92E00E9450
:10020000B50AF2CFE8E0F1E09081907F9083908191
:100210008F70982B90830895E8E0F1E08081807FD3
:1002200080830895CF93DF939C01FB01DC0111963D
:10023000CD91DC911297D383C2838C819D8195836C
:1002400084838C819D81DC0113967C936E9312973D
:100250007D836C8331872087F90180818F5F808364
:10026000DF91CF910895CF93DF93FC01A085B185F5
:10027000C281D381848195819D838C83C481D58102
:10028000828193819B838A8311968D919C91129791
:10029000E817F90731F48481958112969C938E9327
:1002A0001197118610868C9181508C938C91DF91DF
:1002B000CF9108950F920FB6F8940F920BB60F924C
:1002C0000CB60F921F9211242F923F924F925F9281
:1002D0006F927F928F929F92AF92BF92CF92DF9256
:1002E000EF92FF920F931F932F933F934F935F9340
:1002F0006F937F938F939F93AF93BF93CF93DF932E
:10030000EF93FF93A0910703B09108030DB60D92F0
:100310000EB60D9213BE52D0811107D1A0910703E2
:10032000B0910803CD91CDBFDD91DEBFFF91EF917C
:10033000DF91CF91BF91AF919F918F917F916F91FD
:100340005F914F913F912F911F910F91FF90EF90EF
:10035000DF90CF90BF90AF909F908F907F906F90E5
:100360005F904F903F902F901F900F900CBE0F907A
:100370000BBE0F900FBE0F9008959CDF1895E09173
:10038000E102F091E2028081811107C08FEF9FEFBF
:100390009093D8028093D7020895E091E102F09102
:1003A000E2020580F681E02D0680F781E02D828152
:1003B00093819093D8028093D7020895CF92DF92D1
:1003C000EF92FF920F931F93CF93DF938091D6020A
:1003D000811195C0E090DD02F090DE028FEFE81A07
:1003E000F80AF092DE02E092DD02E114F104B1F4C9
:1003F0008091E1029091E2022091DF023091E002CF
:100400003093E2022093E1029093E0028093DF02B6
:100410008091D9028F5F8093D902B1DF8091D7029A
:100420009091D802E816F90610F4D12C50C0D12CC6
:10043000CC24C394E091E102F091E2028081811129
:1004400007C08FEF9FEF9093D8028093D7023FC0F1
:10045000E091E102F091E2020580F681E02DC68193
:10046000D7818A819B81E816F90628F49093D802F7
:100470008093D7022CC08E010E5F1F4FC801F3DEA0
:100480008C899D89892B19F0CE010C96ECDE8E8922
:100490009091DC02981710F48093DC0290E09C01AC
:1004A000220F331F220F331F220F331F820F931F80
:1004B000B8018D519D4FB6DEE0910703F09108031E
:1004C0009E898689981708F4B5CFDC2CB3CFE091CC
:1004D0000703F0910803868990E0FC01EE0FFF1FEF
:1004E000EE0FFF1FEE0FFF1F8E0F9F1FFC01ED5140
:1004F000FD4F8081823048F0DD24D39406C0809186
:10050000DB028F5F8093DB02D12C8091DA0288239B
:1005100011F0DD24D3948D2DDF91CF911F910F9198
:10052000FF90EF90DF90CF9008958091D6028823BE
:1005300021F081E08093DA0208951092DA02E091CE
:100540000703F091080385A167DEA0910703B0912E
:100550000803E0910703F09108032D913C918789EE
:10056000908D8217930758F06091070370910803EC
:100570008091070390910803675E7F4F62D02091BE
:10058000DC02822F90E0FC01EE0FFF1FEE0FFF1F39
:10059000EE0FFF1FE80FF91FED51FD4F30813111B4
:1005A00011C02150822F90E0FC01EE0FFF1FEE0FD3
:1005B000FF1FEE0FFF1FE80FF91FED51FD4F3081B8
:1005C000332379F3AC01440F551F440F551F440FDB
:1005D000551F480F591FDA01AD51BD4F1196ED91CE
:1005E000FC9112970280F381E02D1296FC93EE931A
:1005F00011974A515D4FE417F50729F44281538161
:10060000FD0152834183FC01EE0FFF1FEE0FFF1F20
:10061000EE0FFF1F8E0F9F1FFC01ED51FD4F01805C
:10062000F281E02D868197819093080380930703E0
:100630002093DC02E0910703F091080385A1E2CD4D
:100640000895279A2F9A2FEF87EA91E6215080404C
:100650009040E1F700C000001F9AF5CF33D088F03A
:100660009F5790F0B92F9927B751A0F0D1F0660F9E
:10067000771F881F991F1AF0BA95C9F712C0B130B9
:1006800081F03AD0B1E0089537C0672F782F8827DE
:10069000B85F39F0B93FCCF3869577956795B395F8
:1006A000D9F73EF490958095709561957F4F8F4F67
:1006B0009F4F089557FD9058440F551F59F05F3FC5
:1006C00071F04795880F97FB991F61F09F3F79F074
:1006D00087950895121613061406551FF2CF4695F6
:1006E000F1DF08C0161617061806991FF1CF869578
:1006F0007105610508940895E894BB27662777275C
:10070000CB0197F90895CF93DF931F92CDB7DEB752
:10071000BE016F5F7F4F8091090390910A03F5D06E
:100720008111F6CF898190E00F90DF91CF910895EC
:10073000682F8091090390910A03C2D080E090E075
:1007400008958F929F92AF92CF92EF920F93812C48
:10075000912C6894AA24A7F86894CC24C7F8E12CBB
:1007600000E023E040E051EE60E070E013D09093B1
:100770000A0380930903E5E2F3E086E092E09183C7
:100780008083938382830F91EF90CF90AF909F905F
:100790008F9008952F923F924F925F926F927F9227
:1007A0008F929F92AF92CF92EF92FF920F931F93EF
:1007B000CF93DF93CDB7DEB7F82E2A013B0188E057
:1007C00090E0A7D58C018F2D90E0880F991FFC0138
:1007D000E55FFC4F11830083FC01EC5EFD4F8081DF
:1007E0009181D8018D939C936C2D70E084E090E012
:1007F00076D51C0161E070E086E090E070D57C0168
:100800004C2DB101F6D2F801F582E4826A2D70E038
:1008100084E090E064D51C0161E070E086E090E047
:100820005ED57C014A2DB101E4D2D8011396FC9229
:10083000EE92129717969C928E921697FFB6F894A6
:10084000ED91FC91119736978081826080838D9025
:100850009C90C301B20173D420E030E040E051E449
:10086000D3D49B01AC0160E074E284E79BE4FFD346
:1008700020E030E040E85FE395D3F0DEF40132970A
:100880006083D801ED91FC911197359788E98083B9
:10089000ED91FC91349786E08083FFBEC801DF9123
:1008A000CF911F910F91FF90EF90CF90AF909F90BD
:1008B0008F907F906F905F904F903F902F90089512
:1008C000CF93DF93EC01EA81FB81938182812581C3
:1008D000981B922384819817A1F093812695292350
:1008E000A081B181A20FB11D6C939F5F25819223DE
:1008F0009383E881F981359780818062808380E0ED
:1009000001C082E0DF91CF910895DC011496ED9152
:10091000FC91159793818281981789F09281858146
:1009200086958923A081B181A80FB11D8C91DB012F
:100930008C939F5F85819823928380E0089583E064
:1009400008951F920F920FB60F9211240BB60F92BB
:100950002F933F934F935F936F937F938F939F93C7
:10096000AF93BF93CF93DF93EF93FF93A0910B03CC
:10097000B0910C03109711F16091C6001496ED919F
:10098000FC911597938182812581981B9223848104
:10099000981761F0838126952823C081D181C20FE9
:1009A000D11D68838F5F9581892383831696ED918E
:1009B000FC911797309711F0CD011995FF91EF91A8
:1009C000DF91CF91BF91AF919F918F917F916F9167
:1009D0005F914F913F912F910F900BBE0F900FBEE3
:1009E0000F901F9018951F920F920FB60F9211241F
:1009F0000BB60F922F938F939F93AF93BF93EF9369
:100A0000FF93E0910B03F0910C033097B9F0028053
:100A1000F381E02D938182819817B1F092818581D5
:100A2000282F26952923A081B181A20FB11D2C91D9
:100A30009F5F892382832093C6000BC0E1ECF0E026
:100A400080818F7D808305C0E1ECF0E080818F7D27
:100A50008083FF91EF91BF91AF919F918F912F91E3
:100A60000F900BBE0F900FBE0F901F9018951F9206
:100A70000F920FB60F9211240BB60F922F933F9344
:100A80004F935F936F937F938F939F93AF93BF9396
:100A9000CF93DF93EF93FF93A0910D03B0910E03DB
:100AA000109711F16091CE001496ED91FC9115977D
:100AB000938182812581981B92238481981761F00C
:100AC000838126952823C081D181C20FD11D6883DF
:100AD0008F5F9581892383831696ED91FC911797FB
:100AE000309711F0CD011995FF91EF91DF91CF91E2
:100AF000BF91AF919F918F917F916F915F914F9136
:100B00003F912F910F900BBE0F900FBE0F901F9033
:100B100018951F920F920FB60F9211240BB60F92D9
:100B20002F938F939F93AF93BF93EF93FF93E09196
:100B30000D03F0910E033097B9F00280F381E02DA0
:100B4000938182819817B1F092818581282F269513
:100B50002923A081B181A20FB11D2C919F5F892310
:100B600082832093CE000BC0E9ECF0E080818F7D82
:100B7000808305C0E9ECF0E080818F7D8083FF9168
:100B8000EF91BF91AF919F918F912F910F900BBEDD
:100B90000F900FBE0F901F9018951F920F920FB6D7
:100BA0000F9211240BB60F922F933F934F935F93A5
:100BB0006F937F938F939F93AF93BF93CF93DF9365
:100BC000EF93FF93A0910F03B0911003109711F1D1
:100BD0006091D6001496ED91FC91159793818281D6
:100BE0002581981B92238481981761F08381269533
:100BF0002823C081D181C20FD11D68838F5F958169
:100C0000892383831696ED91FC911797309711F005
:100C1000CD011995FF91EF91DF91CF91BF91AF91E8
:100C20009F918F917F916F915F914F913F912F9104
:100C30000F900BBE0F900FBE0F901F9018951F9234
:100C40000F920FB60F9211240BB60F922F938F9322
:100C50009F93AF93BF93EF93FF93E0910F03F091B6
:100C600010033097B9F00280F381E02D93818281E7
:100C70009817B1F092818581282F26952923A0818C
:100C8000B181A20FB11D2C919F5F89238283209394
:100C9000D6000BC0E1EDF0E080818F7D808305C040
:100CA000E1EDF0E080818F7D8083FF91EF91BF9136
:100CB000AF919F918F912F910F900BBE0F900FBE10
:100CC0000F901F9018951F920F920FB60F9211243C
:100CD0000BB60F922F933F934F935F936F937F9336
:100CE0008F939F93AF93BF93CF93DF93EF93FF9334
:100CF000A0911103B0911203109711F16091360188
:100D00001496ED91FC911597938182812581981B12
:100D100092238481981761F0838126952823C081CE
:100D2000D181C20FD11D68838F5F95818923838311
:100D30001696ED91FC911797309711F0CD0119950A
:100D4000FF91EF91DF91CF91BF91AF919F918F91E3
:100D50007F916F915F914F913F912F910F900BBEBB
:100D60000F900FBE0F901F9018951F920F920FB605
:100D70000F9211240BB60F922F938F939F93AF93E3
:100D8000BF93EF93FF93E0911103F091120330971B
:100D9000B9F00280F381E02D938182819817B1F040
:100DA00092818581282F26952923A081B181A20FC8
:100DB000B11D2C919F5F89238283209336010BC044
:100DC000E1E3F1E080818F7D808305C0E1E3F1E024
:100DD00080818F7D8083FF91EF91BF91AF919F9133
:100DE0008F912F910F900BBE0F900FBE0F901F9001
:100DF0001895FC01411101C0ADD3842F90E09C01F6
:100E00002150310982239323892B09F0A3D3413840
:100E100008F0A0D3128213824483440F41504583CB
:100E20007183608380E090E008951F920F920FB667
:100E30000F9211240BB60F922F933F934F935F9312
:100E40006F937F938F939F93AF93BF93EF93FF9392
:100E5000E091B9008E2F90E0FC013897E135F10563
:100E600008F075C08827EE58FF4F8F4F30C21092A0
:100E70001303E091130380911603E81770F481E0E7
:100E80008E0F80931303F0E0E95EFC4F8081809326
:100E9000BB0085E88093BC0072C084E98093BC00ED
:100EA0008091140390911503DC011296ED91FC9151
:100EB0001397309709F463C020E040E050E064E00D
:100EC00019955DC0E091130381E08E0F80931303A9
:100ED0008091BB00F0E0E95EFC4F80838091B90017
:100EE000803411F4109213032091130330E08091A9
:100EF000160390E001972817390724F485EC8093B6
:100F0000BC003DC085E88093BC0039C08091BB0027
:100F1000E0911303F0E0E95EFC4F808384E9809365
:100F2000BC008091140390911503DC011296ED91A1
:100F3000FC911397309719F12091160347E153E084
:100F400065E019951CC085EA8093BC0018C08091AB
:100F5000B90080931C0284E08093BC00809114034C
:100F600090911503DC011296ED91FC911397309747
:100F700031F020E040E050E060911C021995FF91B3
:100F8000EF91BF91AF919F918F917F916F915F9101
:100F90004F913F912F910F900BBE0F900FBE0F906E
:100FA0001F9018955058BB27AA270ED01CC10DD1F1
:100FB00030F012D120F031F49F3F11F41EF402C141
:100FC0000EF4E095E7FBF8C0E92F74DB80F3BA1765
:100FD000620773078407950718F071F49EF58CCBB0
:100FE0000EF4E0950B2EBA2FA02D0B01B901900144
:100FF0000C01CA01A0011124FF27591B99F0593F88
:1010000050F4503E68F11A16F040A22F232F342FCF
:101010004427585FF3CF469537952795A795F0401D
:101020005395C9F77EF41F16BA0B620B730B840B32
:10103000BAF09150A1F0FF0FBB1F661F771F881FEA
:10104000C2F70EC0BA0F621F731F841F48F4879542
:1010500077956795B795F7959E3F08F0B3CF939531
:10106000880F08F09927EE0F9795879508950CD073
:10107000BAC0B2D040F0A9D030F021F45F3F19F0EF
:101080009BC051113ACB9EC015DB98F39923C9F34D
:101090005523B1F3951B550BBB27AA27621773077E
:1010A000840738F09F5F5F4F220F331F441FAA1F32
:1010B000A9F333D00E2E3AF0E0E830D091505040F2
:1010C000E695001CCAF729D0FE2F27D0660F771FA0
:1010D000881FBB1F261737074807AB07B0E809F082
:1010E000BB0B802DBF01FF2793585F4F2AF09E3F17
:1010F000510568F061C001CB5F3FECF3983EDCF333
:10110000869577956795B795F7959F5FC9F7880F8F
:10111000911D9695879597F90895E1E0660F771FE1
:10112000881FBB1F621773078407BA0720F0621B72
:10113000730B840BBA0BEE1F88F7E0950895E894C3
:1011400009C097FB3EF490958095709561957F4F0F
:101150008F4F9F4F9923A9F0F92F96E9BB279395BD
:10116000F695879577956795B795F111F8CFFAF4CD
:10117000BB0F11F460FF1BC06F5F7F4F8F4F9F4FFE
:1011800016C0882311F096E911C0772321F09EE85C
:10119000872F762F05C0662371F096E8862F70E0C2
:1011A00060E02AF09A95660F771F881FDAF7880F9C
:1011B0009695879597F9089597F99F6780E870E06D
:1011C00060E008959FEF80EC089500240A941616BD
:1011D000170618060906089500240A941216130625
:1011E000140605060895092E0394000C11F48823B3
:1011F00052F0BB0F40F4BF2B11F460FF04C06F5FCF
:101200007F4F8F4F9F4F08950BD0EDCFDEDF28F03B
:10121000E3DF18F0952309F0CFCFD4CF11246DCAA6
:1012200049DAA0F3959FD1F3950F50E0551F629FC7
:10123000F001729FBB27F00DB11D639FAA27F00D2F
:10124000B11DAA1F649F6627B00DA11D661F829F56
:101250002227B00DA11D621F739FB00DA11D621F3B
:10126000839FA00D611D221F749F3327A00D611D58
:10127000231F849F600D211D822F762F6A2F11243A
:101280009F5750408AF0E1F088234AF0EE0FFF1F8D
:10129000BB1F661F771F881F91505040A9F79E3FC4
:1012A000510570F089CF29CA5F3FECF3983EDCF31B
:1012B000869577956795B795F795E7959F5FC1F701
:1012C000FE2B880F911D9695879597F90895EE0F3F
:1012D000FF1F881F8BBF0790F691E02D19940F9385
:1012E0001F93CF93DF93869F8001879F100D969F5A
:1012F000100D1124C8010DD0EC01009721F0A801B8
:1013000060E070E02BD1CE01DF91CF911F910F9162
:1013100008950F931F93CF93DF938230910510F4BC
:1013200082E090E0E0912303F091240320E030E09C
:10133000A0E0B0E0309719F1408151810281138122
:1013400048175907C8F08417950769F4109731F0CA
:1013500012960C93129713961C9327C000932303A5
:101360001093240322C02115310519F042175307A9
:1013700018F49A01BD01EF01DF01F801DBCF21155F
:101380003105F9F0281B390B2430310580F48A81AE
:101390009B816115710521F0FB019383828304C059
:1013A0009093240380932303FE01329644C0FE01F0
:1013B000E20FF31F819391932250310939832883DF
:1013C0003AC02091210330912203232B41F4209134
:1013D00002023091030230932203209321032091D3
:1013E0000002309101022115310541F42DB73EB7BD
:1013F0004091040250910502241B350BE09121031A
:10140000F0912203E217F307A0F42E1B3F0B2817DD
:10141000390778F0AC014E5F5F4F2417350748F06D
:101420004E0F5F1F509322034093210381939193AA
:1014300002C0E0E0F0E0CF01DF91CF911F910F916A
:101440000895CF93DF93009709F481C0FC01329790
:1014500013821282A0912303B0912403109781F488
:1014600020813181820F931F20912103309122032B
:101470002817390751F5F0932203E093210367C041
:10148000ED0120E030E0CE17DF0740F44A815B81B8
:101490009E0141155105F1F0EA01F5CFD383C283D6
:1014A00040815181840F951FC817D90759F488814D
:1014B0009981840F951F0296918380838A819B81F5
:1014C000938382832115310529F4F0932403E0935B
:1014D00023033DC0E901FB83EA8349915991C40F7D
:1014E000D51FEC17FD0761F480819181840F951F52
:1014F0000296E90199838883828193819B838A8301
:10150000E0E0F0E012968D919C911397009719F00E
:10151000FD01DC01F7CF8D919C9111979D012E5F0C
:101520003F4F820F931F20912103309122032817F0
:10153000390769F4309729F4109224031092230399
:1015400002C013821282B0932203A0932103DF9181
:10155000CF91089581E090E0F894E4C2DC0101C0ED
:101560006D9341505040E0F708950F931F93CF9330
:10157000DF93E0912703F0912803238121FF1BC013
:101580008C01D0E0C0E0F80181918F0160912703C8
:1015900070912803DB011896ED91FC91199788232F
:1015A00031F01995892B79F3DFEFCFEFECCF8AE09B
:1015B0001995892B19F08FEF9FEF02C08D2F9C2F6B
:1015C000DF91CF911F910F9108952F923F924F92EB
:1015D0005F926F927F928F929F92AF92BF92CF92C3
:1015E000DF92EF92FF920F931F93CF93DF93CDB7CC
:1015F000DEB72B970FB6F894DEBF0FBECDBF6C01E0
:101600007B018A01FC0117821682838181FFBFC1A1
:10161000CE0101963C01F6019381F70193FD85917E
:1016200093FF81917F01882309F4ADC1853239F49C
:1016300093FD859193FF81917F01853221F4B6015D
:1016400090E0D6D1E8CF912C212C312CFFE1F3157D
:10165000D8F08B3279F038F4803279F08332A1F40B
:10166000232D20611DC08D3261F0803369F4232D5C
:10167000216016C0832D8260382EE32DE4603E2E5B
:101680002AC0F32DF8601DC037FC2DC020ED280FB7
:101690002A3040F08E32B9F436FC75C1232D206417
:1016A000322E19C036FE06C08AE0989E200D112405
:1016B000922E11C0EAE02E9E200D1124222EF32D31
:1016C000F0623F2E08C08C3621F4832D8068382EBE
:1016D00002C0883641F4F70193FD859193FF819113
:1016E0007F018111B3CF982F9F7D9554933028F4BB
:1016F0000C5F1F4F9FE399830DC0833631F0833712
:1017000071F0833509F055C020C0F80180818983CC
:101710000E5F1F4F88248394912C530112C028011F
:10172000F2E04F0E511CF801A080B18036FE03C0DC
:10173000692D70E002C06FEF7FEFC5014ED14C0103
:101740008201F32DFF773F2E15C0280122E0420EC3
:10175000511CF801A080B18036FE03C0692D70E0F5
:1017600002C06FEF7FEFC5012DD14C01F32DF06862
:101770003F2E820133FC19C0822D90E08816990615
:10178000A0F4B60180E290E033D12A94F5CFF501C0
:1017900037FC859137FE81915F01B60190E028D139
:1017A00021102A9421E0821A91088114910479F77A
:1017B000E1C0843611F0893639F5F80137FE07C0EB
:1017C00060817181828193810C5F1F4F08C06081AD
:1017D0007181072E000C880B990B0E5F1F4FF32DA4
:1017E000FF763F2E97FF09C0909580957095619583
:1017F0007F4F8F4F9F4FF0683F2E2AE030E0A301CC
:1018000033D1882E861844C0853731F4232D2F7E9E
:10181000B22E2AE030E025C0932D997FB92E8F3665
:10182000C1F018F4883579F0AEC0803719F08837E8
:1018300021F0A9C0E92FE061BE2EB4FE0DC0FB2D42
:10184000F460BF2E09C034FE0AC0292F2660B22ED4
:1018500006C028E030E005C020E130E002C020E111
:1018600032E0F801B7FE07C0608171818281938107
:101870000C5F1F4F06C06081718180E090E00E5FB9
:101880001F4FA301F1D0882E8618FB2DFF773F2E26
:1018900036FE0DC0232D2E7FA22E891458F434FE5F
:1018A0000BC032FC09C0832D8E7EA82E05C0B82C3B
:1018B000A32C03C0B82C01C0B92CA4FE0FC0FE019C
:1018C000E80DF11D8081803321F49A2D997EA92E97
:1018D00009C0A2FE06C0B394B39404C08A2D8678D2
:1018E00009F0B394A3FC10C0A0FE06C0B21480F4AB
:1018F000280C922C9B180DC0B21458F4B60180E24B
:1019000090E076D0B394F8CFB21418F42B1802C03C
:10191000982C212CA4FE0FC0B60180E390E068D083
:10192000A2FE16C0A1FC03C088E790E002C088E5D3
:1019300090E0B6010CC08A2D867851F0A1FE02C05D
:101940008BE201C080E2A7FC8DE2B60190E050D0AE
:10195000891430F4B60180E390E04AD09A94F8CF2D
:101960008A94F301E80DF11D8081B60190E040D02A
:101970008110F6CF222009F44ECEB60180E290E02D
:1019800037D02A94F7CFF6018681978102C08FEF76
:101990009FEF2B960FB6F894DEBF0FBECDBFDF9141
:1019A000CF911F910F91FF90EF90DF90CF90BF905C
:1019B000AF909F908F907F906F905F904F903F90EF
:1019C0002F900895FC010590615070400110D8F7E8
:1019D000809590958E0F9F1F0895FC016150704077
:1019E00001900110D8F7809590958E0F9F1F089554
:1019F0000F931F93CF93DF93FB01238121FD03C03E
:101A00008FEF9FEF2CC022FF16C0468157812481A3
:101A100035814217530744F4A081B1819D012F5FA6
:101A20003F4F318320838C93268137812F5F3F4F37
:101A30003783268314C08B01EC01FB010084F18500
:101A4000E02D1995892BE1F6D80116968D919C9180
:101A50001797019617969C938E931697CE01DF9158
:101A6000CF911F910F910895FA01AA27283051F1C3
:101A7000203181F1E8946F936E7F6E5F7F4F8F4FBF
:101A80009F4FAF4FB1E03ED0B4E03CD0670F781F1E
:101A9000891F9A1FA11D680F791F8A1F911DA11D03
:101AA0006A0F711D811D911DA11D20D009F468943C
:101AB0003F912AE0269F11243019305D3193DEF6E4
:101AC000CF010895462F4770405D4193B3E00FD09A
:101AD000C9F7F6CF462F4F70405D4A3318F0495D85
:101AE00031FD4052419302D0A9F7EACFB4E0A69568
:101AF0009795879577956795BA95C9F7009761058A
:101B0000710508959B01AC010A2E069457954795DF
:101B100037952795BA95C9F7620F731F841F951FD4
:081B2000A01D0895F894FFCF09
:101B280000002B03200000000003000000009803C1
:101B380083030000C600CE00D6003601F874656D38
:101B4800702D77616B65206572726F723A2025641B
:101B58000A0054656D702D72656164206572726F3C
:101B6800723A2025640A0048756D3A2025642020C1
:101B780054656D703A2025640A00434F322073651E
:101B88006E736F723A20256400434F32206C65767D
:101B9800656C3A2025750A004661696C6564207495
:101BA8006F206665746368206C6967687420646177
:101BB80074613A2025640A004C696768742073656B
:101BC8006E736F72206E6F74207265616479004C59
:101BD800696768743A2025640A004C7578206F7626
:101BE8006572666C6F770052756E6E696E6720500D
:061BF8004F5254430000AF
:00000001FF
