:1000000006C2000024C2000022C2000020C200007C
:100010001EC200001CC200001AC2000018C200006C
:1000200016C2000014C2000012C2000010C200007C
:10003000D4C600000CC200000AC2000008C20000C2
:1000400006C2000004C2000002C2000000C200009C
:10005000FEC10000FCC10000FAC10000F8C10000B0
:10006000F6C100000C942F150C948115F0C100000E
:10007000EEC10000ECC10000EAC10000E8C10000D0
:10008000E6C10000E4C10000E2C10000E0C10000E0
:100090000C94C5150C941716DAC100000C94D920E5
:1000A000D6C10000D4C10000D2C10000D0C1000000
:1000B000CEC10000CCC10000CAC10000C8C1000010
:1000C000C6C10000C4C10000C2C100000C945B1690
:1000D0000C94AD16BCC100000C94F1160C9443179F
:1000E000B6C10000960196019601C501CD01DC0163
:1000F00096019601C501CD01FB206B216B216B217F
:100100006B216B216B216B21FB206B216B216B2100
:100110006B216B216B216B21FD206B216B216B21EE
:100120006B216B216B216B216B216B216B216B216F
:100130006B216B216B216B21FD206B216B216B21CE
:100140006B216B216B216B216B216B216B216B214F
:100150006B216B216B216B2167216B216B216B2143
:100160006B216B216B216B2132216B216B216B2168
:100170006B216B216B216B216B216B216B216B211F
:100180006B216B216B216B2126216B216B216B2154
:100190006B216B216B216B214A210AEF17E00F2E97
:1001A000F2E2EF2EF8E0FF2EF02D8091F907882380
:1001B00011F10FB6F8940F92D8011596ED91FC91BC
:1001C0001697C681D781CE0102966DD48091EF0734
:1001D00081508093EF078091F90781508093F90750
:1001E0000F900FBE8F89988DEBD3CE01E9D380910C
:1001F000F9078111DECFF7018081823008F028D520
:100200000E944313D2CFCF93DF9300D000D0CDB75D
:10021000DEB7CE0101964C0144244394E12CF12C2D
:10022000512CC82ED92CE0915008F09151088081B2
:10023000882309F4D8C00580F681E02DA080B18024
:100240000E94830DC4010E94D5128C018981811105
:1002500049C00A151B05B0F10E944D0EE0915008EF
:10026000F09151080580F681E02D66807780C3010A
:10027000029619D4D30153968C91539782FF17C0DD
:100280001C966D917C911D976A0D7B1D9501A801AF
:10029000C3010E941612882369F00E2D1F2D2E2DEA
:1002A0003F2DA501652DC3010E948E1203C08E7FD4
:1002B000F301838BD3015096ED91FC915197C301CB
:1002C000199585C0452DB501601B710B80914C08B7
:1002D00090914D080E9482090E944D0E811177C0B5
:1002E000B7D475C00E944D0E72C0898188230CF46A
:1002F0006EC0AC80BD80F50182859385892B19F095
:10030000C5010296D0D3CE0106960E94D512AC014B
:10031000E9810E2E000CFF0BEA30F10508F057C002
:100320008827EE58FF4F8F4F0C947D23D5015396AD
:100330008C915397816053968C9353972A813B817C
:100340001C966D917C911D97620F731FC5010E94D1
:1003500016128823E1F1D5015096ED91FC91519749
:10036000C5011995F501838982FF31C04A815B81FE
:1003700084859585480F591F0E2D1F2D2E2D3F2D3D
:10038000652DC5010E948E1222C0D50153968C9115
:1003900053978E7F53968C931AC0F50183898160A1
:1003A000838B6A817B8175876487640F751F9A01CF
:1003B000C5010E9416120BC0D50153968C9181FD88
:1003C00003C0C501FDD203C08E7FF501838B4E2D86
:1003D0005F2D6C2D7D2D80914C0890914D0809D793
:1003E000811183CF20CF0E94830DC4010E94D512BA
:1003F0008C018981811176CFE0914E08F0914F08F0
:100400008081442D8111452DAE2CBF2C5CCF112451
:100410001FBECFEFD1E2DEBFCDBF00E00CBF17E0C3
:10042000A0E0B2E0ECE3F0E500E00BBF02C0079013
:100430000D92A83DB107D9F72AE0A8EDB7E001C0B9
:100440001D92AA35B207E1F702D20C941C28D8CD30
:100450008091CA099091CB0918161906CCF786E04D
:1004600090E00E94CA0E8091CA099091CB09019731
:100470009093CB098093CA091816190684F3E8CF24
:100480008093300A9093310A9F938F938EE692E087
:100490009F938F930E94FE240F900F900F900F90C8
:1004A00008950F2EFDE7EF2EF2E0FF2EF02D02E96A
:1004B00012E0C7EAD2E08EE390E00E94CA0E0E94EA
:1004C0001C18282F30E02115310569F02330310543
:1004D00051F01F928F93FF92EF920E94FE240F9093
:1004E0000F900F900F9086E090E00E94CA0E0E943D
:1004F0003118282F30E02115310569F023303105FE
:1005000051F01F928F931F930F930E94FE240F9020
:100510000F900F900F9086E090E00E94CA0E0E940C
:1005200042180E945E137093390A6093380A0E9441
:1005300057180E945E136093320A7093330A7F93B8
:100540006F938091390A8F938091380A8F93DF934C
:10055000CF930E94FE240F900F900F900F900F905A
:100560000F90A9CFCAEBD2E08EE390E00E94CA0EB2
:100570000E944E1E90E00097B9F39F938F93DF93F4
:10058000CF930E94FE240F900F900F900F90ECCF0E
:10059000C9ECD2E08EE390E00E94CA0E0E940D1FCB
:1005A00090E00097B9F39F938F93DF93CF930E94CE
:1005B000FE240F900F900F900F90ECCFCF93DF930E
:1005C00000D01F92CDB7DEB7813029F089EE92E0DE
:1005D0000E94112525C0CE0101960E941F1F811186
:1005E0001BC069817A818B819C816093340A7093EE
:1005F000350A8093360A9093370A0E9463137F93DB
:100600006F9380E093E09F938F930E94FE240F905E
:100610000F900F900F9004C08BE093E00E94112583
:100620000F900F900F900F90DF91CF910895EF9260
:10063000FF921F93CF93DF930E94CA1A0E94F61C69
:100640009F938F9388E193E09F938F930E94FE2462
:100650000E94F71B0E94F61C9F938F938AE293E0FF
:100660009F938F930E94FE248CEC99E00E94DC1AE9
:100670000E94F61CCCECD9E0DF93CF939F938F932D
:1006800083E493E09F938F930E94FE24CE010E9407
:10069000F81A0E94F61C9F938F93DF93CF9388E5FF
:1006A00093E09F938F930E94FE24AE016DE673E06A
:1006B0008EE893E00E94D51C0E94F61C9F938F93B6
:1006C000DF93CF938DE693E09F938F938EE893E033
:1006D0009F938F938FE993E09F938F930E94FE24C3
:1006E0000E942B1B0E94F61C9F938F9385ED93E035
:1006F0009F938F930E94FE248DB79EB782960FB66C
:10070000F8949EBF0FBE8DBF81E00E94EC1B0E943B
:10071000F61C9F938F9384EE93E09F938F930E9498
:10072000FE240F900F900F900F90C5E0D0E00F2E99
:10073000F5E0EF2EF4E0FF2EF02D80E00E94311B5B
:10074000182F0E94F61C9F938F93DF93CF93FF92F5
:10075000EF920E94FE240F900F900F900F900F9039
:100760000F90183031F08FE290E00E94CA0E21976E
:1007700021F7DF91CF911F91FF90EF900895CF93D4
:10078000DF93CDB7DEB766970FB6F894DEBF0FBE26
:10079000CDBF81E00E94B61A82E090E00E94CA0EAE
:1007A00080E00E94B61A86E990E00E94CA0E0E947C
:1007B000731A3DDF8CE090E00E94CA0E86E08A83C7
:1007C00085E089830F2EF8E3AF2EFAE0BF2EF02DDF
:1007D0000F2EF2E3CF2EFAE0DF2EF02D0F2EFAECE3
:1007E000EF2EF9E0FF2EF02D05E214E08FE290E00D
:1007F0000E94CA0EF50180818B83F60180818C8373
:100800008091300A9091310A9D838E836091340AE1
:100810007091350A8091360A9091370A0E946313CD
:100820006F83F70180818887BE016F5F7F4F80E013
:100830000E94541B0E94F61C9F938F931F930F934B
:100840000E94FE240F900F900F900F90CFCFEF9249
:10085000FF920F9383E00E94A61781E00E947A1A0C
:1008600080E00E94D61378940F2EF0EEEF2EF7E082
:10087000FF2EF02D01E020E030E040EC50E06AE394
:1008800074E081E592E0FDD70F2EFEEDEF2EF7E04C
:10089000FF2EF02D20E030E040EC50E062E574E007
:1008A00082EB92E0EED70F2EFCEDEF2EF7E0FF2E5D
:1008B000F02D20E030E040EC50E062E674E088EC9F
:1008C00092E0DFD70F2EFAEDEF2EF7E0FF2EF02D9E
:1008D00020E030E040EC50E064E774E088E292E031
:1008E000D0D70F2EF8EDEF2EF7E0FF2EF02D03E01E
:1008F00020E030E040EC50E060E874E08FEB93E003
:10090000C0D780E00E94D61378940E940518811108
:100910002AC060E472E083E00E941F1E8EED92E028
:100920000E94DD1E882361F01F928F938CEA94E071
:100930009F938F930E94FE240F900F900F900F9023
:100940000E94F81E882361F01F928F9383ED94E03C
:100950009F938F930E94FE240F900F900F900F9003
:100960000E94510DFFCF84E894E00E94112581E0A0
:1009700090E00F91FF90EF900895E8E0F1E0908112
:10098000907F908390818F70982B90830895E8E0FA
:10099000F1E08081807F80830895CF93DF93EC0125
:1009A0000E94830DCE010E949F23EC010E944D0EF8
:1009B000209711F40E944413CE01DF91CF91089546
:1009C000CF93DF93009741F0EC010E94830DCE019D
:1009D0000E9437240E944D0EDF91CF910895FC01B3
:1009E0000396928381832FEF3FEF34832383968393
:1009F00085839087878310820895FC011186108675
:100A00000895CF93DF939C01FB01DC011196CD91FA
:100A1000DC911297D383C2838C819D8195838483DB
:100A20008C819D81DC0113967C936E9312977D835C
:100A30006C8331872087F90180818F5F8083DF910C
:100A4000CF910895CF93DF93EB01488159814F3FB8
:100A50002FEF520721F4FC01A781B0850DC0DC0106
:100A6000139601C0DF011296ED91FC91139720813E
:100A7000318142175307B0F71296ED91FC9113970D
:100A8000FB83EA83D583C483BD83AC831396DC9355
:100A9000CE93129799878887FC0120812F5F20834E
:100AA000DF91CF910895CF93DF93FC01A085B185AD
:100AB000C281D381848195819D838C83C481D581BA
:100AC000828193819B838A8311968D919C91129749
:100AD000E817F90731F48481958112969C938E93DF
:100AE0001197118610868C9181508C938C91DF9197
:100AF000CF91089531E1FC013083319722E22083C8
:100B00003197A3E3A0833197608331977083319746
:100B1000108231971082319760E86083319710829C
:100B20003197108231971082319762E0608331975C
:100B300063E06083319764E06083319765E06083B0
:100B4000319766E06083319767E06083319768E0B2
:100B50006083319769E06083319760E1608331970A
:100B60003083319732E13083319733E130833197ED
:100B700034E13083319735E13083319736E130838A
:100B8000319737E13083319738E13083319739E15C
:100B90003083319730E23083319731E230833197BF
:100BA0002083319723E2208331974083319750830C
:100BB000319726E22083319727E22083319728E27C
:100BC0002083319729E22083319720E320833197D6
:100BD00021E3208389970895A89590EC88E10FB6CA
:100BE000F894A895809360000FBE90936000A09148
:100BF0004608B0914708CD91CDBFDD91DEBFFF9192
:100C0000EF91DF91CF91BF91AF919F918F917F91A4
:100C10006F915F914F913F912F911F910F91FF9095
:100C2000EF90DF90CF90BF90AF909F908F907F908C
:100C30006F905F904F903F902F901F900F900CBE41
:100C40000F900BBE0F900FBE0F90089581E0089596
:100C50000F920FB6F8940F920BB60F920CB60F923C
:100C60001F9211242F923F924F925F926F927F9228
:100C70008F929F92AF92BF92CF92DF92EF92FF92AC
:100C80000F931F932F933F934F935F936F937F9394
:100C90008F939F93AF93BF93CF93DF93EF93FF9384
:100CA000A0914608B09147080DB60D920EB60D9270
:100CB0000E94DB0EA0914608B0914708CD91CDBFB0
:100CC000DD91DEBFFF91EF91DF91CF91BF91AF91A9
:100CD0009F918F917F916F915F914F913F912F9154
:100CE0001F910F91FF90EF90DF90CF90BF90AF904A
:100CF0009F908F907F906F905F904F903F902F903C
:100D00001F900F900CBE0F900BBE0F900FBE0F9058
:100D100008950F920FB6F8940F920BB60F920CB67F
:100D20000F921F9211242F923F924F925F926F92D7
:100D30007F928F929F92AF92BF92CF92DF92EF926B
:100D4000FF920F931F932F933F934F935F936F9354
:100D50007F938F939F93AF93BF93CF93DF93EF9343
:100D6000FF93A0914608B09147080DB60D920EB6BC
:100D70000D9213BED8D681110E94DB0EA0914608B9
:100D8000B0914708CD91CDBFDD91DEBFFF91EF91CE
:100D9000DF91CF91BF91AF919F918F917F916F9193
:100DA0005F914F913F912F911F910F91FF90EF9085
:100DB000DF90CF90BF90AF909F908F907F906F907B
:100DC0005F904F903F902F901F900F900CBE0F9010
:100DD0000BBE0F900FBE0F9008959BDF18950FB6B6
:100DE000F8940F92FC01928D0F900FBE81E091114B
:100DF00080E008950F931F93CF93DF93EC01042FAE
:100E00001A8D4C8D41110CC088819981892B09F074
:100E100042C08C819D810E9431101D821C8242C083
:100E2000011117C050E08A819B810E94C4242C8D3F
:100E30008A819B81820F911D9B838A832C813D81B6
:100E40008217930750F1888199819B838A8380E080
:100E500029C050E08E819F810E94C4248C8D90E037
:100E60009195819591092E813F81280F391F3F83EC
:100E70002E83488159812417350730F42C813D8118
:100E8000820F931F9F838E83023049F4112349F010
:100E9000115080E007C080E005C080E003C080E022
:100EA00001C080E01F5F1A8FDF91CF911F910F91DA
:100EB0000895FC01448D4423A9F050E02681378138
:100EC000240F351F3783268384819581281739079E
:100ED00020F08081918197838683CB016681778121
:100EE0000C94C4240895EF92FF920F931F93CF9315
:100EF0008C010FB6F8940F92FC01C68D1C16ACF451
:100F00008189811106C011C0F8018189811105C054
:100F10000CC07801F1E1EF0EF11CC7010E94920FA5
:100F200081110E941A10C15079F78FEFF801868F56
:100F30000F900FBE0FB6F8940F92C58D1C16A4F437
:100F40008085811106C010C0F8018085811105C01F
:100F50000BC07801F8E0EF0EF11CC701E3D7811157
:100F60000E941A10C15081F78FEFF801858F0F9002
:100F70000FBECF911F910F91FF90EF900895CF93E7
:100F8000DF93EC010FB6F8940F92E881F9818B8D15
:100F90002C8D90E030E0829FA001839F500D929FA6
:100FA000500D11244E0F5F1F5D834C831A8EFB83FF
:100FB000EA830197829FA001839F500D929F500D5D
:100FC0001124CF01840F951F9F838E838FEF8D8F08
:100FD0008E8F61110AC08885882369F0CE0108963A
:100FE000A1D7882341F034DE06C0CE010896F7DC95
:100FF000CE014196F4DC0F900FBE81E0DF91CF91DE
:101000000895FF920F931F93CF93DF93082F162F0E
:10101000F42E6623B9F0869FC00111248196BDDCB1
:10102000EC01009741F414C00B8F1C8F61E0CE01DE
:10103000A6DFF8A20DC0819699838883F5CFD98366
:10104000C883F2CF81E290E0A8DCEC01892BB9F7EC
:10105000CE01DF91CF911F910F91FF9008959F9244
:10106000AF92BF92CF92DF92EF92FF920F931F93B6
:10107000CF93DF9300D01F921F92CDB7DEB78C01C4
:101080006B015D834C83A22EB12C992493947C0137
:1010900088E0E80EF11C0FB6F8940F92F801928DDB
:1010A000838D981718F0F2E0AF1215C04A2DB601E3
:1010B000C801A0DEF8019189992339F0C801419651
:1010C00031D7882321F0C4DD02C08111C1DD0F902A
:1010D0000FBE81E045C08C819D81892B21F40F904A
:1010E0000FBE80E03DC0B11004C0CE01019662D7B2
:1010F000B92C0F900FBE07D50FB6F8940F92F801D8
:10110000858D8F3F09F4158EF801868D8F3F09F488
:10111000168E0F900FBEBE016C5F7F4FCE01019601
:1011200054D7811119C00FB6F8940F92F801928D1F
:10113000838D0F900FBE98130BC06C817D81C7010A
:10114000C8D6C801D0DEA9D58111A5CF81DDA3CF36
:10115000C801C9DEA2D59FCFC801C5DE9ED580E0FB
:101160000F900F900F900F900F90DF91CF911F91E4
:101170000F91FF90EF90DF90CF90BF90AF909F9036
:101180000895EF92FF920F931F93CF93DF938A01FD
:10119000FC01528D338D531710F02230E1F4422FB1
:1011A0007801EC011E8D26DE1F3F79F489898823A2
:1011B000A1F0CE014196B6D6882389F0E114F1045E
:1011C00081F081E0F70180830DC0FF24F394F10EDC
:1011D000FE8E81E007C080E005C081E003C081E0B1
:1011E00001C081E0DF91CF911F910F91FF90EF90AF
:1011F00008959F92AF92BF92CF92DF92EF92FF92AB
:101200000F931F93CF93DF9300D01F921F92CDB700
:10121000DEB78C015B015D834C83E12C99249394B0
:101220006C0181E1C80ED11C0FB6F8940F92F80141
:10123000F28CFF2091F0B501C8013BDEFA94F80171
:10124000F28E8085882329F0C80108966BD681111B
:10125000FFDC0F900FBE81E044C08C819D81892B03
:1012600021F40F900FBE80E03CC0E11004C0CE011D
:101270000196A0D6E92C0F900FBE45D40FB6F89476
:101280000F92F801858D8F3F09F4158EF801868D38
:101290008F3F09F4168E0F900FBEBE016C5F7F4F1B
:1012A000CE01019692D6811113C0C80198DD882322
:1012B00059F06C817D81C6010CD6C80114DEEDD4D5
:1012C0008111B2CFC5DCB0CFC8010DDEE6D4ACCF02
:1012D000C80109DEE2D4C80182DD882309F4A4CF65
:1012E00080E00F900F900F900F900F90DF91CF91B3
:1012F0001F910F91FF90EF90DF90CF90BF90AF9034
:101300009F900895CF93DF93EC010FB6F8940F925E
:101310008D8D8F3F09F41D8E8E8D8F3F09F41E8EAB
:101320000F900FBE8A8D811103C0CE014196E2D588
:10133000CE01D9DDDF91CF910895FC014481558123
:1013400022813381240F351F80819181B901681B6F
:10135000790BCB016417750710F0841B950B08956A
:10136000AF92BF92CF92DF92EF92FF920F931F93B3
:10137000CF93DF936C015B017A01FC01C281D381C1
:10138000048115810C1B1D0B4017510708F48A01BD
:10139000F60184859585A801B5018C0F9D1F0E94DB
:1013A000C4240E151F0558F4A701401B510BB501AD
:1013B000600F711FF601848595850E94C424CE01BB
:1013C0008E0D9F1DF601248135818217930710F041
:1013D000821B930BF60193838283C701DF91CF9128
:1013E0001F910F91FF90EF90DF90CF90BF90AF9043
:1013F0000895CF92DF92EF92FF920F931F93CF93B6
:10140000DF931F921F92CDB7DEB75A834983211510
:101410003105C9F06B017C01FC01868580FD08C0A7
:10142000CA012417350708F4C9019A83898311C0BA
:101430002017310758F042E050E0BE016F5F7F4F48
:10144000C7018EDF06C080E090E008C080E090E039
:1014500005C049815A81B601C70182DF0F900F9004
:10146000DF91CF911F910F91FF90EF90DF90CF9080
:101470000895AF92BF92CF92DF92EF92FF920F93B7
:101480001F93CF93DF937C015B01E9014217530760
:1014900008F4EA01209779F1F70100811181C480F5
:1014A000D580C01AD10ACC15DD0508F46E01F7010C
:1014B00064857585600F711FA601C5010E94C42453
:1014C000CC16DD0658F4AE014C195D09F7016485B0
:1014D0007585C5018C0D9D1D0E94C4240C0F1D1F18
:1014E000F701848195810817190710F0081B190B63
:1014F000F70111830083CE01DF91CF911F910F91EE
:10150000FF90EF90DF90CF90BF90AF900895EF9253
:10151000FF921F93CF93DF93EB0111E0413009F06D
:1015200010E0209711F4C1E0D0E07C012FEFE21A27
:10153000F20A419632DA009781F020E1FC01119223
:101540002A95E9F79C01205F3F4FFC0135872487EE
:10155000F582E482D783C6831687DF91CF911F91EE
:10156000FF90EF900895CF93DF93FC0127850FB68E
:10157000F8940F9280859185892BD1F4828593858B
:10158000892BC1F486854681578164817581A48544
:10159000B58590E1EF0119929A95E9F7B587A4878F
:1015A00075836483578346838687278781E003C0DA
:1015B00080E001C080E00F900FBEDF91CF910895D1
:1015C000FC01248135818081918142815381820F88
:1015D000931F0197841B950B8217930710F0821BB2
:1015E000930B0895AF92BF92CF92DF92EF92FF924A
:1015F0000F931F93CF93DF93EC015B016A01790195
:101600008E8580FF04C08A010E5F1F4F01C08A01D2
:10161000CE01D6DF9C01A601B501CE01EADE6C0148
:10162000892BB1F0CE0189DE2E813F81821793078D
:1016300078F088859985892B59F08885998500E00F
:1016400010E020E040E050E0BA014CD61986188640
:10165000C601DF91CF911F910F91FF90EF90DF9026
:10166000CF90BF90AF9008956F927F928F929F928C
:10167000AF92BF92CF92DF92EF92FF920F931F93A0
:10168000CF93DF931F921F92CDB7DEB76C013B0162
:101690004A017901FC01868580FD03C0A12CB12C93
:1016A00004C06894AA24A1F8B12CE114F10429F132
:1016B0000FB6F8940F92C60140DE8C01A816B90649
:1016C00038F080E090E09ED6B9D4F601918780870B
:1016D0000F900FBEA016B106B0F000E010E020E0C1
:1016E00030E0A90160E070E0CB01FBD4F601118687
:1016F0001086C60122DE8C0103C0C6011EDE8C01ED
:10170000A016B106B8F5A114B104C1F0F601E0804D
:10171000F1809801A501BE016F5F7F4FC601A9DE70
:1017200089819A810A191B098816990630F4F601F5
:10173000F182E082812C912C01C04C019801A4011E
:10174000B301C60196DE7C01892BB1F0DCD1F60134
:1017500082859385892B61F08285938500E010E076
:1017600020E040E050E0BA013FD5F6011386128632
:1017700094D202C0E12CF12CC7010F900F90DF91A1
:10178000CF911F910F91FF90EF90DF90CF90BF907E
:10179000AF909F908F907F906F900895E0910E088A
:1017A000F0910F088081811107C08FEF9FEF909318
:1017B000E6078093E5070895E0910E08F0910F0881
:1017C0000580F681E02D0680F781E02D82819381EE
:1017D0009093E6078093E5070895FF920F931F9378
:1017E000CF93DF93EC01F62E0091ED071091EE07F9
:1017F0008091460890914708029655D9CF3F8FEFC8
:10180000D80761F4FF2051F06091460870914708B5
:101810006E5F7F4F80EF97E0F4D82DC0C00FD11FCF
:10182000E0914608F0914708D383C283C017D107DF
:1018300060F4609146087091470880910C0890917F
:101840000D086E5F7F4FFED816C0609146087091FC
:10185000470880910E0890910F086E5F7F4FF2D875
:101860008091E5079091E607C817D90720F4D09337
:10187000E607C093E507DF91CF911F910F91FF908D
:1018800008954F925F926F927F928F929F92AF9244
:10189000BF92CF92DF92EF92FF920F93CF93DF939D
:1018A0004C016B015A012901CA0177D83C01892BEF
:1018B00009F4E6C08CE290E070D8EC01892B99F035
:1018C000788E6F8AA50165EA70E0C3010E94CD247D
:1018D00081E0A81AB1088F89988DA80EB91EC1148D
:1018E000D10421F41FC0C3016BD8CAC0D6018C91AA
:1018F000898F8C918823A1F0AE01465E5F4FF6017F
:101900003196B8E0CB0ED11CCF012191DA012D9395
:10191000AD01DC018C91882319F0EC15FD05A1F7D0
:1019200018A201C0198E043008F003E00E8B0BA33F
:101930001CA26E01B2E0CB0ED11CC6015ED8CE0156
:101940000C965BD8D987C88784E090E0801B91090A
:101950009D878C87DB8BCA8B1EA21DA21FA218A697
:1019600019A61AA61BA6A201B401C501C3D8998362
:101970008883E114F10419F0F701D183C0830FB615
:10198000F8940F928091EF078F5F8093EF0780911B
:10199000460890914708892B91F5D0934708C0934A
:1019A00046088091EF07813009F039C082E298E063
:1019B00016D88BE298E013D884E398E010D88DE332
:1019C00098E00DD889E198E00AD880E198E007D83E
:1019D00083E098E004D88AEF97E001D880EF97E0A1
:1019E0000E94EF0489E198E090930F0880930E081D
:1019F00080E198E090930D0880930C0810C08091CE
:101A0000EB0781110CC0E0914608F09147089689D8
:101A10008E89891720F0D0934708C093460880919B
:101A2000E7078F5F8093E70789A38E899091EC0782
:101A3000981710F48093EC0790E09C01220F331F5D
:101A4000220F331F220F331F820F931FB6018E5DAB
:101A5000974F0E9401050F900FBE8091EB078823DE
:101A600059F0E0914608F091470896898E899817B9
:101A700028F4EED881E005C081E003C081E001C018
:101A80008FEFDF91CF910F91FF90EF90DF90CF908C
:101A9000BF90AF909F908F907F906F905F904F908E
:101AA0000895EF92FF920F930F2EF3EEEF2EF7E0D3
:101AB000FF2EF02D00E020E030E040EC50E065EF3C
:101AC00074E08DEC90E0DDDE8130C9F407D5813023
:101AD000B1F4F8948FEF9FEF9093E6078093E507BA
:101AE00081E08093EB071092EE071092ED07E091F2
:101AF0004608F091470885A10E94BD046DD80F915A
:101B0000FF90EF9008958091E2078F5F8093E20746
:101B100008950FB6F8940F928091ED079091EE071B
:101B20000F900FBE0895CF92DF92EF92FF920F9326
:101B30001F93CF93DF938091E207811198C0E090CB
:101B4000ED07F090EE078FEFE81AF80AF092EE0733
:101B5000E092ED07E114F104B1F480910E08909148
:101B60000F0820910C0830910D0830930F08209336
:101B70000E0890930D0880930C088091E8078F5F02
:101B80008093E8070BDE8091E5079091E607E81661
:101B9000F90610F4D12C53C0D12CCC24C394E0917D
:101BA0000E08F0910F088081811107C08FEF9FEF21
:101BB0009093E6078093E50742C0E0910E08F0910C
:101BC0000F080580F681E02DC681D7818A819B812F
:101BD000E816F90628F49093E6078093E5072FC0EE
:101BE0008E010E5F1F4FC8010E9453058C899D898D
:101BF000892B21F0CE010C960E9453058E8990917D
:101C0000EC07981710F48093EC0790E09C01220FEA
:101C1000331F220F331F220F331F820F931FB80170
:101C20008E5D974F0E940105E0914608F0914708AC
:101C30009E898689981708F4B2CFDC2CB0CFE0914A
:101C40004608F0914708868990E0FC01EE0FFF1FDF
:101C5000EE0FFF1FEE0FFF1F8E0F9F1FFC01EE5DAB
:101C6000F74F8081823048F0DD24D39406C0809104
:101C7000EA078F5F8093EA07D12C8091E9078823D8
:101C800011F0DD24D3948D2DDF91CF911F910F9111
:101C9000FF90EF90DF90CF900895DF92EF92FF9248
:101CA0000F931F93CF93DF930FB6F8940F92809109
:101CB000E20781508093E2078091E20781115DC0C5
:101CC0008091EF07811133C05BC0D7011596ED916C
:101CD000FC911697C681D781CE010C960E945305C0
:101CE0008E010E5F1F4FC8010E9453058E8990918F
:101CF000EC07981710F48093EC0790E09C01220FFA
:101D0000331F220F331F220F331F820F931FB8017F
:101D10008E5D974F0E940105E0914608F0914708BB
:101D20009E898689981768F0D092E9070AC0C0E0BA
:101D3000D0E00F2EF3E0EF2EF8E0FF2EF02DDD24A3
:101D4000D394F70180818111C0CFCD2B09F026DD1E
:101D5000C091EA07CC2349F0D1E0E5DE8111D093B0
:101D6000E907C150D1F71092EA078091E90788236B
:101D700031F00E94280681E003C080E001C080E0CD
:101D80000F900FBEDF91CF911F910F91FF90EF90B9
:101D9000DF900895CF93DF93EC01892B39F0B3DE08
:101DA00060E0CE011ADD79DF811102C00E942806B1
:101DB000DF91CF9108958091E207882321F081E09F
:101DC0008093E90708951092E907E0914608F091A1
:101DD000470885A10E94C704A0914608B091470812
:101DE000E0914608F09147082D913C918789908DAC
:101DF0008217930758F060914608709147088091C8
:101E0000460890914708675E7F4F4BD42091EC07BE
:101E1000822F90E0FC01EE0FFF1FEE0FFF1FEE0F71
:101E2000FF1FE80FF91FEE5DF74F3081311111C030
:101E30002150822F90E0FC01EE0FFF1FEE0FFF1FDD
:101E4000EE0FFF1FE80FF91FEE5DF74F30813323D0
:101E500079F3AC01440F551F440F551F440F551F14
:101E6000480F591FDA01AE5DB74F1196ED91FC9105
:101E700012970280F381E02D1296FC93EE93119756
:101E80004B5D574FE417F50729F442815381FD015B
:101E900052834183FC01EE0FFF1FEE0FFF1FEE0F79
:101EA000FF1F8E0F9F1FFC01EE5DF74F0180F28137
:101EB000E02D868197819093470880934608209370
:101EC000EC07E0914608F091470885A10C94BD0409
:101ED0000895CF93DF93EB01609146087091470816
:101EE000645F7F4F0E94220561E0CE0176DCDF91C6
:101EF000CF9108950F931F93CF938B01C42F6091BF
:101F0000460870914708645F7F4F0E940105CC230B
:101F100011F00FEF1FEF6C2FC8015FDCCF911F9105
:101F20000F9108950F931F93CF93DF93DC011596C4
:101F3000ED91FC911697C681D7818E01045F1F4FEA
:101F4000C8010E9453058091E20781111CC00A500C
:101F50001109C8010E9453058E899091EC079817CA
:101F600010F48093EC0790E09C01220F331F220FA6
:101F7000331F220F331F820F931FB8018E5D974FBF
:101F80000E94010505C0B80183E098E00E940105A8
:101F9000E0914608F09147089E898689891720F4C8
:101FA00081E08093E90701C080E0DF91CF911F912C
:101FB0000F9108952091E807FC0120832091ED07FF
:101FC0003091EE07328321830895CF93DF930FB6CC
:101FD000F8940F922091ED073091EE07DB014D91BF
:101FE0005C914F3FBFEF5B07E9F0EC01E981FA81BB
:101FF000A091E807B881BA1719F02E173F07A0F48F
:102000002E1B3F0B2417350740F4FB01421B530BDB
:1020100051834083CFDF80E008C0FB011182108232
:1020200081E003C080E001C081E00F900FBEDF912E
:10203000CF91089581E08093E90708958091460843
:102040009091470808958091EB07882331F08091A3
:10205000E207882321F080E0089581E0089582E07E
:1020600008950F931F93CF93DF93FC01892B79F190
:1020700084A1815084A3268993A1291751F181114C
:102080002AC0EF018F010E5F1F4FC8010E94530548
:102090008BA18E8B24E030E0281B31093D872C87F3
:1020A0009091EC07981710F48093EC0790E09C0156
:1020B000220F331F220F331F220F331F820F931F54
:1020C000B8018E5D974F0E94010581E005C080E058
:1020D00003C080E001C080E0DF91CF911F910F919C
:1020E00008954F925F926F927F928F929F92AF92DC
:1020F000BF92EF92FF920F931F9349015A010FB6BF
:10210000F8940F92E0914608F091470823A52230F9
:1021100021F1E0914608F091470847A050A461A43E
:1021200072A4DC01CB0180959095A095B095842197
:102130009521A621B72187A390A7A1A7B2A7E091D7
:102140004608F091470881E083A7E114F10429F0E3
:1021500061E0C70142DB0E9428060F900FBE0FB658
:10216000F8940F920115110569F0E0914608F0917D
:10217000470887A190A5A1A5B2A5F8018083918306
:10218000A283B383E0914608F091470883A582308B
:10219000B1F4E0914608F091470887A190A5A1A568
:1021A000B2A580949094A094B09488229922AA22F7
:1021B000BB2287A290A6A1A6B2A681E001C080E0C2
:1021C000E0914608F091470813A60F900FBE1F91AB
:1021D0000F91FF90EF90BF90AF909F908F907F9066
:1021E0006F905F904F9008950F931F93CF93DF935D
:1021F000FC010FB6F8940F920115110549F087A163
:1022000090A5A1A5B2A5E80188839983AA83BB8381
:1022100083A592E093A72230B1F018F4213031F079
:102220002AC02330E9F0243001F125C007A110A510
:1022300021A532A5402B512B622B732B47A350A70E
:1022400061A772A718C047A150A561A572A54F5FED
:102250005F4F6F4F7F4F47A350A761A772A70BC077
:1022600047A350A761A772A706C0823079F147A3A0
:1022700050A761A772A7813059F5EF018F010E5F5A
:102280001F4FC8010E9453058E899091EC07981743
:1022900010F48093EC0790E09C01220F331F220F73
:1022A000331F220F331F820F931FB8018E5D974F8C
:1022B0000E940105E0914608F09147089E898689B1
:1022C000891740F40E94280681E005C080E003C021
:1022D00081E001C081E00F900FBEDF91CF911F918F
:1022E0000F910895EF92FF920F931F93CF93DF9377
:1022F000FC010115110549F087A190A5A1A5B2A582
:10230000E80188839983AA83BB8383A592E093A77E
:102310002230B1F018F4213031F02BC02330E9F035
:10232000243001F126C007A110A521A532A5402B1C
:10233000512B622B732B47A350A761A772A719C01B
:1023400047A150A561A572A54F5F5F4F6F4F7F4FAB
:1023500047A350A761A772A70CC047A350A761A7C6
:1023600072A707C0823009F441C047A350A761A7F4
:1023700072A78130E9F5EF018091E20781111DC05C
:102380008F010E5F1F4FC8010E9453058E899091E7
:10239000EC07981710F48093EC0790E09C01220F53
:1023A000331F220F331F220F331F820F931FB801D9
:1023B0008E5D974F0E94010507C0BF01645F7F4F8C
:1023C00083E098E00E940105E0914608F0914708FB
:1023D0009E898689891770F4E114F10419F081E06F
:1023E000F701808381E08093E90705C080E003C0A6
:1023F00081E001C081E0DF91CF911F910F91FF90AB
:10240000EF900895009721F4809146089091470835
:102410000FB6F8940F92FC0123A5223019F413A6ED
:1024200081E001C080E00F900FBE0895FC0173832E
:102430006283918780874617570790F0421B530BA2
:102440008485958548175907E0F4BF016E5F7F4F7B
:1024500080914E0890914F080E94220580E00895D7
:102460004217530718F46217730768F4BF016E5FD1
:102470007F4F80915008909151080E94220580E082
:10248000089581E0089581E008950FB6F8940F92C1
:1024900080914C0890914D08892BE9F48BE598E0E8
:1024A0000E94EF0482E598E00E94EF048BE598E03B
:1024B000909351088093500882E598E090934F08DC
:1024C00080934E0840E065E08AE00E940108909306
:1024D0004D0880934C080F900FBE0895EF92FF9225
:1024E0000F93D3DF80914C0890914D08892B89F090
:1024F0000F2EFAE4EF2EF8E0FF2EF02D06E020E09C
:1025000030E045E550E06AEF74E083E091E0B9D94E
:1025100001C080E00F91FF90EF9008950F931F93FB
:10252000CF93DF9300D01F921F92CDB7DEB7E0911B
:102530004C08F0914D08309769F1D90169835B83AC
:102540004A839D838C836630E4F47DDD823061F4C0
:1025500020E0A801BE016F5F7F4F80914C089091F1
:102560004D080E942F0817C020E040E050E0BE0157
:102570006F5F7F4F80914C0890914D080E942F080B
:102580000AC020E0AD01BE016F5F7F4FCF010E9406
:10259000C10801C080E00F900F900F900F900F9036
:1025A000DF91CF911F910F910895AF92BF92CF927B
:1025B000DF92EF92FF920F931F93CF93DF936C0103
:1025C000A8DA7C018091480890914908E816F9063C
:1025D00008F047C02FC00580F681E02DA080B180B3
:1025E000C681D7818E010E5F1F4FC8010E9453051F
:1025F000E889F989CE0119958B8982FF1BC08C85EA
:102600009D858A0D9B1DA816B90660F49B838A835D
:10261000D987C887B80180915008909151080E94CD
:10262000220508C000E010E020E030E0A50160E0F5
:10263000CE0174DFE0915008F09151088081811142
:10264000CACF80914E0890914F0890935108809383
:102650005008F0934F08E0934E0881E0F601808324
:1026600002C0F6011082F0924908E0924808C701C2
:10267000DF91CF911F910F91FF90EF90DF90CF905E
:10268000BF90AF9008950895279A2F9A2FEF80E773
:1026900092E0215080409040E1F700C000001F9A76
:1026A000F5CF279A2F9A2FEF87EA91E621508040A5
:1026B0009040E1F700C000001F9AF5CF04D0689465
:1026C000B11150C0089533D088F09F5790F0B92FC2
:1026D0009927B751A0F0D1F0660F771F881F991F77
:1026E0001AF0BA95C9F712C0B13081F03AD0B1E012
:1026F000089537C0672F782F8827B85F39F0B93F22
:10270000CCF3869577956795B395D9F73EF4909578
:102710008095709561957F4F8F4F9F4F089557FD1E
:102720009058440F551F59F05F3F71F04795880F3F
:1027300097FB991F61F09F3F79F0879508951216D6
:1027400013061406551FF2CF4695F1DF08C0161682
:1027500017061806991FF1CF869571056105089433
:102760000895E894BB2766277727CB0197F908954A
:10277000CF93DF931F92CDB7DEB7BE016F5F7F4F60
:1027800080916408909165084ED18111F6CF8981BE
:1027900090E00F90DF91CF910895682F80916408A9
:1027A00090916508CBD080E090E008958F929F9241
:1027B000AF92CF92EF920F93812C912C6894AA2420
:1027C000A7F86894CC24C7F8E12C00E023E040E0AF
:1027D00051EE60E070E013D0909365088093640838
:1027E000E4E5FAE086E092E091838083938382833C
:1027F0000F91EF90CF90AF909F908F9008952F9270
:102800003F924F925F926F927F928F929F92AF9280
:10281000CF92EF92FF920F931F93CF93DF93CDB799
:10282000DEB7F82E2A013B0188E090E00E949F234A
:102830008C018F2D90E0880F991FFC01EA59F74F0A
:1028400011830083FC01EC5EFD4F80819181D801F2
:102850008D939C936C2D70E084E090E00E94852322
:102860001C0161E070E086E090E00E9485237C011D
:102870004C2DB1014CD3F801F582E4826A2D70E051
:1028800084E090E00E9485231C0161E070E086E016
:1028900090E00E9485237C014A2DB10138D3D801F4
:1028A0001396FC92EE92129717969C928E92169720
:1028B000FFB6F894ED91FC91119736978081826074
:1028C00080838D909C90C301B2010E94682220E019
:1028D00030E040E051E40E94D1229B01AC0160E075
:1028E00074E284E79BE40E94FD2120E030E040E8B0
:1028F0005FE30E949621E7DEF40132976083D801FE
:10290000ED91FC911197359788E98083ED91FC91C9
:10291000349786E08083FFBEC801DF91CF911F917D
:102920000F91FF90EF90CF90AF909F908F907F90FE
:102930006F905F904F903F902F900895CF93DF93CB
:10294000EC01EA81FB81938182812581981B92238E
:1029500084819817A1F0938126952923A081B181C4
:10296000A20FB11D6C939F5F258192239383E88111
:10297000F981359780818062808380E001C082E0A8
:10298000DF91CF910895EF92FF920F931F93CF9312
:10299000DF937C01DC011296ED91FC9113979381FA
:1029A0008281981B858198238481891B861798F1E1
:1029B000662341F1842F952FDC016150462F50E0B2
:1029C0004F5F5F4F480F591FE701EA81FB819381F9
:1029D00082812581981B92238481981779F08C91AC
:1029E000938126952923608171818B01020F111D2E
:1029F000E80188839F5F8581982393831196A417AC
:102A0000B50711F7D701ED91FC9135978081806270
:102A1000808380E001C082E0DF91CF911F910F9110
:102A2000FF90EF900895DC011496ED91FC911597BD
:102A300093818281981789F0928185818695892377
:102A4000A081B181A80FB11D8C91DB018C939F5F98
:102A500085819823928380E0089583E008951F92F2
:102A60000F920FB60F9211240BB60F922F933F9334
:102A70004F935F936F937F938F939F93AF93BF9386
:102A8000CF93DF93EF93FF93A0916608B09167080F
:102A9000109711F16091C6001496ED91FC91159775
:102AA000938182812581981B92238481981761F0FC
:102AB000838126952823C081D181C20FD11D6883CF
:102AC0008F5F9581892383831696ED91FC911797EB
:102AD000309711F0CD011995FF91EF91DF91CF91D2
:102AE000BF91AF919F918F917F916F915F914F9126
:102AF0003F912F910F900BBE0F900FBE0F901F9024
:102B000018951F920F920FB60F9211240BB60F92C9
:102B10002F938F939F93AF93BF93EF93FF93E09186
:102B20006608F09167083097B9F00280F381E02DD4
:102B3000938182819817B1F092818581282F269503
:102B40002923A081B181A20FB11D2C919F5F892300
:102B500082832093C6000BC0E1ECF0E080818F7D82
:102B6000808305C0E1ECF0E080818F7D8083FF9160
:102B7000EF91BF91AF919F918F912F910F900BBECD
:102B80000F900FBE0F901F9018951F920F920FB6C7
:102B90000F9211240BB60F922F933F934F935F9395
:102BA0006F937F938F939F93AF93BF93CF93DF9355
:102BB000EF93FF93A0916808B0916908109711F105
:102BC0006091CE001496ED91FC91159793818281CE
:102BD0002581981B92238481981761F08381269523
:102BE0002823C081D181C20FD11D68838F5F958159
:102BF000892383831696ED91FC911797309711F0F6
:102C0000CD011995FF91EF91DF91CF91BF91AF91D8
:102C10009F918F917F916F915F914F913F912F91F4
:102C20000F900BBE0F900FBE0F901F9018951F9224
:102C30000F920FB60F9211240BB60F922F938F9312
:102C40009F93AF93BF93EF93FF93E0916808F09148
:102C500069083097B9F00280F381E02D9381828179
:102C60009817B1F092818581282F26952923A0817C
:102C7000B181A20FB11D2C919F5F89238283209384
:102C8000CE000BC0E9ECF0E080818F7D808305C031
:102C9000E9ECF0E080818F7D8083FF91EF91BF911F
:102CA000AF919F918F912F910F900BBE0F900FBE00
:102CB0000F901F9018951F920F920FB60F9211242C
:102CC0000BB60F922F933F934F935F936F937F9326
:102CD0008F939F93AF93BF93CF93DF93EF93FF9324
:102CE000A0916A08B0916B08109711F16091D6001D
:102CF0001496ED91FC911597938182812581981B03
:102D000092238481981761F0838126952823C081BE
:102D1000D181C20FD11D68838F5F95818923838301
:102D20001696ED91FC911797309711F0CD011995FA
:102D3000FF91EF91DF91CF91BF91AF919F918F91D3
:102D40007F916F915F914F913F912F910F900BBEAB
:102D50000F900FBE0F901F9018951F920F920FB6F5
:102D60000F9211240BB60F922F938F939F93AF93D3
:102D7000BF93EF93FF93E0916A08F0916B0830974F
:102D8000B9F00280F381E02D938182819817B1F030
:102D900092818581282F26952923A081B181A20FB8
:102DA000B11D2C919F5F892382832093D6000BC095
:102DB000E1EDF0E080818F7D808305C0E1EDF0E002
:102DC00080818F7D8083FF91EF91BF91AF919F9123
:102DD0008F912F910F900BBE0F900FBE0F901F90F1
:102DE00018951F920F920FB60F9211240BB60F92E7
:102DF0002F933F934F935F936F937F938F939F9303
:102E0000AF93BF93CF93DF93EF93FF93A0916C08A1
:102E1000B0916D08109711F1609136011496ED9103
:102E2000FC911597938182812581981B922384813F
:102E3000981761F0838126952823C081D181C20F24
:102E4000D11D68838F5F9581892383831696ED91C9
:102E5000FC911797309711F0CD011995FF91EF91E3
:102E6000DF91CF91BF91AF919F918F917F916F91A2
:102E70005F914F913F912F910F900BBE0F900FBE1E
:102E80000F901F9018951F920F920FB60F9211245A
:102E90000BB60F922F938F939F93AF93BF93EF93A4
:102EA000FF93E0916C08F0916D083097B9F00280C3
:102EB000F381E02D938182819817B1F09281858111
:102EC000282F26952923A081B181A20FB11D2C9115
:102ED0009F5F89238283209336010BC0E1E3F1E0F9
:102EE00080818F7D808305C0E1E3F1E080818F7D6B
:102EF0008083FF91EF91BF91AF919F918F912F911F
:102F00000F900BBE0F900FBE0F901F901895FC01F5
:102F1000411102C00E94C024842F90E09C012150E6
:102F2000310982239323892B11F00E94C024413858
:102F300010F00E94C024128213824483440F415037
:102F400045837183608380E090E00895EAE3FAE0CE
:102F500027E73DE1318320832AE73DE13383228364
:102F600025E83DE13583248329E83DE13783268345
:102F70002FE83DE1318720872BE93DE13387228728
:102F800020EA3DE1358724872CEA3DE13787268713
:102F90002CE83DE1318B208B21EB3DE1338B228B03
:102FA0002EEB3DE1358B248B682FCF013BC108957B
:102FB0006530F1F4FA0180818F7390E0982F8827B3
:102FC0002181822B90931F0280931E028281F0E464
:102FD0008F9FC0011124FA01238126952695822B0B
:102FE00090931D0280931C0281E080936E080895E7
:102FF000643051F080E090E490931D0280931C02B5
:1030000090931F0280931E0208950F931F9308ED63
:1030100017E120E034E244EF50E060E087E2F9D7C6
:103020009093700880936F0821E0892B09F020E0CD
:10303000822F1F910F91089580916F0890917008D1
:10304000009759F040E060E070E00E945A20843020
:1030500031F410926E0880E0089582E0089583E0D4
:10306000089580916F0890917008009739F064E09E
:103070000E94A620853021F083E0089582E0089523
:1030800080E0089560911E0270911F0280E090E040
:103090000E94682220E030E048EC52E40E94D122F5
:1030A00020E038EF4FE756E40C94FD21089560913D
:1030B0001C0270911D0280E090E00E94682220E0D6
:1030C00030E045E253E40E94D12220E038EF4FE7A0
:1030D00056E40E94FD2120E030E040E252E40C94EE
:1030E00096210895CF93DF9390E0FC01EE0FFF1F30
:1030F000E80FF91FEE0FFF1FEF58F74F2381211143
:103100000AC0EF01E091420AF091430A6A81888186
:103110009981199512C0DC01AA0FBB1FED01C80FE0
:10312000D91FCC0FDD1FCF58D74FE0914C0AF0913B
:103130004D0A6A81888199811995DF91CF9108950F
:10314000CF93DF9390E0FC01EE0FFF1FE80FF91F14
:10315000EE0FFF1FEF58F74F238121110AC0EF0137
:10316000E0914C0AF0914D0A6A8188819981199504
:1031700012C0DC01AA0FBB1FED01C80FD91FCC0F75
:10318000DD1FCF58D74FE091420AF091430A6A8180
:10319000888199811995DF91CF91089582E095E01A
:1031A0000E9411250F2EFAE3CF2EFAE0DF2EF02D2C
:1031B00004E0C1E7D8E010E08C81813069F0E8F0EC
:1031C000823039F5D6011C96ED91FC911D976A81EC
:1031D0008881998119951DC08D818F5F8A3010F487
:1031E0008D8317C01D82D6011C96ED91FC911D9711
:1031F0006A818881998119950CC08D81882331F06D
:10320000812F9EDF8D8181508D8303C00C83812FA0
:1032100069DF1F5F2696143079F685E090E00E9402
:10322000CA0EC7CFCF92DF92EF92FF920F931F93F8
:10323000CF93DF93062F0F2EFAE3EF2EFAE0FF2E47
:10324000F02DD7011896ED91FC91199766E087E271
:1032500090E01995C1E7D8E00F2EF8E2CF2ED12CDF
:10326000F02DD982C88286E08A831B8214E01C83F9
:1032700080E038DFD7011896ED91FC91199767E04F
:1032800087E290E01995DF82CE8287E088871986F1
:103290001A8781E027DFD7011896ED91FC911997E5
:1032A00065E083E390E01995D7011896ED91FC91C4
:1032B000199761E084E390E0199584E390E09D879D
:1032C0008C8785E08E871F86188B82E00BDFD70105
:1032D0001896ED91FC91199764E081E091E01995C1
:1032E000D7011896ED91FC91199761E082E091E089
:1032F000199582E091E09B8B8A8B1C8B1D8A1E8B1B
:1033000083E0F0DEE12CF12C20E030E040EC50E0F6
:1033100069E175E08EEC98E10E94410CDF91CF915C
:103320001F910F91FF90EF90DF90CF9008950F9332
:103330001F93CF93DF931F921F92CDB7DEB78C01FF
:1033400019822DC0E091ED08EC3250F481E08E0F2F
:103350008093ED08F0E0E35EF64F8A81808302C03F
:103360001092ED088A818A30D1F44091ED0850E046
:10337000FA01E55EF64F1082415051099E012F5F20
:103380003F4F6DE179E08091EE089091EF080E9447
:10339000F20A898181110E9428061092ED08BE016F
:1033A0006E5F7F4FC8013FDB882361F20F900F9063
:1033B000DF91CF911F910F9108950F931F93CF939A
:1033C000DF938C01EB018091EE089091EF080E9451
:1033D000B30AB80189E898E00E94DF24209779F0C9
:1033E000E9E8F8E001900020E9F7319780E290E009
:1033F00091838083BE0189E898E00E94D424E9E8A3
:10340000F8E0DF010D900020E9F711978DE09AE0D8
:1034100011969C938E9312961C9201900020E9F7CE
:103420003197E958F840AE2F89E898E0AC016A2F4F
:103430008091F0089091F108A6DA81110FC028E27E
:1034400035E04DE250E067E779E08091EE08909139
:10345000EF080E94340B87E799E002C080E090E01B
:10346000DF91CF911F910F910895AF92BF92CF92AC
:10347000DF92EF92FF920F931F93CF93DF936C0134
:10348000FC0101900020E9F731977F01E81AF90A61
:1034900005EA17E0C0E0D0E0F80160817181A70182
:1034A000C6010E94E624892B49F4FE01EE0FFF1F9E
:1034B000EC0FFD1FEC55F84F808107C021960D5F82
:1034C0001F4FC131D10541F780E1DF91CF911F91AD
:1034D0000F91FF90EF90DF90CF90BF90AF90089545
:1034E0006CDFC3CF08958091EE089091EF080C94A3
:1034F000B30A08958F929F92AF92CF92EF920F935B
:10350000CF93C82F41E060E070E088EC90E00E942B
:10351000870A9093EF088093EE080F2EF7E98F2E1D
:10352000F9E19F2EF02D6894AA24A6F86894CC2483
:10353000C6F8E12C00E023E040E051EE60E070E0EE
:103540008C2F5DD99093F1088093F008E091420AA6
:10355000F091430A64E087E091E01995CF910F91D3
:10356000EF90CF90AF909F908F900895882349F06F
:10357000E0914C0AF0914D0A64E088E091E01995E1
:103580000895E091420AF091430A64E088E091E0F6
:103590001995089560E070E080E495E00EDFE7E7BC
:1035A000F9E001900020E9F73197E757F94081E011
:1035B000759708F080E00895CF93DF93EC0160E009
:1035C00070E081E595E0F9DEE7E7F9E001900020A1
:1035D000E9F7E858F94039F467E779E0CE010E944D
:1035E000DF2480E002C0188281E0DF91CF9108954E
:1035F000FC0101900020E9F79F01215131092817B2
:10360000390729F4BC018FE795E06ACF089589E076
:103610000895FC0101900020E9F79F012151310933
:103620002817390729F4BC018EE895E059CF089591
:1036300089E00895FC0101900020E9F79F012152E3
:1036400031092817390729F4BC018DE995E048CFE5
:10365000089589E0089560E070E08CED95E040CF3A
:103660000895E82FF0E0EE0FFF1FE056F84F60815D
:10367000718185EE95E034DF811112C028E235E0DA
:103680004DE250E067E779E08091EE089091EF0815
:103690000E94340B882321F087E799E0E6CE089555
:1036A00087E799E0E2CE0895CF93DF931F92CDB7DD
:1036B000DEB7DB0111969C911197953108F087C018
:1036C000992381F160E070E0272F30E0462F50E031
:1036D000FD01E40FF51F928192959F709A3010F0D2
:1036E000995C01C0905DF901E85FF64F90832F5F10
:1036F0003F4FFD01E40FF51F92819F70492F50E06D
:103700004A30510514F0995C01C0905DF901E85F01
:10371000F64F90837E5F6F5F11969C9111976917AA
:1037200098F201C070E0E72FF0E0E85FF64F1082FA
:103730004C91811103C08EEE95E002C080EF95E0C0
:1037400028E039E03F932F931F924F939F938F93DD
:1037500084EF95E09F938F938AE499E09F938F93F2
:103760000E94412560E070E08AE499E0B9DE0FB67E
:10377000F894DEBF0FBECDBF8E3051F587E0898350
:10378000BE016F5F7F4F87E799E03CD18093F208DD
:10379000E981F0E0E958F64FDF010D900020E9F7EC
:1037A0001197AE1BBF0BAA2381F0BB271197CD0148
:1037B0000AF40196959587958093F308AF014F5FC2
:1037C0005F4F64E184EF98E049D18EE001C084E16D
:1037D0000F90DF91CF910895813019F064E076E089
:1037E00002C064EC76E088E096E07ACE08952F92ED
:1037F0003F924F925F926F927F928F929F92AF9281
:10380000BF92CF92DF92EF92FF920F931F93CF93CD
:10381000DF93CDB7DEB7A0970FB6F894DEBF0FBE2B
:10382000CDBF6DE476E089E596E0C7DD1EDE81114F
:10383000A3C080E2E1E2F2E0DE01119601900D9278
:103840008A95E1F79E012F5F3F4F6901E12CF12C32
:103850000F2EF5E6AF2EF6E0BF2EF02D0AE419E0AC
:103860000F2EFEE74F2EF6E05F2EF02D0F2EF5E91E
:103870008F2EF6E09F2EF02D0F2EFFEA6F2EF6E032
:103880007F2EF02D3E2C2F2CFF92EF92BF92AF9205
:103890001F930F930E94412560E070E0C8018DDD09
:1038A000E4DD0F900F900F900F900F900F9081110B
:1038B00063C032E03E15E8F4F60183818F93828184
:1038C0008F9381818F9380818F93FF92EF925F928C
:1038D0004F921F930F930E94412560E070E0C80152
:1038E0006CDDC3DD0FB6F894DEBF0FBECDBF811116
:1038F00043C02F923F929F928F921F930F930E94EB
:10390000412560E070E0C80158DDAFDD0F900F90F9
:103910000F900F900F900F9081112EC02F923F9219
:103920007F926F921F930F930E94412560E070E099
:10393000C80143DD9ADD0F900F900F900F900F900C
:103940000F90811119C03FEFE31AF30A84E0C80E0B
:10395000D11C98E0E916F10409F094CF60E070E022
:1039600087EC96E02ADD81DD811106C060E070E021
:1039700088ED96E022DD79DDA0960FB6F894DEBFE3
:103980000FBECDBFDF91CF911F910F91FF90EF90B0
:10399000DF90CF90BF90AF909F908F907F906F906F
:1039A0005F904F903F902F900895EF92FF920F936A
:1039B0001F93CF93DF93EC018B017A0181E00CDF41
:1039C00081110DC0CE0125DE811109C0C80132DE92
:1039D000811105C0C7010CDE811101C03CDEDF9101
:1039E000CF911F910F91FF90EF90089590E0FC010F
:1039F000EE0FFF1F8E0F9F1FFC01EC55F84F8181CA
:103A000092810895DC01009729F1FB012081FC01DE
:103A100001900020E9F73197E81BF90B822F90E025
:103A2000E817F907C8F080E008C0880F382F330F77
:103A3000330F830F8053890F2F5FFD01E20FF11DBC
:103A4000908130ED390F3A3010F49111EECFFB0137
:103A50002083089580E0089580E008950F931F93D8
:103A6000CF93DF93DC01EA012097E1F1FA010190A5
:103A70000020E9F73197E41BF50B329710F532C0BF
:103A80008D01040F151F30E0AE01420F531FFA01E4
:103A90009081913428F09753592F5295507F03C04D
:103AA000592F5295507F2C0F3D1FF9019181913470
:103AB00010F0975301C09053950FF80190838F5FDA
:103AC00001C080E0282F220F482F50E0FE01019016
:103AD0000020E9F73197EC1BFD0B4E175F0710F440
:103AE0008613CECFDF91CF911F910F910895FC01E6
:103AF00080810895FC01208181E090E002C0880F60
:103B0000991F6A95E2F782230895FC01808186233C
:103B10000895FC0160830895FC0110820895FC0162
:103B2000408121E030E002C0220F331F6A95E2F7A6
:103B3000242B20830895FC012081622B608308954B
:103B4000FC01408121E030E002C0220F331F6A9562
:103B5000E2F7242720830895FC01208162276083F7
:103B60000895FC01908121E030E002C0220F331F54
:103B70006A95E2F72095292320830895FC0190811E
:103B800060956923608308958091A709860F8093CB
:103B9000A7099091AA09913079F028F09230A9F004
:103BA000933019F108956F3F09F048C01092A709AA
:103BB00081E08093AA090895663809F03FC0109209
:103BC000A60982E08093AA090895E091A60981E000
:103BD0008E0F8093A609F0E0EC55F64F608382309B
:103BE00069F583E08093AA0908959091A60921E0E0
:103BF000290F2093A609963009F581110EC0E4EA39
:103C0000F9E0808190E0982F88272181820F911D13
:103C10009093AC098093AB0904C01092AC09109248
:103C2000AB091092AA09E091A809F091A90930976F
:103C300029F08091AB099091AC09199508958F9264
:103C40009F92AF92CF92EF920F93CF93DF93EB01BE
:103C50000F2EF4EC8F2EFDE19F2EF02D6894AA24F8
:103C6000A4F86894CC24C4F8E12C00E023E040E8F8
:103C700055E260E070E00E94FF139093AE098093DC
:103C8000AD09D093A909C093A809DF91CF910F91F5
:103C9000EF90CF90AF909F908F900895CF93DF9348
:103CA000CDB7DEB729970FB6F894DEBF0FBECDBFF4
:103CB00089E0E1E4F2E09E012F5F3F4FD9010190DE
:103CC0000D928A95E1F71092AC091092AB098091A0
:103CD000AD099091AE09009739F0422F532F69E05A
:103CE0000E94C31480E001C082E029960FB6F894C8
:103CF000DEBF0FBECDBFDF91CF910895E091B70930
:103D0000F091B809309709F0199508956450623020
:103D100008F03BC02091B609223079F018F4213028
:103D200031F030C0233081F02430A1F02BC022E0EC
:103D30002093B60961E00AC20895FA018081809358
:103D4000B30982E0DBCF089524E02093B60964E054
:103D5000FDC10895FA01818190E0982F8827208184
:103D6000822B9093B2098093B109838190E0982FC0
:103D700088272281822B9093B0098093AF0981E03C
:103D8000BDCF089580E0BACF08951092B60986E0BD
:103D9000B5CF08952091B9093091BA09211531059F
:103DA00041F0462FBC01C90185D1823021F080E06D
:103DB000089587E0089585E008950F931F939093E9
:103DC000B8098093B70906E81EE120E034E244EF29
:103DD00050E060E089E21DD19093BA098093B9095F
:103DE000892B11F080E001C088E01F910F910895A8
:103DF000CF93DF931F921F92CDB7DEB780EA8983FE
:103E000083E08A831092B60962E0CE010196C2DF98
:103E10000F900F90DF91CF910895CF93DF931F9272
:103E2000CDB7DEB784EB898383E08093B60961E088
:103E3000CE010196AFDF0F90DF91CF9108952F92C1
:103E40003F924F925F926F927F928F929F92AF922A
:103E5000BF92CF92DF92EF92FF920F931F93CF9377
:103E6000DF93C091AF09D091B009CF3F2FEFD207B8
:103E700041F06091B1097091B2096F3FEFEF7E0799
:103E800059F44FEF5FEF6FE77FE7FC014083518309
:103E90006283738383E099C01C0180E090E018D3B3
:103EA0002B013C01BE0180E090E012D34B015C018C
:103EB0008091B40990E0019624E6289FB001299FE3
:103EC000700D11248091B509803269F08033A1F022
:103ED0008031E1F40F2EC12CD12CF8ECEF2EF1E45F
:103EE000FF2EF02D1BC00F2EC12CD12CF6EDEF2E86
:103EF000F3E4FF2EF02D12C00F2EC12CF0E5DF2EC3
:103F0000FAE1EF2EF6E4FF2EF02D08C00F2EC12CA3
:103F1000D12CF0E8EF2EFFE3FF2EF02D072E000C42
:103F2000880B990BD7D2A70196013BD320E030E054
:103F30004CEC53E462D26B017C0125E83BEE41ED91
:103F40005FE3C501B4012DD39B01AC01C301B201F4
:103F5000EDD1A701960151D2162FD72FC82F092FC7
:103F60002DE33AE047E15FE3C301B2011AD32B012D
:103F70003C0126EF38E24CE55FE3C501B40111D303
:103F80009B01AC01C301B201D1D1A701960135D289
:103F9000C62ED72EE82EF92E262F372F482F592F31
:103FA000612F7D2F8C2F902FF8D2181624F01C2D06
:103FB000DD2DCE2D0F2D412F5D2F6C2F702FF10198
:103FC000408351836283738380E0DF91CF911F919F
:103FD0000F91FF90EF90DF90CF90BF90AF909F90A8
:103FE0008F907F906F905F904F903F902F900895AB
:103FF0008091C90981110CC08CE08093B8008FEFCB
:104000008093BB0084E08093BC0081E08093C90969
:104010000895AF92BF92CF92DF92EF92FF920F93EB
:104020001F93CF93DF93A82EB62E69017A0184E007
:1040300090E085D3EC01892B61F1A88281E0B81270
:1040400012C0C701B60120EA36E841E050E033D3A0
:10405000DA01C9014097A109B109B695A7959795CD
:104060008795898311C0C701B60120E83AE146E08F
:1040700050E021D3DA01C9014097A109B109B695F1
:10408000A7959795879589831B830A838C2F9D2FEE
:1040900002C080E090E0DF91CF911F910F91FF90DF
:1040A000EF90DF90CF90BF90AF9008958091BC00CB
:1040B00081700895FF920F931F93CF93DF93009722
:1040C000D1F14A30D0F5F42E8B01EC01EFDF8111F4
:1040D00036C08091BC099091BD09C817D90741F03D
:1040E00087DF89818093B800D093BD09C093BC0954
:1040F00081E08F0D8093BE098881880F8093BF096E
:10410000FF2089F0F801A0ECB9E04FEF4F0D642FCC
:1041100070E0CB010196B801680F791F81918D93F2
:10412000E617F707D9F788EF8093200285EA809396
:10413000BC0084E005C086E003C087E001C082E0E7
:10414000DF91CF911F910F91FF9008951F93CF930F
:10415000DF93009729F16B3028F5162FEC01A6DFCD
:10416000811122C08091BC099091BD09C817D9075F
:1041700041F03EDF89818093B800D093BD09C093A0
:10418000BC091093BE098881880F81608093BF09A4
:1041900088EF8093200285EA8093BC0085E005C00B
:1041A00086E003C087E001C082E0DF91CF911F91DC
:1041B00008951F920F920FB60F9211240BB60F9213
:1041C0002F933F934F935F936F937F938F939F931F
:1041D000AF93BF93EF93FF93E091B9008E2F90E0E0
:1041E000FC013897E135F10508F075C08827E458DF
:1041F000FF4F8F4F82C21092BB09E091BB098091A3
:10420000BE09E81770F481E08E0F8093BB09F0E0DF
:10421000E154F64F80818093BB0085E88093BC0019
:1042200072C084E98093BC008091BC099091BD0963
:10423000DC011296ED91FC911397309709F463C05D
:1042400020E040E050E064E019955DC0E091BB09DA
:1042500081E08E0F8093BB098091BB00F0E0E154B8
:10426000F64F80838091B900803411F41092BB091D
:104270002091BB0930E08091BE0990E0019728179A
:10428000390724F485EC8093BC003DC085E8809319
:10429000BC0039C08091BB00E091BB09F0E0E15463
:1042A000F64F808384E98093BC008091BC09909193
:1042B000BD09DC011296ED91FC911397309719F12D
:1042C0002091BE094FEB59E065E019951CC085EAC5
:1042D0008093BC0018C08091B9008093200284E0D4
:1042E0008093BC008091BC099091BD09DC011296BD
:1042F000ED91FC911397309731F020E040E050E0D1
:10430000609120021995FF91EF91BF91AF919F911C
:104310008F917F916F915F914F913F912F910F906E
:104320000BBE0F900FBE0F901F9018955058BB27D3
:10433000AA270ED021C112D130F017D120F031F4CC
:104340009F3F11F41EF407C10EF4E095E7FBFDC09A
:10435000E92F0E948F1378F3BA1762077307840757
:10436000950720F079F4A6F50C94B1130EF4E095BE
:104370000B2EBA2FA02D0B01B90190010C01CA011F
:10438000A0011124FF27591B99F0593F50F4503ECA
:1043900068F11A16F040A22F232F342F4427585FBC
:1043A000F3CF469537952795A795F0405395C9F7D4
:1043B0007EF41F16BA0B620B730B840BBAF091508C
:1043C000A1F0FF0FBB1F661F771F881FC2F70EC02B
:1043D000BA0F621F731F841F48F4879577956795FE
:1043E000B795F7959E3F08F0B1CF9395880F08F0E9
:1043F0009927EE0F9795879508950DD0BDC0B5D03C
:1044000048F0ACD038F021F45F3F21F09EC051114C
:104410000C94B213A0C00E948F1388F39923B9F3B0
:104420005523A1F3951B550BBB27AA2762177307CA
:10443000840738F09F5F5F4F220F331F441FAA1F6E
:10444000A9F334D00E2E3AF0E0E831D0915050402C
:10445000E695001CCAF72AD0FE2F28D0660F771FDA
:10446000881FBB1F261737074807AB07B0E809F0BE
:10447000BB0B802DBF01FF2793585F4F32F09E3F4B
:10448000510570F062C00C94B2135F3FE4F3983EA4
:10449000D4F3869577956795B795F7959F5FC9F79C
:1044A000880F911D9695879597F90895E1E0660F1D
:1044B000771F881FBB1F621773078407BA0720F096
:1044C000621B730B840BBA0BEE1F88F7E0950895FF
:1044D000E89409C097FB3EF490958095709561959E
:1044E0007F4F8F4F9F4F9923A9F0F92F96E9BB2754
:1044F0009395F695879577956795B795F111F8CFD0
:10450000FAF4BB0F11F460FF1BC06F5F7F4F8F4F3A
:104510009F4F16C0882311F096E911C0772321F030
:104520009EE8872F762F05C0662371F096E8862FC8
:1045300070E060E02AF09A95660F771F881FDAF71F
:10454000880F9695879597F9089597F99F6780E862
:1045500070E060E008959FEF80EC089500240A94D5
:104560001616170618060906089500240A9412164E
:104570001306140605060895092E0394000C11F481
:10458000882352F0BB0F40F4BF2B11F460FF04C02E
:104590006F5F7F4F8F4F9F4F089569D008F48FEF63
:1045A00008950CD0E9CFDADF28F0DFDF18F095238B
:1045B00009F0CBCFD0CF11240C94B2130E948F13EB
:1045C00090F3959FC1F3950F50E0551F629FF00146
:1045D000729FBB27F00DB11D639FAA27F00DB11D7F
:1045E000AA1F649F6627B00DA11D661F829F222708
:1045F000B00DA11D621F739FB00DA11D621F839F8F
:10460000A00D611D221F749F3327A00D611D231F64
:10461000849F600D211D822F762F6A2F11249F57B2
:10462000504092F0E9F088234AF0EE0FFF1FBB1FC5
:10463000661F771F881F91505040A9F79E3F510574
:1046400078F083CF0C94B2135F3FE4F3983ED4F339
:10465000869577956795B795F795E7959F5FC1F72D
:10466000FE2B880F911D9695879597F90895990FC0
:104670000008550FAA0BE0E8FEEF16161706E8072C
:10468000F907C0F012161306E407F50798F0621B4D
:10469000730B840B950B39F40A2661F0232B242B22
:1046A000252B21F408950A2609F4A140A6958FEF41
:1046B000811D811D0895A1E21A2EAA1BBB1BFD01BD
:1046C0000DC0AA1FBB1FEE1FFF1FA217B307E407F1
:1046D000F50720F0A21BB30BE40BF50B661F771F49
:1046E000881F991F1A9469F7609570958095909529
:1046F0009B01AC01BD01CF010895EE0FFF1F881F84
:104700008BBF0790F691E02D19940F931F93CF93D1
:10471000DF93869F8001879F100D969F100D1124B7
:10472000C8010DD0EC01009721F0A80160E070E015
:1047300034D1CE01DF91CF911F910F9108950F9346
:104740001F93CF93DF938230910510F482E090E0C5
:10475000E091520AF091530A20E030E0A0E0B0E08E
:10476000309719F14081518102811381481759070F
:10477000C8F08417950769F4109731F012960C93DE
:10478000129713961C9327C00093520A1093530A52
:1047900022C02115310519F04217530718F49A0168
:1047A000BD01EF01DF01F801DBCF21153105F9F083
:1047B000281B390B2430310580F48A819B816115D7
:1047C000710521F0FB019383828304C09093530A07
:1047D0008093520AFE01329644C0FE01E20FF31F9D
:1047E0008193919322503109398328833AC02091D3
:1047F000500A3091510A232B41F42091020230914A
:1048000003023093510A2093500A20910002309104
:1048100001022115310541F42DB73EB74091040244
:1048200050910502241B350BE091500AF091510A7A
:10483000E217F307A0F42E1B3F0B2817390778F077
:10484000AC014E5F5F4F2417350748F04E0F5F1FD6
:104850005093510A4093500A8193919302C0E0E033
:10486000F0E0CF01DF91CF911F910F910895CF9389
:10487000DF93009709F481C0FC0132971382128202
:10488000A091520AB091530A109781F4208131818E
:10489000820F931F2091500A3091510A281739072F
:1048A00051F5F093510AE093500A67C0ED0120E002
:1048B00030E0CE17DF0740F44A815B819E0141154D
:1048C0005105F1F0EA01F5CFD383C28340815181D4
:1048D000840F951FC817D90759F488819981840FCF
:1048E000951F0296918380838A819B819383828323
:1048F0002115310529F4F093530AE093520A3DC083
:10490000E901FB83EA8349915991C40FD51FEC1744
:10491000FD0761F480819181840F951F0296E90162
:1049200099838883828193819B838A83E0E0F0E08E
:1049300012968D919C911397009719F0FD01DC015F
:10494000F7CF8D919C9111979D012E5F3F4F820F64
:10495000931F2091500A3091510A2817390769F4A2
:10496000309729F41092530A1092520A02C013820F
:104970001282B093510AA093500ADF91CF9108950B
:1049800081E090E0F89458C3FB01DC0102C0019083
:104990000D9241505040D8F70895DC0101C06D934D
:1049A00041505040E0F70895FB01DC010D900020DC
:1049B000E9F7119701900D920020E1F70895FB01AE
:1049C000DC0101900D920020E1F70895FB01DC016C
:1049D0004150504088F08D9181341CF08B350CF49F
:1049E000805E619161341CF06B350CF4605E861B57
:1049F000611171F3990B0895881BFCCFCF93DF935E
:104A0000CDB7DEB7AE014A5F5F4FFA016191719198
:104A1000AF018091560A9091570A61D0DF91CF91F2
:104A200008950F931F93CF93DF93E091560AF0916F
:104A3000570A238121FF1BC08C01D0E0C0E0F801A0
:104A400081918F016091560A7091570ADB01189687
:104A5000ED91FC911997882331F01995892B79F301
:104A6000DFEFCFEFECCF8AE01995892B19F08FEFAC
:104A70009FEF02C08D2F9C2FDF91CF911F910F913F
:104A800008950F931F93CF93DF93CDB7DEB72E9783
:104A90000FB6F894DEBF0FBECDBF0E891F8986E02A
:104AA0008C831A8309838FEF9FE79E838D83AE01EA
:104AB000465E5F4F688D798DCE01019610D0EF81F3
:104AC000F885E00FF11F10822E960FB6F894DEBF26
:104AD0000FBECDBFDF91CF911F910F9108952F92FF
:104AE0003F924F925F926F927F928F929F92AF927E
:104AF000BF92CF92DF92EF92FF920F931F93CF93CB
:104B0000DF93CDB7DEB72B970FB6F894DEBF0FBE9D
:104B1000CDBF6C017B018A01FC0117821682838163
:104B200081FFBFC1CE0101963C01F6019381F701DF
:104B300093FD859193FF81917F01882309F4ADC195
:104B4000853239F493FD859193FF81917F01853200
:104B500021F4B60190E0D6D1E8CF912C212C312C54
:104B6000FFE1F315D8F08B3279F038F4803279F028
:104B70008332A1F4232D20611DC08D3261F080337A
:104B800069F4232D216016C0832D8260382EE32D19
:104B9000E4603E2E2AC0F32DF8601DC037FC2DC006
:104BA00020ED280F2A3040F08E32B9F436FC75C162
:104BB000232D2064322E19C036FE06C08AE0989E4E
:104BC000200D1124922E11C0EAE02E9E200D1124FA
:104BD000222EF32DF0623F2E08C08C3621F4832D57
:104BE0008068382E02C0883641F4F70193FD859124
:104BF00093FF81917F018111B3CF982F9F7D9554B1
:104C0000933028F40C5F1F4F9FE399830DC08336C8
:104C100031F0833771F0833509F055C020C0F801B9
:104C2000808189830E5F1F4F88248394912C5301C8
:104C300012C02801F2E04F0E511CF801A080B18093
:104C400036FE03C0692D70E002C06FEF7FEFC50133
:104C50004ED14C018201F32DFF773F2E15C0280164
:104C600022E0420E511CF801A080B18036FE03C044
:104C7000692D70E002C06FEF7FEFC5012DD14C01AF
:104C8000F32DF0683F2E820133FC19C0822D90E095
:104C900088169906A0F4B60180E290E033D12A94F8
:104CA000F5CFF50137FC859137FE81915F01B601A3
:104CB00090E028D121102A9421E0821A91088114D1
:104CC000910479F7E1C0843611F0893639F5F8019D
:104CD00037FE07C060817181828193810C5F1F4F15
:104CE00008C060817181072E000C880B990B0E5F44
:104CF0001F4FF32DFF763F2E97FF09C090958095AB
:104D0000709561957F4F8F4F9F4FF0683F2E2AE03F
:104D100030E0A30133D1882E861844C0853731F4A2
:104D2000232D2F7EB22E2AE030E025C0932D997FCF
:104D3000B92E8F36C1F018F4883579F0AEC08037BF
:104D400019F0883721F0A9C0E92FE061BE2EB4FE2A
:104D50000DC0FB2DF460BF2E09C034FE0AC0292F00
:104D60002660B22E06C028E030E005C020E130E029
:104D700002C020E132E0F801B7FE07C06081718116
:104D8000828193810C5F1F4F06C06081718180E03A
:104D900090E00E5F1F4FA301F1D0882E8618FB2DE7
:104DA000FF773F2E36FE0DC0232D2E7FA22E8914B5
:104DB00058F434FE0BC032FC09C0832D8E7EA82E21
:104DC00005C0B82CA32C03C0B82C01C0B92CA4FE7C
:104DD0000FC0FE01E80DF11D8081803321F49A2D72
:104DE000997EA92E09C0A2FE06C0B394B39404C054
:104DF0008A2D867809F0B394A3FC10C0A0FE06C0EB
:104E0000B21480F4280C922C9B180DC0B21458F4E4
:104E1000B60180E290E076D0B394F8CFB21418F4E3
:104E20002B1802C0982C212CA4FE0FC0B60180E3E1
:104E300090E068D0A2FE16C0A1FC03C088E790E015
:104E400002C088E590E0B6010CC08A2D867851F04A
:104E5000A1FE02C08BE201C080E2A7FC8DE2B60198
:104E600090E050D0891430F4B60180E390E04AD04D
:104E70009A94F8CF8A94F301E80DF11D8081B60170
:104E800090E040D08110F6CF222009F44ECEB6013A
:104E900080E290E037D02A94F7CFF601868197819F
:104EA00002C08FEF9FEF2B960FB6F894DEBF0FBEB8
:104EB000CDBFDF91CF911F910F91FF90EF90DF90C9
:104EC000CF90BF90AF909F908F907F906F905F90AA
:104ED0004F903F902F900895FC01059061507040D5
:104EE0000110D8F7809590958E0F9F1F0895FC01B3
:104EF0006150704001900110D8F7809590958E0F09
:104F00009F1F08950F931F93CF93DF93FB0123817E
:104F100021FD03C08FEF9FEF2CC022FF16C04681FA
:104F20005781248135814217530744F4A081B18110
:104F30009D012F5F3F4F318320838C9326813781E2
:104F40002F5F3F4F3783268314C08B01EC01FB0199
:104F50000084F185E02D1995892BE1F6D80116968C
:104F60008D919C911797019617969C938E93169707
:104F7000CE01DF91CF911F910F910895FA01AA27D9
:104F8000283051F1203181F1E8946F936E7F6E5F8C
:104F90007F4F8F4F9F4FAF4FB1E03ED0B4E03CD03A
:104FA000670F781F891F9A1FA11D680F791F8A1F1D
:104FB000911DA11D6A0F711D811D911DA11D20D084
:104FC00009F468943F912AE0269F11243019305D3E
:104FD0003193DEF6CF010895462F4770405D41932F
:104FE000B3E00FD0C9F7F6CF462F4F70405D4A337C
:104FF00018F0495D31FD4052419302D0A9F7EACF44
:10500000B4E0A6959795879577956795BA95C9F772
:1050100000976105710508959B01AC010A2E069465
:105020005795479537952795BA95C9F7620F731F1E
:0C503000841F951FA01D0895F894FFCF69
:10503C0000005A0A20000000000300000000CD13FD
:10504C00B8130000C600CE00D60036010040004068
:10505C00F8A027BE33E034C1332042C43360E5AE40
:10506C0033A0F2B133E0FFB433200DB833601ABB78
:10507C0033FF0186000000000079FF0179A00000D9
:10508C000000E6FF0179000000000086FF018700A8
:10509C000000000078FF0188000000000000434F72
:1050AC0032206C6576656C3A2025750A0074656D46
:1050BC00702D77616B65206572726F723A20256472
:1050CC000A0054656D702D72656164206572726F93
:1050DC00723A2025640A0048756D3A202564202018
:1050EC0054656D703A2025640A00434F3220736575
:1050FC006E736F723A202564004661696C6564209A
:10510C00746F206665746368206C696768742064CA
:10511C006174613A2025640A004C696768742073D5
:10512C00656E736F72206E6F7420726561647900A6
:10513C004C696768743A2025640A004C7578206FB6
:10514C00766572666C6F7700466163746F72795224
:10515C00657374203E25733C0A00436F6E66696765
:10516C0075726520746F204555383638203E25738E
:10517C003C0A004765742048574555493A20257329
:10518C00203E25733C200A00536574204465764507
:10519C0055493A202573203E25733C0A003031389E
:1051AC006363323566373234613835313763626662
:1051BC00643736336463313132363631340063351B
:1051CC0033653866396631303830316663340053B4
:1051DC006574204F544141204964656E746974793B
:1051EC00206170704555493A2573206170704B45AC
:1051FC00593A2573206465764555493A2573203E06
:10520C0025733C0A0053617665206D6163203E2551
:10521C00733C0A005365742041646170746976654F
:10522C00204461746120526174653A204F4E203ED7
:10523C0025733C0A004A6F696E204E6574776F7255
:10524C006B2054726965734C6566743A2564203E14
:10525C0025733C0A0055706C6F6164204D65737347
:10526C00616765203E25733C0A0054656D7065725C
:10527C006174757265206D6561737572656D656EAF
:10528C007400434F32206D6561737572656D656E88
:10529C0074004C69676874206D6561737572656D17
:1052AC00656E7400576174657220736572766F0059
:1052BC004C6564004661696C656420746F20696E8E
:1052CC00697469616C697A652074656D7065726169
:1052DC00747572652073656E736F72004661696CCC
:1052EC00656420746F20696E697469616C697A6594
:1052FC00206C696768742073656E736F723A202531
:10530C00640A004661696C656420746F20656E6187
:10531C00626C65206C696768742073656E736F725C
:10532C002025640A0049444C4500546D7220537684
:10533C00630048414C206C6564207461736B20736E
:10534C0074617274656421210048414C5F4C454482
:10535C0000737973207265736574006D61632070DE
:10536C0061757365006D616320726573756D6500A1
:10537C0073797320666163746F7279524553455427
:10538C000073797320676574206877657569006DA3
:10539C006163206765742067776E62006D616320BE
:1053AC00736574206C696E6B63686B202564006D8B
:1053BC0061632073657420646576657569006D6141
:1053CC00632073657420617070657569006D61632D
:1053DC0020736574206170706B6579006D6163205A
:1053EC00736574206E776B736B6579006D616320E8
:1053FC0073657420617070736B6579006D616320E7
:10540C007365742064657661646472006D616320F9
:10541C0073617665006D6163206A6F696E00756EED
:10542C00636E66006D61632074782025732025649B
:10543C00202573006F6666006D61632073657420B0
:10544C00616472006D616320676574206164720031
:10545C006D616320736574206472202564006D6136
:10546C006320676574206472006D616320736574DA
:10547C0020727864656C61793120256400332038A2
:10548C003639353235303030006D616320736574D8
:10549C0020727832006D616320736574206368201C
:1054AC00646379636C6520256420373939006D613C
:1054BC0063207365742063682066726571202564AF
:1054CC0020256C75006D6163207365742063682002
:1054DC00647272616E676520256420302037006D20
:1054EC0061632073657420636820737461747573D1
:1054FC00202564206F6E006D6163207365742070CD
:10550C0077726964782031006D6163207365742053
:10551C00726574782037006F74616100616270008D
:10552C004B4559535F4E4F545F494E4954004E4FB3
:10553C005F465245455F43480053494C454E540025
:10554C0042555359004D41435F504155534544001A
:10555C0044454E494544004143434550544544005D
:10556C00494E56414C49445F504152414D004E4FBB
:10557C00545F4A4F494E454400494E56414C4944AC
:10558C005F444154415F4C454E004652414D455F8E
:10559C00434F554E5445525F4552525F52454A4F08
:1055AC00494E5F4E4545444544004D41435F545878
:1055BC005F4F4B004D41435F52585F4F4B004D4185
:1055CC00435F4552524F5200554E4B4E4F574E0073
:1055DC00E706EC06008B0701920702F00603FE06B5
:1055EC0004090705100706150707200708270709F0
:1055FC0030070A3E070B49070C5A070D7A070E8431
:08560C00070F8E07109807003C
:00000001FF
