S00B00006170702E73726563D8
S113000006C2000024C2000022C2000020C2000078
S11300101EC200001CC200001AC2000018C2000068
S113002016C2000014C2000012C2000010C2000078
S1130030D4C600000CC200000AC2000008C20000BE
S113004006C2000004C2000002C2000000C2000098
S1130050FEC10000FCC10000FAC10000F8C10000AC
S1130060F6C100000C942F150C948115F0C100000A
S1130070EEC10000ECC10000EAC10000E8C10000CC
S1130080E6C10000E4C10000E2C10000E0C10000DC
S11300900C94C5150C941716DAC100000C94EE20CC
S11300A0D6C10000D4C10000D2C10000D0C10000FC
S11300B0CEC10000CCC10000CAC10000C8C100000C
S11300C0C6C10000C4C10000C2C100000C945B168C
S11300D00C94AD16BCC100000C94F1160C9443179B
S11300E0B6C10000960196019601C501CD01DC015F
S11300F096019601C501CD01102180218021802126
S11301008021802180218021102180218021802153
S11301108021802180218021122180218021802141
S113012080218021802180218021802180218021C3
S11301308021802180218021122180218021802121
S113014080218021802180218021802180218021A3
S113015080218021802180217C2180218021802197
S113016080218021802180214721802180218021BC
S11301708021802180218021802180218021802173
S113018080218021802180213B21802180218021A8
S113019080218021802180215F2102EF17E00F2E32
S11301A0FAE1EF2EF8E0FF2EF02D8091F10788237D
S11301B011F10FB6F8940F92D8011596ED91FC91B8
S11301C01697C681D781CE0102966DD48091E70738
S11301D081508093E7078091F10781508093F10764
S11301E00F900FBE8F89988DEBD3CE01E9D3809108
S11301F0F1078111DECFF7018081823008F028D524
S11302000E944313D2CFCF93DF9300D000D0CDB759
S1130210DEB7CE0101964C0144244394E12CF12C29
S1130220512CC82ED92CE0914808F09149088081BE
S1130230882309F4D8C00580F681E02DA080B18020
S11302400E94830DC4010E94D5128C018981811101
S113025049C00A151B05B0F10E944D0EE0914808F3
S1130260F09149080580F681E02D66807780C3010E
S1130270029619D4D30153968C91539782FF17C0D9
S11302801C966D917C911D976A0D7B1D9501A801AB
S1130290C3010E941612882369F00E2D1F2D2E2DE6
S11302A03F2DA501652DC3010E948E1203C08E7FD0
S11302B0F301838BD3015096ED91FC915197C301C7
S11302C0199585C0452DB501601B710B80914408BB
S11302D0909145080E9482090E944D0E811177C0B9
S11302E0B7D475C00E944D0E72C0898188230CF466
S11302F06EC0AC80BD80F50182859385892B19F091
S1130300C5010296D0D3CE0106960E94D512AC0147
S1130310E9810E2E000CFF0BEA30F10508F057C0FE
S11303208827EE58FF4F8F4F0C949223D501539694
S11303308C915397816053968C9353972A813B8178
S11303401C966D917C911D97620F731FC5010E94CD
S113035016128823E1F1D5015096ED91FC91519745
S1130360C5011995F501838982FF31C04A815B81FA
S113037084859585480F591F0E2D1F2D2E2D3F2D39
S1130380652DC5010E948E1222C0D50153968C9111
S113039053978E7F53968C931AC0F501838981609D
S11303A0838B6A817B8175876487640F751F9A01CB
S11303B0C5010E9416120BC0D50153968C9181FD84
S11303C003C0C501FDD203C08E7FF501838B4E2D82
S11303D05F2D6C2D7D2D809144089091450809D79F
S11303E0811183CF20CF0E94830DC4010E94D512B6
S11303F08C018981811176CFE0914608F0914708FC
S11304008081442D8111452DAE2CBF2C5CCF11244D
S11304101FBECFEFD1E2DEBFCDBF00E00CBF17E0BF
S1130420A0E0B2E0E6E6F0E500E00BBF02C0079012
S11304300D92A03DB107D9F72AE0A0EDB7E001C0C5
S11304401D92A235B207E1F702D20C943128D8CD1F
S11304508091C2099091C30918161906CCF786E059
S113046090E00E94CA0E8091C2099091C30901973D
S11304709093C3098093C2091816190684F3E8CF30
S11304808093280A9093290A9F938F938EE492E095
S11304909F938F930E9413250F900F900F900F90AE
S11304A008950F2EFDE5EF2EF2E0FF2EF02D02E76A
S11304B012E0C7E8D2E08EE390E00E94CA0E0E94E8
S11304C01D18282F30E02115310569F0233031053E
S11304D051F01F928F93FF92EF920E9413250F9079
S11304E00F900F900F9086E090E00E94CA0E0E9439
S11304F03218282F30E02115310569F023303105F9
S113050051F01F928F931F930F930E9413250F9006
S11305100F900F900F9086E090E00E94CA0E0E9408
S113052043180E945E137093310A6093300A0E944C
S113053058180E945E1360932A0A70932B0A7F93C3
S11305406F938091310A8F938091300A8F93DF9358
S1130550CF930E9413250F900F900F900F900F9040
S11305600F90A9CFCAE9D2E08EE390E00E94CA0EB0
S11305700E94641E90E00097B9F39F938F93DF93DA
S1130580CF930E9413250F900F900F900F90ECCFF4
S1130590C9EAD2E08EE390E00E94CA0E0E94231FB3
S11305A090E00097B9F39F938F93DF93CF930E94CA
S11305B013250F900F900F900F90ECCFCF93DF93F4
S11305C000D01F92CDB7DEB7813029F089EC92E0DC
S11305D00E94262525C0CE0101960E94351F811157
S11305E01BC069817A818B819C8160932C0A7093F2
S11305F02D0A80932E0A90932F0A0E9463137F93EF
S11306006F9380EE92E09F938F930E9413250F9037
S11306100F900F900F9004C08BEE92E00E9426255D
S11306200F900F900F900F90DF91CF910895EF925C
S1130630FF921F93CF93DF930E94CB1A0E940C1D4D
S11306409F938F9388EF92E09F938F930E9413253B
S11306500E94141C0E940C1D9F938F938AE093E0C8
S11306609F938F930E94132584EC99E00E94DD1AD6
S11306700E940C1DC4ECD9E0DF93CF939F938F931A
S113068083E293E09F938F930E941325CE010E94EF
S1130690F91A0E940C1D9F938F93DF93CF9388E3E5
S11306A093E09F938F930E941325AE016DE473E052
S11306B08EE693E00E94E71C0E940C1D9F938F938B
S11306C0DF93CF938DE493E09F938F938EE693E033
S11306D09F938F938FE793E09F938F930E941325AB
S11306E00E942C1B0E940C1D9F938F9385EB93E01B
S11306F09F938F930E9413258DB79EB782960FB652
S1130700F8949EBF0FBE8DBF81E00E94ED1B0E9436
S11307100C1D9F938F9384EC93E09F938F930E947F
S113072013250F900F900F900F90C5E0D0E00F2E7F
S1130730F5EEEF2EF3E0FF2EF02D80E00E94321B49
S1130740182F0E940C1D9F938F93DF93CF93FF92DA
S1130750EF920E9413250F900F900F900F900F901F
S11307600F90183031F08FE290E00E94CA0E21976A
S113077021F7DF91CF911F91FF90EF900895CF93D0
S1130780DF93CDB7DEB766970FB6F894DEBF0FBE22
S1130790CDBF81E00E94B71A82E090E00E94CA0EA9
S11307A080E00E94B71A86E990E00E94CA0E0E9477
S11307B0741A3DDF8CE090E00E94CA0E86E08A83C2
S11307C085E089830F2EF0E3AF2EFAE0BF2EF02DE3
S11307D00F2EFAE2CF2EFAE0DF2EF02D0F2EF2ECE0
S11307E0EF2EF9E0FF2EF02D05E014E08FE290E00B
S11307F00E94CA0EF50180818B83F60180818C836F
S11308008091280A9091290A9D838E8360912C0AF5
S113081070912D0A80912E0A90912F0A0E946313E1
S11308206F83F70180818887BE016F5F7F4F80E00F
S11308300E94551B0E940C1D9F938F931F930F932F
S11308400E9413250F900F900F900F90CFCFEF922F
S1130850FF920F9383E00E94A61781E00E947B1A07
S113086080E00E94D61378940F2EF8EDEF2EF7E077
S1130870FF2EF02D01E020E030E040EC50E06AE192
S113088074E081E592E0FDD70F2EF6EDEF2EF7E050
S1130890FF2EF02D20E030E040EC50E062E374E005
S11308A082EB92E0EED70F2EF4EDEF2EF7E0FF2E61
S11308B0F02D20E030E040EC50E062E474E088EC9D
S11308C092E0DFD70F2EF2EDEF2EF7E0FF2EF02DA2
S11308D020E030E040EC50E064E574E088E292E02F
S11308E0D0D70F2EF0EDEF2EF7E0FF2EF02D03E022
S11308F020E030E040EC50E060E674E08FEB93E001
S1130900C0D780E00E94D61378940E940518811104
S11309102AC060E472E083E00E94351E8EED92E00E
S11309200E94F31E882361F01F928F938CE894E059
S11309309F938F930E9413250F900F900F900F9009
S11309400E940E1F882361F01F928F9383EB94E023
S11309509F938F930E9413250F900F900F900F90E9
S11309600E94510DFFCF84E694E00E94262581E089
S113097090E00F91FF90EF900895E8E0F1E090810E
S1130980907F908390818F70982B90830895E8E0F6
S1130990F1E08081807F80830895CF93DF93EC0121
S11309A00E94830DCE010E94B423EC010E944D0EDF
S11309B0209711F40E944413CE01DF91CF91089542
S11309C0CF93DF93009741F0EC010E94830DCE0199
S11309D00E944C240E944D0EDF91CF910895FC019A
S11309E00396928381832FEF3FEF3483238396838F
S11309F085839087878310820895FC011186108671
S1130A000895CF93DF939C01FB01DC011196CD91F6
S1130A10DC911297D383C2838C819D8195838483D7
S1130A208C819D81DC0113967C936E9312977D8358
S1130A306C8331872087F90180818F5F8083DF9108
S1130A40CF910895CF93DF93EB01488159814F3FB4
S1130A502FEF520721F4FC01A781B0850DC0DC0102
S1130A60139601C0DF011296ED91FC91139720813A
S1130A70318142175307B0F71296ED91FC91139709
S1130A80FB83EA83D583C483BD83AC831396DC9351
S1130A90CE93129799878887FC0120812F5F20834A
S1130AA0DF91CF910895CF93DF93FC01A085B185A9
S1130AB0C281D381848195819D838C83C481D581B6
S1130AC0828193819B838A8311968D919C91129745
S1130AD0E817F90731F48481958112969C938E93DB
S1130AE01197118610868C9181508C938C91DF9193
S1130AF0CF91089531E1FC013083319722E22083C4
S1130B003197A3E3A0833197608331977083319742
S1130B10108231971082319760E860833197108298
S1130B203197108231971082319762E06083319758
S1130B3063E06083319764E06083319765E06083AC
S1130B40319766E06083319767E06083319768E0AE
S1130B506083319769E06083319760E16083319706
S1130B603083319732E13083319733E130833197E9
S1130B7034E13083319735E13083319736E1308386
S1130B80319737E13083319738E13083319739E158
S1130B903083319730E23083319731E230833197BB
S1130BA02083319723E22083319740833197508308
S1130BB0319726E22083319727E22083319728E278
S1130BC02083319729E22083319720E320833197D2
S1130BD021E3208389970895A89590EC88E10FB6C6
S1130BE0F894A895809360000FBE90936000A09144
S1130BF03E08B0913F08CD91CDBFDD91DEBFFF919E
S1130C00EF91DF91CF91BF91AF919F918F917F91A0
S1130C106F915F914F913F912F911F910F91FF9091
S1130C20EF90DF90CF90BF90AF909F908F907F9088
S1130C306F905F904F903F902F901F900F900CBE3D
S1130C400F900BBE0F900FBE0F90089581E0089592
S1130C500F920FB6F8940F920BB60F920CB60F9238
S1130C601F9211242F923F924F925F926F927F9224
S1130C708F929F92AF92BF92CF92DF92EF92FF92A8
S1130C800F931F932F933F934F935F936F937F9390
S1130C908F939F93AF93BF93CF93DF93EF93FF9380
S1130CA0A0913E08B0913F080DB60D920EB60D927C
S1130CB00E94DB0EA0913E08B0913F08CD91CDBFBC
S1130CC0DD91DEBFFF91EF91DF91CF91BF91AF91A5
S1130CD09F918F917F916F915F914F913F912F9150
S1130CE01F910F91FF90EF90DF90CF90BF90AF9046
S1130CF09F908F907F906F905F904F903F902F9038
S1130D001F900F900CBE0F900BBE0F900FBE0F9054
S1130D1008950F920FB6F8940F920BB60F920CB67B
S1130D200F921F9211242F923F924F925F926F92D3
S1130D307F928F929F92AF92BF92CF92DF92EF9267
S1130D40FF920F931F932F933F934F935F936F9350
S1130D507F938F939F93AF93BF93CF93DF93EF933F
S1130D60FF93A0913E08B0913F080DB60D920EB6C8
S1130D700D9213BED8D681110E94DB0EA0913E08BD
S1130D80B0913F08CD91CDBFDD91DEBFFF91EF91D2
S1130D90DF91CF91BF91AF919F918F917F916F918F
S1130DA05F914F913F912F911F910F91FF90EF9081
S1130DB0DF90CF90BF90AF909F908F907F906F9077
S1130DC05F904F903F902F901F900F900CBE0F900C
S1130DD00BBE0F900FBE0F9008959BDF18950FB6B2
S1130DE0F8940F92FC01928D0F900FBE81E0911147
S1130DF080E008950F931F93CF93DF93EC01042FAA
S1130E001A8D4C8D41110CC088819981892B09F070
S1130E1042C08C819D810E9431101D821C8242C07F
S1130E20011117C050E08A819B810E94D9242C8D26
S1130E308A819B81820F911D9B838A832C813D81B2
S1130E408217930750F1888199819B838A8380E07C
S1130E5029C050E08E819F810E94D9248C8D90E01E
S1130E609195819591092E813F81280F391F3F83E8
S1130E702E83488159812417350730F42C813D8114
S1130E80820F931F9F838E83023049F4112349F00C
S1130E90115080E007C080E005C080E003C080E01E
S1130EA001C080E01F5F1A8FDF91CF911F910F91D6
S1130EB00895FC01448D4423A9F050E02681378134
S1130EC0240F351F3783268384819581281739079A
S1130ED020F08081918197838683CB01668177811D
S1130EE00C94D9240895EF92FF920F931F93CF93FC
S1130EF08C010FB6F8940F92FC01C68D1C16ACF44D
S1130F008189811106C011C0F8018189811105C050
S1130F100CC07801F1E1EF0EF11CC7010E94920FA1
S1130F2081110E941A10C15079F78FEFF801868F52
S1130F300F900FBE0FB6F8940F92C58D1C16A4F433
S1130F408085811106C010C0F8018085811105C01B
S1130F500BC07801F8E0EF0EF11CC701E3D7811153
S1130F600E941A10C15081F78FEFF801858F0F90FE
S1130F700FBECF911F910F91FF90EF900895CF93E3
S1130F80DF93EC010FB6F8940F92E881F9818B8D11
S1130F902C8D90E030E0829FA001839F500D929FA2
S1130FA0500D11244E0F5F1F5D834C831A8EFB83FB
S1130FB0EA830197829FA001839F500D929F500D59
S1130FC01124CF01840F951F9F838E838FEF8D8F04
S1130FD08E8F61110AC08885882369F0CE01089636
S1130FE0A1D7882341F034DE06C0CE010896F7DC91
S1130FF0CE014196F4DC0F900FBE81E0DF91CF91DA
S11310000895FF920F931F93CF93DF93082F162F0A
S1131010F42E6623B9F0869FC00111248196BDDCAD
S1131020EC01009741F414C00B8F1C8F61E0CE01DA
S1131030A6DFF8A20DC0819699838883F5CFD98362
S1131040C883F2CF81E290E0A8DCEC01892BB9F7E8
S1131050CE01DF91CF911F910F91FF9008959F9240
S1131060AF92BF92CF92DF92EF92FF920F931F93B2
S1131070CF93DF9300D01F921F92CDB7DEB78C01C0
S11310806B015D834C83A22EB12C992493947C0133
S113109088E0E80EF11C0FB6F8940F92F801928DD7
S11310A0838D981718F0F2E0AF1215C04A2DB601DF
S11310B0C801A0DEF8019189992339F0C80141964D
S11310C031D7882321F0C4DD02C08111C1DD0F9026
S11310D00FBE81E045C08C819D81892B21F40F9046
S11310E00FBE80E03DC0B11004C0CE01019662D7AE
S11310F0B92C0F900FBE07D50FB6F8940F92F801D4
S1131100858D8F3F09F4158EF801868D8F3F09F484
S1131110168E0F900FBEBE016C5F7F4FCE010196FD
S113112054D7811119C00FB6F8940F92F801928D1B
S1131130838D0F900FBE98130BC06C817D81C70106
S1131140C8D6C801D0DEA9D58111A5CF81DDA3CF32
S1131150C801C9DEA2D59FCFC801C5DE9ED580E0F7
S11311600F900F900F900F900F90DF91CF911F91E0
S11311700F91FF90EF90DF90CF90BF90AF909F9032
S11311800895EF92FF920F931F93CF93DF938A01F9
S1131190FC01528D338D531710F02230E1F4422FAD
S11311A07801EC011E8D26DE1F3F79F4898988239E
S11311B0A1F0CE014196B6D6882389F0E114F1045A
S11311C081F081E0F70180830DC0FF24F394F10ED8
S11311D0FE8E81E007C080E005C081E003C081E0AD
S11311E001C081E0DF91CF911F910F91FF90EF90AB
S11311F008959F92AF92BF92CF92DF92EF92FF92A7
S11312000F931F93CF93DF9300D01F921F92CDB7FC
S1131210DEB78C015B015D834C83E12C99249394AC
S11312206C0181E1C80ED11C0FB6F8940F92F8013D
S1131230F28CFF2091F0B501C8013BDEFA94F8016D
S1131240F28E8085882329F0C80108966BD6811117
S1131250FFDC0F900FBE81E044C08C819D81892BFF
S113126021F40F900FBE80E03CC0E11004C0CE0119
S11312700196A0D6E92C0F900FBE45D40FB6F89472
S11312800F92F801858D8F3F09F4158EF801868D34
S11312908F3F09F4168E0F900FBEBE016C5F7F4F17
S11312A0CE01019692D6811113C0C80198DD88231E
S11312B059F06C817D81C6010CD6C80114DEEDD4D1
S11312C08111B2CFC5DCB0CFC8010DDEE6D4ACCFFE
S11312D0C80109DEE2D4C80182DD882309F4A4CF61
S11312E080E00F900F900F900F900F90DF91CF91AF
S11312F01F910F91FF90EF90DF90CF90BF90AF9030
S11313009F900895CF93DF93EC010FB6F8940F925A
S11313108D8D8F3F09F41D8E8E8D8F3F09F41E8EA7
S11313200F900FBE8A8D811103C0CE014196E2D584
S1131330CE01D9DDDF91CF910895FC01448155811F
S113134022813381240F351F80819181B901681B6B
S1131350790BCB016417750710F0841B950B089566
S1131360AF92BF92CF92DF92EF92FF920F931F93AF
S1131370CF93DF936C015B017A01FC01C281D381BD
S1131380048115810C1B1D0B4017510708F48A01B9
S1131390F60184859585A801B5018C0F9D1F0E94D7
S11313A0D9240E151F0558F4A701401B510BB50194
S11313B0600F711FF601848595850E94D924CE01A2
S11313C08E0D9F1DF601248135818217930710F03D
S11313D0821B930BF60193838283C701DF91CF9124
S11313E01F910F91FF90EF90DF90CF90BF90AF903F
S11313F00895CF92DF92EF92FF920F931F93CF93B2
S1131400DF931F921F92CDB7DEB75A83498321150C
S11314103105C9F06B017C01FC01868580FD08C0A3
S1131420CA012417350708F4C9019A83898311C0B6
S11314302017310758F042E050E0BE016F5F7F4F44
S1131440C7018EDF06C080E090E008C080E090E035
S113145005C049815A81B601C70182DF0F900F9000
S1131460DF91CF911F910F91FF90EF90DF90CF907C
S11314700895AF92BF92CF92DF92EF92FF920F93B3
S11314801F93CF93DF937C015B01E901421753075C
S113149008F4EA01209779F1F70100811181C480F1
S11314A0D580C01AD10ACC15DD0508F46E01F70108
S11314B064857585600F711FA601C5010E94D9243A
S11314C0CC16DD0658F4AE014C195D09F7016485AC
S11314D07585C5018C0D9D1D0E94D9240C0F1D1FFF
S11314E0F701848195810817190710F0081B190B5F
S11314F0F70111830083CE01DF91CF911F910F91EA
S1131500FF90EF90DF90CF90BF90AF900895EF924F
S1131510FF921F93CF93DF93EB0111E0413009F069
S113152010E0209711F4C1E0D0E07C012FEFE21A23
S1131530F20A419632DA009781F020E1FC0111921F
S11315402A95E9F79C01205F3F4FFC0135872487EA
S1131550F582E482D783C6831687DF91CF911F91EA
S1131560FF90EF900895CF93DF93FC0127850FB68A
S1131570F8940F9280859185892BD1F48285938587
S1131580892BC1F486854681578164817581A48540
S1131590B58590E1EF0119929A95E9F7B587A4878B
S11315A075836483578346838687278781E003C0D6
S11315B080E001C080E00F900FBEDF91CF910895CD
S11315C0FC01248135818081918142815381820F84
S11315D0931F0197841B950B8217930710F0821BAE
S11315E0930B0895AF92BF92CF92DF92EF92FF9246
S11315F00F931F93CF93DF93EC015B016A01790191
S11316008E8580FF04C08A010E5F1F4F01C08A01CE
S1131610CE01D6DF9C01A601B501CE01EADE6C0144
S1131620892BB1F0CE0189DE2E813F818217930789
S113163078F088859985892B59F08885998500E00B
S113164010E020E040E050E0BA014CD6198618863C
S1131650C601DF91CF911F910F91FF90EF90DF9022
S1131660CF90BF90AF9008956F927F928F929F9288
S1131670AF92BF92CF92DF92EF92FF920F931F939C
S1131680CF93DF931F921F92CDB7DEB76C013B015E
S11316904A017901FC01868580FD03C0A12CB12C8F
S11316A004C06894AA24A1F8B12CE114F10429F12E
S11316B00FB6F8940F92C60140DE8C01A816B90645
S11316C038F080E090E09ED6B9D4F6019187808707
S11316D00F900FBEA016B106B0F000E010E020E0BD
S11316E030E0A90160E070E0CB01FBD4F601118683
S11316F01086C60122DE8C0103C0C6011EDE8C01E9
S1131700A016B106B8F5A114B104C1F0F601E08049
S1131710F1809801A501BE016F5F7F4FC601A9DE6C
S113172089819A810A191B098816990630F4F601F1
S1131730F182E082812C912C01C04C019801A4011A
S1131740B301C60196DE7C01892BB1F0DCD1F60130
S113175082859385892B61F08285938500E010E072
S113176020E040E050E0BA013FD5F601138612862E
S113177094D202C0E12CF12CC7010F900F90DF919D
S1131780CF911F910F91FF90EF90DF90CF90BF907A
S1131790AF909F908F907F906F900895E09106088E
S11317A0F09107088081811107C08FEF9FEF90931C
S11317B0DE078093DD070895E0910608F09107089D
S11317C00580F681E02D0680F781E02D82819381EA
S11317D09093DE078093DD070895FF920F931F9384
S11317E0CF93DF93EC01F62E0091E5071091E60705
S11317F080913E0890913F08029655D9CF3F8FEFD4
S1131800D80761F4FF2051F060913E0870913F08C1
S11318106E5F7F4F88EE97E0F4D82DC0C00FD11FC4
S1131820E0913E08F0913F08D383C283C017D107EB
S113183060F460913E0870913F0880910408909193
S113184005086E5F7F4FFED816C060913E08709108
S11318503F0880910608909107086E5F7F4FF2D889
S11318608091DD079091DE07C817D90720F4D09343
S1131870DE07C093DD07DF91CF911F910F91FF9099
S113188008954F925F926F927F928F929F92AF9240
S1131890BF92CF92DF92EF92FF920F93CF93DF9399
S11318A04C016B015A012901CA0177D83C01892BEB
S11318B009F4E6C08CE290E070D8EC01892B99F031
S11318C0788E6F8AA50165EA70E0C3010E94E22464
S11318D081E0A81AB1088F89988DA80EB91EC11489
S11318E0D10421F41FC0C3016BD8CAC0D6018C91A6
S11318F0898F8C918823A1F0AE01465E5F4FF6017B
S11319003196B8E0CB0ED11CCF012191DA012D9391
S1131910AD01DC018C91882319F0EC15FD05A1F7CC
S113192018A201C0198E043008F003E00E8B0BA33B
S11319301CA26E01B2E0CB0ED11CC6015ED8CE0152
S11319400C965BD8D987C88784E090E0801B910906
S11319509D878C87DB8BCA8B1EA21DA21FA218A693
S113196019A61AA61BA6A201B401C501C3D899835E
S11319708883E114F10419F0F701D183C0830FB611
S1131980F8940F928091E7078F5F8093E707809127
S11319903E0890913F08892B91F5D0933F08C0935E
S11319A03E088091E707813009F039C08AE198E068
S11319B016D883E298E013D88CE298E010D885E337
S11319C098E00DD881E198E00AD888E098E007D83B
S11319D08BEF97E004D882EF97E001D888EE97E088
S11319E00E94EF0481E198E0909307088093060831
S11319F088E098E0909305088093040810C08091D3
S1131A00E30781110CC0E0913E08F0913F089689EC
S1131A108E89891720F0D0933F08C0933E088091A7
S1131A20DF078F5F8093DF0789A38E899091E40796
S1131A30981710F48093E40790E09C01220F331F61
S1131A40220F331F220F331F820F931FB601865EAE
S1131A50974F0E9401050F900FBE8091E3078823E2
S1131A6059F0E0913E08F0913F0896898E899817C5
S1131A7028F4EED881E005C081E003C081E001C014
S1131A808FEFDF91CF910F91FF90EF90DF90CF9088
S1131A90BF90AF909F908F907F906F905F904F908A
S1131AA00895EF92FF920F930F2EFBEDEF2EF7E0C8
S1131AB0FF2EF02D00E020E030E040EC50E065ED3A
S1131AC074E08DEC90E0DDDE8130C9F407D581301F
S1131AD0B1F4F8948FEF9FEF9093DE078093DD07C6
S1131AE081E08093E3071092E6071092E507E09106
S1131AF03E08F0913F0885A10E94BD046DD80F9166
S1131B00FF90EF9008958091DA078F5F8093DA0752
S1131B1008950FB6F8940F928091E5079091E60727
S1131B200F900FBE0895CF92DF92EF92FF920F9322
S1131B301F93CF93DF938091DA07811198C0E090CF
S1131B40E507F090E6078FEFE81AF80AF092E60747
S1131B50E092E507E114F104B1F480910608909154
S1131B600708209104083091050830930708209352
S1131B70060890930508809304088091E0078F5F1E
S1131B808093E0070BDE8091DD079091DE07E81675
S1131B90F90610F4D12C53C0D12CCC24C394E09179
S1131BA00608F09107088081811107C08FEF9FEF2D
S1131BB09093DE078093DD0742C0E0910608F09120
S1131BC007080580F681E02DC681D7818A819B8133
S1131BD0E816F90628F49093DE078093DD072FC0FA
S1131BE08E010E5F1F4FC8010E9453058C899D8989
S1131BF0892B21F0CE010C960E9453058E89909179
S1131C00E407981710F48093E40790E09C01220FF6
S1131C10331F220F331F220F331F820F931FB8016C
S1131C20865E974F0E940105E0913E08F0913F08BF
S1131C309E898689981708F4B2CFDC2CB0CFE09146
S1131C403E08F0913F08868990E0FC01EE0FFF1FEB
S1131C50EE0FFF1FEE0FFF1F8E0F9F1FFC01E65EAE
S1131C60F74F8081823048F0DD24D39406C0809100
S1131C70E2078F5F8093E207D12C8091E1078823EC
S1131C8011F0DD24D3948D2DDF91CF911F910F910D
S1131C90FF90EF90DF90CF900895DF92EF92FF9244
S1131CA00F931F93CF93DF930FB6F8940F92809105
S1131CB0DA0781508093DA078091DA0781115DC0D9
S1131CC08091E707811133C05BC0D7011596ED9170
S1131CD0FC911697C681D781CE010C960E945305BC
S1131CE08E010E5F1F4FC8010E9453058E8990918B
S1131CF0E407981710F48093E40790E09C01220F06
S1131D00331F220F331F220F331F820F931FB8017B
S1131D10865E974F0E940105E0913E08F0913F08CE
S1131D209E898689981768F0D092E1070AC0C0E0BE
S1131D30D0E00F2EFBEFEF2EF7E0FF2EF02DDD2489
S1131D40D394F70180818111C0CFCD2B09F026DD1A
S1131D50C091E207CC2349F0D1E0E5DE8111D093B4
S1131D60E107C150D1F71092E2078091E10788237F
S1131D7031F00E94280681E003C080E001C080E0C9
S1131D800F900FBEDF91CF911F910F91FF90EF90B5
S1131D90DF900895CF93DF93EC01892B39F0B3DE04
S1131DA060E0CE011ADD79DF811102C00E942806AD
S1131DB0DF91CF9108958091DA07882321F081E0A3
S1131DC08093E10708951092E107E0913E08F091B5
S1131DD03F0885A10E94C704A0913E08B0913F0826
S1131DE0E0913E08F0913F082D913C918789908DB8
S1131DF08217930758F060913E0870913F088091D4
S1131E003E0890913F08675E7F4F4BD42091E407D2
S1131E10822F90E0FC01EE0FFF1FEE0FFF1FEE0F6D
S1131E20FF1FE80FF91FE65EF74F3081311111C033
S1131E302150822F90E0FC01EE0FFF1FEE0FFF1FD9
S1131E40EE0FFF1FE80FF91FE65EF74F30813323D3
S1131E5079F3AC01440F551F440F551F440F551F10
S1131E60480F591FDA01A65EB74F1196ED91FC9108
S1131E7012970280F381E02D1296FC93EE93119752
S1131E80435E574FE417F50729F442815381FD015E
S1131E9052834183FC01EE0FFF1FEE0FFF1FEE0F75
S1131EA0FF1F8E0F9F1FFC01E65EF74F0180F2813A
S1131EB0E02D8681978190933F0880933E0820937C
S1131EC0E407E0913E08F0913F0885A10C94BD041D
S1131ED00895CF93DF93EB0160913E0870913F0822
S1131EE0645F7F4F0E94220561E0CE0176DCDF91C2
S1131EF0CF9108950F931F93CF938B01C42F6091BB
S1131F003E0870913F08645F7F4F0E940105CC2317
S1131F1011F00FEF1FEF6C2FC8015FDCCF911F9101
S1131F200F9108950F931F93CF93DF93DC011596C0
S1131F30ED91FC911697C681D7818E01045F1F4FE6
S1131F40C8010E9453058091DA0781111CC00A5010
S1131F501109C8010E9453058E899091E4079817CE
S1131F6010F48093E40790E09C01220F331F220FAA
S1131F70331F220F331F820F931FB801865E974FC2
S1131F800E94010505C0B8018BEF97E00E9401058E
S1131F90E0913E08F0913F089E898689891720F4D4
S1131FA081E08093E10701C080E0DF91CF911F9130
S1131FB00F9108952091E007FC0120832091E5070B
S1131FC03091E607328321830895CF93DF930FB6D0
S1131FD0F8940F922091E5073091E607DB014D91CB
S1131FE05C914F3FBFEF5B07E9F0EC01E981FA81B7
S1131FF0A091E007B881BA1719F02E173F07A0F493
S11320002E1B3F0B2417350740F4FB01421B530BD7
S113201051834083CFDF80E008C0FB01118210822E
S113202081E003C080E001C081E00F900FBEDF912A
S1132030CF91089581E08093E107089580913E084F
S113204090913F0808958091E307882331F08091AF
S1132050DA07882321F080E0089581E0089582E082
S113206008950F931F93CF93DF93FC01892B79F18C
S113207084A1815084A3268993A1291751F1811148
S11320802AC0EF018F010E5F1F4FC8010E94530544
S11320908BA18E8B24E030E0281B31093D872C87EF
S11320A09091E407981710F48093E40790E09C0162
S11320B0220F331F220F331F220F331F820F931F50
S11320C0B801865E974F0E94010581E005C080E05B
S11320D003C080E001C080E0DF91CF911F910F9198
S11320E008954F925F926F927F928F929F92AF92D8
S11320F0BF92EF92FF920F931F9349015A010FB6BB
S1132100F8940F92E0913E08F0913F0823A5223005
S113211021F1E0913E08F0913F0847A050A461A44A
S113212072A4DC01CB0180959095A095B095842193
S11321309521A621B72187A390A7A1A7B2A7E091D3
S11321403E08F0913F0881E083A7E114F10429F0EF
S113215061E0C70142DB0E9428060F900FBE0FB654
S1132160F8940F920115110569F0E0913E08F09181
S11321703F0887A190A5A1A5B2A5F801808391830A
S1132180A283B383E0913E08F0913F0883A5823097
S1132190B1F4E0913E08F0913F0887A190A5A1A574
S11321A0B2A580949094A094B09488229922AA22F3
S11321B0BB2287A290A6A1A6B2A681E001C080E0BE
S11321C0E0913E08F0913F0813A60F900FBE1F91B7
S11321D00F91FF90EF90BF90AF909F908F907F9062
S11321E06F905F904F9008950F931F93CF93DF9359
S11321F0FC010FB6F8940F920115110549F087A15F
S113220090A5A1A5B2A5E80188839983AA83BB837D
S113221083A592E093A72230B1F018F4213031F075
S11322202AC02330E9F0243001F125C007A110A50C
S113223021A532A5402B512B622B732B47A350A70A
S113224061A772A718C047A150A561A572A54F5FE9
S11322505F4F6F4F7F4F47A350A761A772A70BC073
S113226047A350A761A772A706C0823079F147A39C
S113227050A761A772A7813059F5EF018F010E5F56
S11322801F4FC8010E9453058E899091E407981747
S113229010F48093E40790E09C01220F331F220F77
S11322A0331F220F331F820F931FB801865E974F8F
S11322B00E940105E0913E08F0913F089E898689BD
S11322C0891740F40E94280681E005C080E003C01D
S11322D081E001C081E00F900FBEDF91CF911F918B
S11322E00F910895EF92FF920F931F93CF93DF9373
S11322F0FC010115110549F087A190A5A1A5B2A57E
S1132300E80188839983AA83BB8383A592E093A77A
S11323102230B1F018F4213031F02BC02330E9F031
S1132320243001F126C007A110A521A532A5402B18
S1132330512B622B732B47A350A761A772A719C017
S113234047A150A561A572A54F5F5F4F6F4F7F4FA7
S113235047A350A761A772A70CC047A350A761A7C2
S113236072A707C0823009F441C047A350A761A7F0
S113237072A78130E9F5EF018091DA0781111DC060
S11323808F010E5F1F4FC8010E9453058E899091E3
S1132390E407981710F48093E40790E09C01220F5F
S11323A0331F220F331F220F331F820F931FB801D5
S11323B0865E974F0E94010507C0BF01645F7F4F8F
S11323C08BEF97E00E940105E0913E08F0913F08F1
S11323D09E898689891770F4E114F10419F081E06B
S11323E0F701808381E08093E10705C080E003C0AA
S11323F081E001C081E0DF91CF911F910F91FF90A7
S1132400EF900895009721F480913E0890913F0841
S11324100FB6F8940F92FC0123A5223019F413A6E9
S113242081E001C080E00F900FBE0895FC0173832A
S11324306283918780874617570790F0421B530B9E
S11324408485958548175907E0F4BF016E5F7F4F77
S113245080914608909147080E94220580E00895E3
S11324604217530718F46217730768F4BF016E5FCD
S11324707F4F80914808909149080E94220580E08E
S1132480089581E0089581E008950FB6F8940F92BD
S11324908091440890914508892BE9F483E598E0FC
S11324A00E94EF048AE498E00E94EF0483E598E038
S11324B090934908809348088AE498E090934708E9
S11324C08093460840E065E08AE00E94010890930A
S11324D04508809344080F900FBE0895EF92FF9231
S11324E00F93D3DF8091440890914508892B89F09C
S11324F00F2EF2E4EF2EF8E0FF2EF02D06E020E0A0
S113250030E045E550E06AED74E083E091E0B9D94C
S113251001C080E00F91FF90EF9008950F931F93F7
S1132520CF93DF9300D01F921F92CDB7DEB7E09117
S11325304408F0914508309769F1D90169835B83B8
S11325404A839D838C836630E4F47DDD823061F4BC
S113255020E0A801BE016F5F7F4F809144089091F5
S113256045080E942F0817C020E040E050E0BE015B
S11325706F5F7F4F80914408909145080E942F0817
S11325800AC020E0AD01BE016F5F7F4FCF010E9402
S1132590C10801C080E00F900F900F900F900F9032
S11325A0DF91CF911F910F910895AF92BF92CF9277
S11325B0DF92EF92FF920F931F93CF93DF936C01FF
S11325C0A8DA7C018091400890914108E816F90648
S11325D008F047C02FC00580F681E02DA080B180AF
S11325E0C681D7818E010E5F1F4FC8010E9453051B
S11325F0E889F989CE0119958B8982FF1BC08C85E6
S11326009D858A0D9B1DA816B90660F49B838A8359
S1132610D987C887B80180914808909149080E94D9
S1132620220508C000E010E020E030E0A50160E0F1
S1132630CE0174DFE0914808F0914908808181114E
S1132640CACF809146089091470890934908809397
S11326504808F0934708E093460881E0F601808338
S113266002C0F6011082F0924108E0924008C701CE
S1132670DF91CF911F910F91FF90EF90DF90CF905A
S1132680BF90AF9008950895279A2F9A2FEF80E76F
S113269092E0215080409040E1F700C000001F9A72
S11326A0F5CF279A2F9A2FEF87EA91E621508040A1
S11326B09040E1F700C000001F9AF5CF04D0689461
S11326C0B11150C0089533D088F09F5790F0B92FBE
S11326D09927B751A0F0D1F0660F771F881F991F73
S11326E01AF0BA95C9F712C0B13081F03AD0B1E00E
S11326F0089537C0672F782F8827B85F39F0B93F1E
S1132700CCF3869577956795B395D9F73EF4909574
S11327108095709561957F4F8F4F9F4F089557FD1A
S11327209058440F551F59F05F3F71F04795880F3B
S113273097FB991F61F09F3F79F0879508951216D2
S113274013061406551FF2CF4695F1DF08C016167E
S113275017061806991FF1CF86957105610508942F
S11327600895E894BB2766277727CB0197F9089546
S1132770CF93DF931F92CDB7DEB7BE016F5F7F4F5C
S113278080915C0890915D084ED18111F6CF8981CA
S113279090E00F90DF91CF910895682F80915C08AD
S11327A090915D08CBD080E090E008958F929F9245
S11327B0AF92CF92EF920F93812C912C6894AA241C
S11327C0A7F86894CC24C7F8E12C00E023E040E0AB
S11327D051EE60E070E013D090935D0880935C0844
S11327E0ECE4FAE086E092E0918380839383828331
S11327F00F91EF90CF90AF909F908F9008952F926C
S11328003F924F925F926F927F928F929F92AF927C
S1132810CF92EF92FF920F931F93CF93DF93CDB795
S1132820DEB7F82E2A013B0188E090E00E94B42331
S11328308C018F2D90E0880F991FFC01E25AF74F0D
S113284011830083FC01EC5EFD4F80819181D801EE
S11328508D939C936C2D70E084E090E00E949A2309
S11328601C0161E070E086E090E00E949A237C0104
S11328704C2DB1014CD3F801F582E4826A2D70E04D
S113288084E090E00E949A231C0161E070E086E0FD
S113289090E00E949A237C014A2DB10138D3D801DB
S11328A01396FC92EE92129717969C928E9216971C
S11328B0FFB6F894ED91FC91119736978081826070
S11328C080838D909C90C301B2010E947D2220E000
S11328D030E040E051E40E94E6229B01AC0160E05C
S11328E074E284E79BE40E94122220E030E040E896
S11328F05FE30E94AB21E7DEF40132976083D801E5
S1132900ED91FC911197359788E98083ED91FC91C5
S1132910349786E08083FFBEC801DF91CF911F9179
S11329200F91FF90EF90CF90AF909F908F907F90FA
S11329306F905F904F903F902F900895CF93DF93C7
S1132940EC01EA81FB81938182812581981B92238A
S113295084819817A1F0938126952923A081B181C0
S1132960A20FB11D6C939F5F258192239383E8810D
S1132970F981359780818062808380E001C082E0A4
S1132980DF91CF910895EF92FF920F931F93CF930E
S1132990DF937C01DC011296ED91FC9113979381F6
S11329A08281981B858198238481891B861798F1DD
S11329B0662341F1842F952FDC016150462F50E0AE
S11329C04F5F5F4F480F591FE701EA81FB819381F5
S11329D082812581981B92238481981779F08C91A8
S11329E0938126952923608171818B01020F111D2A
S11329F0E80188839F5F8581982393831196A417A8
S1132A00B50711F7D701ED91FC913597808180626C
S1132A10808380E001C082E0DF91CF911F910F910C
S1132A20FF90EF900895DC011496ED91FC911597B9
S1132A3093818281981789F0928185818695892373
S1132A40A081B181A80FB11D8C91DB018C939F5F94
S1132A5085819823928380E0089583E008951F92EE
S1132A600F920FB60F9211240BB60F922F933F9330
S1132A704F935F936F937F938F939F93AF93BF9382
S1132A80CF93DF93EF93FF93A0915E08B0915F081B
S1132A90109711F16091C6001496ED91FC91159771
S1132AA0938182812581981B92238481981761F0F8
S1132AB0838126952823C081D181C20FD11D6883CB
S1132AC08F5F9581892383831696ED91FC911797E7
S1132AD0309711F0CD011995FF91EF91DF91CF91CE
S1132AE0BF91AF919F918F917F916F915F914F9122
S1132AF03F912F910F900BBE0F900FBE0F901F9020
S1132B0018951F920F920FB60F9211240BB60F92C5
S1132B102F938F939F93AF93BF93EF93FF93E09182
S1132B205E08F0915F083097B9F00280F381E02DE0
S1132B30938182819817B1F092818581282F2695FF
S1132B402923A081B181A20FB11D2C919F5F8923FC
S1132B5082832093C6000BC0E1ECF0E080818F7D7E
S1132B60808305C0E1ECF0E080818F7D8083FF915C
S1132B70EF91BF91AF919F918F912F910F900BBEC9
S1132B800F900FBE0F901F9018951F920F920FB6C3
S1132B900F9211240BB60F922F933F934F935F9391
S1132BA06F937F938F939F93AF93BF93CF93DF9351
S1132BB0EF93FF93A0916008B0916108109711F111
S1132BC06091CE001496ED91FC91159793818281CA
S1132BD02581981B92238481981761F0838126951F
S1132BE02823C081D181C20FD11D68838F5F958155
S1132BF0892383831696ED91FC911797309711F0F2
S1132C00CD011995FF91EF91DF91CF91BF91AF91D4
S1132C109F918F917F916F915F914F913F912F91F0
S1132C200F900BBE0F900FBE0F901F9018951F9220
S1132C300F920FB60F9211240BB60F922F938F930E
S1132C409F93AF93BF93EF93FF93E0916008F0914C
S1132C5061083097B9F00280F381E02D938182817D
S1132C609817B1F092818581282F26952923A08178
S1132C70B181A20FB11D2C919F5F89238283209380
S1132C80CE000BC0E9ECF0E080818F7D808305C02D
S1132C90E9ECF0E080818F7D8083FF91EF91BF911B
S1132CA0AF919F918F912F910F900BBE0F900FBEFC
S1132CB00F901F9018951F920F920FB60F92112428
S1132CC00BB60F922F933F934F935F936F937F9322
S1132CD08F939F93AF93BF93CF93DF93EF93FF9320
S1132CE0A0916208B0916308109711F16091D60029
S1132CF01496ED91FC911597938182812581981BFF
S1132D0092238481981761F0838126952823C081BA
S1132D10D181C20FD11D68838F5F958189238383FD
S1132D201696ED91FC911797309711F0CD011995F6
S1132D30FF91EF91DF91CF91BF91AF919F918F91CF
S1132D407F916F915F914F913F912F910F900BBEA7
S1132D500F900FBE0F901F9018951F920F920FB6F1
S1132D600F9211240BB60F922F938F939F93AF93CF
S1132D70BF93EF93FF93E0916208F091630830975B
S1132D80B9F00280F381E02D938182819817B1F02C
S1132D9092818581282F26952923A081B181A20FB4
S1132DA0B11D2C919F5F892382832093D6000BC091
S1132DB0E1EDF0E080818F7D808305C0E1EDF0E0FE
S1132DC080818F7D8083FF91EF91BF91AF919F911F
S1132DD08F912F910F900BBE0F900FBE0F901F90ED
S1132DE018951F920F920FB60F9211240BB60F92E3
S1132DF02F933F934F935F936F937F938F939F93FF
S1132E00AF93BF93CF93DF93EF93FF93A0916408A5
S1132E10B0916508109711F1609136011496ED9107
S1132E20FC911597938182812581981B922384813B
S1132E30981761F0838126952823C081D181C20F20
S1132E40D11D68838F5F9581892383831696ED91C5
S1132E50FC911797309711F0CD011995FF91EF91DF
S1132E60DF91CF91BF91AF919F918F917F916F919E
S1132E705F914F913F912F910F900BBE0F900FBE1A
S1132E800F901F9018951F920F920FB60F92112456
S1132E900BB60F922F938F939F93AF93BF93EF93A0
S1132EA0FF93E0916408F09165083097B9F00280CF
S1132EB0F381E02D938182819817B1F0928185810D
S1132EC0282F26952923A081B181A20FB11D2C9111
S1132ED09F5F89238283209336010BC0E1E3F1E0F5
S1132EE080818F7D808305C0E1E3F1E080818F7D67
S1132EF08083FF91EF91BF91AF919F918F912F911B
S1132F000F900BBE0F900FBE0F901F901895FC01F1
S1132F10411102C00E94D524842F90E09C012150CD
S1132F20310982239323892B11F00E94D52441383F
S1132F3010F00E94D524128213824483440F41501E
S1132F4045837183608380E090E00895E2E3FAE0D2
S1132F502DE83DE13183208320E93DE13383228361
S1132F602BE93DE1358324832FE93DE13783268333
S1132F7025EA3DE13187208721EB3DE13387228734
S1132F8026EB3DE13587248722EC3DE13787268710
S1132F9022EA3DE1318B208B27EC3DE1338B228B00
S1132FA024ED3DE1358B248B682FCF013CC108957E
S1132FB06530F1F4FA0180818F7390E0982F8827AF
S1132FC02181822B90931F0280931E028281F0E460
S1132FD08F9FC0011124FA01238126952695822B07
S1132FE090931D0280931C0281E0809366080895EB
S1132FF0643051F080E090E490931D0280931C02B1
S113300090931F0280931E0208950F931F9308ED5F
S113301017E120E034E244EF50E060E087E20E94F0
S11330201F20909368088093670821E0892B09F09A
S113303020E0822F1F910F9108958091670890914D
S11330406808009759F040E060E070E00E9470204A
S1133050843031F41092660880E0089582E0089587
S113306083E008958091670890916808009739F08B
S113307064E00E94BB20853021F083E0089582E063
S1133080089580E0089560911E0270911F0280E00F
S113309090E00E947D2220E030E048EC52E40E945F
S11330A0E62220E038EF4FE756E40C94122208950C
S11330B060911C0270911D0280E090E00E947D22CC
S11330C020E030E045E253E40E94E62220E038EFBD
S11330D04FE756E40E94122220E030E040E252E43E
S11330E00C94AB210895CF93DF9390E0FC01EE0F95
S11330F0FF1FE80FF91FEE0FFF1FE759F74F23815A
S113310021110AC0EF01E0913A0AF0913B0A6A8169
S113311088819981199512C0DC01AA0FBB1FED01AA
S1133120C80FD91FCC0FDD1FC759D74FE091440AF0
S1133130F091450A6A81888199811995DF91CF912F
S11331400895CF93DF9390E0FC01EE0FFF1FE80F8B
S1133150F91FEE0FFF1FE759F74F238121110AC012
S1133160EF01E091440AF091450A6A8188819981CE
S1133170199512C0DC01AA0FBB1FED01C80FD91F9E
S1133180CC0FDD1FC759D74FE0913A0AF0913B0AA3
S11331906A81888199811995DF91CF91089582EE92
S11331A094E00E9426250F2EF2E3CF2EFAE0DF2EC4
S11331B0F02D04E0C9E6D8E010E08C81813069F09C
S11331C0E8F0823039F5D6011C96ED91FC911D97FB
S11331D06A818881998119951DC08D818F5F8A309C
S11331E010F48D8317C01D82D6011C96ED91FC91BD
S11331F01D976A818881998119950CC08D818823D6
S113320031F0812F9EDF8D8181508D8303C00C832B
S1133210812F69DF1F5F2696143079F685E090E0F0
S11332200E94CA0EC7CFCF92DF92EF92FF920F9304
S11332301F93CF93DF93062F0F2EF2E3EF2EFAE0C6
S1133240FF2EF02DD7011896ED91FC91199766E0A9
S113325087E290E01995C9E6D8E00F2EF8E2CF2E68
S1133260D12CF02DD982C88286E08A831B8214E097
S11332701C8380E038DFD7011896ED91FC911997F3
S113328067E087E290E01995DF82CE8287E0888745
S113329019861A8781E027DFD7011896ED91FC91F2
S11332A0199765E083E390E01995D7011896ED919D
S11332B0FC91199761E084E390E0199584E390E030
S11332C09D878C8785E08E871F86188B82E00BDFB5
S11332D0D7011896ED91FC91199764E081E091E093
S11332E01995D7011896ED91FC91199761E082E048
S11332F091E0199582E091E09B8B8A8B1C8B1D8A4F
S11333001E8B83E0F0DEE12CF12C20E030E040EC79
S113331050E069EF74E08FEC98E10E94410CDF917A
S1133320CF911F910F91FF90EF90DF90CF90089570
S11333300F931F93CF93DF931F921F92CDB7DEB7E6
S11333408C0119822DC0E091E508EC3250F481E043
S11333508E0F8093E508F0E0EB5EF64F8A81808360
S113336002C01092E5088A818A30D1F44091E508C0
S113337050E0FA01ED5EF64F1082415051099E0172
S11333802F5F3F4F65E179E08091E6089091E7086F
S11333900E94F20A898181110E9428061092E50890
S11333A0BE016E5F7F4FC8013EDB882361F20F9040
S11333B00F90DF91CF911F910F9108950F931F9359
S11333C0CF93DF938C01EB018091E6089091E7089D
S11333D00E94B30AB80181E898E00E94F42420977F
S11333E079F0E1E8F8E001900020E9F7319780E214
S11333F090E091838083BE0181E898E00E94E924F3
S1133400E1E8F8E0DF010D900020E9F711978DE085
S11334109AE011969C938E9312961C920190002030
S1133420E9F73197E158F840AE2F81E898E0AC0114
S11334306A2F8091E8089091E908A5DA81110FC0FC
S113344028E235E04DE250E06FE679E08091E6084D
S11334509091E7080E94340B8FE699E002C080E067
S113346090E0DF91CF911F910F910895AF92BF9299
S1133470CF92DF92EF92FF920F931F93CF93DF933C
S11334806C01FC0101900020E9F731977F01E81AF3
S1133490F90A0EE917E0C0E0D0E0F801608171811B
S11334A0A701C6010E94FB24892B49F4FE01EE0FFB
S11334B0FF1FEC0FFD1FE356F84F808107C02196D4
S11334C00D5F1F4FC131D10541F780E1DF91CF91ED
S11334D01F910F91FF90EF90DF90CF90BF90AF902E
S11334E008956CDFC3CF08958091E6089091E708B2
S11334F00C94B30A08958F929F92AF92CF92EF9259
S11335000F93CF93C82F41E060E070E088EC90E027
S11335100E94870A9093E7088093E6080F2EF8E943
S11335208F2EF9E19F2EF02D6894AA24A6F86894B2
S1133530CC24C6F8E12C00E023E040E051EE60E04A
S113354070E08C2F5CD99093E9088093E808E091AF
S11335503A0AF0913B0A64E087E091E01995CF9133
S11335600F91EF90CF90AF909F908F900895882304
S113357049F0E091440AF091450A64E088E091E062
S113358019950895E0913A0AF0913B0A64E088E0C5
S113359091E01995089560E070E080E295E00EDF17
S11335A0EFE6F9E001900020E9F73197EF56F94092
S11335B081E0759708F080E00895CF93DF93EC01E4
S11335C060E070E081E395E0F9DEEFE6F9E0019078
S11335D00020E9F7E058F94039F46FE679E0CE01CC
S11335E00E94F42480E002C0188281E0DF91CF9130
S11335F00895FC0101900020E9F79F012151310950
S11336002817390729F4BC018FE595E06ACF08959E
S113361089E00895FC0101900020E9F79F01215100
S113362031092817390729F4BC018EE695E059CFF2
S1133630089589E00895FC0101900020E9F79F01B5
S1133640215231092817390729F4BC018DE795E087
S113365048CF089589E0089560E070E08CEB95E030
S113366040CF0895E82FF0E0EE0FFF1FE756F84F24
S11336706081718185EC95E034DF811112C028E20C
S113368035E04DE250E06FE679E08091E6089091F4
S1133690E7080E94340B882321F08FE699E0E6CEF8
S11336A008958FE699E0E2CE0895CF93DF931F92B9
S11336B0CDB7DEB7DB0111969C911197953108F0D7
S11336C087C0992381F160E070E0272F30E0462F16
S11336D050E0FD01E40FF51F928192959F709A309E
S11336E010F0995C01C0905DF901E050F74F9083B0
S11336F02F5F3F4FFD01E40FF51F92819F70492F0B
S113370050E04A30510514F0995C01C0905DF90114
S1133710E050F74F90837E5F6F5F11969C911197F5
S1133720691798F201C070E0E72FF0E0E050F74F1E
S113373010824C91811103C08EEC95E002C080EDA3
S113374095E020E039E03F932F931F924F939F938E
S11337508F9384ED95E09F938F9382E499E09F93F8
S11337608F930E94562560E070E082E499E0B9DE10
S11337700FB6F894DEBF0FBECDBF8E3051F587E093
S11337808983BE016F5F7F4F8FE699E051D18093AB
S1133790EA08E981F0E0E159F64FDF010D900020DD
S11337A0E9F71197AE1BBF0BAA2381F0BB27119732
S11337B0CD010AF40196959587958093EB08AF01A6
S11337C04F5F5F4F64E18CEE98E05ED18EE001C004
S11337D084E10F90DF91CF910895813019F064EE68
S11337E075E002C06DEB76E088EE95E07ACE089540
S11337F08830C0F41F928F9380E096E09F938F935C
S113380082E499E09F938F930E94562560E070E0D4
S113381082E499E066DE0F900F900F900F900F9066
S11338200F90089589E008952F923F924F925F92EE
S11338306F927F928F929F92AF92BF92CF92DF92BC
S1133840EF92FF920F931F93CF93DF936DE276E095
S113385089E396E0B3DD0ADE8111A6C065E476E073
S11338608BE496E0ABDD02DE81119EC0C0E0D0E0C7
S11338700F2EF0E68F2EF5EE9F2EFEEAAF2EF3E329
S1133880BF2EF02D0F2EFEE5EF2EF6E0FF2EF02DCD
S113389002E419E00F2EF7E7CF2EF6E0DF2EF02D2D
S11338A00F2EFEE86F2EF6E07F2EF02D0F2EF8EA95
S11338B04F2EF6E05F2EF02DDF93CF93FF92EF9221
S11338C01F930F930E94562560E070E0C80176DDD7
S11338D0CDDD0F900F900F900F900F900F908111EE
S11338E063C0C33008F44DC0BF92AF929F928F92D1
S11338F0DF93CF93DF92CF921F930F930E945625AD
S113390060E070E0C8015ADDB1DD2DB73EB7265F37
S11339103F4F0FB6F8943EBF0FBE2DBF811144C078
S1133920DF93CF937F926F921F930F930E9456253C
S113393060E070E0C80142DD99DD0F900F900F90B8
S11339400F900F900F9081112FC0DF93CF935F9250
S11339504F921F930F930E94562560E070E0C801B8
S11339602DDD84DD0F900F900F900F900F900F902E
S113397081111AC030E4830E3DE0931E33E0A31E90
S1133980B11C2196C830D10509F096CF60E070E0F3
S113399080EC96E013DD6ADD811106C060E070E022
S11339A081ED96E00BDD62DDDF91CF911F910F91E8
S11339B0FF90EF90DF90CF90BF90AF909F908F904B
S11339C07F906F905F904F903F902F900895EF926B
S11339D0FF920F931F93CF93DF93EC018B017A0136
S11339E081E0FBDE811111C0CE0114DE81110DC016
S11339F0C80121DE811109C0C701FBDD811105C0A9
S1133A0085E0F6DE811101C027DEDF91CF911F91A1
S1133A100F91FF90EF90089590E0FC01EE0FFF1FCF
S1133A208E0F9F1FFC01E356F84F81819281089508
S1133A30DC01009729F1FB012081FC0101900020A9
S1133A40E9F73197E81BF90B822F90E0E817F907A3
S1133A50C8F080E008C0880F382F330F330F830F6E
S1133A608053890F2F5FFD01E20FF11D908130ED2E
S1133A70390F3A3010F49111EECFFB0120830895F1
S1133A8080E0089580E008950F931F93CF93DF9310
S1133A90DC01EA012097E1F1FA0101900020E9F745
S1133AA03197E41BF50B329710F532C08D01040FEA
S1133AB0151F30E0AE01420F531FFA01908191347B
S1133AC028F09753592F5295507F03C0592F529580
S1133AD0507F2C0F3D1FF9019181913410F09753C1
S1133AE001C09053950FF80190838F5F01C080E06F
S1133AF0282F220F482F50E0FE0101900020E9F703
S1133B003197EC1BFD0B4E175F0710F48613CECFD5
S1133B10DF91CF911F910F910895FC018081089549
S1133B20FC01208181E090E002C0880F991F6A9512
S1133B30E2F782230895FC01808186230895FC0125
S1133B4060830895FC0110820895FC01408121E006
S1133B5030E002C0220F331F6A95E2F7242B208342
S1133B600895FC012081622B60830895FC0140814B
S1133B7021E030E002C0220F331F6A95E2F72427C8
S1133B8020830895FC012081622760830895FC014D
S1133B90908121E030E002C0220F331F6A95E2F7E2
S1133BA02095292320830895FC0190816095692341
S1133BB06083089580919F09860F80939F09909157
S1133BC0A209913079F028F09230A9F0933019F1DC
S1133BD008956F3F09F048C010929F0981E08093D7
S1133BE0A2090895663809F03FC010929E0982E048
S1133BF08093A2090895E0919E0981E08E0F80933D
S1133C009E09F0E0E456F64F6083823069F583E064
S1133C108093A209089590919E0921E0290F209391
S1133C209E09963009F581110EC0ECE9F9E0808116
S1133C3090E0982F88272181820F911D9093A409E9
S1133C408093A30904C01092A4091092A3091092AE
S1133C50A209E091A009F091A109309729F080917F
S1133C60A3099091A409199508958F929F92AF92F8
S1133C70CF92EF920F93CF93DF93EB010F2EFAEDD8
S1133C808F2EFDE19F2EF02D6894AA24A4F8689449
S1133C90CC24C4F8E12C00E023E040E855E260E0E5
S1133CA070E00E94FF139093A6098093A509D09316
S1133CB0A109C093A009DF91CF910F91EF90CF900C
S1133CC0AF909F908F900895CF93DF93CDB7DEB7D9
S1133CD029970FB6F894DEBF0FBECDBF89E0E1E2AD
S1133CE0F2E09E012F5F3F4FD90101900D928A951A
S1133CF0E1F71092A4091092A3098091A50990916B
S1133D00A609009739F0422F532F69E00E94C3148B
S1133D1080E001C082E029960FB6F894DEBF0FBEA2
S1133D20CDBFDF91CF910895E091AF09F091B00933
S1133D30309709F0199508956450623008F03BC03B
S1133D402091AE09223079F018F4213031F030C0DE
S1133D50233081F02430A1F02BC022E02093AE095F
S1133D6061E009C20895FA0180818093AB0982E081
S1133D70DBCF089524E02093AE0964E0FCC10895EC
S1133D80FA01818190E0982F88272081822B9093DB
S1133D90AA098093A909838190E0982F882722811A
S1133DA0822B9093A8098093A70981E0BDCF089541
S1133DB080E0BACF08951092AE0986E0B5CF089599
S1133DC02091B1093091B2092115310541F0462FF6
S1133DD0BC01C90185D1823021F080E0089587E0DB
S1133DE0089585E008950F931F939093B0098093ED
S1133DF0AF090CE91EE120E034E244EF50E060E05A
S1133E0089E21DD19093B2098093B109892B11F0F5
S1133E1080E001C088E01F910F910895CF93DF9354
S1133E201F921F92CDB7DEB780EA898383E08A832D
S1133E301092AE0962E0CE010196C2DF0F900F909E
S1133E40DF91CF910895CF93DF931F92CDB7DEB763
S1133E5084EB898383E08093AE0961E0CE0101960F
S1133E60AFDF0F90DF91CF9108952F923F924F9241
S1133E705F926F927F928F929F92AF92BF92CF92F6
S1133E80DF92EF92FF920F931F93CF93DF93C09132
S1133E90A709D091A809CF3F2FEFD20741F0609135
S1133EA0A9097091AA096F3FEFEF7E0759F44FEF0C
S1133EB05FEF6FE77FE7FC01408351836283738385
S1133EC083E099C01C0180E090E017D32B013C01F2
S1133ED0BE0180E090E011D34B015C018091AC09FC
S1133EE090E0019624E6289FB001299F700D1124CB
S1133EF08091AD09803269F08033A1F08031E1F422
S1133F000F2EC12CD12CF8ECEF2EF1E4FF2EF02D66
S1133F101BC00F2EC12CD12CF6EDEF2EF3E4FF2E97
S1133F20F02D12C00F2EC12CF0E5DF2EFAE1EF2E9A
S1133F30F6E4FF2EF02D08C00F2EC12CD12CF0E892
S1133F40EF2EFFE3FF2EF02D072E000C880B990BAC
S1133F50D6D2A70196013AD320E030E04CEC53E4EA
S1133F6061D26B017C0125E83BEE41ED5FE3C501C5
S1133F70B4012CD39B01AC01C301B201ECD1A70164
S1133F80960150D2162FD72FC82F092F2DE33AE0D0
S1133F9047E15FE3C301B20119D32B013C0126EFD2
S1133FA038E24CE55FE3C501B40110D39B01AC01D9
S1133FB0C301B201D0D1A701960134D2C62ED72EA7
S1133FC0E82EF92E262F372F482F592F612F7D2FBA
S1133FD08C2F902FF7D2181624F01C2DDD2DCE2D0A
S1133FE00F2D412F5D2F6C2F702FF10140835183D2
S1133FF06283738380E0DF91CF911F910F91FF90D3
S1134000EF90DF90CF90BF90AF909F908F907F9074
S11340106F905F904F903F902F9008958091C109C9
S113402081110CC08CE08093B8008FEF8093BB00AB
S113403084E08093BC0081E08093C1090895AF922D
S1134040BF92CF92DF92EF92FF920F931F93CF9381
S1134050DF93A82EB62E69017A0184E090E084D320
S1134060EC01892B61F1A88281E0B81212C0C7016A
S1134070B60120EA36E841E050E032D3DA01C90162
S11340804097A109B109B695A79597958795898316
S113409011C0C701B60120E83AE146E050E020D360
S11340A0DA01C9014097A109B109B695A795979579
S11340B0879589831B830A838C2F9D2F02C080E000
S11340C090E0DF91CF911F910F91FF90EF90DF90DF
S11340D0CF90BF90AF9008958091BC0081700895F7
S11340E0FF920F931F93CF93DF930097C9F14A3048
S11340F0C8F5F42E8B01EC01EFDF811135C08091FE
S1134100B4099091B509C817D90741F087DF8981AF
S11341108093B800D093B509C093B40981E08F0DA2
S11341208093B6098881880F8093B709FF2081F0B6
S1134130F801A8EBB9E04FEF4F0D642F70E06F5F0B
S11341407F4F600F711F81918D93E617F707D9F7A1
S113415088EF8093200285EA8093BC0081E005C04B
S113416086E003C087E001C082E0DF91CF911F9118
S11341700F91FF9008951F93CF93DF93009729F138
S11341806B3028F5162FEC01A7DF811122C0809136
S1134190B4099091B509C817D90741F03FDF898167
S11341A08093B800D093B509C093B4091093B609AD
S11341B08881880F81608093B70988EF80932002FB
S11341C085EA8093BC0081E005C086E003C087E0F7
S11341D001C082E0DF91CF911F9108951F920F9249
S11341E00FB60F9211240BB60F922F933F934F9358
S11341F05F936F937F938F939F93AF93BF93EF934B
S1134200FF93E091B9008E2F90E0FC013897E135DF
S1134210F10508F075C08827E458FF4F8F4F82C21C
S11342201092B309E091B3098091B609E81770F4CC
S113423081E08E0F8093B309F0E0E954F64F80815A
S11342408093BB0085E88093BC0072C084E98093AE
S1134250BC008091B4099091B509DC011296ED91EE
S1134260FC911397309709F463C020E040E050E0DC
S113427064E019955DC0E091B30981E08E0F8093ED
S1134280B3098091BB00F0E0E954F64F808380913C
S1134290B900803411F41092B3092091B30930E0CD
S11342A08091B60990E001972817390724F485EC2A
S11342B08093BC003DC085E88093BC0039C08091E8
S11342C0BB00E091B309F0E0E954F64F808384E940
S11342D08093BC008091B4099091B509DC011296D9
S11342E0ED91FC911397309719F12091B60947EBA2
S11342F059E065E019951CC085EA8093BC0018C09C
S11343008091B9008093200284E08093BC00809166
S1134310B4099091B509DC011296ED91FC911397C3
S1134320309731F020E040E050E060912002199590
S1134330FF91EF91BF91AF919F918F917F916F9179
S11343405F914F913F912F910F900BBE0F900FBE35
S11343500F901F9018955058BB27AA270ED021C143
S113436012D130F017D120F031F49F3F11F41EF434
S113437007C10EF4E095E7FBFDC0E92F0E948F13FF
S113438078F3BA17620773078407950720F079F466
S1134390A6F50C94B1130EF4E0950B2EBA2FA02DB4
S11343A00B01B90190010C01CA01A0011124FF27DE
S11343B0591B99F0593F50F4503E68F11A16F040D9
S11343C0A22F232F342F4427585FF3CF46953795D8
S11343D02795A795F0405395C9F77EF41F16BA0B9D
S11343E0620B730B840BBAF09150A1F0FF0FBB1F4B
S11343F0661F771F881FC2F70EC0BA0F621F731F94
S1134400841F48F4879577956795B795F7959E3FF0
S113441008F0B1CF9395880F08F09927EE0F979580
S1134420879508950DD0BDC0B5D048F0ACD038F014
S113443021F45F3F21F09EC051110C94B213A0C02F
S11344400E948F1388F39923B9F35523A1F3951B85
S1134450550BBB27AA2762177307840738F09F5FA1
S11344605F4F220F331F441FAA1FA9F334D00E2E0F
S11344703AF0E0E831D091505040E695001CCAF77C
S11344802AD0FE2F28D0660F771F881FBB1F261740
S113449037074807AB07B0E809F0BB0B802DBF0115
S11344A0FF2793585F4F32F09E3F510570F062C072
S11344B00C94B2135F3FE4F3983ED4F3869577955A
S11344C06795B795F7959F5FC9F7880F911D9695E6
S11344D0879597F90895E1E0660F771F881FBB1F42
S11344E0621773078407BA0720F0621B730B840BEF
S11344F0BA0BEE1F88F7E0950895E89409C097FB7E
S11345003EF490958095709561957F4F8F4F9F4FA6
S11345109923A9F0F92F96E9BB279395F6958795EA
S113452077956795B795F111F8CFFAF4BB0F11F4AD
S113453060FF1BC06F5F7F4F8F4F9F4F16C0882354
S113454011F096E911C0772321F09EE8872F762F8A
S113455005C0662371F096E8862F70E060E02AF0CB
S11345609A95660F771F881FDAF7880F96958795B7
S113457097F9089597F99F6780E870E060E00895DF
S11345809FEF80EC089500240A9416161706180667
S11345900906089500240A94121613061406050643
S11345A00895092E0394000C11F4882352F0BB0FD4
S11345B040F4BF2B11F460FF04C06F5F7F4F8F4F37
S11345C09F4F089569D008F48FEF08950CD0E9CF78
S11345D0DADF28F0DFDF18F0952309F0CBCFD0CF56
S11345E011240C94B2130E948F1390F3959FC1F37E
S11345F0950F50E0551F629FF001729FBB27F00D8D
S1134600B11D639FAA27F00DB11DAA1F649F6627E1
S1134610B00DA11D661F829F2227B00DA11D621F30
S1134620739FB00DA11D621F839FA00D611D221FEA
S1134630749F3327A00D611D231F849F600D211DCE
S1134640822F762F6A2F11249F57504092F0E9F061
S113465088234AF0EE0FFF1FBB1F661F771F881FBA
S113466091505040A9F79E3F510578F083CF0C94A8
S1134670B2135F3FE4F3983ED4F38695779567953C
S1134680B795F795E7959F5FC1F7FE2B880F911DAE
S11346909695879597F90895990F0008550FAA0BD9
S11346A0E0E8FEEF16161706E807F907C0F0121641
S11346B01306E407F50798F0621B730B840B950B44
S11346C039F40A2661F0232B242B252B21F4089599
S11346D00A2609F4A140A6958FEF811D811D089536
S11346E0A1E21A2EAA1BBB1BFD010DC0AA1FBB1FF2
S11346F0EE1FFF1FA217B307E407F50720F0A21B64
S1134700B30BE40BF50B661F771F881F991F1A94D0
S113471069F760957095809590959B01AC01BD01FA
S1134720CF010895EE0FFF1F881F8BBF0790F691EE
S1134730E02D19940F931F93CF93DF93869F8001ED
S1134740879F100D969F100D1124C8010DD0EC0108
S1134750009721F0A80160E070E034D1CE01DF9130
S1134760CF911F910F9108950F931F93CF93DF93D0
S11347708230910510F482E090E0E0914A0AF091D1
S11347804B0A20E030E0A0E0B0E0309719F140811E
S113479051810281138148175907C8F0841795077E
S11347A069F4109731F012960C93129713961C9398
S11347B027C000934A0A10934B0A22C021153105E1
S11347C019F04217530718F49A01BD01EF01DF01F4
S11347D0F801DBCF21153105F9F0281B390B243002
S11347E0310580F48A819B816115710521F0FB01FB
S11347F09383828304C090934B0A80934A0AFE01F8
S1134800329644C0FE01E20FF31F8193919322502C
S11348103109398328833AC02091480A3091490AE2
S1134820232B41F420910202309103023093490A70
S11348302093480A2091000230910102211531058C
S113484041F42DB73EB74091040250910502241B58
S1134850350BE091480AF091490AE217F307A0F4F6
S11348602E1B3F0B2817390778F0AC014E5F5F4FC2
S11348702417350748F04E0F5F1F5093490A4093A1
S1134880480A8193919302C0E0E0F0E0CF01DF9108
S1134890CF911F910F910895CF93DF93009709F45F
S11348A081C0FC01329713821282A0914A0AB0910E
S11348B04B0A109781F420813181820F931F20913C
S11348C0480A3091490A2817390751F5F093490AE3
S11348D0E093480A67C0ED0120E030E0CE17DF071F
S11348E040F44A815B819E0141155105F1F0EA01D2
S11348F0F5CFD383C28340815181840F951FC8179C
S1134900D90759F488819981840F951F0296918360
S113491080838A819B81938382832115310529F4C5
S1134920F0934B0AE0934A0A3DC0E901FB83EA8312
S113493049915991C40FD51FEC17FD0761F480818B
S11349409181840F951F0296E9019983888382815E
S113495093819B838A83E0E0F0E012968D919C9191
S11349601397009719F0FD01DC01F7CF8D919C910D
S113497011979D012E5F3F4F820F931F2091480A8C
S11349803091490A2817390769F4309729F41092AD
S11349904B0A10924A0A02C013821282B093490A47
S11349A0A093480ADF91CF91089581E090E0F894B4
S11349B058C3FB01DC0102C001900D9241505040EC
S11349C0D8F70895DC0101C06D9341505040E0F7E1
S11349D00895FB01DC010D900020E9F71197019087
S11349E00D920020E1F70895FB01DC0101900D9286
S11349F00020E1F70895FB01DC014150504088F0AC
S1134A008D9181341CF08B350CF4805E619161349E
S1134A101CF06B350CF4605E861B611171F3990B0D
S1134A200895881BFCCFCF93DF93CDB7DEB7AE01DB
S1134A304A5F5F4FFA0161917191AF0180914E0A13
S1134A4090914F0A61D0DF91CF9108950F931F93F6
S1134A50CF93DF93E0914E0AF0914F0A238121FF17
S1134A601BC08C01D0E0C0E0F80181918F016091FE
S1134A704E0A70914F0ADB011896ED91FC9119973B
S1134A80882331F01995892B79F3DFEFCFEFECCF41
S1134A908AE01995892B19F08FEF9FEF02C08D2FB3
S1134AA09C2FDF91CF911F910F9108950F931F9326
S1134AB0CF93DF93CDB7DEB72E970FB6F894DEBF52
S1134AC00FBECDBF0E891F8986E08C831A830983AC
S1134AD08FEF9FE79E838D83AE01465E5F4F688DA7
S1134AE0798DCE01019610D0EF81F885E00FF11F8A
S1134AF010822E960FB6F894DEBF0FBECDBFDF91A5
S1134B00CF911F910F9108952F923F924F925F92F0
S1134B106F927F928F929F92AF92BF92CF92DF92C9
S1134B20EF92FF920F931F93CF93DF93CDB7DEB72E
S1134B302B970FB6F894DEBF0FBECDBF6C017B017F
S1134B408A01FC0117821682838181FFBFC1CE01D5
S1134B5001963C01F6019381F70193FD859193FF42
S1134B6081917F01882309F4ADC1853239F493FD25
S1134B70859193FF81917F01853221F4B60190E004
S1134B80D6D1E8CF912C212C312CFFE1F315D8F0AC
S1134B908B3279F038F4803279F08332A1F4232D0A
S1134BA020611DC08D3261F0803369F4232D2160B2
S1134BB016C0832D8260382EE32DE4603E2E2AC079
S1134BC0F32DF8601DC037FC2DC020ED280F2A30CE
S1134BD040F08E32B9F436FC75C1232D2064322E98
S1134BE019C036FE06C08AE0989E200D1124922E2C
S1134BF011C0EAE02E9E200D1124222EF32DF06226
S1134C003F2E08C08C3621F4832D8068382E02C0D4
S1134C10883641F4F70193FD859193FF81917F01DB
S1134C208111B3CF982F9F7D9554933028F40C5F56
S1134C301F4F9FE399830DC0833631F0833771F0A2
S1134C40833509F055C020C0F801808189830E5F47
S1134C501F4F88248394912C530112C02801F2E041
S1134C604F0E511CF801A080B18036FE03C0692D9F
S1134C7070E002C06FEF7FEFC5014ED14C0182019D
S1134C80F32DFF773F2E15C0280122E0420E511C60
S1134C90F801A080B18036FE03C0692D70E002C027
S1134CA06FEF7FEFC5012DD14C01F32DF0683F2E3E
S1134CB0820133FC19C0822D90E088169906A0F475
S1134CC0B60180E290E033D12A94F5CFF50137FCA8
S1134CD0859137FE81915F01B60190E028D12110C2
S1134CE02A9421E0821A91088114910479F7E1C091
S1134CF0843611F0893639F5F80137FE07C0608132
S1134D007181828193810C5F1F4F08C06081718122
S1134D10072E000C880B990B0E5F1F4FF32DFF76A7
S1134D203F2E97FF09C090958095709561957F4FB0
S1134D308F4F9F4FF0683F2E2AE030E0A30133D11C
S1134D40882E861844C0853731F4232D2F7EB22E49
S1134D502AE030E025C0932D997FB92E8F36C1F01B
S1134D6018F4883579F0AEC0803719F0883721F00F
S1134D70A9C0E92FE061BE2EB4FE0DC0FB2DF46086
S1134D80BF2E09C034FE0AC0292F2660B22E06C0E9
S1134D9028E030E005C020E130E002C020E132E04C
S1134DA0F801B7FE07C060817181828193810C5F35
S1134DB01F4F06C06081718180E090E00E5F1F4F3D
S1134DC0A301F1D0882E8618FB2DFF773F2E36FEE7
S1134DD00DC0232D2E7FA22E891458F434FE0BC04F
S1134DE032FC09C0832D8E7EA82E05C0B82CA32CBE
S1134DF003C0B82C01C0B92CA4FE0FC0FE01E80DFD
S1134E00F11D8081803321F49A2D997EA92E09C049
S1134E10A2FE06C0B394B39404C08A2D867809F028
S1134E20B394A3FC10C0A0FE06C0B21480F4280CF6
S1134E30922C9B180DC0B21458F4B60180E290E095
S1134E4076D0B394F8CFB21418F42B1802C0982C6F
S1134E50212CA4FE0FC0B60180E390E068D0A2FE2E
S1134E6016C0A1FC03C088E790E002C088E590E08A
S1134E70B6010CC08A2D867851F0A1FE02C08BE2E7
S1134E8001C080E2A7FC8DE2B60190E050D0891405
S1134E9030F4B60180E390E04AD09A94F8CF8A9433
S1134EA0F301E80DF11D8081B60190E040D081103E
S1134EB0F6CF222009F44ECEB60180E290E037D03E
S1134EC02A94F7CFF6018681978102C08FEF9FEF76
S1134ED02B960FB6F894DEBF0FBECDBFDF91CF91F6
S1134EE01F910F91FF90EF90DF90CF90BF90AF9004
S1134EF09F908F907F906F905F904F903F902F90F6
S1134F000895FC010590615070400110D8F7809518
S1134F1090958E0F9F1F0895FC0161507040019081
S1134F200110D8F7809590958E0F9F1F08950F93C9
S1134F301F93CF93DF93FB01238121FD03C08FEFE8
S1134F409FEF2CC022FF16C04681578124813581F2
S1134F504217530744F4A081B1819D012F5F3F4F55
S1134F60318320838C93268137812F5F3F4F378392
S1134F70268314C08B01EC01FB010084F185E02D34
S1134F801995892BE1F6D80116968D919C91179766
S1134F90019617969C938E931697CE01DF91CF912D
S1134FA01F910F910895FA01AA27283051F1203159
S1134FB081F1E8946F936E7F6E5F7F4F8F4F9F4FA9
S1134FC0AF4FB1E03ED0B4E03CD0670F781F891FEB
S1134FD09A1FA11D680F791F8A1F911DA11D6A0FB9
S1134FE0711D811D911DA11D20D009F468943F916C
S1134FF02AE0269F11243019305D3193DEF6CF016B
S11350000895462F4770405D4193B3E00FD0C9F730
S1135010F6CF462F4F70405D4A3318F0495D31FD9D
S11350204052419302D0A9F7EACFB4E0A6959795F0
S1135030879577956795BA95C9F7009761057105C6
S113504008959B01AC010A2E069457954795379510
S11350502795BA95C9F7620F731F841F951FA01D6A
S10950600895F894FFCF4F
S11350660000520A20000000000300000000CD13D7
S1135076B8130000C600CE00D6003601004000403A
S1135086F8FF0186000000000079FF0179A0000006
S11350960000E6FF0179000000000086FF0187009A
S11350A60000000078FF0188000000000000434F64
S11350B632206C6576656C3A2025750A0074656D38
S11350C6702D77616B65206572726F723A20256464
S11350D60A0054656D702D72656164206572726F85
S11350E6723A2025640A0048756D3A20256420200A
S11350F654656D703A2025640A00434F3220736567
S11351066E736F723A202564004661696C6564208B
S1135116746F206665746368206C696768742064BC
S11351266174613A2025640A004C696768742073C7
S1135136656E736F72206E6F742072656164790098
S11351464C696768743A2025640A004C7578206FA8
S1135156766572666C6F7700466163746F72795216
S1135166657374203E25733C0A00436F6E66696757
S113517675726520746F204555383638203E257380
S11351863C0A004765742048574555493A2025731B
S1135196203E25733C200A005365742044657645F9
S11351A655493A202573203E25733C0A0030313890
S11351B66363323566373234613835313763626654
S11351C6643736336463313132363631340063350D
S11351D633653866396631303830316663340053A6
S11351E66574204F544141204964656E746974792D
S11351F6206170704555493A2573206170704B459E
S1135206593A2573206465764555493A2573203EF7
S113521625733C0A0053617665206D6163203E2543
S1135226733C0A0053657420416461707469766541
S1135236204461746120526174653A204F4E203EC9
S113524625733C0A004A6F696E204E6574776F7247
S11352566B2054726965734C6566743A2564203E06
S113526625733C0A0055706C6F6164204D65737339
S1135276616765203E25733C0A0054656D7065724E
S11352866174757265206D6561737572656D656EA1
S11352967400434F32206D6561737572656D656E7A
S11352A674004C69676874206D6561737572656D09
S11352B6656E7400576174657220736572766F004B
S11352C64C6564004661696C656420746F20696E80
S11352D6697469616C697A652074656D706572615B
S11352E6747572652073656E736F72004661696CBE
S11352F6656420746F20696E697469616C697A6586
S1135306206C696768742073656E736F723A202522
S1135316640A004661696C656420746F20656E6179
S1135326626C65206C696768742073656E736F724E
S11353362025640A0049444C4500546D7220537676
S1135346630048414C206C6564207461736B207360
S113535674617274656421210048414C5F4C454474
S113536600737973207265736574006D61632070D0
S113537661757365006D616320726573756D650093
S113538673797320666163746F7279524553455419
S11353960073797320676574206877657569006D95
S11353A66163206765742067776E62006D616320B0
S11353B6736574206C696E6B63686B202564006D7D
S11353C661632073657420646576657569006D6133
S11353D6632073657420617070657569006D61631F
S11353E620736574206170706B6579006D6163204C
S11353F6736574206E776B736B6579006D616320DA
S113540673657420617070736B6579006D616320D8
S11354167365742064657661646472006D616320EB
S113542673617665006D6163206A6F696E00756EDF
S1135436636E66006D61632074782025732025648D
S1135446202573006F6666006D61632073657420A2
S1135456616472006D616320676574206164720023
S11354666D616320736574206472202564006D6128
S11354766320676574206472006D616320736574CC
S113548620727864656C6179312025640033203894
S11354963639353235303030006D616320736574CA
S11354A620727832003120302036006D616320731B
S11354B6657420636820647272616E6765006D614D
S11354C6632073657420636820646379636C652064
S11354D6256420373939006D616320736574206350
S11354E668206672657120256420256C75006D61DF
S11354F6632073657420636820647272616E6765E5
S113550620256420302035006D6163207365742086
S1135516636820737461747573202564206F6E004C
S11355266D616320736574207077726964782031C5
S1135536006D61632073657420726574782037008A
S11355466F74616100616270004B4559535F4E4F41
S1135556545F494E4954004E4F5F465245455F439A
S1135566480053494C454E540042555359004D4149
S1135576435F5041555345440044454E4945440014
S1135586414343455054454400494E56414C4944D1
S11355965F504152414D004E4F545F4A4F494E456C
S11355A64400494E56414C49445F444154415F4C82
S11355B6454E004652414D455F434F554E54455264
S11355C65F4552525F52454A4F494E5F4E454544E8
S11355D64544004D41435F54585F4F4B004D414392
S11355E65F52585F4F4B004D41435F4552524F52F5
S11355F600554E4B4E4F574E00E006E50600840715
S1135606018B0702E90603F70604020705090706E4
S11356160E070719070820070929070A37070B4247
S1135626070C53070D73070E7D070F8707109107A5
S9030000FC
