S00B00006170702E73726563D8
S113000004C2000022C2000020C200001EC2000080
S11300101CC200001AC2000018C2000016C2000070
S113002014C2000012C2000010C200000EC2000080
S11300300AC500000AC2000008C2000006C200008F
S113004004C2000002C2000000C20000FEC10000A1
S1130050FCC10000FAC10000F8C10000F6C10000B4
S1130060F4C100000C945F0F0C94B10FEEC10000BA
S1130070ECC10000EAC10000E8C10000E6C10000D4
S1130080E4C10000E2C10000E0C10000DEC10000E4
S11300900C94F50F0C944710D8C100000C94FC1379
S11300A0D4C10000D2C10000D0C10000CEC1000004
S11300B0CCC10000CAC10000C8C10000C6C1000014
S11300C0C4C10000C2C10000C0C100000C948B1068
S11300D00C94DD10BAC100000C9421110C9473111E
S11300E0B4C10000950195019501C401CC01DB0167
S11300F095019501C401CC011E148E148E148E1426
S11301008E148E148E148E141E148E148E148E144B
S11301108E148E148E148E1420148E148E148E1439
S11301208E148E148E148E148E148E148E148E14BB
S11301308E148E148E148E1420148E148E148E1419
S11301408E148E148E148E148E148E148E148E149B
S11301508E148E148E148E148A148E148E148E148F
S11301608E148E148E148E1455148E148E148E14B4
S11301708E148E148E148E148E148E148E148E146B
S11301808E148E148E148E1449148E148E148E14A0
S11301908E148E148E148E146D1402E213E00F2E3E
S11301A0FAE4EF2EF3E0FF2EF02D80912103882353
S11301B011F10FB6F8940F92D8011596ED91FC91B8
S11301C01697C681D781CE010296A5D280911703D6
S11301D081508093170380912103815080932103E0
S11301E00F900FBE8F89988D25D2CE0123D2809196
S11301F021038111DECFF7018081823008F060D3C2
S11302000E94780DD2CFCF93DF9300D000D0CDB72A
S1130210DEB7CE0101964C0144244394E12CF12C29
S1130220512CC82ED92CE0917803F0917903808168
S1130230882309F4D7C00580F681E02DA080B18021
S11302400E948109C4010E940A0D8C0189818111D7
S113025048C00A151B05B0F10E94480AE0917803D2
S1130260F09179030580F681E02D66807780C301E3
S1130270029651D2D30153968C91539782FF17C0A3
S11302801C966D917C911D976A0D7B1D9501A801AB
S1130290C3010E944F0C882369F00E2D1F2D2E2DB3
S11302A03F2DA501652DC3010E94C60C03C08E7F9E
S11302B0F301838BD3015096ED91FC915197C301C7
S11302C0199584C0452DB501601B710B8091740391
S11302D09091750349D60E94480A811177C0F0D2E3
S11302E075C00E94480A72C0898188230CF46EC0CC
S11302F0AC80BD80F50182859385892B19F0C501F9
S1130300029609D2CE0106960E940A0DAC01E9813B
S11303100E2E000CFF0BEA30F10508F057C08827B9
S1130320EE58FF4F8F4F0C947316D50153968C9152
S11303305397816053968C9353972A813B811C96E3
S11303406D917C911D97620F731FC5010E944F0C24
S11303508823E1F1D5015096ED91FC915197C501A7
S11303601995F501838982FF31C04A815B818485B7
S11303709585480F591F0E2D1F2D2E2D3F2D652DB0
S1130380C5010E94C60C22C0D50153968C91539787
S11303908E7F53968C931AC0F50183898160838B79
S11303A06A817B8175876487640F751F9A01C50113
S11303B00E944F0C0BC0D50153968C9181FD03C054
S11303C0C50138D103C08E7FF501838B4E2D5F2D7F
S11303D06C2D7D2D80917403909175033CD5811112
S11303E083CF21CF8ED7C4010E940A0D8C0189814D
S11303F0811177CFE0917603F09177038081442DCA
S11304008111452DAE2CBF2C5ECF11241FBECFEF22
S1130410D1E2DEBFCDBF00E00CBF13E0A0E0B2E04C
S1130420E8E7F5E300E00BBF02C007900D92A630A9
S1130430B107D9F723E0A6E0B3E001C01D92A53CC3
S1130440B207E1F79BD00C94BA1ADACD9F938F933D
S11304508EE492E09F938F930E94CA170F900F909F
S11304600F900F9008950F2EFDE5EF2EF2E0FF2E72
S1130470F02D02E712E0C7E8D2E02FEF83ED90E31E
S1130480215080409040E1F700C000000E94171204
S1130490282F30E02115310569F02330310551F062
S11304A01F928F93FF92EF920E94CA170F900F90A2
S11304B00F900F902FEF81EE94E0215080409040F8
S11304C0E1F700C000000E942B12282F30E0211514
S11304D0310569F02330310551F01F928F931F933A
S11304E00F930E94CA170F900F900F900F902FEF49
S11304F081EE94E0215080409040E1F700C000007C
S11305000E943B120E94930D7093BA036093B90347
S11305100E944D120E94930D6093B5037093B6032D
S11305207F936F938091BA038F938091B9038F93D4
S1130530DF93CF930E94CA170F900F900F900F90E4
S11305400F900F909ACFC9E9D2E02FEF83ED90E39B
S1130550215080409040E1F700C000000E94ED125D
S113056090E0009791F39F938F93DF93CF930E9432
S1130570CA170F900F900F900F90E7CFEF92FF9252
S11305800F930F2EF8E0EF2EF3E0FF2EF02D05E091
S113059020E030E040EC50E068EA72E083E392E06F
S11305A071D50F2EF6E0EF2EF3E0FF2EF02D20E0B4
S11305B030E040EC50E060EC72E083EA92E062D517
S11305C080E00E940B0E78940E940012811107C0F3
S11305D066E272E083E00E94BF1262D6FFCF80ED34
S11305E092E00E94DD1781E090E00F91FF90EF9080
S11305F00895E8E0F1E09081907F908390818F707E
S1130600982B90830895E8E0F1E08081807F8083D7
S11306100895CF93DF93EC0174D6CE010E94951612
S1130620EC0136D7209711F40E94790DCE01DF91A9
S1130630CF910895CF93DF93009731F0EC0161D609
S1130640CE010E942D1724D7DF91CF910895FC018C
S11306500396928381832FEF3FEF34832383968322
S113066085839087878310820895FC011186108604
S11306700895CF93DF939C01FB01DC011196CD918A
S1130680DC911297D383C2838C819D81958384836B
S11306908C819D81DC0113967C936E9312977D83EC
S11306A06C8331872087F90180818F5F8083DF919C
S11306B0CF910895CF93DF93EB01488159814F3F48
S11306C02FEF520721F4FC01A781B0850DC0DC0196
S11306D0139601C0DF011296ED91FC9113972081CE
S11306E0318142175307B0F71296ED91FC9113979D
S11306F0FB83EA83D583C483BD83AC831396DC93E5
S1130700CE93129799878887FC0120812F5F2083DD
S1130710DF91CF910895CF93DF93FC01A085B1853C
S1130720C281D381848195819D838C83C481D58149
S1130730828193819B838A8311968D919C911297D8
S1130740E817F90731F48481958112969C938E936E
S11307501197118610868C9181508C938C91DF9126
S1130760CF91089531E1FC013083319722E2208357
S11307703197A3E3A08331976083319770833197D6
S1130780108231971082319760E86083319710822C
S11307903197108231971082319762E060833197EC
S11307A063E06083319764E06083319765E0608340
S11307B0319766E06083319767E06083319768E042
S11307C06083319769E06083319760E1608331979A
S11307D03083319732E13083319733E1308331977D
S11307E034E13083319735E13083319736E130831A
S11307F0319737E13083319738E13083319739E1EC
S11308003083319730E23083319731E2308331974E
S11308102083319723E2208331974083319750839B
S1130820319726E22083319727E22083319728E20B
S11308302083319729E22083319720E32083319765
S113084021E3208389970895A89590EC88E10FB659
S1130850F894A895809360000FBE90936000A091D7
S11308606E03B0916F03CD91CDBFDD91DEBFFF91DB
S1130870EF91DF91CF91BF91AF919F918F917F9134
S11308806F915F914F913F912F911F910F91FF9025
S1130890EF90DF90CF90BF90AF909F908F907F901C
S11308A06F905F904F903F902F901F900F900CBED1
S11308B00F900BBE0F900FBE0F90089581E0089526
S11308C00F920FB6F8940F920BB60F920CB60F92CC
S11308D01F9211242F923F924F925F926F927F92B8
S11308E08F929F92AF92BF92CF92DF92EF92FF923C
S11308F00F931F932F933F934F935F936F937F9324
S11309008F939F93AF93BF93CF93DF93EF93FF9313
S1130910A0916E03B0916F030DB60D920EB60D92B9
S113092030D6A0916E03B0916F03CD91CDBFDD9110
S1130930DEBFFF91EF91DF91CF91BF91AF919F9176
S11309408F917F916F915F914F913F912F911F9163
S11309500F91FF90EF90DF90CF90BF90AF909F905A
S11309608F907F906F905F904F903F902F901F904B
S11309700F900CBE0F900BBE0F900FBE0F900895FA
S11309800F920FB6F8940F920BB60F920CB60F920B
S11309901F9211242F923F924F925F926F927F92F7
S11309A08F929F92AF92BF92CF92DF92EF92FF927B
S11309B00F931F932F933F934F935F936F937F9363
S11309C08F939F93AF93BF93CF93DF93EF93FF9353
S11309D0A0916E03B0916F030DB60D920EB60D92F9
S11309E013BE9FD48111CDD5A0916E03B0916F0336
S11309F0CD91CDBFDD91DEBFFF91EF91DF91CF911E
S1130A00BF91AF919F918F917F916F915F914F9122
S1130A103F912F911F910F91FF90EF90DF90CF9016
S1130A20BF90AF909F908F907F906F905F904F900A
S1130A303F902F901F900F900CBE0F900BBE0F9005
S1130A400FBE0F9008959CDF18950FB6F8940F927F
S1130A50FC01928D0F900FBE81E0911180E008950A
S1130A600F931F93CF93DF93EC01042F1A8D4C8DBA
S1130A7041110BC088819981892B09F041C08C8177
S1130A809D81CDD61D821C8242C0011117C050E049
S1130A908A819B810E94BA172C8D8A819B81820F47
S1130AA0911D9B838A832C813D818217930750F18A
S1130AB0888199819B838A8380E029C050E08E815C
S1130AC09F810E94BA178C8D90E091958195910930
S1130AD02E813F81280F391F3F832E8348815981FE
S1130AE02417350730F42C813D81820F931F9F8397
S1130AF08E83023049F4112349F0115080E007C07D
S1130B0080E005C080E003C080E001C080E01F5F9A
S1130B101A8FDF91CF911F910F910895FC01448D9D
S1130B204423A9F050E026813781240F351F3783F1
S1130B302683848195812817390720F0808191814B
S1130B4097838683CB01668177810C94BA170895C5
S1130B50EF92FF920F931F93CF938C010FB6F894EB
S1130B600F92FC01C68D1C169CF48189811106C06C
S1130B700FC0F8018189811105C00AC07801F1E133
S1130B80EF0EF11CC701B2D5811137D6C15089F7D8
S1130B908FEFF801868F0F900FBE0FB6F8940F9267
S1130BA0C58D1C169CF48085811106C00FC0F80108
S1130BB08085811105C00AC07801F8E0EF0EF11CB0
S1130BC0C70194D5811119D6C15089F78FEFF80167
S1130BD0858F0F900FBECF911F910F91FF90EF90D3
S1130BE00895CF93DF93EC010FB6F8940F92E88148
S1130BF0F9818B8D2C8D90E030E0829FA001839F42
S1130C00500D929F500D11244E0F5F1F5D834C8336
S1130C101A8EFB83EA830197829FA001839F500D64
S1130C20929F500D1124CF01840F951F9F838E83B3
S1130C308FEF8D8F8E8F61110AC08885882369F0AC
S1130C40CE01089653D5882341F03ADE06C0CE0182
S1130C500896FDDCCE014196FADC0F900FBE81E0D0
S1130C60DF91CF910895FF920F931F93CF93DF935A
S1130C70082F162FF42E6623B9F0869FC001112485
S1130C808196C7DCEC01009741F414C00B8F1C8FD4
S1130C9061E0CE01A6DFF8A20DC081969983888316
S1130CA0F5CFD983C883F2CF81E290E0B2DCEC01C6
S1130CB0892BB9F7CE01DF91CF911F910F91FF904E
S1130CC008959F92AF92BF92CF92DF92EF92FF92DC
S1130CD00F931F93CF93DF9300D01F921F92CDB732
S1130CE0DEB78C016B015D834C83A22EB12C992459
S1130CF093947C0188E0E80EF11C0FB6F8940F92EF
S1130D00F801928D838D981718F0F2E0AF1215C098
S1130D104A2DB601C801A4DEF8019189992339F05E
S1130D20C8014196E3D4882321F0CADD02C08111B1
S1130D30C7DD0F900FBE81E045C08C819D81892B5A
S1130D4021F40F900FBE80E03DC0B11004C0CE016D
S1130D50019613D5B92C0F900FBED3D20FB6F894C9
S1130D600F92F801858D8F3F09F4158EF801868D59
S1130D708F3F09F4168E0F900FBEBE016C5F7F4F3C
S1130D80CE01019605D5811119C00FB6F8940F92C2
S1130D90F801928D838D0F900FBE98130BC06C8158
S1130DA07D81C7017BD4C801D3DE72D38111A5CF65
S1130DB087DDA3CFC801CCDE6BD39FCFC801C8DECB
S1130DC067D380E00F900F900F900F900F90DF91FA
S1130DD0CF911F910F91FF90EF90DF90CF90BF9034
S1130DE0AF909F900895EF92FF920F931F93CF932C
S1130DF0DF938A01FC01528D338D531710F022309A
S1130E00E1F4422F7801EC011E8D2ADE1F3F79F4B4
S1130E1089898823A1F0CE01419668D4882389F07A
S1130E20E114F10481F081E0F70180830DC0FF2417
S1130E30F394F10EFE8E81E007C080E005C081E0EE
S1130E4003C081E001C081E0DF91CF911F910F9138
S1130E50FF90EF9008959F92AF92BF92CF92DF924E
S1130E60EF92FF920F931F93CF93DF9300D01F92C3
S1130E701F92CDB7DEB78C015B015D834C83E12CFF
S1130E80992493946C0181E1C80ED11C0FB6F89497
S1130E900F92F801F28CFF2091F0B501C8013EDEFB
S1130EA0FA94F801F28E8085882329F0C801089607
S1130EB01DD4811105DD0F900FBE81E044C08C81EB
S1130EC09D81892B21F40F900FBE80E03CC0E1107E
S1130ED004C0CE01019651D4E92C0F900FBE11D25B
S1130EE00FB6F8940F92F801858D8F3F09F4158E93
S1130EF0F801868D8F3F09F4168E0F900FBEBE0148
S1130F006C5F7F4FCE01019643D4811113C0C80199
S1130F109CDD882359F06C817D81C601BFD3C80153
S1130F2017DEB6D28111B2CFCBDCB0CFC80110DE50
S1130F30AFD2ACCFC8010CDEABD2C80186DD8823AA
S1130F4009F4A4CF80E00F900F900F900F900F90B2
S1130F50DF91CF911F910F91FF90EF90DF90CF9091
S1130F60BF90AF909F900895CF93DF93EC010FB69D
S1130F70F8940F928D8D8F3F09F41D8E8E8D8F3FC7
S1130F8009F41E8E0F900FBE8A8D811103C0CE010D
S1130F90419694D3CE01DCDDDF91CF910895E091A9
S1130FA03603F09137038081811107C08FEF9FEFE3
S1130FB090930E0380930D030895E0913603F0910E
S1130FC037030580F681E02D0680F781E02D8281CC
S1130FD0938190930E0380930D030895FF920F93D2
S1130FE01F93CF93DF93EC01F62E0091150310911C
S1130FF0160380916E0390916F0302968CDBCF3FB2
S11310008FEFD80761F4FF2051F060916E03709167
S11310106F036E5F7F4F88E193E02BDB2DC0C00F21
S1131020D11FE0916E03F0916F03D383C283C01785
S1131030D10760F460916E0370916F038091340363
S1131040909135036E5F7F4F35DB16C060916E0360
S113105070916F0380913603909137036E5F7F4FD9
S113106029DB80910D0390910E03C817D90720F452
S1131070D0930E03C0930D03DF91CF911F910F9175
S1131080FF9008954F925F926F927F928F929F92FA
S1131090AF92BF92CF92DF92EF92FF920F93CF93D2
S11310A0DF934C016B015A012901CA01B2DA3C01F8
S11310B0892B09F4E4C08CE290E0ABDAEC01892BD3
S11310C099F0788E6F8AA50165EA70E0C3010E94E9
S11310D0C31781E0A81AB1088F89988DA80EB91E8C
S11310E0C114D10421F41FC0C301A4DAC8C0D601BD
S11310F08C91898F8C918823A1F0AE01465E5F4F5D
S1131100F6013196B8E0CB0ED11CCF012191DA0162
S11311102D93AD01DC018C91882319F0EC15FD05AC
S1131120A1F718A201C0198E043008F003E00E8B59
S11311300BA31CA26E01B2E0CB0ED11CC60195DA42
S1131140CE010C9692DAD987C88784E090E0801BA0
S113115091099D878C87DB8BCA8B1EA21DA21FA2BF
S113116018A619A61AA61BA6A201B401C501FADA8B
S113117099838883E114F10419F0F701D183C083C2
S11311800FB6F8940F92809117038F5F8093170323
S113119080916E0390916F03892B89F5D0936F032F
S11311A0C0936E0380911703813009F038C08AE43C
S11311B093E04DDA83E593E04ADA8CE593E047DA8D
S11311C085E693E044DA81E493E041DA88E393E04E
S11311D03EDA8BE293E03BDA82E293E038DA88E1AC
S11311E093E035DA81E493E09093370380933603F8
S11311F088E393E0909335038093340310C0809187
S1131200130381110CC0E0916E03F0916F03968972
S11312108E89891720F0D0936F03C0936E03809159
S11312200F038F5F80930F0389A38E89909114031A
S1131230981710F48093140390E09C01220F331F3D
S1131240220F331F220F331F820F931FB601865BB9
S11312509C4F0FDA0F900FBE80911303882359F02F
S1131260E0916E03F0916F0396898E89981728F4A4
S113127027DB81E005C081E003C081E001C08FEF7E
S1131280DF91CF910F91FF90EF90DF90CF90BF90BF
S1131290AF909F908F907F906F905F904F90089544
S11312A0EF92FF920F930F2EFBE0EF2EF3E0FF2E51
S11312B0F02D00E020E030E040EC50E068EF72E018
S11312C08DEC90E0DFDE8130C1F440D38130A9F4AD
S11312D0F8948FEF9FEF90930E0380930D0381E0BA
S11312E0809313031092160310921503E0916E037A
S11312F0F0916F0385A17DD9A7DA0F91FF90EF904C
S1131300089580910A038F5F80930A0308950FB6AE
S1131310F8940F9280911503909116030F900FBECD
S11313200895CF92DF92EF92FF920F931F93CF9382
S1131330DF9380910A03811195C0E0901503F0902A
S113134016038FEFE81AF80AF0921603E0921503D9
S1131350E114F104B1F480913603909137032091A4
S1131360340330913503309337032093360390933D
S1131370350380933403809110038F5F80931003AF
S11313800EDE80910D0390910E03E816F90610F419
S1131390D12C50C0D12CCC24C394E0913603F091CD
S11313A037038081811107C08FEF9FEF90930E0365
S11313B080930D033FC0E0913603F091370305801D
S11313C0F681E02DC681D7818A819B81E816F906D2
S11313D028F490930E0380930D032CC08E010E5FAE
S11313E01F4FC80198D98C899D89892B19F0CE018A
S11313F00C9691D98E8990911403981710F48093C8
S1131400140390E09C01220F331F220F331F220F7D
S1131410331F820F931FB801865B9C4F2AD9E0913A
S11314206E03F0916F039E898689981708F4B5CFEF
S1131430DC2CB3CFE0916E03F0916F03868990E0CA
S1131440FC01EE0FFF1FEE0FFF1FEE0FFF1F8E0FAD
S11314509F1FFC01E65BFC4F8081823048F0DD2455
S1131460D39406C0809112038F5F80931203D12C12
S113147080911103882311F0DD24D3948D2DDF9105
S1131480CF911F910F91FF90EF90DF90CF9008952F
S1131490DF92EF92FF920F931F93CF93DF930FB6D8
S11314A0F8940F9280910A03815080930A038091EB
S11314B00A03811159C080911703811130C057C0AC
S11314C0D7011596ED91FC911697C681D781CE016F
S11314D00C9621D98E010E5F1F4FC8011CD98E892D
S11314E090911403981710F48093140390E09C01D6
S11314F0220F331F220F331F220F331F820F931F1C
S1131500B801865B9C4FB5D8E0916E03F0916F03F0
S11315109E898689981768F0D09211030AC0C0E0AA
S1131520D0E00F2EFBE2EF2EF3E0FF2EF02DDD24B2
S1131530D394F70180818111C3CFCD2B09F02FDD26
S1131540C0911203CC2349F0D1E0EBDE8111D0939A
S11315501103C150D1F71092120380911103882313
S113156029F0AED981E003C080E001C080E00F9093
S11315700FBEDF91CF911F910F91FF90EF90DF90FD
S1131580089580910A03882321F081E08093110358
S1131590089510921103E0916E03F0916F0385A1F9
S11315A032D8A0916E03B0916F03E0916E03F09175
S11315B06F032D913C918789908D8217930758F082
S11315C060916E0370916F0380916E0390916F032D
S11315D0675E7F4F9BD220911403822F90E0FC0121
S11315E0EE0FFF1FEE0FFF1FEE0FFF1FE80FF91F97
S11315F0E65BFC4F3081311111C02150822F90E005
S1131600FC01EE0FFF1FEE0FFF1FEE0FFF1FE80F91
S1131610F91FE65BFC4F3081332379F3AC01440FAF
S1131620551F440F551F440F551F480F591FDA010A
S1131630A65BBC4F1196ED91FC9112970280F38149
S1131640E02D1296FC93EE931197435B5C4FE417E5
S1131650F50729F442815381FD0152834183FC0142
S1131660EE0FFF1FEE0FFF1FEE0FFF1F8E0F9F1FCA
S1131670FC01E65BFC4F0180F281E02D86819781BD
S113168090936F0380936E0320931403E0916E0391
S1131690F0916F0385A10C94F9020895CF93DF9321
S11316A0EB0160916E0370916F03645F7F4F02D80A
S11316B061E0CE0193DCDF91CF9108950F931F93E6
S11316C0CF938B01C42F60916E0370916F03645F9D
S11316D07F4F0E943903CC2311F00FEF1FEF6C2FC3
S11316E0C8017CDCCF911F910F9108950F931F9334
S11316F0CF93DF93DC011596ED91FC911697C6818B
S1131700D7818E01045F1F4FC80105D880910A0359
S113171081111CC00A501109C8010E948B038E89D3
S113172090911403981710F48093140390E09C0193
S1131730220F331F220F331F220F331F820F931FD9
S1131740B801865B9C4F0E94390305C0B8018BE247
S113175093E00E943903E0916E03F0916F039E8938
S11317608689891720F481E08093110301C080E009
S1131770DF91CF911F910F91089520911003FC01E7
S11317802083209115033091160332832183089519
S1131790CF93DF930FB6F8940F92209115033091F5
S11317A01603DB014D915C914F3FBFEF5B07E9F0FE
S11317B0EC01E981FA81A0911003B881BA1719F0FC
S11317C02E173F07A0F42E1B3F0B2417350740F4B8
S11317D0FB01421B530B51834083CFDF80E008C0E1
S11317E0FB011182108281E003C080E001C081E02E
S11317F00F900FBEDF91CF91089581E08093110384
S1131800089580911303882331F080910A0388237B
S113181021F080E0089581E0089582E008950F9317
S11318201F93CF93DF93FC01892B79F184A181501D
S113183084A3268993A1291751F181112AC0EF01AC
S11318408F010E5F1F4FC8010E948B038BA18E8BEB
S113185024E030E0281B31093D872C879091140344
S1131860981710F48093140390E09C01220F331F07
S1131870220F331F220F331F820F931FB801865B81
S11318809C4F0E94390381E005C080E003C080E0E2
S113189001C080E0DF91CF911F910F910895FC0169
S11318A073836283918780874617570790F0421BA2
S11318B0530B8485958548175907E0F4BF016E5F83
S11318C07F4F80917603909177030E945A0380E0C2
S11318D008954217530718F46217730768F4BF0199
S11318E06E5F7F4F80917803909179030E945A0331
S11318F080E0089581E0089581E008950FB6F8949A
S11319000F928091740390917503892BE1F483E81D
S113191093E00E9427038AE793E00E94270383E869
S113192093E090937903809378038AE793E090930C
S113193077038093760340E065E08AE094D990933E
S11319407503809374030F900FBE0895EF92FF9276
S11319500F93D4DF8091740390917503892B89F0E0
S11319600F2EF2E7EF2EF3E0FF2EF02D06E020E03D
S113197030E045E550E06DEF72E083E091E082DB1A
S113198001C080E00F91FF90EF9008950F931F9393
S1131990CF93DF9300D01F921F92CDB7DEB7E091B3
S11319A07403F0917503309751F1D90169835B8316
S11319B04A839D838C836630D4F423DF823059F4C8
S11319C020E0A801BE016F5F7F4F80917403909166
S11319D0750377D915C020E040E050E0BE016F5F89
S11319E07F4F80917403909175036BD909C020E0F7
S11319F0AD01BE016F5F7F4FCF01F5D901C080E01B
S1131A000F900F900F900F900F90DF91CF911F9137
S1131A100F910895AF92BF92CF92DF92EF92FF920F
S1131A200F931F93CF93DF936C0171DC7C01809142
S1131A30700390917103E816F90608F047C02FC0AF
S1131A400580F681E02DA080B180C681D7818E010A
S1131A500E5F1F4FC8010E948B03E889F989CE01EC
S1131A6019958B8982FF1BC08C859D858A0D9B1DD2
S1131A70A816B90660F49B838A83D987C887B801FE
S1131A8080917803909179030E945A0308C000E082
S1131A9010E020E030E0A50160E0CE0177DFE091C6
S1131AA07803F091790380818111CACF8091760304
S1131AB0909177039093790380937803F09377035D
S1131AC0E093760381E0F601808302C0F601108280
S1131AD0F0927103E0927003C701DF91CF911F91DF
S1131AE00F91FF90EF90DF90CF90BF90AF9008954B
S1131AF00895279A2F9A2FEF80E792E02150804093
S1131B009040E1F700C000001F9AF5CF279A2F9A62
S1131B102FEF87EA91E6215080409040E1F700C022
S1131B2000001F9AF5CF04D06894B11150C00895F5
S1131B3033D088F09F5790F0B92F9927B751A0F070
S1131B40D1F0660F771F881F991F1AF0BA95C9F74D
S1131B5012C0B13081F03AD0B1E0089537C0672F98
S1131B60782F8827B85F39F0B93FCCF386957795FD
S1131B706795B395D9F73EF49095809570956195E6
S1131B807F4F8F4F9F4F089557FD9058440F551F17
S1131B9059F05F3F71F04795880F97FB991F61F0EB
S1131BA09F3F79F087950895121613061406551F62
S1131BB0F2CF4695F1DF08C0161617061806991FCE
S1131BC0F1CF86957105610508940895E894BB27C3
S1131BD066277727CB0197F90895CF93DF931F9258
S1131BE0CDB7DEB7BE016F5F7F4F80918C039091BC
S1131BF08D0349D18111F6CF898190E00F90DF9157
S1131C00CF910895682F80918C0390918D03C6D055
S1131C1080E090E008958F929F92AF92CF92EF92DE
S1131C200F93812C912C6894AA24A7F86894CC244F
S1131C30C7F8E12C00E023E040E051EE60E070E002
S1131C4013D090938D0380938C03EFEBF3E086E045
S1131C5092E091838083938382830F91EF90CF905E
S1131C60AF909F908F9008952F923F924F925F92E2
S1131C706F927F928F929F92AF92CF92EF92FF9248
S1131C800F931F93CF93DF93CDB7DEB7F82E2A01BE
S1131C903B0188E090E00E9495168C018F2D90E026
S1131CA0880F991FFC01E257FC4F11830083FC014C
S1131CB0EC5EFD4F80819181D8018D939C936C2DB6
S1131CC070E084E090E00E947B161C0161E070E00B
S1131CD086E090E00E947B167C014C2DB10147D335
S1131CE0F801F582E4826A2D70E084E090E00E94BD
S1131CF07B161C0161E070E086E090E0FCD77C017B
S1131D004A2DB10134D3D8011396FC92EE92129766
S1131D1017969C928E921697FFB6F894ED91FC91CB
S1131D20119736978081826080838D909C90C30147
S1131D30B201ECD620E030E040E051E44CD79B0106
S1131D40AC0160E074E284E79BE478D620E030E004
S1131D5040E85FE30ED6ECDEF40132976083D801ED
S1131D60ED91FC911197359788E98083ED91FC9171
S1131D70349786E08083FFBEC801DF91CF911F9125
S1131D800F91FF90EF90CF90AF909F908F907F90A6
S1131D906F905F904F903F902F900895CF93DF9373
S1131DA0EC01EA81FB81938182812581981B922336
S1131DB084819817A1F0938126952923A081B1816C
S1131DC0A20FB11D6C939F5F258192239383E881B9
S1131DD0F981359780818062808380E001C082E050
S1131DE0DF91CF910895EF92FF920F931F93CF93BA
S1131DF0DF937C01DC011296ED91FC9113979381A2
S1131E008281981B858198238481891B861798F188
S1131E10662341F1842F952FDC016150462F50E059
S1131E204F5F5F4F480F591FE701EA81FB819381A0
S1131E3082812581981B92238481981779F08C9153
S1131E40938126952923608171818B01020F111DD5
S1131E50E80188839F5F8581982393831196A41753
S1131E60B50711F7D701ED91FC9135978081806218
S1131E70808380E001C082E0DF91CF911F910F91B8
S1131E80FF90EF900895DC011496ED91FC91159765
S1131E9093818281981789F092818581869589231F
S1131EA0A081B181A80FB11D8C91DB018C939F5F40
S1131EB085819823928380E0089583E008951F929A
S1131EC00F920FB60F9211240BB60F922F933F93DC
S1131ED04F935F936F937F938F939F93AF93BF932E
S1131EE0CF93DF93EF93FF93A0918E03B0918F0371
S1131EF0109711F16091C6001496ED91FC9115971D
S1131F00938182812581981B92238481981761F0A3
S1131F10838126952823C081D181C20FD11D688376
S1131F208F5F9581892383831696ED91FC91179792
S1131F30309711F0CD011995FF91EF91DF91CF9179
S1131F40BF91AF919F918F917F916F915F914F91CD
S1131F503F912F910F900BBE0F900FBE0F901F90CB
S1131F6018951F920F920FB60F9211240BB60F9271
S1131F702F938F939F93AF93BF93EF93FF93E0912E
S1131F808E03F0918F033097B9F00280F381E02D36
S1131F90938182819817B1F092818581282F2695AB
S1131FA02923A081B181A20FB11D2C919F5F8923A8
S1131FB082832093C6000BC0E1ECF0E080818F7D2A
S1131FC0808305C0E1ECF0E080818F7D8083FF9108
S1131FD0EF91BF91AF919F918F912F910F900BBE75
S1131FE00F900FBE0F901F9018951F920F920FB66F
S1131FF00F9211240BB60F922F933F934F935F933D
S11320006F937F938F939F93AF93BF93CF93DF93FC
S1132010EF93FF93A0919003B0919103109711F166
S11320206091CE001496ED91FC9115979381828175
S11320302581981B92238481981761F083812695CA
S11320402823C081D181C20FD11D68838F5F958100
S1132050892383831696ED91FC911797309711F09D
S1132060CD011995FF91EF91DF91CF91BF91AF9180
S11320709F918F917F916F915F914F913F912F919C
S11320800F900BBE0F900FBE0F901F9018951F92CC
S11320900F920FB60F9211240BB60F922F938F93BA
S11320A09F93AF93BF93EF93FF93E0919003F091CD
S11320B091033097B9F00280F381E02D93818281FE
S11320C09817B1F092818581282F26952923A08124
S11320D0B181A20FB11D2C919F5F8923828320932C
S11320E0CE000BC0E9ECF0E080818F7D808305C0D9
S11320F0E9ECF0E080818F7D8083FF91EF91BF91C7
S1132100AF919F918F912F910F900BBE0F900FBEA7
S11321100F901F9018951F920F920FB60F921124D3
S11321200BB60F922F933F934F935F936F937F93CD
S11321308F939F93AF93BF93CF93DF93EF93FF93CB
S1132140A0919203B0919303109711F16091D6007E
S11321501496ED91FC911597938182812581981BAA
S113216092238481981761F0838126952823C08166
S1132170D181C20FD11D68838F5F958189238383A9
S11321801696ED91FC911797309711F0CD011995A2
S1132190FF91EF91DF91CF91BF91AF919F918F917B
S11321A07F916F915F914F913F912F910F900BBE53
S11321B00F900FBE0F901F9018951F920F920FB69D
S11321C00F9211240BB60F922F938F939F93AF937B
S11321D0BF93EF93FF93E0919203F09193033097B1
S11321E0B9F00280F381E02D938182819817B1F0D8
S11321F092818581282F26952923A081B181A20F60
S1132200B11D2C919F5F892382832093D6000BC03C
S1132210E1EDF0E080818F7D808305C0E1EDF0E0A9
S113222080818F7D8083FF91EF91BF91AF919F91CA
S11322308F912F910F900BBE0F900FBE0F901F9098
S113224018951F920F920FB60F9211240BB60F928E
S11322502F933F934F935F936F937F938F939F93AA
S1132260AF93BF93CF93DF93EF93FF93A091940326
S1132270B0919503109711F1609136011496ED9188
S1132280FC911597938182812581981B92238481E7
S1132290981761F0838126952823C081D181C20FCC
S11322A0D11D68838F5F9581892383831696ED9171
S11322B0FC911797309711F0CD011995FF91EF918B
S11322C0DF91CF91BF91AF919F918F917F916F914A
S11322D05F914F913F912F910F900BBE0F900FBEC6
S11322E00F901F9018951F920F920FB60F92112402
S11322F00BB60F922F938F939F93AF93BF93EF934C
S1132300FF93E0919403F09195033097B9F0028024
S1132310F381E02D938182819817B1F092818581B8
S1132320282F26952923A081B181A20FB11D2C91BC
S11323309F5F89238283209336010BC0E1E3F1E0A0
S113234080818F7D808305C0E1E3F1E080818F7D12
S11323508083FF91EF91BF91AF919F918F912F91C6
S11323600F900BBE0F900FBE0F901F901895FC019D
S1132370411101C0FBD5842F90E09C01215031090B
S113238082239323892B09F0F1D5413808F0EED547
S1132390128213824483440F4150458371836083C6
S11323A080E090E008956530F1F4FA0180818F7344
S11323B090E0982F88272181822B90931F0280938D
S11323C01E028281F0E48F9FC0011124FA0123814F
S11323D026952695822B90931D0280931C0281E002
S11323E0809396030895643051F080E090E49093D4
S11323F01D0280931C0290931F0280931E02089575
S11324000F931F9303ED11E120E034E244EF50E019
S113241060E087E222D1909398038093970321E0B0
S1132420892B09F020E0822F1F910F91089580914C
S1132430970390919803009751F040E060E070E0BA
S11324405DD1843031F41092960380E0089582E0E7
S1132450089583E0089580919703909198030097DD
S113246031F064E096D1853021F083E0089582E074
S1132470089580E0089560911E0270911F0280E02B
S113248090E044D320E030E048EC52E4A4D320E0D0
S113249038EF4FE756E4D2C2089560911C02709160
S11324A01D0280E090E032D320E030E045E253E4C6
S11324B092D320E038EF4FE756E4C0D220E030E07A
S11324C040E252E456C2089580919C03860F8093A3
S11324D09C0390919F03913079F028F09230A9F0F9
S11324E0933019F108956F3F09F048C010929C038E
S11324F081E080939F030895663809F03FC01092ED
S11325009B0382E080939F030895E0919B0381E005
S11325108E0F80939B03F0E0E756FC4F608382307C
S113252069F583E080939F03089590919B0321E0D4
S1132530290F20939B03963009F581110EC0E9E918
S1132540F3E0808190E0982F88272181820F911DEC
S11325509093A1038093A00304C01092A10310924E
S1132560A00310929F03E0919D03F0919E03309786
S113257029F08091A0039091A103199508958F9259
S11325809F92AF92CF92EF920F93CF93DF93EB0191
S11325900F2EF4E68F2EF2E19F2EF02D6894AA24DC
S11325A0A4F86894CC24C4F8E12C00E023E040E8CB
S11325B055E260E070E058DB9093A3038093A2039C
S11325C0D0939E03C0939D03DF91CF910F91EF9021
S11325D0CF90AF909F908F900895CF93DF93CDB716
S11325E0DEB729970FB6F894DEBF0FBECDBF89E0E2
S11325F0E1E2F2E09E012F5F3F4FD90101900D927D
S11326008A95E1F71092A1031092A0038091A2038E
S11326109091A303009731F0422F532F69E0E3DB3D
S113262080E001C082E029960FB6F894DEBF0FBEA9
S1132630CDBFDF91CF9108958091B20381110CC079
S11326408CE08093B8008FEF8093BB0084E080938C
S1132650BC0081E08093B2030895AF92BF92CF9201
S1132660DF92EF92FF920F931F93CF93DF93A82EE5
S1132670B62E69017A0184E090E057D3EC01892BEE
S113268061F1A88281E0B81212C0C701B60120EA44
S113269036E841E050E005D3DA01C9014097A109C9
S11326A0B109B695A79597958795898311C0C701F8
S11326B0B60120E83AE146E050E0F3D2DA01C9017C
S11326C04097A109B109B695A795979587958983F0
S11326D01B830A838C2F9D2F02C080E090E0DF9142
S11326E0CF911F910F91FF90EF90DF90CF90BF900B
S11326F0AF9008958091BC0081700895FF920F936C
S11327001F93CF93DF930097C9F14A30C8F5F42E95
S11327108B01EC01EFDF811135C08091A50390910D
S1132720A603C817D90741F087DF89818093B800D1
S1132730D093A603C093A50381E08F0D8093A703D4
S11327408881880F8093A803FF2081F0F801A9EA0B
S1132750B3E04FEF4F0D642F70E06F5F7F4F600F5A
S1132760711F81918D93E617F707D9F788EF80934E
S1132770200285EA8093BC0081E005C086E003C0A6
S113278087E001C082E0DF91CF911F910F91FF900C
S113279008951F93CF93DF93009729F16B3028F5A9
S11327A0162FEC01A7DF811122C08091A50390911F
S11327B0A603C817D90741F03FDF89818093B80089
S11327C0D093A603C093A5031093A7038881880F11
S11327D081608093A80388EF8093200285EA809328
S11327E0BC0081E005C086E003C087E001C082E050
S11327F0DF91CF911F9108951F920F920FB60F9200
S113280011240BB60F922F933F934F935F936F93C3
S11328107F938F939F93AF93BF93EF93FF93E09135
S1132820B9008E2F90E0FC013897E135F10508F0EE
S113283075C08827E458FF4F8F4F55C21092A403E8
S1132840E091A4038091A703E81770F481E08E0F50
S11328508093A403F0E0E855FC4F80818093BB0093
S113286085E88093BC0072C084E98093BC008091A9
S1132870A5039091A603DC011296ED91FC911397A8
S1132880309709F463C020E040E050E064E019951B
S11328905DC0E091A40381E08E0F8093A403809136
S11328A0BB00F0E0E855FC4F80838091B900803490
S11328B011F41092A4032091A40330E08091A703A3
S11328C090E001972817390724F485EC8093BC0025
S11328D03DC085E88093BC0039C08091BB00E09185
S11328E0A403F0E0E855FC4F808384E98093BC00A6
S11328F08091A5039091A603DC011296ED91FC91C1
S11329001397309719F12091A70348EA53E065E043
S113291019951CC085EA8093BC0018C08091B90049
S11329208093200284E08093BC008091A503909161
S1132930A603DC011296ED91FC911397309731F0C8
S113294020E040E050E0609120021995FF91EF9162
S1132950BF91AF919F918F917F916F915F914F91B3
S11329603F912F910F900BBE0F900FBE0F901F90B1
S113297018955058BB27AA270ED01CC10DD130F092
S113298012D120F031F49F3F11F41EF402C10EF471
S1132990E095E7FBF8C0E92FF7D880F3BA17620790
S11329A073078407950718F071F49EF50FC90EF4A8
S11329B0E0950B2EBA2FA02D0B01B90190010C014B
S11329C0CA01A0011124FF27591B99F0593F50F463
S11329D0503E68F11A16F040A22F232F342F4427BB
S11329E0585FF3CF469537952795A795F0405395B3
S11329F0C9F77EF41F16BA0B620B730B840BBAF083
S1132A009150A1F0FF0FBB1F661F771F881FC2F7ED
S1132A100EC0BA0F621F731F841F48F48795779501
S1132A206795B795F7959E3F08F0B3CF9395880FB8
S1132A3008F09927EE0F9795879508950CD0BAC0A2
S1132A40B2D040F0A9D030F021F45F3F19F09BC020
S1132A505111BDC89EC098D898F39923C9F3552342
S1132A60B1F3951B550BBB27AA276217730784077D
S1132A7038F09F5F5F4F220F331F441FAA1FA9F333
S1132A8033D00E2E3AF0E0E830D091505040E69525
S1132A90001CCAF729D0FE2F27D0660F771F881F86
S1132AA0BB1F261737074807AB07B0E809F0BB0B75
S1132AB0802DBF01FF2793585F4F2AF09E3F510599
S1132AC068F061C084C85F3FECF3983EDCF3869500
S1132AD077956795B795F7959F5FC9F7880F911D0F
S1132AE09695879597F90895E1E0660F771F881FFB
S1132AF0BB1F621773078407BA0720F0621B730BAE
S1132B00840BBA0BEE1F88F7E0950895E89409C08A
S1132B1097FB3EF490958095709561957F4F8F4F0C
S1132B209F4F9923A9F0F92F96E9BB279395F69522
S1132B30879577956795B795F111F8CFFAF4BB0FA0
S1132B4011F460FF1BC06F5F7F4F8F4F9F4F16C004
S1132B50882311F096E911C0772321F09EE8872F8E
S1132B60762F05C0662371F096E8862F70E060E04A
S1132B702AF09A95660F771F881FDAF7880F9695C3
S1132B80879597F9089597F99F6780E870E060E06A
S1132B9008959FEF80EC089500240A9416161706F2
S1132BA018060906089500240A941216130614063A
S1132BB005060895092E0394000C11F4882352F09D
S1132BC0BB0F40F4BF2B11F460FF04C06F5F7F4F55
S1132BD08F4F9F4F08950CD0EDCFDEDF28F0E3DF59
S1132BE018F0952309F0CFCFD4CF11240C94E70D1E
S1132BF00E94C40D90F3959FC1F3950F50E0551FAB
S1132C00629FF001729FBB27F00DB11D639FAA273D
S1132C10F00DB11DAA1F649F6627B00DA11D661F8C
S1132C20829F2227B00DA11D621F739FB00DA11DAD
S1132C30621F839FA00D611D221F749F3327A00D67
S1132C40611D231F849F600D211D822F762F6A2F03
S1132C5011249F57504092F0E9F088234AF0EE0F78
S1132C60FF1FBB1F661F771F881F91505040A9F795
S1132C709E3F510578F087CF0C94E70D5F3FE4F356
S1132C80983ED4F3869577956795B795F795E7952C
S1132C909F5FC1F7FE2B880F911D9695879597F935
S1132CA00895A1E21A2EAA1BBB1BFD010DC0AA1F89
S1132CB0BB1FEE1FFF1FA217B307E407F50720F0A1
S1132CC0A21BB30BE40BF50B661F771F881F991F1C
S1132CD01A9469F760957095809590959B01AC0165
S1132CE0BD01CF010895EE0FFF1F881F8BBF079012
S1132CF0F691E02D19940F931F93CF93DF93869F42
S1132D008001879F100D969F100D1124C8010DD0CE
S1132D10EC01009721F0A80160E070E034D1CE010D
S1132D20DF91CF911F910F9108950F931F93CF932C
S1132D30DF938230910510F482E090E0E091BD03CE
S1132D40F091BE0320E030E0A0E0B0E0309719F14C
S1132D50408151810281138148175907C8F08417B3
S1132D60950769F4109731F012960C931297139605
S1132D701C9327C00093BD031093BE0322C02115EA
S1132D80310519F04217530718F49A01BD01EF01F8
S1132D90DF01F801DBCF21153105F9F0281B390BD0
S1132DA02430310580F48A819B816115710521F0FD
S1132DB0FB019383828304C09093BE038093BD037D
S1132DC0FE01329644C0FE01E20FF31F81939193FA
S1132DD022503109398328833AC02091BB033091B2
S1132DE0BC03232B41F4209102023091030230935F
S1132DF0BC032093BB0320910002309101022115F2
S1132E00310541F42DB73EB74091040250910502BB
S1132E10241B350BE091BB03F091BC03E217F307CD
S1132E20A0F42E1B3F0B2817390778F0AC014E5F36
S1132E305F4F2417350748F04E0F5F1F5093BC03B4
S1132E404093BB038193919302C0E0E0F0E0CF0193
S1132E50DF91CF911F910F910895CF93DF93009746
S1132E6009F481C0FC01329713821282A091BD0340
S1132E70B091BE03109781F420813181820F931F9A
S1132E802091BB033091BC032817390751F5F09307
S1132E90BC03E093BB0367C0ED0120E030E0CE1734
S1132EA0DF0740F44A815B819E0141155105F1F031
S1132EB0EA01F5CFD383C28340815181840F951FEA
S1132EC0C817D90759F488819981840F951F0296F0
S1132ED0918380838A819B81938382832115310529
S1132EE029F4F093BE03E093BD033DC0E901FB83E5
S1132EF0EA8349915991C40FD51FEC17FD0761F47A
S1132F0080819181840F951F0296E90199838883BA
S1132F10828193819B838A83E0E0F0E012968D9115
S1132F209C911397009719F0FD01DC01F7CF8D9167
S1132F309C9111979D012E5F3F4F820F931F20910B
S1132F40BB033091BC032817390769F4309729F47F
S1132F501092BE031092BD0302C013821282B0937A
S1132F60BC03A093BB03DF91CF91089581E090E06F
S1132F70F89400C3FB01DC0102C001900D924150A2
S1132F805040D8F70895DC0101C06D934150504082
S1132F90E0F70895CF93DF93CDB7DEB7AE014A5F74
S1132FA05F4FFA0161917191AF018091C1039091DA
S1132FB0C20333D0DF91CF9108950F931F93CF9322
S1132FC0DF93E091C103F091C203238121FF1BC071
S1132FD08C01D0E0C0E0F80181918F016091C103C0
S1132FE07091C203DB011896ED91FC911997882327
S1132FF031F01995892B79F3DFEFCFEFECCF8AE02D
S11330001995892B19F08FEF9FEF02C08D2F9C2FFC
S1133010DF91CF911F910F9108952F923F924F927C
S11330205F926F927F928F929F92AF92BF92CF9254
S1133030DF92EF92FF920F931F93CF93DF93CDB75D
S1133040DEB72B970FB6F894DEBF0FBECDBF6C0171
S11330507B018A01FC0117821682838181FFBFC133
S1133060CE0101963C01F6019381F70193FD859110
S113307093FF81917F01882309F4ADC1853239F42E
S113308093FD859193FF81917F01853221F4B601EF
S113309090E0D6D1E8CF912C212C312CFFE1F3150F
S11330A0D8F08B3279F038F4803279F08332A1F49D
S11330B0232D20611DC08D3261F0803369F4232DEE
S11330C0216016C0832D8260382EE32DE4603E2EED
S11330D02AC0F32DF8601DC037FC2DC020ED280F49
S11330E02A3040F08E32B9F436FC75C1232D2064A9
S11330F0322E19C036FE06C08AE0989E200D112497
S1133100922E11C0EAE02E9E200D1124222EF32DC2
S1133110F0623F2E08C08C3621F4832D8068382E4F
S113312002C0883641F4F70193FD859193FF8191A4
S11331307F018111B3CF982F9F7D9554933028F44C
S11331400C5F1F4F9FE399830DC0833631F08337A3
S113315071F0833509F055C020C0F801808189835E
S11331600E5F1F4F88248394912C530112C02801B1
S1133170F2E04F0E511CF801A080B18036FE03C06E
S1133180692D70E002C06FEF7FEFC5014ED14C0195
S11331908201F32DFF773F2E15C0280122E0420E55
S11331A0511CF801A080B18036FE03C0692D70E087
S11331B002C06FEF7FEFC5012DD14C01F32DF068F4
S11331C03F2E820133FC19C0822D90E088169906A7
S11331D0A0F4B60180E290E033D12A94F5CFF50152
S11331E037FC859137FE81915F01B60190E028D1CB
S11331F021102A9421E0821A91088114910479F70C
S1133200E1C0843611F0893639F5F80137FE07C07C
S113321060817181828193810C5F1F4F08C060813E
S11332207181072E000C880B990B0E5F1F4FF32D35
S1133230FF763F2E97FF09C0909580957095619514
S11332407F4F8F4F9F4FF0683F2E2AE030E0A3015D
S113325033D1882E861844C0853731F4232D2F7E30
S1133260B22E2AE030E025C0932D997FB92E8F36F7
S1133270C1F018F4883579F0AEC0803719F088377A
S113328021F0A9C0E92FE061BE2EB4FE0DC0FB2DD4
S1133290F460BF2E09C034FE0AC0292F2660B22E66
S11332A006C028E030E005C020E130E002C020E1A3
S11332B032E0F801B7FE07C0608171818281938199
S11332C00C5F1F4F06C06081718180E090E00E5F4B
S11332D01F4FA301F1D0882E8618FB2DFF773F2EB8
S11332E036FE0DC0232D2E7FA22E891458F434FEF1
S11332F00BC032FC09C0832D8E7EA82E05C0B82CCD
S1133300A32C03C0B82C01C0B92CA4FE0FC0FE012D
S1133310E80DF11D8081803321F49A2D997EA92E28
S113332009C0A2FE06C0B394B39404C08A2D867863
S113333009F0B394A3FC10C0A0FE06C0B21480F43C
S1133340280C922C9B180DC0B21458F4B60180E2DC
S113335090E076D0B394F8CFB21418F42B1802C0CE
S1133360982C212CA4FE0FC0B60180E390E068D015
S1133370A2FE16C0A1FC03C088E790E002C088E565
S113338090E0B6010CC08A2D867851F0A1FE02C0EF
S11333908BE201C080E2A7FC8DE2B60190E050D040
S11333A0891430F4B60180E390E04AD09A94F8CFBF
S11333B08A94F301E80DF11D8081B60190E040D0BC
S11333C08110F6CF222009F44ECEB60180E290E0BF
S11333D037D02A94F7CFF6018681978102C08FEF08
S11333E09FEF2B960FB6F894DEBF0FBECDBFDF91D3
S11333F0CF911F910F91FF90EF90DF90CF90BF90EE
S1133400AF909F908F907F906F905F904F903F9080
S11334102F900895FC010590615070400110D8F779
S1133420809590958E0F9F1F0895FC016150704008
S113343001900110D8F7809590958E0F9F1F0895E5
S11334400F931F93CF93DF93FB01238121FD03C0CF
S11334508FEF9FEF2CC022FF16C046815781248135
S113346035814217530744F4A081B1819D012F5F38
S11334703F4F318320838C93268137812F5F3F4FC9
S11334803783268314C08B01EC01FB010084F18592
S1133490E02D1995892BE1F6D80116968D919C9112
S11334A01797019617969C938E931697CE01DF91EA
S11334B0CF911F910F910895FA01AA27283051F155
S11334C0203181F1E8946F936E7F6E5F7F4F8F4F51
S11334D09F4FAF4FB1E03ED0B4E03CD0670F781FB0
S11334E0891F9A1FA11D680F791F8A1F911DA11D95
S11334F06A0F711D811D911DA11D20D009F46894CE
S11335003F912AE0269F11243019305D3193DEF675
S1133510CF010895462F4770405D4193B3E00FD02B
S1133520C9F7F6CF462F4F70405D4A3318F0495D16
S113353031FD4052419302D0A9F7EACFB4E0A695F9
S11335409795879577956795BA95C9F7009761051B
S1133550710508959B01AC010A2E06945795479571
S113356037952795BA95C9F7620F731F841F951F66
S10B3570A01D0895F894FFCF9B
S11335780000C50320000000000300000000020E44
S1133588ED0D0000C600CE00D60036010040004014
S1133598F8FF0186000000000079FF0179A000000F
S11335A80000E6FF0179000000000086FF018700A3
S11335B80000000078FF0188000000000000434F6D
S11335C832206C6576656C3A2025750A0074656D41
S11335D8702D77616B65206572726F723A2025646D
S11335E80A0054656D702D72656164206572726F8E
S11335F8723A2025640A0048756D3A202564202013
S113360854656D703A20256400434F322073656E0B
S1133618736F723A2025640054656D706572617425
S1133628757265206D6561737572656D656E74007C
S1133638434F32206D6561737572656D656E7400F4
S11336484661696C656420746F20696E6974696188
S11336586C697A652074656D7065726174757265DC
S11336682073656E736F720049444C4500546D7243
S1093678205376630000FC
S9030000FC
