S00B00006170702E73726563D8
S113000006C2000024C2000022C2000020C2000078
S11300101EC200001CC200001AC2000018C2000068
S113002016C2000014C2000012C2000010C2000078
S113003018C700000CC200000AC2000008C2000079
S113004006C2000004C2000002C2000000C2000098
S1130050FEC10000FCC10000FAC10000F8C10000AC
S1130060F6C100000C942F170C948117F0C1000006
S1130070EEC10000ECC10000EAC10000E8C10000CC
S1130080E6C10000E4C10000E2C10000E0C10000DC
S11300900C94C5170C941718DAC100000C940E23A5
S11300A0D6C10000D4C10000D2C10000D0C10000FC
S11300B0CEC10000CCC10000CAC10000C8C100000C
S11300C0C6C10000C4C10000C2C100000C945B188A
S11300D00C94AD18BCC100000C94F1180C94431995
S11300E0B6C10000960196019601C501CD01DC015F
S11300F096019601C501CD013023A023A023A0239E
S1130100A023A023A023A0233023A023A023A02343
S1130110A023A023A023A0233223A023A023A02331
S1130120A023A023A023A023A023A023A023A023B3
S1130130A023A023A023A0233223A023A023A02311
S1130140A023A023A023A023A023A023A023A02393
S1130150A023A023A023A0239C23A023A023A02387
S1130160A023A023A023A0236723A023A023A023AC
S1130170A023A023A023A023A023A023A023A02363
S1130180A023A023A023A0235B23A023A023A02398
S1130190A023A023A023A0237F2302E318E00F2E93
S11301A0FAE5EF2EF8E0FF2EF02D80913108882338
S11301B011F10FB6F8940F92D8011596ED91FC91B8
S11301C01697C681D781CE010296B1D480912708B3
S11301D081508093270880913108815080933108A1
S11301E00F900FBE8F89988D2FD4CE012DD480917E
S11301F031088111DECFF7018081823008F06CD59F
S11302000E944315D2CFCF93DF9300D000D0CDB757
S1130210DEB7CE0101964C0144244394E12CF12C29
S1130220512CC82ED92CE0918808F091890880813E
S1130230882309F4D8C00580F681E02DA080B18020
S11302400E94AF0EC4010E94D5148C0189818111D2
S113025049C00A151B05B0F10E94790FE091880886
S1130260F09189080580F681E02D66807780C301CE
S113027002965DD4D30153968C91539782FF17C095
S11302801C966D917C911D976A0D7B1D9501A801AB
S1130290C3010E941614882369F00E2D1F2D2E2DE4
S11302A03F2DA501652DC3010E948E1403C08E7FCE
S11302B0F301838BD3015096ED91FC915197C301C7
S11302C0199585C0452DB501601B710B809184087B
S11302D0909185080E949F0A0E94790F811177C02E
S11302E0FBD475C00E94790F72C0898188230CF4F5
S11302F06EC0AC80BD80F50182859385892B19F091
S1130300C501029614D4CE0106960E94D514AC0100
S1130310E9810E2E000CFF0BEA30F10508F057C0FE
S11303208827EE58FF4F8F4F0C94B225D501539672
S11303308C915397816053968C9353972A813B8178
S11303401C966D917C911D97620F731FC5010E94CD
S113035016148823E1F1D5015096ED91FC91519743
S1130360C5011995F501838982FF31C04A815B81FA
S113037084859585480F591F0E2D1F2D2E2D3F2D39
S1130380652DC5010E948E1422C0D50153968C910F
S113039053978E7F53968C931AC0F501838981609D
S11303A0838B6A817B8175876487640F751F9A01CB
S11303B0C5010E9416140BC0D50153968C9181FD82
S11303C003C0C50141D303C08E7FF501838B4E2D3D
S11303D05F2D6C2D7D2D80918408909185086AD7BE
S11303E0811183CF20CF0E94AF0EC4010E94D51487
S11303F08C018981811176CFE0918608F09187087C
S11304008081442D8111452DAE2CBF2C5CCF11244D
S11304101FBECFEFD1E2DEBFCDBF00E00CBF18E0BE
S1130420A0E0B2E0E6EAF4E500E00BBF02C007900A
S11304300D92A031B107D9F72AE0A0E1B8E001C0DC
S11304401D92A439B207E1F703D00C94512AD8CDF8
S1130450EF92FF920F931092030A1092020A83E024
S11304600E94A61981E00E947B1C80E00E94D615A0
S11304700F2EF8E1EF2EF8E0FF2EF02D01E020E042
S113048030E040EC50E06EE672E08EE794E00E94CB
S11304905E0D0F2EF6E1EF2EF8E0FF2EF02D20E09A
S11304A030E040EC50E066E872E08BEC92E00E94B1
S11304B05E0D0F2EF4E1EF2EF8E0FF2EF02D20E07C
S11304C030E040EC50E066E972E08DE093E00E9499
S11304D05E0D81E09FD69093030A8093020A0F2E4B
S11304E0F0E1EF2EF8E0FF2EF02D03E020E030E005
S11304F040EC50E068EA72E08DE094E00E945E0D0A
S11305000F2EF2E1EF2EF8E0FF2EF02D01E020E0B7
S113051030E040EC50E06CEA72E085E694E00E9442
S11305205E0D0E94051A81112CC00E94972065EE71
S113053072E083E00E94202083E293E00E94122173
S1130540882361F01F928F9380EE92E09F938F93A4
S11305500E9433270F900F900F900F900E942D212F
S1130560882361F01F928F9387E093E09F938F938A
S11305700E9433270F900F900F900F900E947C0ED3
S1130580FFCF88EB92E00E94462781E090E00F9134
S1130590FF90EF90089589E293E00E944627CEE30E
S11305A0D3E088EE93E00E94F60F0E944F2090E083
S11305B00097B9F39F938F93DF93CF930E943327D0
S11305C00F900F900F900F90ECCFCF93DF93C82F25
S11305D0D92F6FEF7FEF8091020A9091030AF3D62F
S11305E0E8E6FAE0C483D583DF93CF938DE493E008
S11305F09F938F930E94332720E040E050E060E017
S113060070E08091020A9091030A6FD50F900F90C9
S11306100F900F90DF91CF910895CCE5D3E088EE51
S113062093E00E94F60F0E94422190E00097B9F3F4
S11306309F938F93DF93CF930E9433270F900F9054
S11306400F900F90ECCFCF93DF9300D01F92CDB7D4
S1130650DEB7813029F08CE793E00E94462732C050
S1130660CE0101960E945421811128C06FEF7FEFC3
S11306708091020A9091030AA6D669817A818B81BE
S11306809C810E946315E8E6FAE0668377837F9392
S11306906F9383E993E09F938F930E94332720E025
S11306A040E050E060E070E08091020A9091030A1B
S11306B01CD50F900F900F900F9004C08EE993E01B
S11306C00E9446270F900F900F900F90DF91CF91CB
S11306D00895EF92FF921F93CF93DF930E94CB1C58
S11306E00E94F71E9F938F938BEA93E09F938F93BF
S11306F00E9433270E94F81D0E94F71E9F938F9338
S11307008DEB93E09F938F930E94332784E09AE0CC
S11307100E94DD1C0E94F71EC4E0DAE0DF93CF9351
S11307209F938F9386ED93E09F938F930E9433273B
S1130730CE010E94F91C0E94F71E9F938F93DF93B2
S1130740CF938BEE93E09F938F930E943327AE0158
S113075060E074E081E294E00E94D61E0E94F71EDD
S11307609F938F93DF93CF9380E094E09F938F9335
S113077081E294E09F938F9382E394E09F938F931D
S11307800E9433270E942C1D0E94F71E9F938F9373
S113079088E694E09F938F930E9433278DB79EB78A
S11307A082960FB6F8949EBF0FBE8DBF81E00E9463
S11307B0ED1D0E94F71E9F938F9387E794E09F930C
S11307C08F930E9433270F900F900F900F90C5E0E6
S11307D0D0E00F2EF8E9EF2EF4E0FF2EF02D80E0AC
S11307E00E94321D182F0E94F71E9F938F93DF9350
S11307F0CF93FF92EF920E9433270F900F900F90A8
S11308000F900F900F90183011F0219741F7DF915E
S1130810CF911F91FF90EF900895CF93DF93CDB7C1
S1130820DEB766970FB6F894DEBF0FBECDBF81E08A
S11308300E94B71C86E990E00E94F60F80E00E94B7
S1130840B71C86E990E00E94F60F0E94741C41DFF9
S113085088EC90E00E94F60F87E08A8382E0898327
S113086008E61AE00F2EF8EBEF2EF4E0FF2EF02D41
S11308706FEF7FEF8091020A9091030AA4D5F801EB
S113088082818B8380818C83848195819D838E83F7
S1130890868197819F83888780858987BE016F5F62
S11308A07F4F80E00E94551D0E94F71E9F938F93F7
S11308B0FF92EF920E94332788EE93E00E94F60F96
S11308C00F900F900F900F90D3CFC8E6DAE080E13D
S11308D097E20E94F60F64E680E00E947F200E9467
S11308E0B50E9093730A8093720A0E94B50E99878D
S11308F088878DEC94E00E944627E9CF89E293E053
S11309000E9446271F928EE38F9388EE94E09F9374
S11309108F930E9433270F900F900F900F900F2EFC
S1130920F0EFCF2EF4E0DF2EF02D0F2EF5E0EF2EBA
S1130930F5E0FF2EF02DC8E6DAE00AE115E088EED6
S113094093E00E94F60F0E941D1A282F30E0211513
S1130950310569F02330310551F01F928F93DF92F6
S1130960CF920E9433270F900F900F900F9084E640
S113097090E00E94F60F0E94321A282F30E02115D1
S1130980310569F02330310551F01F928F93FF92A6
S1130990EF920E9433270F900F900F900F9084E6F0
S11309A090E00E94F60F6FEF7FEF8091020A909122
S11309B0030A09D50E94431A0E945E157B836A8349
S11309C00E94581A0E945E15688379837F936F93FF
S11309D08B818F938A818F931F930F930E94332768
S11309E020E040E050E060E070E08091020A9091E5
S11309F0030A7BD30F900F900F900F900F900F90DE
S1130A009ECFE8E0F1E09081907F908390818F7099
S1130A10982B90830895E8E0F1E08081807F8083C3
S1130A200895CF93DF93EC010E94AF0ECE010E9494
S1130A30D425EC010E94790F209711F40E944415EB
S1130A40CE01DF91CF910895CF93DF93009741F0CA
S1130A50EC010E94AF0ECE010E946C260E94790F19
S1130A60DF91CF910895FC010396928381832FEF48
S1130A703FEF348323839683858390878783108213
S1130A800895FC01118610860895CF93DF939C018D
S1130A90FB01DC011196CD91DC911297D383C283C3
S1130AA08C819D81958384838C819D81DC01139647
S1130AB07C936E9312977D836C8331872087F90131
S1130AC080818F5F8083DF91CF910895CF93DF93EF
S1130AD0EB01488159814F3F2FEF520721F4FC016C
S1130AE0A781B0850DC0DC01139601C0DF01129609
S1130AF0ED91FC9113972081318142175307B0F790
S1130B001296ED91FC911397FB83EA83D583C483FA
S1130B10BD83AC831396DC93CE9312979987888711
S1130B20FC0120812F5F2083DF91CF910895CF9323
S1130B30DF93FC01A085B185C281D3818481958135
S1130B409D838C83C481D581828193819B838A8395
S1130B5011968D919C911297E817F90731F48481CD
S1130B60958112969C938E931197118610868C9181
S1130B7081508C938C91DF91CF91089531E1FC01E8
S1130B803083319722E220833197A3E3A083319706
S1130B906083319770833197108231971082319737
S1130BA060E8608331971082319710823197108208
S1130BB0319762E06083319763E06083319764E04A
S1130BC06083319765E06083319766E06083319795
S1130BD067E06083319768E06083319769E0608300
S1130BE0319760E1608331973083319732E130830C
S1130BF0319733E13083319734E13083319735E1F4
S1130C003083319736E13083319737E13083319740
S1130C1038E13083319739E13083319730E23083E2
S1130C20319731E2308331972083319723E2208357
S1130C303197408331975083319726E2208331974F
S1130C4027E22083319728E22083319729E2208309
S1130C50319720E32083319721E3208389970895F6
S1130C60A89590EC88E10FB6F894A895809360005D
S1130C700FBE90936000A0917E08B0917F08CD9143
S1130C80CDBFDD91DEBFFF91EF91DF91CF91BF9199
S1130C90AF919F918F917F916F915F914F913F9110
S1130CA02F911F910F91FF90EF90DF90CF90BF9005
S1130CB0AF909F908F907F906F905F904F903F90F8
S1130CC02F901F900F900CBE0F900BBE0F900FBE75
S1130CD00F90089581E008950F920FB6F8940F9243
S1130CE00BB60F920CB60F921F9211242F923F92C3
S1130CF04F925F926F927F928F929F92AF92BF9228
S1130D00CF92DF92EF92FF920F931F932F933F9313
S1130D104F935F936F937F938F939F93AF93BF93FF
S1130D20CF93DF93EF93FF93A0917E08B0917F0858
S1130D300DB60D920EB60D920E940710A0917E087A
S1130D40B0917F08CD91CDBFDD91DEBFFF91EF91D2
S1130D50DF91CF91BF91AF919F918F917F916F91CF
S1130D605F914F913F912F911F910F91FF90EF90C1
S1130D70DF90CF90BF90AF909F908F907F906F90B7
S1130D805F904F903F902F901F900F900CBE0F904C
S1130D900BBE0F900FBE0F9008950F920FB6F894EC
S1130DA00F920BB60F920CB60F921F9211242F9232
S1130DB03F924F925F926F927F928F929F92AF92E7
S1130DC0BF92CF92DF92EF92FF920F931F932F93D4
S1130DD03F934F935F936F937F938F939F93AF93BF
S1130DE0BF93CF93DF93EF93FF93A0917E08B091CD
S1130DF07F080DB60D920EB60D9213BEC0D78111A9
S1130E000E940710A0917E08B0917F08CD91CDBFBC
S1130E10DD91DEBFFF91EF91DF91CF91BF91AF9153
S1130E209F918F917F916F915F914F913F912F91FE
S1130E301F910F91FF90EF90DF90CF90BF90AF90F4
S1130E409F908F907F906F905F904F903F902F90E6
S1130E501F900F900CBE0F900BBE0F900FBE0F9003
S1130E6008959BDF18950FB6F8940F92FC01928DAC
S1130E700F900FBE81E0911180E008950F931F93AE
S1130E80CF93DF93EC01042F1A8D4C8D41110CC0CC
S1130E9088819981892B09F042C08C819D810E94AF
S1130EA0CF111D821C8242C0011117C050E08A81FB
S1130EB09B810E94F9262C8D8A819B81820F911D32
S1130EC09B838A832C813D818217930750F188810B
S1130ED099819B838A8380E029C050E08E819F8121
S1130EE00E94F9268C8D90E09195819591092E812F
S1130EF03F81280F391F3F832E834881598124174E
S1130F00350730F42C813D81820F931F9F838E839C
S1130F10023049F4112349F0115080E007C080E009
S1130F2005C080E003C080E001C080E01F5F1A8F2D
S1130F30DF91CF911F910F910895FC01448D4423BB
S1130F40A9F050E026813781240F351F378326838B
S1130F50848195812817390720F0808191819783B6
S1130F608683CB01668177810C94F9260895EF92EC
S1130F70FF920F931F93CF938C010FB6F8940F92A7
S1130F80FC01C68D1C16ACF48189811106C011C008
S1130F90F8018189811105C00CC07801F1E1EF0EDF
S1130FA0F11CC7010E94BE1081110E944611C1505C
S1130FB079F78FEFF801868F0F900FBE0FB6F89474
S1130FC00F92C58D1C16ACF48085811106C011C02A
S1130FD0F8018085811105C00CC07801F8E0EF0E9E
S1130FE0F11CC7010E94BE1081110E944611C1501C
S1130FF079F78FEFF801858F0F900FBECF911F9176
S11310000F91FF90EF900895CF93DF93EC010FB60B
S1131010F8940F92E881F9818B8D2C8D90E030E06B
S1131020829FA001839F500D929F500D11244E0F5B
S11310305F1F5D834C831A8EFB83EA830197829F33
S1131040A001839F500D929F500D1124CF01840F56
S1131050951F9F838E838FEF8D8F8E8F61110BC0B1
S11310608885882371F0CE0108960E94BE108823DB
S113107041F032DE06C0CE010896F5DCCE01419681
S1131080F2DC0F900FBE81E0DF91CF910895FF92C3
S11310900F931F93CF93DF93082F162FF42E6623FD
S11310A0B9F0869FC00111248196BBDCEC01009746
S11310B041F414C00B8F1C8F61E0CE01A5DFF8A2B0
S11310C00DC0819699838883F5CFD983C883F2CFE5
S11310D081E290E0A6DCEC01892BB9F7CE01DF9127
S11310E0CF911F910F91FF9008959F92AF92BF925D
S11310F0CF92DF92EF92FF920F931F93CF93DF93E0
S113110000D01F921F92CDB7DEB78C016B015D83B7
S11311104C83A22EB12C992493947C0188E0E80E90
S1131120F11C0FB6F8940F92F801928D838D9817E5
S113113018F0F2E0AF1216C04A2DB601C8019EDEC7
S1131140F8019189992341F0C80141960E94BE108B
S1131150882321F0C1DD02C08111BEDD0F900FBED6
S113116081E047C08C819D81892B21F40F900FBEB3
S113117080E03FC0B11005C0CE0101960E94061167
S1131180B92C0F900FBEEBD50FB6F8940F92F8015F
S1131190858D8F3F09F4158EF801868D8F3F09F4F4
S11311A0168E0F900FBEBE016C5F7F4FCE0101966D
S11311B00E941111811119C00FB6F8940F92F80111
S11311C0928D838D0F900FBE98130BC06C817D811F
S11311D0C701ABD7C801CBDE8CD68111A2CF7CDD91
S11311E0A0CFC801C4DE85D69CCFC801C0DE81D69D
S11311F080E00F900F900F900F900F90DF91CF91A0
S11312001F910F91FF90EF90DF90CF90BF90AF9020
S11312109F900895CF93DF93482F60E081E037DFFC
S1131220EC01009759F01D821C82198218821E82DB
S113123020E040E050E060E070E057DFCE01DF9155
S1131240CF910895EF92FF920F931F93CF93DF9363
S11312508A01FC01528D338D531710F02230E1F4D2
S1131260422F7801EC011E8D09DE1F3F79F4898934
S11312708823A1F0CE01419681D7882389F0E11417
S1131280F10481F081E0F70180830DC0FF24F39421
S1131290F10EFE8E81E007C080E005C081E003C04E
S11312A081E001C081E0DF91CF911F910F91FF9008
S11312B0EF9008959F92AF92BF92CF92DF92EF92F8
S11312C0FF920F931F93CF93DF9300D01F921F922F
S11312D0CDB7DEB78C015B015D834C83E12C99248F
S11312E093946C0181E1C80ED11C0FB6F8940F924F
S11312F0F801F28CFF2091F0B501C8011EDEFA94CA
S1131300F801F28E8085882329F0C801089636D723
S11313108111E2DC0F900FBE81E044C08C819D817D
S1131320892B21F40F900FBE80E03CC0E11004C073
S1131330CE0101966BD7E92C0F900FBE10D50FB6D6
S1131340F8940F92F801858D8F3F09F4158EF801FA
S1131350868D8F3F09F4168E0F900FBEBE016C5F11
S11313607F4FCE0101965DD7811113C0C8017BDD8B
S1131370882359F06C817D81C601D7D6C801F7DD79
S1131380B8D58111B2CFA8DCB0CFC801F0DDB1D59A
S1131390ACCFC801ECDDADD5C80165DD882309F407
S11313A0A4CF80E00F900F900F900F900F90DF91DB
S11313B0CF911F910F91FF90EF90DF90CF90BF904E
S11313C0AF909F900895BF92CF92DF92EF92FF92D9
S11313D00F931F93CF93DF9300D01F921F92CDB72B
S11313E0DEB78C017D836C83B12CD12CCC24C394C7
S11313F07C0181E1E80EF11C0FB6F8940F92D8013C
S11314005A968C915A978823D9F081505A968C9386
S11314105A978D919C91892B29F40E945F12F801AF
S113142095838483D80118968C91882329F0C80168
S11314300896A4D6811150DC0F900FBE81E070C0D5
S11314408C819D81892B21F40F900FBE80E068C0B0
S1131450D11004C0CE010196D9D6DC2C0F900FBE5A
S11314607ED40FB6F8940F92F801858D8F3F09F45E
S1131470158ED8015E968C915E978F3F11F45E961F
S11314801C920F900FBEBE016C5F7F4FCE01019680
S1131490C8D6811121C0C801E6DC8823C9F0F8014F
S11314A080819181892B49F40FB6F8940F9284813D
S11314B0958103D7B82E0F900FBE6C817D81C70133
S11314C034D6C80154DD15D5811196CF05DC94CFEF
S11314D0C8014DDD0ED590CFC80149DD0AD5C8013C
S11314E0C2DC882309F488CFBB20C9F00FB6F89476
S11314F00F92F8018189882339F00688F789E02D55
S1131500808164E0681B01C060E0D80114968D916D
S11315109C91159784D70F900FBE80E001C080E0A6
S11315200F900F900F900F900F90DF91CF911F911C
S11315300F91FF90EF90DF90CF90BF900895CF93DD
S1131540DF93EC010FB6F8940F928D8D8F3F09F461
S11315501D8E8E8D8F3F09F41E8E0F900FBE8A8DC7
S1131560811103C0CE014196F1D5CE0100DDDF919A
S1131570CF910895FC014481558122813381240F48
S1131580351F80819181B901681B790BCB016417E8
S1131590750710F0841B950B0895AF92BF92CF92FC
S11315A0DF92EF92FF920F931F93CF93DF936C011F
S11315B05B017A01FC01C281D381048115810C1B7A
S11315C01D0B4017510708F48A01F601848595859F
S11315D0A801B5018C0F9D1F0E94F9260E151F0549
S11315E058F4A701401B510BB501600F711FF601A0
S11315F0848595850E94F926CE018E0D9F1DF601E6
S1131600248135818217930710F0821B930BF60116
S113161093838283C701DF91CF911F910F91FF9034
S1131620EF90DF90CF90BF90AF900895CF92DF926C
S1131630EF92FF920F931F93CF93DF931F921F920A
S1131640CDB7DEB75A83498321153105C9F06B0143
S11316507C01FC01868580FD08C0CA01241735077A
S113166008F4C9019A83898311C02017310758F0FF
S113167042E050E0BE016F5F7F4FC7018EDF06C0BE
S113168080E090E008C080E090E005C049815A8184
S1131690B601C70182DF0F900F90DF91CF911F91A8
S11316A00F91FF90EF90DF90CF900895AF92BF928B
S11316B0CF92DF92EF92FF920F931F93CF93DF931A
S11316C07C015B01E9014217530708F4EA01209702
S11316D079F1F70100811181C480D580C01AD10A43
S11316E0CC15DD0508F46E01F70164857585600F7E
S11316F0711FA601C5010E94F926CC16DD0658F417
S1131700AE014C195D09F70164857585C5018C0D21
S11317109D1D0E94F9260C0F1D1FF70184819581E0
S11317200817190710F0081B190BF7011183008320
S1131730CE01DF91CF911F910F91FF90EF90DF9039
S1131740CF90BF90AF900895EF92FF921F93CF93E5
S1131750DF93EB0111E0413009F010E0209711F420
S1131760C1E0D0E07C012FEFE21AF20A419659D988
S1131770009781F020E1FC0111922A95E9F79C0180
S1131780205F3F4FFC0135872487F582E482D783AD
S1131790C6831687DF91CF911F91FF90EF90089534
S11317A0CF93DF93FC0127850FB6F8940F928085C1
S11317B09185892BD1F482859385892BC1F4868503
S11317C04681578164817581A485B58590E1EF01D7
S11317D019929A95E9F7B587A4877583648357832B
S11317E046838687278781E003C080E001C080E0CC
S11317F00F900FBEDF91CF910895FC0124813581B4
S11318008081918142815381820F931F0197841BB0
S1131810950B8217930710F0821B930B0895AF92D8
S1131820BF92CF92DF92EF92FF920F931F93CF93C9
S1131830DF93EC015B016A0179018E8580FF04C0AE
S11318408A010E5F1F4F01C08A01CE01D6DF9C01C1
S1131850A601B501CE01EADE6C01892BB1F0CE01FF
S113186089DE2E813F818217930778F088859985D8
S1131870892B59F08885998500E010E020E040E04C
S113188050E0BA012FD719861886C601DF91CF918F
S11318901F910F91FF90EF90DF90CF90BF90AF908A
S11318A008956F927F928F929F92AF92BF92CF9240
S11318B0DF92EF92FF920F931F93CF93DF931F92C8
S11318C01F92CDB7DEB76C013B014A017901FC01DF
S11318D0868580FD03C0A12CB12C04C06894AA2481
S11318E0A1F8B12CE114F10429F10FB6F8940F9288
S11318F0C60140DE8C01A816B90638F080E090E0FD
S113190081D7C8D4F601918780870F900FBEA016A7
S1131910B106B0F000E010E020E030E0A90160E0A2
S113192070E0CB01DED5F60111861086C60122DEF9
S11319308C0103C0C6011EDE8C01A016B106B8F5E9
S1131940A114B104C1F0F601E080F1809801A50171
S1131950BE016F5F7F4FC601A9DE89819A810A1992
S11319601B098816990630F4F601F182E082812C75
S1131970912C01C04C019801A401B301C60196DE6B
S11319807C01892BB1F0EBD1F60182859385892BFB
S113199061F08285938500E010E020E040E050E0B3
S11319A0BA0122D6F60113861286A3D202C0E12C14
S11319B0F12CC7010F900F90DF91CF911F910F91E0
S11319C0FF90EF90DF90CF90BF90AF909F908F905B
S11319D07F906F900895E0914608F09147088081C8
S11319E0811107C08FEF9FEF90931E0880931D080D
S11319F00895E0914608F09147080580F681E02DAE
S1131A000680F781E02D8281938190931E08809354
S1131A101D080895FF920F931F93CF93DF93EC015A
S1131A20F62E009125081091260880917E08909149
S1131A307F0802967CD8CF3F8FEFD80761F4FF2050
S1131A4051F060917E0870917F086E5F7F4F88E24D
S1131A5098E01BD82DC0C00FD11FE0917E08F091F3
S1131A607F08D383C283C017D10760F460917E08D6
S1131A7070917F0880914408909145086E5F7F4F74
S1131A8025D816C060917E0870917F088091460821
S1131A90909147086E5F7F4F19D880911D089091EF
S1131AA01E08C817D90720F4D0931E08C0931D0838
S1131AB0DF91CF911F910F91FF9008954F925F9204
S1131AC06F927F928F929F92AF92BF92CF92DF924A
S1131AD0EF92FF920F93CF93DF934C016B015A0166
S1131AE02901CA010E9411053C01892B09F4F3C0A4
S1131AF08CE290E00E941105EC01892B99F0788E1C
S1131B006F8AA50165EA70E0C3010E94022781E0A3
S1131B10A81AB1088F89988DA80EB91EC114D104D2
S1131B2029F420C0C3010E942405D5C0D6018C919C
S1131B30898F8C918823A1F0AE01465E5F4FF60138
S1131B403196B8E0CB0ED11CCF012191DA012D934F
S1131B50AD01DC018C91882319F0EC15FD05A1F78A
S1131B6018A201C0198E043008F003E00E8B0BA3F9
S1131B701CA26E01B2E0CB0ED11CC6010E9441052D
S1131B80CE010C960E944105D987C88784E090E075
S1131B90801B91099D878C87DB8BCA8B1EA21DA29B
S1131BA01FA218A619A61AA61BA6A201B401C50154
S1131BB00E94BE0599838883E114F10419F0F701AA
S1131BC0D183C0830FB6F8940F92809127088F5F5A
S1131BD08093270880917E0890917F08892BD1F506
S1131BE0D0937F08C0937E0880912708813009F044
S1131BF041C08AE598E00E94330583E698E00E949C
S1131C0033058CE698E00E94330585E798E00E944E
S1131C10330581E598E00E94330588E498E00E944A
S1131C2033058BE398E00E94330582E398E00E9439
S1131C30330588E298E00E94330581E598E09093AB
S1131C4047088093460888E498E090934508809379
S1131C50440810C08091230881110CC0E0917E08D3
S1131C60F0917F0896898E89891720F0D0937F0898
S1131C70C0937E0880911F088F5F80931F0889A3FB
S1131C808E8990912408981710F48093240890E08A
S1131C909C01220F331F220F331F220F331F820F89
S1131CA0931FB601865A974F0E9445050F900FBEA9
S1131CB080912308882359F0E0917E08F0917F08F1
S1131CC096898E89981728F407D881E005C081E0A9
S1131CD003C081E001C08FEFDF91CF910F91FF909E
S1131CE0EF90DF90CF90BF90AF909F908F907F90B8
S1131CF06F905F904F900895EF92FF920F930F2E85
S1131D00FBE1EF2EF8E0FF2EF02D00E020E030E0C4
S1131D1040EC50E06DE275E08DEC90E0CFDE813078
S1131D20D1F4DCD58130B9F4F8948FEF9FEF909320
S1131D301E0880931D0881E08093230810922608D2
S1131D4010922508E0917E08F0917F0885A10E94F9
S1131D5001050E9430060F91FF90EF900895809145
S1131D601A088F5F80931A0808950FB6F8940F929B
S1131D7080912508909126080F900FBE0895CF9268
S1131D80DF92EF92FF920F931F93CF93DF93809193
S1131D901A08811198C0E0902508F09026088FEF6A
S1131DA0E81AF80AF0922608E0922508E114F104F2
S1131DB0B1F48091460890914708209144083091ED
S1131DC0450830934708209346089093450880932C
S1131DD04408809120088F5F80932008FCDD809167
S1131DE01D0890911E08E816F90610F4D12C53C072
S1131DF0D12CCC24C394E0914608F091470880810B
S1131E00811107C08FEF9FEF90931E0880931D08E8
S1131E1042C0E0914608F09147080580F681E02D24
S1131E20C681D7818A819B81E816F90628F49093AC
S1131E301E0880931D082FC08E010E5F1F4FC8011E
S1131E400E9497058C899D89892B21F0CE010C96DF
S1131E500E9497058E8990912408981710F4809316
S1131E60240890E09C01220F331F220F331F220FFE
S1131E70331F820F931FB801865A974F0E9445055E
S1131E80E0917E08F0917F089E898689981708F46E
S1131E90B2CFDC2CB0CFE0917E08F0917F08868928
S1131EA090E0FC01EE0FFF1FEE0FFF1FEE0FFF1F70
S1131EB08E0F9F1FFC01E65AF74F8081823048F055
S1131EC0DD24D39406C0809122088F5F809322087A
S1131ED0D12C80912108882311F0DD24D3948D2DF9
S1131EE0DF91CF911F910F91FF90EF90DF90CF90F2
S1131EF00895DF92EF92FF920F931F93CF93DF9396
S1131F000FB6F8940F9280911A08815080931A08A2
S1131F1080911A0881115DC080912708811133C016
S1131F205BC0D7011596ED91FC911697C681D781B8
S1131F30CE010C960E9497058E010E5F1F4FC801BB
S1131F400E9497058E8990912408981710F4809325
S1131F50240890E09C01220F331F220F331F220F0D
S1131F60331F820F931FB801865A974F0E9445056D
S1131F70E0917E08F0917F089E898689981768F021
S1131F80D09221080AC0C0E0D0E00F2EFBE3EF2E70
S1131F90F8E0FF2EF02DDD24D394F7018081811128
S1131FA0C0CFCD2B09F017DDC0912208CC2349F016
S1131FB0D1E0E5DE8111D0932108C150D1F7109210
S1131FC0220880912108882331F00E946C0681E068
S1131FD003C080E001C080E00F900FBEDF91CF917D
S1131FE01F910F91FF90EF90DF900895CF93DF93AF
S1131FF0EC01892B39F0B3DE60E0CE010BDD79DF33
S1132000811102C00E946C06DF91CF9108958091E6
S11320101A08882321F081E0809321080895109202
S11320202108E0917E08F0917F0885A10E940B05AC
S1132030A0917E08B0917F08E0917E08F0917F081E
S11320402D913C918789908D8217930758F0609168
S11320507E0870917F0880917E0890917F08675E6A
S11320607F4F1FD520912408822F90E0FC01EE0FB2
S1132070FF1FEE0FFF1FEE0FFF1FE80FF91FE65AB9
S1132080F74F3081311111C02150822F90E0FC01B3
S1132090EE0FFF1FEE0FFF1FEE0FFF1FE80FF91FDC
S11320A0E65AF74F3081332379F3AC01440F551FBF
S11320B0440F551F440F551F480F591FDA01A65AE4
S11320C0B74F1196ED91FC9112970280F381E02DA8
S11320D01296FC93EE931197435A574FE417F50762
S11320E029F442815381FD0152834183FC01EE0FA7
S11320F0FF1FEE0FFF1FEE0FFF1F8E0F9F1FFC0130
S1132100E65AF74F0180F281E02D86819781909302
S11321107F0880937E0820932408E0917E08F09144
S11321207F0885A10C9401050895CF93DF93EB01FB
S113213060917E0870917F08645F7F4F0E946605FE
S113214061E0CE0167DCDF91CF9108950F931F9377
S1132150CF938B01C42F60917E0870917F08645FD8
S11321607F4F0E944505CC2311F00FEF1FEF6C2F1A
S1132170C80150DCCF911F910F9108950F931F93C5
S1132180CF93DF93DC011596ED91FC911697C681F0
S1132190D7818E01045F1F4FC8010E94970580916B
S11321A01A0881111CC00A501109C8010E94970520
S11321B08E8990912408981710F48093240890E055
S11321C09C01220F331F220F331F220F331F820F54
S11321D0931FB801865A974F0E94450505C0B80160
S11321E08BE398E00E944505E0917E08F0917F081A
S11321F09E898689891720F481E08093210801C093
S113220080E0DF91CF911F910F91089520912008D4
S1132210FC012083209125083091260832832183F4
S11322200895CF93DF930FB6F8940F922091250869
S113223030912608DB014D915C914F3FBFEF5B0766
S1132240E9F0EC01E981FA81A0912008B881BA177C
S113225019F02E173F07A0F42E1B3F0B2417350748
S113226040F4FB01421B530B51834083CFDF80E0DA
S113227008C0FB011182108281E003C080E001C02C
S113228081E00F900FBEDF91CF91089581E080939C
S11322902108089580917E0890917F080895809187
S11322A02308882331F080911A08882321F080E0E4
S11322B0089581E0089582E008950F931F93CF93CA
S11322C0DF93FC01892B09F464C02689A0917E0860
S11322D0B0917F0856968C91281708F04EC08485DB
S11322E09585992364F0A0917E08B0917F08569655
S11322F03C9184E090E0831B91099587848730E0CA
S1132300C901880F991F880F991F880F991F280FDB
S1132310391F265A374F828593858217930721F5F3
S11323208F01EF012296CE010E949705E0917E086D
S1132330F0917F088689F801868B9091240898177C
S113234010F48093240890E09C01220F331F220F85
S1132350331F220F331F820F931FBE01865A974FDC
S11323600E94450581E016C0A0917E08B0917F08C7
S113237056968C91868B81E00DC0A0917E08B09119
S11323807F0881E023A156969C91291718F080E0DC
S113239001C080E0DF91CF911F910F9108950F93B9
S11323A01F93CF93DF93FC01892B79F184A1815092
S11323B084A3268993A1291751F181112AC0EF0121
S11323C08F010E5F1F4FC8010E9497058BA18E8B52
S11323D024E030E0281B31093D872C8790912408A4
S11323E0981710F48093240890E09C01220F331F67
S11323F0220F331F220F331F820F931FB801865AF7
S1132400974F0E94450581E005C080E003C080E04D
S113241001C080E0DF91CF911F910F9108950F9338
S11324201F93CF93DF93FC01892B09F443C093A13D
S1132430961708F4962F86898917E1F124A1213093
S1132440C9F5968B24853585332334F024E030E0B8
S1132450291B31093587248790E09C01220F331F03
S1132460220F331F220F331F820F931F865A974F59
S11324702285338528173907E9F4EF018F010E5FB0
S11324801F4FC8010E9497058E89909124089817C0
S113249010F48093240890E09C01220F331F220F34
S11324A0331F220F331F820F931FB801865A974F91
S11324B00E944505DF91CF911F910F91089580915E
S11324C07E0890917F08892B39F0E0917E08F09185
S11324D07F0884A18F5F84A380917E0890917F08F8
S11324E008954F925F926F927F928F929F92AF92D4
S11324F0BF92EF92FF920F931F9349015A010FB6B7
S1132500F8940F92E0917E08F0917F0823A5223081
S113251021F1E0917E08F0917F0847A050A461A4C6
S113252072A4DC01CB0180959095A095B09584218F
S11325309521A621B72187A390A7A1A7B2A7E091CF
S11325407E08F0917F0881E083A7E114F10429F06B
S113255061E0C7015FDA0E946C060F900FBE0FB6F0
S1132560F8940F920115110569F0E0917E08F0913D
S11325707F0887A190A5A1A5B2A5F80180839183C6
S1132580A283B383E0917E08F0917F0883A5823013
S1132590B1F4E0917E08F0917F0887A190A5A1A5F0
S11325A0B2A580949094A094B09488229922AA22EF
S11325B0BB2287A290A6A1A6B2A681E001C080E0BA
S11325C0E0917E08F0917F0813A60F900FBE1F9133
S11325D00F91FF90EF90BF90AF909F908F907F905E
S11325E06F905F904F9008950F931F93CF93DF9355
S11325F0FC010FB6F8940F920115110549F087A15B
S113260090A5A1A5B2A5E80188839983AA83BB8379
S113261083A592E093A72230B1F018F4213031F071
S11326202AC02330E9F0243001F125C007A110A508
S113263021A532A5402B512B622B732B47A350A706
S113264061A772A718C047A150A561A572A54F5FE5
S11326505F4F6F4F7F4F47A350A761A772A70BC06F
S113266047A350A761A772A706C0823079F147A398
S113267050A761A772A7813059F5EF018F010E5F52
S11326801F4FC8010E9497058E89909124089817BE
S113269010F48093240890E09C01220F331F220F32
S11326A0331F220F331F820F931FB801865A974F8F
S11326B00E944505E0917E08F0917F089E898689F5
S11326C0891740F40E946C0681E005C080E003C0D5
S11326D081E001C081E00F900FBEDF91CF911F9187
S11326E00F910895EF92FF920F931F93CF93DF936F
S11326F0FC010115110549F087A190A5A1A5B2A57A
S1132700E80188839983AA83BB8383A592E093A776
S11327102230B1F018F4213031F02BC02330E9F02D
S1132720243001F126C007A110A521A532A5402B14
S1132730512B622B732B47A350A761A772A719C013
S113274047A150A561A572A54F5F5F4F6F4F7F4FA3
S113275047A350A761A772A70CC047A350A761A7BE
S113276072A707C0823009F441C047A350A761A7EC
S113277072A78130E9F5EF0180911A0881111DC01B
S11327808F010E5F1F4FC8010E9497058E8990919B
S11327902408981710F48093240890E09C01220FD9
S11327A0331F220F331F220F331F820F931FB801D1
S11327B0865A974F0E94450507C0BF01645F7F4F4B
S11327C08BE398E00E944505E0917E08F0917F0834
S11327D09E898689891770F4E114F10419F081E067
S11327E0F701808381E08093210805C080E003C065
S11327F081E001C081E0DF91CF911F910F91FF90A3
S1132800EF900895009721F480917E0890917F08BD
S11328100FB6F8940F92FC0123A5223019F413A6E5
S113282081E001C080E00F900FBE0895FC01738326
S11328306283918780874617570790F0421B530B9A
S11328408485958548175907E0F4BF016E5F7F4F73
S113285080918608909187080E94660580E008951B
S11328604217530718F46217730768F4BF016E5FC9
S11328707F4F80918808909189080E94660580E0C6
S1132880089581E0089581E008950FB6F8940F92B9
S11328908091840890918508892BE9F483E998E074
S11328A00E9433058AE898E00E94330583E998E0A2
S11328B090938908809388088AE898E09093870821
S11328C08093860840E065E08AE00E944708909380
S11328D08508809384080F900FBE0895EF92FF92AD
S11328E00F93D3DF8091840890918508892B89F018
S11328F00F2EF2E8EF2EF8E0FF2EF02D06E020E098
S113290030E045E550E062E375E083E091E0D6D83D
S113291001C080E00F91FF90EF9008950F931F93F3
S1132920CF93DF9300D01F921F92CDB7DEB7E09113
S11329308408F0918508309769F1D90169835B8334
S11329404A839D838C836630E4F4A9DC823061F48D
S113295020E0A801BE016F5F7F4F809184089091B1
S113296085080E94750817C020E040E050E0BE01D1
S11329706F5F7F4F80918408909185080E9475084D
S11329800AC020E0AD01BE016F5F7F4FCF010E94FE
S1132990220901C080E00F900F900F900F900F90CC
S11329A0DF91CF911F910F910895AF92BF92CF9273
S11329B0DF92EF92FF920F931F93CF93DF936C01FB
S11329C0D4D97C018091800890918108E816F90699
S11329D008F047C02FC00580F681E02DA080B180AB
S11329E0C681D7818E010E5F1F4FC8010E949705D3
S11329F0E889F989CE0119958B8982FF1BC08C85E2
S1132A009D858A0D9B1DA816B90660F49B838A8355
S1132A10D987C887B80180918808909189080E9455
S1132A20660508C000E010E020E030E0A50160E0A9
S1132A30CE0174DFE0918808F091890880818111CA
S1132A40CACF8091860890918708909389088093D3
S1132A508808F0938708E093860881E0F601808374
S1132A6002C0F6011082F0928108E0928008C7014A
S1132A70DF91CF911F910F91FF90EF90DF90CF9056
S1132A80BF90AF9008950895279A2F9A2FEF80E76B
S1132A9092E0215080409040E1F700C000001F9A6E
S1132AA0F5CF279A2F9A2FEF87EA91E6215080409D
S1132AB09040E1F700C000001F9AF5CF04D068945D
S1132AC0B11150C0089533D088F09F5790F0B92FBA
S1132AD09927B751A0F0D1F0660F771F881F991F6F
S1132AE01AF0BA95C9F712C0B13081F03AD0B1E00A
S1132AF0089537C0672F782F8827B85F39F0B93F1A
S1132B00CCF3869577956795B395D9F73EF4909570
S1132B108095709561957F4F8F4F9F4F089557FD16
S1132B209058440F551F59F05F3F71F04795880F37
S1132B3097FB991F61F09F3F79F0879508951216CE
S1132B4013061406551FF2CF4695F1DF08C016167A
S1132B5017061806991FF1CF86957105610508942B
S1132B600895E894BB2766277727CB0197F9089542
S1132B70CF93DF931F92CDB7DEB7BE016F5F7F4F58
S1132B8080919C0890919D084ED18111F6CF898146
S1132B9090E00F90DF91CF910895682F80919C0869
S1132BA090919D08CBD080E090E008958F929F9201
S1132BB0AF92CF92EF920F93812C912C6894AA2418
S1132BC0A7F86894CC24C7F8E12C00E023E040E0A7
S1132BD051EE60E070E013D090939D0880939C08C0
S1132BE0EEE8FAE086E092E0918380839383828327
S1132BF00F91EF90CF90AF909F908F9008952F9268
S1132C003F924F925F926F927F928F929F92AF9278
S1132C10CF92EF92FF920F931F93CF93DF93CDB791
S1132C20DEB7F82E2A013B0188E090E00E94D4250B
S1132C308C018F2D90E0880F991FFC01E256F74F0D
S1132C4011830083FC01EC5EFD4F80819181D801EA
S1132C508D939C936C2D70E084E090E00E94BA25E3
S1132C601C0161E070E086E090E00E94BA257C01DE
S1132C704C2DB1014CD3F801F582E4826A2D70E049
S1132C8084E090E00E94BA251C0161E070E086E0D7
S1132C9090E00E94BA257C014A2DB10138D3D801B5
S1132CA01396FC92EE92129717969C928E92169718
S1132CB0FFB6F894ED91FC9111973697808182606C
S1132CC080838D909C90C301B2010E949D2420E0DA
S1132CD030E040E051E40E9406259B01AC0160E035
S1132CE074E284E79BE40E94322420E030E040E870
S1132CF05FE30E94CB23E7DEF40132976083D801BF
S1132D00ED91FC911197359788E98083ED91FC91C1
S1132D10349786E08083FFBEC801DF91CF911F9175
S1132D200F91FF90EF90CF90AF909F908F907F90F6
S1132D306F905F904F903F902F900895CF93DF93C3
S1132D40EC01EA81FB81938182812581981B922386
S1132D5084819817A1F0938126952923A081B181BC
S1132D60A20FB11D6C939F5F258192239383E88109
S1132D70F981359780818062808380E001C082E0A0
S1132D80DF91CF910895EF92FF920F931F93CF930A
S1132D90DF937C01DC011296ED91FC9113979381F2
S1132DA08281981B858198238481891B861798F1D9
S1132DB0662341F1842F952FDC016150462F50E0AA
S1132DC04F5F5F4F480F591FE701EA81FB819381F1
S1132DD082812581981B92238481981779F08C91A4
S1132DE0938126952923608171818B01020F111D26
S1132DF0E80188839F5F8581982393831196A417A4
S1132E00B50711F7D701ED91FC9135978081806268
S1132E10808380E001C082E0DF91CF911F910F9108
S1132E20FF90EF900895DC011496ED91FC911597B5
S1132E3093818281981789F092818581869589236F
S1132E40A081B181A80FB11D8C91DB018C939F5F90
S1132E5085819823928380E0089583E008951F92EA
S1132E600F920FB60F9211240BB60F922F933F932C
S1132E704F935F936F937F938F939F93AF93BF937E
S1132E80CF93DF93EF93FF93A0919E08B0919F0897
S1132E90109711F16091C6001496ED91FC9115976D
S1132EA0938182812581981B92238481981761F0F4
S1132EB0838126952823C081D181C20FD11D6883C7
S1132EC08F5F9581892383831696ED91FC911797E3
S1132ED0309711F0CD011995FF91EF91DF91CF91CA
S1132EE0BF91AF919F918F917F916F915F914F911E
S1132EF03F912F910F900BBE0F900FBE0F901F901C
S1132F0018951F920F920FB60F9211240BB60F92C1
S1132F102F938F939F93AF93BF93EF93FF93E0917E
S1132F209E08F0919F083097B9F00280F381E02D5C
S1132F30938182819817B1F092818581282F2695FB
S1132F402923A081B181A20FB11D2C919F5F8923F8
S1132F5082832093C6000BC0E1ECF0E080818F7D7A
S1132F60808305C0E1ECF0E080818F7D8083FF9158
S1132F70EF91BF91AF919F918F912F910F900BBEC5
S1132F800F900FBE0F901F9018951F920F920FB6BF
S1132F900F9211240BB60F922F933F934F935F938D
S1132FA06F937F938F939F93AF93BF93CF93DF934D
S1132FB0EF93FF93A091A008B091A108109711F18D
S1132FC06091CE001496ED91FC91159793818281C6
S1132FD02581981B92238481981761F0838126951B
S1132FE02823C081D181C20FD11D68838F5F958151
S1132FF0892383831696ED91FC911797309711F0EE
S1133000CD011995FF91EF91DF91CF91BF91AF91D0
S11330109F918F917F916F915F914F913F912F91EC
S11330200F900BBE0F900FBE0F901F9018951F921C
S11330300F920FB60F9211240BB60F922F938F930A
S11330409F93AF93BF93EF93FF93E091A008F09108
S1133050A1083097B9F00280F381E02D9381828139
S11330609817B1F092818581282F26952923A08174
S1133070B181A20FB11D2C919F5F8923828320937C
S1133080CE000BC0E9ECF0E080818F7D808305C029
S1133090E9ECF0E080818F7D8083FF91EF91BF9117
S11330A0AF919F918F912F910F900BBE0F900FBEF8
S11330B00F901F9018951F920F920FB60F92112424
S11330C00BB60F922F933F934F935F936F937F931E
S11330D08F939F93AF93BF93CF93DF93EF93FF931C
S11330E0A091A208B091A308109711F16091D600A5
S11330F01496ED91FC911597938182812581981BFB
S113310092238481981761F0838126952823C081B6
S1133110D181C20FD11D68838F5F958189238383F9
S11331201696ED91FC911797309711F0CD011995F2
S1133130FF91EF91DF91CF91BF91AF919F918F91CB
S11331407F916F915F914F913F912F910F900BBEA3
S11331500F900FBE0F901F9018951F920F920FB6ED
S11331600F9211240BB60F922F938F939F93AF93CB
S1133170BF93EF93FF93E091A208F091A3083097D7
S1133180B9F00280F381E02D938182819817B1F028
S113319092818581282F26952923A081B181A20FB0
S11331A0B11D2C919F5F892382832093D6000BC08D
S11331B0E1EDF0E080818F7D808305C0E1EDF0E0FA
S11331C080818F7D8083FF91EF91BF91AF919F911B
S11331D08F912F910F900BBE0F900FBE0F901F90E9
S11331E018951F920F920FB60F9211240BB60F92DF
S11331F02F933F934F935F936F937F938F939F93FB
S1133200AF93BF93CF93DF93EF93FF93A091A40861
S1133210B091A508109711F1609136011496ED91C3
S1133220FC911597938182812581981B9223848137
S1133230981761F0838126952823C081D181C20F1C
S1133240D11D68838F5F9581892383831696ED91C1
S1133250FC911797309711F0CD011995FF91EF91DB
S1133260DF91CF91BF91AF919F918F917F916F919A
S11332705F914F913F912F910F900BBE0F900FBE16
S11332800F901F9018951F920F920FB60F92112452
S11332900BB60F922F938F939F93AF93BF93EF939C
S11332A0FF93E091A408F091A5083097B9F002804B
S11332B0F381E02D938182819817B1F09281858109
S11332C0282F26952923A081B181A20FB11D2C910D
S11332D09F5F89238283209336010BC0E1E3F1E0F1
S11332E080818F7D808305C0E1E3F1E080818F7D63
S11332F08083FF91EF91BF91AF919F918F912F9117
S11333000F900BBE0F900FBE0F901F901895FC01ED
S1133310411102C00E94F526842F90E09C012150A7
S1133320310982239323892B11F00E94F526413819
S113333010F00E94F526128213824483440F4150F8
S113334045837183608380E090E00895E4E7FAE0C8
S113335028E73FE1318320832BE73FE13383228356
S113336026E83FE1358324832AE83FE13783268337
S113337020E93FE1318720872CE93FE13387228729
S113338021EA3FE1358724872DEA3FE13787268705
S11333902DE83FE1318B208B22EB3FE1338B228BF5
S11333A02FEB3FE1358B248B682FCF013CC108956F
S11333B06530F1F4FA0180818F7390E0982F8827AB
S11333C02181822B90931F0280931E028281F0E45C
S11333D08F9FC0011124FA01238126952695822B03
S11333E090931D0280931C0281E08093A6080895A7
S11333F0643051F080E090E490931D0280931C02AD
S113340090931F0280931E0208950F931F9308ED5B
S113341019E120E034E244EF50E060E087E20E94EA
S11334203E229093A8088093A70821E0892B09F0F5
S113343020E0822F1F910F9108958091A708909109
S1133440A808009759F040E060E070E00E948F22E5
S1133450843031F41092A60880E0089582E0089543
S113346083E008958091A7089091A808009739F007
S113347064E00E94DB22853021F083E0089582E03D
S1133480089580E0089560911E0270911F0280E00B
S113349090E00E949D2420E030E048EC52E40E9439
S11334A0062520E038EF4FE756E40C9432240895C3
S11334B060911C0270911D0280E090E00E949D24A6
S11334C020E030E045E253E40E94062520E038EF96
S11334D04FE756E40E94322420E030E040E252E418
S11334E00C94CB230895CF93DF9390E0FC01EE0F6F
S11334F0FF1FE80FF91FEE0FFF1FE755F74F23815A
S113350021110AC0EF01E0917C0AF0917D0A6A81E1
S113351088819981199512C0DC01AA0FBB1FED01A6
S1133520C80FD91FCC0FDD1FC755D74FE091860AAE
S1133530F091870A6A81888199811995DF91CF91E9
S11335400895CF93DF9390E0FC01EE0FFF1FE80F87
S1133550F91FEE0FFF1FE755F74F238121110AC012
S1133560EF01E091860AF091870A6A818881998146
S1133570199512C0DC01AA0FBB1FED01C80FD91F9A
S1133580CC0FDD1FC755D74FE0917C0AF0917D0A1F
S11335906A81888199811995DF91CF9108958AE391
S11335A095E00E9446270F2EF4E7CF2EFAE0DF2E97
S11335B0F02D04E0C9EAD8E010E08C81813069F094
S11335C0E8F0823039F5D6011C96ED91FC911D97F7
S11335D06A818881998119951DC08D818F5F8A3098
S11335E010F48D8317C01D82D6011C96ED91FC91B9
S11335F01D976A818881998119950CC08D818823D2
S113360031F0812F9EDF8D8181508D8303C00C8327
S1133610812F69DF1F5F2696143079F685E090E0EC
S11336200E94F60FC7CFCF92DF92EF92FF920F93D3
S11336301F93CF93DF93062F0F2EF4E7EF2EFAE0BC
S1133640FF2EF02DD7011896ED91FC91199766E0A5
S113365087E290E01995C9EAD8E00F2EF8E2CF2E60
S1133660D12CF02DD982C88286E08A831B8214E093
S11336701C8380E038DFD7011896ED91FC911997EF
S113368067E087E290E01995DF82CE8287E0888741
S113369019861A8781E027DFD7011896ED91FC91EE
S11336A0199765E083E390E01995D7011896ED9199
S11336B0FC91199761E084E390E0199584E390E02C
S11336C09D878C8785E08E871F86188B82E00BDFB1
S11336D0D7011896ED91FC91199764E081E091E08F
S11336E01995D7011896ED91FC91199761E082E044
S11336F091E0199582E091E09B8B8A8B1C8B1D8A4B
S11337001E8B83E0F0DEE12CF12C20E030E040EC75
S113371050E061E575E08FEC9AE10E945E0DDF9167
S1133720CF911F910F91FF90EF90DF90CF9008956C
S11337300F931F93CF93DF931F921F92CDB7DEB7E2
S11337408C0119822DC0E0912509EC3250F481E0FE
S11337508E0F80932509F0E0EB5AF64F8A8180831F
S113376002C0109225098A818A30D1F4409125093A
S113377050E0FA01ED5AF64F1082415051099E0172
S11337802F5F3F4F65E579E08091260990912709E5
S11337900E940F0C898181110E946C0610922509E8
S11337A0BE016E5F7F4FC8013EDB882361F20F903C
S11337B00F90DF91CF911F910F9108950F931F9355
S11337C0CF93DF938C01EB01809126099091270917
S11337D00E94D00BB80181EC98E00E941427209736
S11337E079F0E1ECF8E001900020E9F7319780E20C
S11337F090E091838083BE0181EC98E00E940927C8
S1133800E1ECF8E0DF010D900020E9F711978DE07D
S11338109AE011969C938E9312961C92019000202C
S1133820E9F73197E15CF840AE2F81EC98E0AC0108
S11338306A2F8091280990912909A5DA81110FC076
S113384028E235E04DE250E06FEA79E08091260904
S1133850909127090E94510C8FEA99E002C080E000
S113386090E0DF91CF911F910F910895AF92BF9295
S1133870CF92DF92EF92FF920F931F93CF93DF9338
S11338806C01FC0101900020E9F731977F01E81AEF
S1133890F90A0DED17E0C0E0D0E0F8016081718114
S11338A0A701C6010E941B27892B49F4FE01EE0FD4
S11338B0FF1FEC0FFD1FE452F84F808107C02196D3
S11338C00D5F1F4FC131D10541F780E1DF91CF91E9
S11338D01F910F91FF90EF90DF90CF90BF90AF902A
S11338E008956CDFC3CF089580912609909127092C
S11338F00C94D00B08958F929F92AF92CF92EF9237
S11339000F93CF93C82F41E060E070E088EC90E023
S11339100E94A40B90932709809326090F2EF8E99F
S11339208F2EFBE19F2EF02D6894AA24A6F86894AC
S1133930CC24C6F8E12C00E023E040E051EE60E046
S113394070E08C2F5CD99093290980932809E09129
S11339507C0AF0917D0A64E087E091E01995CF91AB
S11339600F91EF90CF90AF909F908F900895882300
S113397049F0E091860AF091870A64E088E091E0DA
S113398019950895E0917C0AF0917D0A64E088E03D
S113399091E01995089560E070E088E795E00EDF06
S11339A0EFEAF9E001900020E9F73197EF5AF94086
S11339B081E0759708F080E00895CF93DF93EC01E0
S11339C060E070E089E895E0F9DEEFEAF9E0019063
S11339D00020E9F7E05CF94039F46FEA79E0CE01C0
S11339E00E94142780E002C0188281E0DF91CF9109
S11339F00895FC0101900020E9F79F01215131094C
S1133A002817390729F4BC0187EB95E06ACF08959C
S1133A1089E00895FC0101900020E9F79F012151FC
S1133A2031092817390729F4BC0186EC95E059CFF0
S1133A30089589E00895FC0101900020E9F79F01B1
S1133A40215231092817390729F4BC0185ED95E085
S1133A5048CF089589E0089560E070E084E196E03D
S1133A6040CF0895E82FF0E0EE0FFF1FE852F84F23
S1133A70608171818DE196E034DF811112C028E20A
S1133A8035E04DE250E06FEA79E0809126099091AB
S1133A9027090E94510C882321F08FEA99E0E6CE91
S1133AA008958FEA99E0E2CE0895CF93DF931F92B1
S1133AB0CDB7DEB7DB0111969C911197953108F0D3
S1133AC087C0992381F160E070E0272F30E0462F12
S1133AD050E0FD01E40FF51F928192959F709A309A
S1133AE010F0995C01C0905DF901E05CF64F9083A1
S1133AF02F5F3F4FFD01E40FF51F92819F70492F07
S1133B0050E04A30510514F0995C01C0905DF90110
S1133B10E05CF64F90837E5F6F5F11969C911197E6
S1133B20691798F201C070E0E72FF0E0E05CF64F0F
S1133B3010824C91811103C086E296E002C088E2B3
S1133B4096E020E439E03F932F931F924F939F9385
S1133B508F938CE296E09F938F9382E899E09F93F2
S1133B608F930E94762760E070E082E899E0B9DEE6
S1133B700FB6F894DEBF0FBECDBF8E3051F587E08F
S1133B808983BE016F5F7F4F8FEA99E03CD18093B8
S1133B902A09E981F0E0E155F64FDF010D9000209C
S1133BA0E9F71197AE1BBF0BAA2381F0BB2711972E
S1133BB0CD010AF401969595879580932B09AF0161
S1133BC04F5F5F4F64E18CE299E049D18EE001C020
S1133BD084E10F90DF91CF910895813019F06CE367
S1133BE076E002C06CEF76E080E496E07ACE089549
S1133BF02F923F924F925F926F927F928F929F92F9
S1133C00AF92BF92CF92DF92EF92FF920F931F93E6
S1133C10CF93DF93CDB7DEB7A0970FB6F894DEBF8E
S1133C200FBECDBF65E876E081E996E0C7DD1EDE14
S1133C308111A3C080E2E1E2F2E0DE01119601907D
S1133C400D928A95E1F79E012F5F3F4F6901E12CA8
S1133C50F12C0F2EFDE9AF2EF6E0BF2EF02D02E879
S1133C6019E00F2EF6EB4F2EF6E05F2EF02D0F2EFF
S1133C70FDEC8F2EF6E09F2EF02D0F2EF7EE6F2E1B
S1133C80F6E07F2EF02D3E2C2F2CFF92EF92BF9268
S1133C90AF921F930F930E94762760E070E0C801F3
S1133CA08DDDE4DD0F900F900F900F900F900F902B
S1133CB0811163C032E03E15E8F4F60183818F93ED
S1133CC082818F9381818F9380818F93FF92EF9272
S1133CD05F924F921F930F930E94762760E070E0EB
S1133CE0C8016CDDC3DD0FB6F894DEBF0FBECDBFD7
S1133CF0811143C02F923F929F928F921F930F93F3
S1133D000E94762760E070E0C80158DDAFDD0F90B7
S1133D100F900F900F900F900F9081112EC02F9243
S1133D203F927F926F921F930F930E94762760E0D9
S1133D3070E0C80143DD9ADD0F900F900F900F9053
S1133D400F900F90811119C03FEFE31AF30A84E03A
S1133D50C80ED11C98E0E916F10409F094CF60E094
S1133D6070E08FEF96E02ADD81DD811106C060E00E
S1133D7070E080E197E022DD79DDA0960FB6F8943B
S1133D80DEBF0FBECDBFDF91CF911F910F91FF908A
S1133D90EF90DF90CF90BF90AF909F908F907F90E7
S1133DA06F905F904F903F902F900895EF92FF9205
S1133DB00F931F93CF93DF93EC018B017A0181E082
S1133DC00CDF81110DC0CE0125DE811109C0C801AF
S1133DD032DE811105C0C7010CDE811101C03CDE59
S1133DE0DF91CF911F910F91FF90EF90089590E094
S1133DF0FC01EE0FFF1F8E0F9F1FFC01E452F84FD2
S1133E00818192810895DC01009729F1FB012081D1
S1133E10FC0101900020E9F73197E81BF90B822F90
S1133E2090E0E817F907C8F080E008C0880F382F41
S1133E30330F330F830F8053890F2F5FFD01E20F80
S1133E40F11D908130ED390F3A3010F49111EECF1D
S1133E50FB012083089580E0089580E008950F9386
S1133E601F93CF93DF93DC01EA012097E1F1FA017C
S1133E7001900020E9F73197E41BF50B329710F518
S1133E8032C08D01040F151F30E0AE01420F531FE5
S1133E90FA019081913428F09753592F5295507F0D
S1133EA003C0592F5295507F2C0F3D1FF90191816A
S1133EB0913410F0975301C09053950FF8019083FB
S1133EC08F5F01C080E0282F220F482F50E0FE01B1
S1133ED001900020E9F73197EC1BFD0B4E175F07AB
S1133EE010F48613CECFDF91CF911F910F910895D7
S1133EF0FC0180810895FC01208181E090E002C0F2
S1133F00880F991F6A95E2F782230895FC01808146
S1133F1086230895FC0160830895FC0110820895AE
S1133F20FC01408121E030E002C0220F331F6A957A
S1133F30E2F7242B20830895FC012081622B608307
S1133F400895FC01408121E030E002C0220F331FBC
S1133F506A95E2F7242720830895FC0120816227D3
S1133F6060830895FC01908121E030E002C0220FBB
S1133F70331F6A95E2F72095292320830895FC01D5
S1133F80908160956923608308958091DF09860F8D
S1133F908093DF099091E209913079F028F0923012
S1133FA0A9F0933019F108956F3F09F048C01092B9
S1133FB0DF0981E08093E2090895663809F03FC083
S1133FC01092DE0982E08093E2090895E091DE090F
S1133FD081E08E0F8093DE09F0E0E452F64F6083B7
S1133FE0823069F583E08093E20908959091DE09B7
S1133FF021E0290F2093DE09963009F581110EC0C6
S1134000ECEDF9E0808190E0982F88272181820FE0
S1134010911D9093E4098093E30904C01092E4098C
S11340201092E3091092E209E091E009F091E109AC
S1134030309729F08091E3099091E4091995089546
S11340408F929F92AF92CF92EF920F93CF93DF9381
S1134050EB010F2EF5EC8F2EFFE19F2EF02D6894CF
S1134060AA24A4F86894CC24C4F8E12C00E023E04A
S113407040E855E260E070E00E94FF159093E60985
S11340808093E509D093E109C093E009DF91CF91D2
S11340900F91EF90CF90AF909F908F900895CF9312
S11340A0DF93CDB7DEB729970FB6F894DEBF0FBE06
S11340B0CDBF89E0E1E4F2E09E012F5F3F4FD901DB
S11340C001900D928A95E1F71092E4091092E309A8
S11340D08091E5099091E609009739F0422F532F1A
S11340E069E00E94C31680E001C082E029960FB601
S11340F0F894DEBF0FBECDBFDF91CF910895653632
S11341000CF064E66C390CF46CE996EF6902B001CA
S113411011246854744F811105C070932901609370
S11341202801089570932B0160932A010895EAE011
S1134130F1E08081886180838FE39CE9909327017B
S11341408093260160E080E0DADF60E081E0D7DF81
S1134150E0E2F1E08081826A8083E1E2F1E0808143
S11341608A6180830895E091EF09F091F009309716
S113417009F0199508956450623008F03BC020910D
S1134180EE09223079F018F4213031F030C02330B8
S113419081F02430A1F02BC022E02093EE0961E0ED
S11341A00AC20895FA0180818093EB0982E0DBCF93
S11341B0089524E02093EE0964E0FDC10895FA0116
S11341C0818190E0982F88272081822B9093EA099F
S11341D08093E909838190E0982F88272281822B9C
S11341E09093E8098093E70981E0BDCF089580E0CA
S11341F0BACF08951092EE0986E0B5CF08952091C4
S1134200F1093091F2092115310541F0462FBC0125
S1134210C90185D1823021F080E0089587E00895B6
S113422085E008950F931F939093F0098093EF090D
S11342300BEB10E220E034E244EF50E060E089E26E
S11342401DD19093F2098093F109892B11F080E03C
S113425001C088E01F910F910895CF93DF931F92BF
S11342601F92CDB7DEB780EA898383E08A831092F8
S1134270EE0962E0CE010196C2DF0F900F90DF914C
S1134280CF910895CF93DF931F92CDB7DEB784EB20
S1134290898383E08093EE0961E0CE010196AFDF6C
S11342A00F90DF91CF9108952F923F924F925F929A
S11342B06F927F928F929F92AF92BF92CF92DF9232
S11342C0EF92FF920F931F93CF93DF93C091E7096F
S11342D0D091E809CF3F2FEFD20741F06091E9096F
S11342E07091EA096F3FEFEF7E0759F44FEF5FEFEC
S11342F06FE77FE7FC01408351836283738383E02C
S113430099C01C0180E090E018D32B013C01BE0150
S113431080E090E012D34B015C018091EC0990E0C5
S1134320019624E6289FB001299F700D11248091E5
S1134330ED09803269F08033A1F08031E1F40F2E71
S1134340C12CD12CF8ECEF2EF1E4FF2EF02D1BC084
S11343500F2EC12CD12CF6EDEF2EF3E4FF2EF02D11
S113436012C00F2EC12CF0E5DF2EFAE1EF2EF6E499
S1134370FF2EF02D08C00F2EC12CD12CF0E8EF2E0B
S1134380FFE3FF2EF02D072E000C880B990BD7D2DC
S1134390A70196013BD320E030E04CEC53E462D219
S11343A06B017C0125E83BEE41ED5FE3C501B401FF
S11343B02DD39B01AC01C301B201EDD1A70196013C
S11343C051D2162FD72FC82F092F2DE33AE047E1FA
S11343D05FE3C301B2011AD32B013C0126EF38E29B
S11343E04CE55FE3C501B40111D39B01AC01C301EA
S11343F0B201D1D1A701960135D2C62ED72EE82E0F
S1134400F92E262F372F482F592F612F7D2F8C2FD0
S1134410902FF8D2181624F01C2DDD2DCE2D0F2D43
S1134420412F5D2F6C2F702FF101408351836283E4
S1134430738380E0DF91CF911F910F91FF90EF90F4
S1134440DF90CF90BF90AF909F908F907F906F90B0
S11344505F904F903F902F9008958091010A8111B1
S11344600CC08CE08093B8008FEF8093BB0084E095
S11344708093BC0081E08093010A0895AF92BF92BB
S1134480CF92DF92EF92FF920F931F93CF93DF931C
S1134490A82EB62E69017A0184E090E085D3EC0160
S11344A0892B61F1A88281E0B81212C0C701B6015C
S11344B020EA36E841E050E033D3DA01C9014097FD
S11344C0A109B109B695A79597958795898311C0D8
S11344D0C701B60120E83AE146E050E021D3DA0111
S11344E0C9014097A109B109B695A79597958795F4
S11344F089831B830A838C2F9D2F02C080E090E068
S1134500DF91CF911F910F91FF90EF90DF90CF90AB
S1134510BF90AF9008958091BC0081700895FF9280
S11345200F931F93CF93DF930097D1F14A30D0F5C7
S1134530F42E8B01EC01EFDF811136C08091F40978
S11345409091F509C817D90741F087DF89818093D5
S1134550B800D093F509C093F40981E08F0D8093DE
S1134560F6098881880F8093F709FF2089F0F80104
S1134570A8EFB9E04FEF4F0D642F70E0CB01019627
S1134580B801680F791F81918D93E617F707D9F762
S113459088EF8093200285EA8093BC0084E005C004
S11345A086E003C087E001C082E0DF91CF911F91D4
S11345B00F91FF9008951F93CF93DF93009729F1F4
S11345C06B3028F5162FEC01A6DF811122C08091F3
S11345D0F4099091F509C817D90741F03EDF8981A4
S11345E08093B800D093F509C093F4091093F609A9
S11345F08881880F81608093F70988EF8093200277
S113460085EA8093BC0085E005C086E003C087E0AE
S113461001C082E0DF91CF911F9108951F920F9204
S11346200FB60F9211240BB60F922F933F934F9313
S11346305F936F937F938F939F93AF93BF93EF9306
S1134640FF93E091B9008E2F90E0FC013897E1359B
S1134650F10508F075C08827E458FF4F8F4F82C2D8
S11346601092F309E091F3098091F609E81770F4C8
S113467081E08E0F8093F309F0E0E950F64F8081DA
S11346808093BB0085E88093BC0072C084E980936A
S1134690BC008091F4099091F509DC011296ED912A
S11346A0FC911397309709F463C020E040E050E098
S11346B064E019955DC0E091F30981E08E0F809369
S11346C0F3098091BB00F0E0E950F64F80838091BC
S11346D0B900803411F41092F3092091F30930E009
S11346E08091F60990E001972817390724F485ECA6
S11346F08093BC003DC085E88093BC0039C08091A4
S1134700BB00E091F309F0E0E950F64F808384E9BF
S11347108093BC008091F4099091F509DC01129614
S1134720ED91FC911397309719F12091F60947EF19
S113473059E065E019951CC085EA8093BC0018C057
S11347408091B9008093200284E08093BC00809122
S1134750F4099091F509DC011296ED91FC911397FF
S1134760309731F020E040E050E06091200219954C
S1134770FF91EF91BF91AF919F918F917F916F9135
S11347805F914F913F912F910F900BBE0F900FBEF1
S11347900F901F9018955058BB27AA270ED021C1FF
S11347A012D130F017D120F031F49F3F11F41EF4F0
S11347B007C10EF4E095E7FBFDC0E92F0E948F15B9
S11347C078F3BA17620773078407950720F079F422
S11347D0A6F50C94B1150EF4E0950B2EBA2FA02D6E
S11347E00B01B90190010C01CA01A0011124FF279A
S11347F0591B99F0593F50F4503E68F11A16F04095
S1134800A22F232F342F4427585FF3CF4695379593
S11348102795A795F0405395C9F77EF41F16BA0B58
S1134820620B730B840BBAF09150A1F0FF0FBB1F06
S1134830661F771F881FC2F70EC0BA0F621F731F4F
S1134840841F48F4879577956795B795F7959E3FAC
S113485008F0B1CF9395880F08F09927EE0F97953C
S1134860879508950DD0BDC0B5D048F0ACD038F0D0
S113487021F45F3F21F09EC051110C94B215A0C0E9
S11348800E948F1588F39923B9F35523A1F3951B3F
S1134890550BBB27AA2762177307840738F09F5F5D
S11348A05F4F220F331F441FAA1FA9F334D00E2ECB
S11348B03AF0E0E831D091505040E695001CCAF738
S11348C02AD0FE2F28D0660F771F881FBB1F2617FC
S11348D037074807AB07B0E809F0BB0B802DBF01D1
S11348E0FF2793585F4F32F09E3F510570F062C02E
S11348F00C94B2155F3FE4F3983ED4F38695779514
S11349006795B795F7959F5FC9F7880F911D9695A1
S1134910879597F90895E1E0660F771F881FBB1FFD
S1134920621773078407BA0720F0621B730B840BAA
S1134930BA0BEE1F88F7E0950895E89409C097FB39
S11349403EF490958095709561957F4F8F4F9F4F62
S11349509923A9F0F92F96E9BB279395F6958795A6
S113496077956795B795F111F8CFFAF4BB0F11F469
S113497060FF1BC06F5F7F4F8F4F9F4F16C0882310
S113498011F096E911C0772321F09EE8872F762F46
S113499005C0662371F096E8862F70E060E02AF087
S11349A09A95660F771F881FDAF7880F9695879573
S11349B097F9089597F99F6780E870E060E008959B
S11349C09FEF80EC089500240A9416161706180623
S11349D00906089500240A941216130614060506FF
S11349E00895092E0394000C11F4882352F0BB0F90
S11349F040F4BF2B11F460FF04C06F5F7F4F8F4FF3
S1134A009F4F089569D008F48FEF08950CD0E9CF33
S1134A10DADF28F0DFDF18F0952309F0CBCFD0CF11
S1134A2011240C94B2150E948F1590F3959FC1F335
S1134A30950F50E0551F629FF001729FBB27F00D48
S1134A40B11D639FAA27F00DB11DAA1F649F66279D
S1134A50B00DA11D661F829F2227B00DA11D621FEC
S1134A60739FB00DA11D621F839FA00D611D221FA6
S1134A70749F3327A00D611D231F849F600D211D8A
S1134A80822F762F6A2F11249F57504092F0E9F01D
S1134A9088234AF0EE0FFF1FBB1F661F771F881F76
S1134AA091505040A9F79E3F510578F083CF0C9464
S1134AB0B2155F3FE4F3983ED4F3869577956795F6
S1134AC0B795F795E7959F5FC1F7FE2B880F911D6A
S1134AD09695879597F90895990F0008550FAA0B95
S1134AE0E0E8FEEF16161706E807F907C0F01216FD
S1134AF01306E407F50798F0621B730B840B950B00
S1134B0039F40A2661F0232B242B252B21F4089554
S1134B100A2609F4A140A6958FEF811D811D0895F1
S1134B20A1E21A2EAA1BBB1BFD010DC0AA1FBB1FAD
S1134B30EE1FFF1FA217B307E407F50720F0A21B1F
S1134B40B30BE40BF50B661F771F881F991F1A948C
S1134B5069F760957095809590959B01AC01BD01B6
S1134B60CF010895EE0FFF1F881F8BBF0790F691AA
S1134B70E02D19940F931F93CF93DF93869F8001A9
S1134B80879F100D969F100D1124C8010DD0EC01C4
S1134B90009721F0A80160E070E034D1CE01DF91EC
S1134BA0CF911F910F9108950F931F93CF93DF938C
S1134BB08230910510F482E090E0E0918C0AF0914B
S1134BC08D0A20E030E0A0E0B0E0309719F1408198
S1134BD051810281138148175907C8F0841795073A
S1134BE069F4109731F012960C93129713961C9354
S1134BF027C000938C0A10938D0A22C02115310519
S1134C0019F04217530718F49A01BD01EF01DF01AF
S1134C10F801DBCF21153105F9F0281B390B2430BD
S1134C20310580F48A819B816115710521F0FB01B6
S1134C309383828304C090938D0A80938C0AFE012F
S1134C40329644C0FE01E20FF31F819391932250E8
S1134C503109398328833AC020918A0A30918B0A1A
S1134C60232B41F4209102023091030230938B0AEA
S1134C7020938A0A20910002309101022115310506
S1134C8041F42DB73EB74091040250910502241B14
S1134C90350BE0918A0AF0918B0AE217F307A0F42E
S1134CA02E1B3F0B2817390778F0AC014E5F5F4F7E
S1134CB02417350748F04E0F5F1F50938B0A40931B
S1134CC08A0A8193919302C0E0E0F0E0CF01DF9182
S1134CD0CF911F910F910895CF93DF93009709F41B
S1134CE081C0FC01329713821282A0918C0AB09188
S1134CF08D0A109781F420813181820F931F2091B6
S1134D008A0A30918B0A2817390751F5F0938B0AD8
S1134D10E0938A0A67C0ED0120E030E0CE17DF0798
S1134D2040F44A815B819E0141155105F1F0EA018D
S1134D30F5CFD383C28340815181840F951FC81757
S1134D40D90759F488819981840F951F029691831C
S1134D5080838A819B81938382832115310529F481
S1134D60F0938D0AE0938C0A3DC0E901FB83EA834A
S1134D7049915991C40FD51FEC17FD0761F4808147
S1134D809181840F951F0296E9019983888382811A
S1134D9093819B838A83E0E0F0E012968D919C914D
S1134DA01397009719F0FD01DC01F7CF8D919C91C9
S1134DB011979D012E5F3F4F820F931F20918A0A06
S1134DC030918B0A2817390769F4309729F4109227
S1134DD08D0A10928C0A02C013821282B0938B0A3D
S1134DE0A0938A0ADF91CF91089581E090E0F8942E
S1134DF058C3FB01DC0102C001900D9241505040A8
S1134E00D8F70895DC0101C06D9341505040E0F79C
S1134E100895FB01DC010D900020E9F71197019042
S1134E200D920020E1F70895FB01DC0101900D9241
S1134E300020E1F70895FB01DC014150504088F067
S1134E408D9181341CF08B350CF4805E619161345A
S1134E501CF06B350CF4605E861B611171F3990BC9
S1134E600895881BFCCFCF93DF93CDB7DEB7AE0197
S1134E704A5F5F4FFA0161917191AF018091900A8D
S1134E809091910A61D0DF91CF9108950F931F9370
S1134E90CF93DF93E091900AF091910A238121FF4F
S1134EA01BC08C01D0E0C0E0F80181918F016091BA
S1134EB0900A7091910ADB011896ED91FC91199773
S1134EC0882331F01995892B79F3DFEFCFEFECCFFD
S1134ED08AE01995892B19F08FEF9FEF02C08D2F6F
S1134EE09C2FDF91CF911F910F9108950F931F93E2
S1134EF0CF93DF93CDB7DEB72E970FB6F894DEBF0E
S1134F000FBECDBF0E891F8986E08C831A83098367
S1134F108FEF9FE79E838D83AE01465E5F4F688D62
S1134F20798DCE01019610D0EF81F885E00FF11F45
S1134F3010822E960FB6F894DEBF0FBECDBFDF9160
S1134F40CF911F910F9108952F923F924F925F92AC
S1134F506F927F928F929F92AF92BF92CF92DF9285
S1134F60EF92FF920F931F93CF93DF93CDB7DEB7EA
S1134F702B970FB6F894DEBF0FBECDBF6C017B013B
S1134F808A01FC0117821682838181FFBFC1CE0191
S1134F9001963C01F6019381F70193FD859193FFFE
S1134FA081917F01882309F4ADC1853239F493FDE1
S1134FB0859193FF81917F01853221F4B60190E0C0
S1134FC0D6D1E8CF912C212C312CFFE1F315D8F068
S1134FD08B3279F038F4803279F08332A1F4232DC6
S1134FE020611DC08D3261F0803369F4232D21606E
S1134FF016C0832D8260382EE32DE4603E2E2AC035
S1135000F32DF8601DC037FC2DC020ED280F2A3089
S113501040F08E32B9F436FC75C1232D2064322E53
S113502019C036FE06C08AE0989E200D1124922EE7
S113503011C0EAE02E9E200D1124222EF32DF062E1
S11350403F2E08C08C3621F4832D8068382E02C090
S1135050883641F4F70193FD859193FF81917F0197
S11350608111B3CF982F9F7D9554933028F40C5F12
S11350701F4F9FE399830DC0833631F0833771F05E
S1135080833509F055C020C0F801808189830E5F03
S11350901F4F88248394912C530112C02801F2E0FD
S11350A04F0E511CF801A080B18036FE03C0692D5B
S11350B070E002C06FEF7FEFC5014ED14C01820159
S11350C0F32DFF773F2E15C0280122E0420E511C1C
S11350D0F801A080B18036FE03C0692D70E002C0E3
S11350E06FEF7FEFC5012DD14C01F32DF0683F2EFA
S11350F0820133FC19C0822D90E088169906A0F431
S1135100B60180E290E033D12A94F5CFF50137FC63
S1135110859137FE81915F01B60190E028D121107D
S11351202A9421E0821A91088114910479F7E1C04C
S1135130843611F0893639F5F80137FE07C06081ED
S11351407181828193810C5F1F4F08C060817181DE
S1135150072E000C880B990B0E5F1F4FF32DFF7663
S11351603F2E97FF09C090958095709561957F4F6C
S11351708F4F9F4FF0683F2E2AE030E0A30133D1D8
S1135180882E861844C0853731F4232D2F7EB22E05
S11351902AE030E025C0932D997FB92E8F36C1F0D7
S11351A018F4883579F0AEC0803719F0883721F0CB
S11351B0A9C0E92FE061BE2EB4FE0DC0FB2DF46042
S11351C0BF2E09C034FE0AC0292F2660B22E06C0A5
S11351D028E030E005C020E130E002C020E132E008
S11351E0F801B7FE07C060817181828193810C5FF1
S11351F01F4F06C06081718180E090E00E5F1F4FF9
S1135200A301F1D0882E8618FB2DFF773F2E36FEA2
S11352100DC0232D2E7FA22E891458F434FE0BC00A
S113522032FC09C0832D8E7EA82E05C0B82CA32C79
S113523003C0B82C01C0B92CA4FE0FC0FE01E80DB8
S1135240F11D8081803321F49A2D997EA92E09C005
S1135250A2FE06C0B394B39404C08A2D867809F0E4
S1135260B394A3FC10C0A0FE06C0B21480F4280CB2
S1135270922C9B180DC0B21458F4B60180E290E051
S113528076D0B394F8CFB21418F42B1802C0982C2B
S1135290212CA4FE0FC0B60180E390E068D0A2FEEA
S11352A016C0A1FC03C088E790E002C088E590E046
S11352B0B6010CC08A2D867851F0A1FE02C08BE2A3
S11352C001C080E2A7FC8DE2B60190E050D08914C1
S11352D030F4B60180E390E04AD09A94F8CF8A94EF
S11352E0F301E80DF11D8081B60190E040D08110FA
S11352F0F6CF222009F44ECEB60180E290E037D0FA
S11353002A94F7CFF6018681978102C08FEF9FEF31
S11353102B960FB6F894DEBF0FBECDBFDF91CF91B1
S11353201F910F91FF90EF90DF90CF90BF90AF90BF
S11353309F908F907F906F905F904F903F902F90B1
S11353400895FC010590615070400110D8F78095D4
S113535090958E0F9F1F0895FC016150704001903D
S11353600110D8F7809590958E0F9F1F08950F9385
S11353701F93CF93DF93FB01238121FD03C08FEFA4
S11353809FEF2CC022FF16C04681578124813581AE
S11353904217530744F4A081B1819D012F5F3F4F11
S11353A0318320838C93268137812F5F3F4F37834E
S11353B0268314C08B01EC01FB010084F185E02DF0
S11353C01995892BE1F6D80116968D919C91179722
S11353D0019617969C938E931697CE01DF91CF91E9
S11353E01F910F910895FA01AA27283051F1203115
S11353F081F1E8946F936E7F6E5F7F4F8F4F9F4F65
S1135400AF4FB1E03ED0B4E03CD0670F781F891FA6
S11354109A1FA11D680F791F8A1F911DA11D6A0F74
S1135420711D811D911DA11D20D009F468943F9127
S11354302AE0269F11243019305D3193DEF6CF0126
S11354400895462F4770405D4193B3E00FD0C9F7EC
S1135450F6CF462F4F70405D4A3318F0495D31FD59
S11354604052419302D0A9F7EACFB4E0A6959795AC
S1135470879577956795BA95C9F700976105710582
S113548008959B01AC010A2E0694579547953795CC
S11354902795BA95C9F7620F731F841F951FA01D26
S10954A00895F894FFCF0B
S11354A60000940A20000000000300000000CD154F
S11354B6B8150000C600CE00D600360100400040F4
S11354C6F8A027BE33E034C1332042C43360E5AECE
S11354D633A0F2B133E0FFB433200DB833601ABB06
S11354E633FF0186000000000079FF0179A0000067
S11354F60000E6FF0179000000000086FF01870036
S11355060000000078FF01880000000000005465D8
S11355166D7065726174757265206D6561737572FF
S1135526656D656E7400434F32206D6561737572E7
S1135536656D656E74004C69676874206D6561738A
S11355467572656D656E74004C656400536572769C
S11355566F204D6F746F72004661696C65642074C8
S11355666F20696E697469616C697A652074656D0A
S113557670657261747572652073656E736F7200FF
S11355864661696C656420746F20696E697469612B
S11355966C697A65206C696768742073656E736FCD
S11355A6723A2025640A004661696C656420746F4A
S11355B620656E61626C65206C696768742073652A
S11355C66E736F722025640A0054656D70207365CE
S11355D66E736F7220737461727421212100434FBC
S11355E6322073656E736F723A20256400434F321E
S11355F6206C6576656C3A2025750A004661696CEF
S1135606656420746F206665746368206C696768D6
S11356167420646174613A2025640A004C696768E1
S1135626742073656E736F72206E6F742072656179
S11356366479004C696768743A2025640A004C75DD
S113564678206F766572666C6F7700466163746F57
S1135656727952657374203E25733C0A00436F6E5B
S113566666696775726520746F204555383638202B
S11356763E25733C0A004765742048574555493A08
S1135686202573203E25733C200A0053657420446C
S113569665764555493A202573203E25733C0A0014
S11356A630313863633235663732346138353137F1
S11356B66362666437363364633131323636313485
S11356C600633533653866396631303830316663A0
S11356D63400536574204F544141204964656E7407
S11356E6697479206170704555493A257320617053
S11356F6704B45593A2573206465764555493A25D4
S113570673203E25733C0A0053617665206D616300
S1135716203E25733C0A005365742041646170740D
S1135726697665204461746120526174653A204F3C
S11357364E203E25733C0A004A6F696E204E6574FE
S1135746776F726B2054726965734C6566743A257B
S113575664203E25733C0A0055706C6F6164204DCD
S1135766657373616765203E25733C0A00506C615E
S11357766E7420686173206265656E207761746556
S113578672656421212121007469636B20256400FC
S113579674656D702D77616B65206572726F723AF0
S11357A62025640A0054656D702D72656164206558
S11357B672726F723A2025640A0048756D3A202584
S11357C664202054656D703A2025640A0049444CCF
S11357D64500546D72205376630048414C206C6535
S11357E664207461736B207374617274656421211F
S11357F60048414C5F4C45440073797320726573CD
S11358066574006D6163207061757365006D616315
S113581620726573756D65007379732066616374B0
S11358266F727952455345540073797320676574D2
S1135836206877657569006D616320676574206704
S1135846776E62006D616320736574206C696E6B9C
S113585663686B202564006D61632073657420643E
S11358666576657569006D61632073657420617082
S113587670657569006D616320736574206170706D
S11358866B6579006D616320736574206E776B7345
S11358966B6579006D616320736574206170707344
S11358A66B6579006D616320736574206465766148
S11358B6646472006D61632073617665006D616373
S11358C6206A6F696E00756E636E66006D61632093
S11358D67478202573202564202573006F6666007E
S11358E66D61632073657420616472006D61632069
S11358F667657420616472006D616320736574204A
S11359066472202564006D61632067657420647287
S1135916006D61632073657420727864656C6179C7
S1135926312025640033203836393532353030306D
S1135936006D61632073657420727832006D616353
S11359462073657420636820646379636C6520251D
S11359566420373939006D61632073657420636888
S1135966206672657120256420256C75006D61635F
S11359762073657420636820647272616E676520A3
S1135986256420302037006D6163207365742063BD
S11359966820737461747573202564206F6E006DBE
S11359A661632073657420707772696478203100AE
S11359B66D61632073657420726574782037006F97
S11359C674616100616270004B4559535F4E4F54D8
S11359D65F494E4954004E4F5F465245455F434822
S11359E60053494C454E540042555359004D4143CA
S11359F65F5041555345440044454E494544004192
S1135A064343455054454400494E56414C49445F2E
S1135A16504152414D004E4F545F4A4F494E454402
S1135A2600494E56414C49445F444154415F4C45FC
S1135A364E004652414D455F434F554E5445525FC5
S1135A464552525F52454A4F494E5F4E454544457D
S1135A5644004D41435F54585F4F4B004D41435FF3
S1135A6652585F4F4B004D41435F4552524F5200CF
S1135A76554E4B4E4F574E001F07240700C30701D0
S1135A86CA07022807033607044107054807064DD7
S1135A9607075807085F070968070A76070B81078F
S1135AA60C92070DB2070EBC070FC60710D00700ED
S9030000FC
