S00B00006170702E73726563D8
S113000005C2000023C2000021C200001FC200007C
S11300101DC200001BC2000019C2000017C200006C
S113002015C2000013C2000011C200000FC200007C
S11300308BC600000BC2000009C2000007C200000A
S113004005C2000003C2000001C20000FFC100009D
S1130050FDC10000FBC10000F9C10000F7C10000B0
S1130060F5C100000C94E6140C943815EFC100009F
S1130070EDC10000EBC10000E9C10000E7C10000D0
S1130080E5C10000E3C10000E1C10000DFC10000E0
S11300900C947C150C94CE15D9C100000C94951FBA
S11300A0D5C10000D3C10000D1C10000CFC1000000
S11300B0CDC10000CBC10000C9C10000C7C1000010
S11300C0C5C10000C3C10000C1C100000C941216D8
S11300D00C946416BBC100000C94A8160C94FA1678
S11300E0B5C10000950195019501C401CC01DB0166
S11300F095019501C401CC01B71F27202720272093
S11301002720272027202720B71F27202720272024
S11301102720272027202720B91F27202720272012
S11301202720272027202720272027202720272093
S11301302720272027202720B91F272027202720F2
S11301402720272027202720272027202720272073
S11301502720272027202720232027202720272067
S11301602720272027202720EE1F2720272027208D
S11301702720272027202720272027202720272043
S11301802720272027202720E21F27202720272079
S1130190272027202720272006200CEA17E00F2EEF
S11301A0F4EDEF2EF7E0FF2EF02D8091AB078823BE
S11301B011F10FB6F8940F92D8011596ED91FC91B8
S11301C01697C681D781CE01029624D48091A107C7
S11301D081508093A1078091AB0781508093AB0736
S11301E00F900FBE8F89988DA2D3CE01A0D380919A
S11301F0AB078111DECFF7018081823008F0DFD4B4
S11302000E94FA12D2CFCF93DF9300D000D0CDB7A3
S1130210DEB7CE0101964C0144244394E12CF12C29
S1130220512CC82ED92CE0910208F091030880814A
S1130230882309F4D7C00580F681E02DA080B18021
S11302400E943A0DC4010E948C128C018981811193
S113025048C00A151B05B0F10E94040EE091020883
S1130260F09103080580F681E02D66807780C30154
S11302700296D0D3D30153968C91539782FF17C023
S11302801C966D917C911D976A0D7B1D9501A801AB
S1130290C3010E94CD11882369F00E2D1F2D2E2D30
S11302A03F2DA501652DC3010E94451203C08E7F19
S11302B0F301838BD3015096ED91FC915197C301C7
S11302C0199584C0452DB501601B710B8091FE0703
S11302D09091FF07CED70E94040E811177C06FD48E
S11302E075C00E94040E72C0898188230CF46EC00C
S11302F0AC80BD80F50182859385892B19F0C501F9
S1130300029688D3CE0106960E948C12AC01E98134
S11303100E2E000CFF0BEA30F10508F057C08827B9
S1130320EE58FF4F8F4F0C943922D50153968C9180
S11303305397816053968C9353972A813B811C96E3
S11303406D917C911D97620F731FC5010E94CD11A1
S11303508823E1F1D5015096ED91FC915197C501A7
S11303601995F501838982FF31C04A815B818485B7
S11303709585480F591F0E2D1F2D2E2D3F2D652DB0
S1130380C5010E94451222C0D50153968C91539702
S11303908E7F53968C931AC0F50183898160838B79
S11303A06A817B8175876487640F751F9A01C50113
S11303B00E94CD110BC0D50153968C9181FD03C0D1
S11303C0C501B5D203C08E7FF501838B4E2D5F2D01
S11303D06C2D7D2D8091FE079091FF07C1D6811170
S11303E083CF21CF0E943A0DC4010E948C128C014C
S11303F08981811176CFE0910008F0910108808114
S1130400442D8111452DAE2CBF2C5DCF11241FBE70
S1130410CFEFD1E2DEBFCDBF00E00CBF17E0A0E01C
S1130420B2E0E4EBFDE400E00BBF02C007900D92E4
S1130430AA38B107D9F729E0AAE8B7E001C01D92AC
S1130440A13EB207E1F7ADD10C94D826D9CD809165
S113045051099091520918161906CCF786E090E0DC
S11304600E94810E809151099091520901979093B5
S11304705209809351091816190684F3E8CF809322
S1130480B7099093B8099F938F938EE492E09F935A
S11304908F930E94BA230F900F900F900F9008959E
S11304A00F2EFDE5EF2EF2E0FF2EF02D02E712E015
S11304B0C7E8D2E08EE390E00E94810E0E94D31739
S11304C0282F30E02115310569F02330310551F032
S11304D01F928F93FF92EF920E94BA230F900F9076
S11304E00F900F9086E090E00E94810E0E94E71723
S11304F0282F30E02115310569F02330310551F002
S11305001F928F931F930F930E94BA230F900F9003
S11305100F900F9086E090E00E94810E0E94F717E2
S11305200E9415137093C0096093BF090E940C18B0
S11305300E9415136093B9097093BA097F936F935E
S11305408091C0098F938091BF098F93DF93CF93DC
S11305500E94BA230F900F900F900F900F900F905E
S1130560A9CFCAE9D2E08EE390E00E94810E0E94F6
S11305700B1D90E00097B9F39F938F93DF93CF9374
S11305800E94BA230F900F900F900F90ECCFC9EAFE
S1130590D2E08EE390E00E94810E0E94CA1D90E09A
S11305A00097B9F39F938F93DF93CF930E94BA235D
S11305B00F900F900F900F90ECCFCF93DF9300D05C
S11305C01F92CDB7DEB7813029F089EC92E00E940A
S11305D0CD2325C0CE0101960E94DC1D81111BC0D4
S11305E069817A818B819C816093BB097093BC097A
S11305F08093BD099093BE090E941A137F936F9351
S113060080EE92E09F938F930E94BA230F900F90F5
S11306100F900F9004C08BEE92E00E94CD230F90B8
S11306200F900F900F90DF91CF910895EF92FF926A
S11306301F93CF93DF930E947F1A0E94281C9F93DD
S11306408F9388EF92E09F938F930E94BA230E9426
S1130650301B0E94281C9F938F938AE093E09F9302
S11306608F930E94BA2383E599E00E94911A0E9415
S1130670281CC3E5D9E0DF93CF939F938F9383E244
S113068093E09F938F930E94BA23CE010E94AD1AE8
S11306900E94281C9F938F93DF93CF9388E393E06A
S11306A09F938F930E94BA23AE0167E373E0CB015B
S11306B00E94031C0E94281C9F938F93DF93CF9367
S11306C087E393E09F938F939F938F938DE493E0BD
S11306D09F938F930E94BA230E94E01A0E94281CC1
S11306E09F938F9383E893E09F938F930E94BA2301
S11306F08DB79EB782960FB6F8949EBF0FBE8DBF7E
S113070081E00E94091B0E94281C9F938F9382E919
S113071093E09F938F930E94BA230F900F900F90B2
S11307200F90C5E0D0E00F2EF3EBEF2EF3E0FF2E99
S1130730F02D80E00E94E61A182F0E94281C9F9337
S11307408F93DF93CF93FF92EF920E94BA230F907F
S11307500F900F900F900F900F90183031F08FE2A0
S113076090E00E94810E219721F7DF91CF911F9194
S1130770FF90EF90089581E00E946B1A82E090E070
S11307800E94810E80E00E946B1A86E990E00E942C
S1130790810E0E94281A4ADF8FE290E00E94810EA7
S11307A0FBCFEF92FF920F9383E00E945D1781E0ED
S11307B00E942F1A80E00E948D1378948FEF87B9DE
S11307C02FEF80E792E0215080409040E1F700C095
S11307D0000081E088B90F2EF2E9EF2EF7E0FF2E3A
S11307E0F02D01E020E030E040EC50E063ED73E0F8
S11307F080E592E0FDD70F2EF0E9EF2EF7E0FF2E13
S1130800F02D20E030E040EC50E06BEE73E081EB43
S113081092E0EED70F2EFEE8EF2EF7E0FF2EF02D3C
S113082020E030E040EC50E06BEF73E087EC92E0C6
S1130830DFD70F2EFCE8EF2EF7E0FF2EF02D20E09F
S113084030E040EC50E06DE074E087E292E0D0D715
S11308500F2EFAE8EF2EF7E0FF2EF02D03E020E054
S113086030E040EC50E069E174E08BEB93E0C0D7FA
S113087080E00E948D1378940E94BC1781112AC0D5
S11308806FE372E083E00E94DC1C8DED92E00E9435
S11308909A1D882361F01F928F9385E494E09F93BF
S11308A08F930E94BA230F900F900F900F900E9485
S11308B0B51D882361F01F928F938CE694E09F937B
S11308C08F930E94BA230F900F900F900F900E9465
S11308D0080DFFCF8DE194E00E94CD2381E090E0EC
S11308E00F91FF90EF900895E8E0F1E09081907F00
S11308F0908390818F70982B90830895E8E0F1E0C5
S11309008081807F80830895CF93DF93EC010E94E0
S11309103A0DCE010E945B22EC010E94040E209746
S113092011F40E94FB12CE01DF91CF910895CF9371
S1130930DF93009741F0EC010E943A0DCE010E9432
S1130940F3220E94040EDF91CF910895FC010396D7
S1130950928381832FEF3FEF3483238396838583B0
S11309609087878310820895FC011186108608956C
S1130970CF93DF939C01FB01DC011196CD91DC91B7
S11309801297D383C2838C819D81958384838C81C8
S11309909D81DC0113967C936E9312977D836C8307
S11309A031872087F90180818F5F8083DF91CF9128
S11309B00895CF93DF93EB01488159814F3F2FEF87
S11309C0520721F4FC01A781B0850DC0DC01139608
S11309D001C0DF011296ED91FC91139720813181C2
S11309E042175307B0F71296ED91FC911397FB83CE
S11309F0EA83D583C483BD83AC831396DC93CE93FF
S1130A00129799878887FC0120812F5F2083DF91CB
S1130A10CF910895CF93DF93FC01A085B185C28166
S1130A20D381848195819D838C83C481D581828186
S1130A3093819B838A8311968D919C911297E817D9
S1130A40F90731F48481958112969C938E931197C2
S1130A50118610868C9181508C938C91DF91CF916B
S1130A60089531E1FC013083319722E220833197EC
S1130A70A3E3A08331976083319770833197108209
S1130A8031971082319760E86083319710823197F3
S1130A90108231971082319762E06083319763E06E
S1130AA06083319764E06083319765E060833197B8
S1130AB066E06083319767E06083319768E0608324
S1130AC0319769E06083319760E1608331973083C7
S1130AD0319732E13083319733E13083319734E118
S1130AE03083319735E13083319736E13083319764
S1130AF037E13083319738E13083319739E13083FE
S1130B00319730E23083319731E23083319720835B
S1130B10319723E220833197408331975083319773
S1130B2026E22083319727E22083319728E220832D
S1130B30319729E22083319720E32083319721E301
S1130B40208389970895A89590EC88E10FB6F894CE
S1130B50A895809360000FBE90936000A091F80761
S1130B60B091F907CD91CDBFDD91DEBFFF91EF913B
S1130B70DF91CF91BF91AF919F918F917F916F91B1
S1130B805F914F913F912F911F910F91FF90EF90A3
S1130B90DF90CF90BF90AF909F908F907F906F9099
S1130BA05F904F903F902F901F900F900CBE0F902E
S1130BB00BBE0F900FBE0F90089581E008950F9221
S1130BC00FB6F8940F920BB60F920CB60F921F92B9
S1130BD011242F923F924F925F926F927F928F9245
S1130BE09F92AF92BF92CF92DF92EF92FF920F93B8
S1130BF01F932F933F934F935F936F937F938F93A1
S1130C009F93AF93BF93CF93DF93EF93FF93A09101
S1130C10F807B091F9070DB60D920EB60D920E9429
S1130C20920EA091F807B091F907CD91CDBFDD9157
S1130C30DEBFFF91EF91DF91CF91BF91AF919F9173
S1130C408F917F916F915F914F913F912F911F9160
S1130C500F91FF90EF90DF90CF90BF90AF909F9057
S1130C608F907F906F905F904F903F902F901F9048
S1130C700F900CBE0F900BBE0F900FBE0F900895F7
S1130C800F920FB6F8940F920BB60F920CB60F9208
S1130C901F9211242F923F924F925F926F927F92F4
S1130CA08F929F92AF92BF92CF92DF92EF92FF9278
S1130CB00F931F932F933F934F935F936F937F9360
S1130CC08F939F93AF93BF93CF93DF93EF93FF9350
S1130CD0A091F807B091F9070DB60D920EB60D92DA
S1130CE013BED8D681110E94920EA091F807B0913C
S1130CF0F907CD91CDBFDD91DEBFFF91EF91DF917B
S1130D00CF91BF91AF919F918F917F916F915F919F
S1130D104F913F912F911F910F91FF90EF90DF9092
S1130D20CF90BF90AF909F908F907F906F905F9087
S1130D304F903F902F901F900F900CBE0F900BBEC2
S1130D400F900FBE0F9008959BDF18950FB6F8947F
S1130D500F92FC01928D0F900FBE81E0911180E003
S1130D6008950F931F93CF93DF93EC01042F1A8DF3
S1130D704C8D41110CC088819981892B09F042C0A6
S1130D808C819D810E94E80F1D821C8242C001114A
S1130D9017C050E08A819B810E9480232C8D8A8118
S1130DA09B81820F911D9B838A832C813D818217B5
S1130DB0930750F1888199819B838A8380E029C0BD
S1130DC050E08E819F810E9480238C8D90E09195CC
S1130DD0819591092E813F81280F391F3F832E83EE
S1130DE0488159812417350730F42C813D81820FC5
S1130DF0931F9F838E83023049F4112349F01150CD
S1130E0080E007C080E005C080E003C080E001C04E
S1130E1080E01F5F1A8FDF91CF911F910F9108958A
S1130E20FC01448D4423A9F050E026813781240F2E
S1130E30351F37832683848195812817390720F04D
S1130E408081918197838683CB01668177810C941D
S1130E5080230895EF92FF920F931F93CF938C01F9
S1130E600FB6F8940F92FC01C68D1C16ACF4818960
S1130E70811106C011C0F8018189811105C00CC01F
S1130E807801F1E1EF0EF11CC7010E94490F8111B5
S1130E900E94D10FC15079F78FEFF801868F0F9020
S1130EA00FBE0FB6F8940F92C58D1C16A4F480855E
S1130EB0811106C010C0F8018085811105C00BC0E6
S1130EC07801F8E0EF0EF11CC701E3D781110E940D
S1130ED0D10FC15081F78FEFF801858F0F900FBEAE
S1130EE0CF911F910F91FF90EF900895CF93DF93CF
S1130EF0EC010FB6F8940F92E881F9818B8D2C8D5B
S1130F0090E030E0829FA001839F500D929F500D8E
S1130F1011244E0F5F1F5D834C831A8EFB83EA837B
S1130F200197829FA001839F500D929F500D112421
S1130F30CF01840F951F9F838E838FEF8D8F8E8FAC
S1130F4061110AC08885882369F0CE010896A1D76B
S1130F50882341F034DE06C0CE010896F7DCCE01CA
S1130F604196F4DC0F900FBE81E0DF91CF9108959C
S1130F70FF920F931F93CF93DF93082F162FF42E16
S1130F806623B9F0869FC00111248196BDDCEC0173
S1130F90009741F414C00B8F1C8F61E0CE01A6DFD3
S1130FA0F8A20DC0819699838883F5CFD983C8832D
S1130FB0F2CF81E290E0A8DCEC01892BB9F7CE01F5
S1130FC0DF91CF911F910F91FF9008959F92AF925F
S1130FD0BF92CF92DF92EF92FF920F931F93CF9322
S1130FE0DF9300D01F921F92CDB7DEB78C016B0147
S1130FF05D834C83A22EB12C992493947C0188E0C8
S1131000E80EF11C0FB6F8940F92F801928D838DBF
S1131010981718F0F2E0AF1215C04A2DB601C801B6
S1131020A0DEF8019189992339F0C801419631D79E
S1131030882321F0C4DD02C08111C1DD0F900FBEF1
S113104081E045C08C819D81892B21F40F900FBED6
S113105080E03DC0B11004C0CE01019662D7B92C26
S11310600F900FBE07D50FB6F8940F92F801858D37
S11310708F3F09F4158EF801868D8F3F09F4168E83
S11310800F900FBEBE016C5F7F4FCE01019654D707
S1131090811119C00FB6F8940F92F801928D838DC7
S11310A00F900FBE98130BC06C817D81C701C8D609
S11310B0C801D0DEA9D58111A5CF81DDA3CFC80198
S11310C0C9DEA2D59FCFC801C5DE9ED580E00F90B2
S11310D00F900F900F900F90DF91CF911F910F9170
S11310E0FF90EF90DF90CF90BF90AF909F900895C6
S11310F0EF92FF920F931F93CF93DF938A01FC012A
S1131100528D338D531710F02230E1F4422F7801C1
S1131110EC011E8D26DE1F3F79F489898823A1F016
S1131120CE014196B6D6882389F0E114F10481F00A
S113113081E0F70180830DC0FF24F394F10EFE8E4D
S113114081E007C080E005C081E003C081E001C008
S113115081E0DF91CF911F910F91FF90EF9008955F
S11311609F92AF92BF92CF92DF92EF92FF920F9332
S11311701F93CF93DF9300D01F921F92CDB7DEB79A
S11311808C015B015D834C83E12C992493946C0165
S113119081E1C80ED11C0FB6F8940F92F801F28CBD
S11311A0FF2091F0B501C8013BDEFA94F801F28EFC
S11311B08085882329F0C80108966BD68111FFDC4D
S11311C00F900FBE81E044C08C819D81892B21F456
S11311D00F900FBE80E03CC0E11004C0CE01019628
S11311E0A0D6E92C0F900FBE45D40FB6F8940F92F9
S11311F0F801858D8F3F09F4158EF801868D8F3F98
S113120009F4168E0F900FBEBE016C5F7F4FCE01A6
S1131210019692D6811113C0C80198DD882359F034
S11312206C817D81C6010CD6C80114DEEDD4811118
S1131230B2CFC5DCB0CFC8010DDEE6D4ACCFC80157
S113124009DEE2D4C80182DD882309F4A4CF80E05A
S11312500F900F900F900F900F90DF91CF911F91EF
S11312600F91FF90EF90DF90CF90BF90AF909F9041
S11312700895CF93DF93EC010FB6F8940F928D8D00
S11312808F3F09F41D8E8E8D8F3F09F41E8E0F90B3
S11312900FBE8A8D811103C0CE014196E2D5CE01E5
S11312A0D9DDDF91CF910895FC01448155812281DC
S11312B03381240F351F80819181B901681B790B1B
S11312C0CB016417750710F0841B950B0895AF923A
S11312D0BF92CF92DF92EF92FF920F931F93CF931F
S11312E0DF936C015B017A01FC01C281D38104812B
S11312F015810C1B1D0B4017510708F48A01F601D8
S113130084859585A801B5018C0F9D1F0E948023BB
S11313100E151F0558F4A701401B510BB501600FB2
S1131320711FF601848595850E948023CE018E0D60
S11313309F1DF601248135818217930710F0821BCB
S1131340930BF60193838283C701DF91CF911F91A1
S11313500F91FF90EF90DF90CF90BF90AF900895E2
S1131360CF92DF92EF92FF920F931F93CF93DF936D
S11313701F921F92CDB7DEB75A83498321153105D9
S1131380C9F06B017C01FC01868580FD08C0CA019F
S11313902417350708F4C9019A83898311C02017DB
S11313A0310758F042E050E0BE016F5F7F4FC70144
S11313B08EDF06C080E090E008C080E090E005C0C9
S11313C049815A81B601C70182DF0F900F90DF91E6
S11313D0CF911F910F91FF90EF90DF90CF900895E0
S11313E0AF92BF92CF92DF92EF92FF920F931F932F
S11313F0CF93DF937C015B01E9014217530708F4A3
S1131400EA01209779F1F70100811181C480D58028
S1131410C01AD10ACC15DD0508F46E01F701648504
S11314207585600F711FA601C5010E948023CC162B
S1131430DD0658F4AE014C195D09F7016485758524
S1131440C5018C0D9D1D0E9480230C0F1D1FF701EB
S1131450848195810817190710F0081B190BF701EF
S113146011830083CE01DF91CF911F910F91FF90E3
S1131470EF90DF90CF90BF90AF900895EF92FF92DE
S11314801F93CF93DF93EB0111E0413009F010E09B
S1131490209711F4C1E0D0E07C012FEFE21AF20AA8
S11314A0419632DA009781F020E1FC0111922A95ED
S11314B0E9F79C01205F3F4FFC0135872487F582C3
S11314C0E482D783C6831687DF91CF911F91FF9063
S11314D0EF900895CF93DF93FC0127850FB6F8941E
S11314E00F9280859185892BD1F482859385892BF0
S11314F0C1F486854681578164817581A485B5854B
S113150090E1EF0119929A95E9F7B587A48775835D
S11315106483578346838687278781E003C080E0FE
S113152001C080E00F900FBEDF91CF910895FC01C0
S1131530248135818081918142815381820F931F5F
S11315400197841B950B8217930710F0821B930B52
S11315500895AF92BF92CF92DF92EF92FF920F93D2
S11315601F93CF93DF93EC015B016A0179018E85B0
S113157080FF04C08A010E5F1F4F01C08A01CE01A3
S1131580D6DF9C01A601B501CE01EADE6C01892BF0
S1131590B1F0CE0189DE2E813F818217930778F066
S11315A088859985892B59F08885998500E010E014
S11315B020E040E050E0BA014CD619861886C601F6
S11315C0DF91CF911F910F91FF90EF90DF90CF901B
S11315D0BF90AF9008956F927F928F929F92AF9237
S11315E0BF92CF92DF92EF92FF920F931F93CF930C
S11315F0DF931F921F92CDB7DEB76C013B014A0106
S11316007901FC01868580FD03C0A12CB12C04C0A6
S11316106894AA24A1F8B12CE114F10429F10FB6BD
S1131620F8940F92C60140DE8C01A816B90638F072
S113163080E090E09ED6B9D4F601918780870F9020
S11316400FBEA016B106B0F000E010E020E030E0DC
S1131650A90160E070E0CB01FBD4F601118610868D
S1131660C60122DE8C0103C0C6011EDE8C01A01659
S1131670B106B8F5A114B104C1F0F601E080F1801F
S11316809801A501BE016F5F7F4FC601A9DE898164
S11316909A810A191B098816990630F4F601F18219
S11316A0E082812C912C01C04C019801A401B3016A
S11316B0C60196DE7C01892BB1F0DCD1F60182856E
S11316C09385892B61F08285938500E010E020E00A
S11316D040E050E0BA013FD5F6011386128694D259
S11316E002C0E12CF12CC7010F900F90DF91CF9134
S11316F01F910F91FF90EF90DF90CF90BF90AF902C
S11317009F908F907F906F900895E091C007F09123
S1131710C1078081811107C08FEF9FEF90939807D5
S1131720809397070895E091C007F091C107058061
S1131730F681E02D0680F781E02D828193819093DC
S11317409807809397070895FF920F931F93CF9361
S1131750DF93EC01F62E00919F071091A007809172
S1131760F8079091F907029655D9CF3F8FEFD80724
S113177061F4FF2051F06091F8077091F9076E5FF2
S11317807F4F82EA97E0F4D82DC0C00FD11FE091BB
S1131790F807F091F907D383C283C017D10760F427
S11317A06091F8077091F9078091BE079091BF0787
S11317B06E5F7F4FFED816C06091F8077091F907ED
S11317C08091C0079091C1076E5F7F4FF2D88091DE
S11317D0970790919807C817D90720F4D0939807D2
S11317E0C0939707DF91CF911F910F91FF900895B8
S11317F04F925F926F927F928F929F92AF92BF921D
S1131800CF92DF92EF92FF920F93CF93DF934C012D
S11318106B015A012901CA0177D83C01892B09F4CB
S1131820E6C08CE290E070D8EC01892B99F0788EB8
S11318306F8AA50165EA70E0C3010E94892381E0F3
S1131840A81AB1088F89988DA80EB91EC114D104A5
S113185021F41FC0C3016BD8CAC0D6018C91898FF3
S11318608C918823A1F0AE01465E5F4FF60131965C
S1131870B8E0CB0ED11CCF012191DA012D93AD013B
S1131880DC018C91882319F0EC15FD05A1F718A251
S113189001C0198E043008F003E00E8B0BA31CA2C8
S11318A06E01B2E0CB0ED11CC6015ED8CE010C96FF
S11318B05BD8D987C88784E090E0801B91099D8715
S11318C08C87DB8BCA8B1EA21DA21FA218A619A689
S11318D01AA61BA6A201B401C501C3D899838883A3
S11318E0E114F10419F0F701D183C0830FB6F89421
S11318F00F928091A1078F5F8093A1078091F807D1
S11319009091F907892B91F5D093F907C093F807C3
S11319108091A107813009F039C084ED97E016D891
S11319208DED97E013D886EE97E010D88FEE97E010
S11319300DD88BEC97E00AD882EC97E007D885EBBA
S113194097E004D88CEA97E001D882EA97E00E94F5
S1131950A6048BEC97E09093C1078093C00782ECB8
S113196097E09093BF078093BE0710C080919D07B6
S113197081110CC0E091F807F091F90796898E89DE
S1131980891720F0D093F907C093F807809199073D
S11319908F5F8093990789A38E8990919E079817EA
S11319A010F480939E0790E09C01220F331F220FB6
S11319B0331F220F331F820F931FB6018C52984F8F
S11319C00E94B8040F900FBE80919D07882359F0A0
S11319D0E091F807F091F90796898E89981728F411
S11319E0EED881E005C081E003C081E001C08FEF43
S11319F0DF91CF910F91FF90EF90DF90CF90BF9048
S1131A00AF909F908F907F906F905F904F900895CC
S1131A10EF92FF920F930F2EF5E9EF2EF7E0FF2ED2
S1131A20F02D00E020E030E040EC50E06EE874E09F
S1131A308DEC90E0DDDE8130C9F407D58130B1F45E
S1131A40F8948FEF9FEF909398078093970781E026
S1131A5080939D071092A00710929F07E091F807CA
S1131A60F091F90785A10E9474046DD80F91FF903D
S1131A70EF900895809194078F5F80939407089561
S1131A800FB6F8940F9280919F079091A0070F9042
S1131A900FBE0895CF92DF92EF92FF920F931F93A0
S1131AA0CF93DF9380919407811198C0E0909F07B2
S1131AB0F090A0078FEFE81AF80AF092A007E092DE
S1131AC09F07E114F104B1F48091C0079091C1071C
S1131AD02091BE073091BF073093C1072093C00700
S1131AE09093BF078093BE0780919A078F5F80937E
S1131AF09A070BDE8091970790919807E816F906EC
S1131B0010F4D12C53C0D12CCC24C394E091C00741
S1131B10F091C1078081811107C08FEF9FEF9093EF
S1131B2098078093970742C0E091C007F091C107DE
S1131B300580F681E02DC681D7818A819B81E816D4
S1131B40F90628F490939807809397072FC08E0185
S1131B500E5F1F4FC8010E940A058C899D89892B3D
S1131B6021F0CE010C960E940A058E8990919E0761
S1131B70981710F480939E0790E09C01220F331F66
S1131B80220F331F220F331F820F931FB8018C5271
S1131B90984F0E94B804E091F807F091F9079E89E4
S1131BA08689981708F4B2CFDC2CB0CFE091F807FF
S1131BB0F091F907868990E0FC01EE0FFF1FEE0F0C
S1131BC0FF1FEE0FFF1F8E0F9F1FFC01EC52F84FFB
S1131BD08081823048F0DD24D39406C080919C0734
S1131BE08F5F80939C07D12C80919B07882311F0F1
S1131BF0DD24D3948D2DDF91CF911F910F91FF9010
S1131C00EF90DF90CF900895DF92EF92FF920F93C1
S1131C101F93CF93DF930FB6F8940F92809194079C
S1131C208150809394078091940781115DC08091C5
S1131C30A107811133C05BC0D7011596ED91FC91CA
S1131C401697C681D781CE010C960E940A058E0193
S1131C500E5F1F4FC8010E940A058E8990919E074E
S1131C60981710F480939E0790E09C01220F331F75
S1131C70220F331F220F331F820F931FB8018C5280
S1131C80984F0E94B804E091F807F091F9079E89F3
S1131C908689981768F0D0929B070AC0C0E0D0E00C
S1131CA00F2EF5EBEF2EF7E0FF2EF02DDD24D3946D
S1131CB0F70180818111C0CFCD2B09F026DDC091C1
S1131CC09C07CC2349F0D1E0E5DE8111D0939B073A
S1131CD0C150D1F710929C0780919B07882331F063
S1131CE00E94DF0581E003C080E001C080E00F9026
S1131CF00FBEDF91CF911F910F91FF90EF90DF9076
S1131D000895CF93DF93EC01892B39F0B3DE60E0C3
S1131D10CE011ADD79DF811102C00E94DF05DF9157
S1131D20CF91089580919407882321F081E08093D6
S1131D309B07089510929B07E091F807F091F9072B
S1131D4085A10E947E04A091F807B091F907E09163
S1131D50F807F091F9072D913C918789908D8217AE
S1131D60930758F06091F8077091F9078091F8078C
S1131D709091F907675E7F4F4BD420919E07822F85
S1131D8090E0FC01EE0FFF1FEE0FFF1FEE0FFF1F91
S1131D90E80FF91FEC52F84F3081311111C0215076
S1131DA0822F90E0FC01EE0FFF1FEE0FFF1FEE0FDE
S1131DB0FF1FE80FF91FEC52F84F3081332379F3FA
S1131DC0AC01440F551F440F551F440F551F480FB6
S1131DD0591FDA01AC52B84F1196ED91FC9112974C
S1131DE00280F381E02D1296FC93EE9311974952F1
S1131DF0584FE417F50729F442815381FD015283BA
S1131E004183FC01EE0FFF1FEE0FFF1FEE0FFF1FBC
S1131E108E0F9F1FFC01EC52F84F0180F281E02DE0
S1131E20868197819093F9078093F80720939E0702
S1131E30E091F807F091F90785A10C9474040895D2
S1131E40CF93DF93EB016091F8077091F907645F1A
S1131E507F4F0E94D90461E0CE0176DCDF91CF91FF
S1131E6008950F931F93CF938B01C42F6091F807AC
S1131E707091F907645F7F4F0E94B804CC2311F07E
S1131E800FEF1FEF6C2FC8015FDCCF911F910F91F3
S1131E9008950F931F93CF93DF93DC011596ED9173
S1131EA0FC911697C681D7818E01045F1F4FC8012C
S1131EB00E940A058091940781111CC00A501109DF
S1131EC0C8010E940A058E8990919E07981710F404
S1131ED080939E0790E09C01220F331F220F331F33
S1131EE0220F331F820F931FB8018C52984F0E9408
S1131EF0B80405C0B80185EB97E00E94B804E091EE
S1131F00F807F091F9079E898689891720F481E002
S1131F1080939B0701C080E0DF91CF911F910F91C7
S1131F20089520919A07FC01208320919F07309106
S1131F30A007328321830895CF93DF930FB6F894DB
S1131F400F9220919F073091A007DB014D915C9186
S1131F504F3FBFEF5B07E9F0EC01E981FA81A09103
S1131F609A07B881BA1719F02E173F07A0F42E1B51
S1131F703F0B2417350740F4FB01421B530B5183DD
S1131F804083CFDF80E008C0FB011182108281E032
S1131F9003C080E001C081E00F900FBEDF91CF91BC
S1131FA0089581E080939B0708958091F8079091AC
S1131FB0F907089580919D07882331F08091940753
S1131FC0882321F080E0089581E0089582E0089557
S1131FD00F931F93CF93DF93FC01892B79F184A195
S1131FE0815084A3268993A1291751F181112AC014
S1131FF0EF018F010E5F1F4FC8010E940A058BA1DC
S11320008E8B24E030E0281B31093D872C8790918A
S11320109E07981710F480939E0790E09C01220F6E
S1132020331F220F331F220F331F820F931FB80158
S11320308C52984F0E94B80481E005C080E003C030
S113204080E001C080E0DF91CF911F910F9108954E
S11320504F925F926F927F928F929F92AF92BF92B4
S1132060EF92FF920F931F9349015A010FB6F89410
S11320700F92E091F807F091F90723A5223021F19E
S1132080E091F807F091F90747A050A461A472A465
S1132090DC01CB0180959095A095B0958421952184
S11320A0A621B72187A390A7A1A7B2A7E091F8071B
S11320B0F091F90781E083A7E114F10429F061E0CC
S11320C0C70142DB0E94DF050F900FBE0FB6F894E4
S11320D00F920115110569F0E091F807F091F907E5
S11320E087A190A5A1A5B2A5F80180839183A283BD
S11320F0B383E091F807F091F90783A58230B1F436
S1132100E091F807F091F90787A190A5A1A5B2A5E0
S113211080949094A094B09488229922AA22BB22FD
S113212087A290A6A1A6B2A681E001C080E0E091BA
S1132130F807F091F90713A60F900FBE1F910F91A6
S1132140FF90EF90BF90AF909F908F907F906F9093
S11321505F904F9008950F931F93CF93DF93FC01EB
S11321600FB6F8940F920115110549F087A190A5B7
S1132170A1A5B2A5E80188839983AA83BB8383A51B
S113218092E093A72230B1F018F4213031F02AC044
S11321902330E9F0243001F125C007A110A521A5C1
S11321A032A5402B512B622B732B47A350A761A759
S11321B072A718C047A150A561A572A54F5F5F4FD4
S11321C06F4F7F4F47A350A761A772A70BC047A3C8
S11321D050A761A772A706C0823079F147A350A720
S11321E061A772A7813059F5EF018F010E5F1F4F70
S11321F0C8010E940A058E8990919E07981710F4D1
S113220080939E0790E09C01220F331F220F331FFF
S1132210220F331F820F931FB8018C52984F0E94D4
S1132220B804E091F807F091F9079E898689891727
S113223040F40E94DF0581E005C080E003C081E036
S113224001C081E00F900FBEDF91CF911F910F91DC
S11322500895EF92FF920F931F93CF93DF93FC01A6
S11322600115110549F087A190A5A1A5B2A5E80122
S113227088839983AA83BB8383A592E093A72230A2
S1132280B1F018F4213031F02BC02330E9F02430C0
S113229001F126C007A110A521A532A5402B512B81
S11322A0622B732B47A350A761A772A719C047A13C
S11322B050A561A572A54F5F5F4F6F4F7F4F47A336
S11322C050A761A772A70CC047A350A761A772A724
S11322D007C0823009F441C047A350A761A772A781
S11322E08130E9F5EF018091940781111DC08F01C0
S11322F00E5F1F4FC8010E940A058E8990919E07A8
S1132300981710F480939E0790E09C01220F331FCE
S1132310220F331F220F331F820F931FB8018C52D9
S1132320984F0E94B80407C0BF01645F7F4F85EBDC
S113233097E00E94B804E091F807F091F9079E89AC
S11323408689891770F4E114F10419F081E0F7012A
S1132350808381E080939B0705C080E003C081E017
S113236001C081E0DF91CF911F910F91FF90EF9019
S11323700895009721F48091F8079091F9070FB61A
S1132380F8940F92FC0123A5223019F413A681E0DE
S113239001C080E00F900FBE0895FC017383628337
S11323A0918780874617570790F0421B530B84850B
S11323B0958548175907E0F4BF016E5F7F4F809100
S11323C00008909101080E94D90480E00895421702
S11323D0530718F46217730768F4BF016E5F7F4FE9
S11323E080910208909103080E94D90480E0089526
S11323F081E0089581E008950FB6F8940F928091DA
S1132400FE079091FF07892BE9F48DE098E00E9484
S1132410A60484E098E00E94A6048DE098E09093DE
S113242003088093020884E098E090930108809365
S1132430000840E065E08AE00E94B8079093FF0737
S11324408093FE070F900FBE0895EF92FF920F93B3
S1132450D3DF8091FE079091FF07892B89F00F2E1F
S1132460FCEFEF2EF7E0FF2EF02D06E020E030E049
S113247045E550E063E974E083E091E0B9D901C037
S113248080E00F91FF90EF9008950F931F93CF93E7
S1132490DF9300D01F921F92CDB7DEB7E091FE0705
S11324A0F091FF07309769F1D90169835B834A830F
S11324B09D838C836630E4F47DDD823061F420E01A
S11324C0A801BE016F5F7F4F8091FE079091FF07C7
S11324D00E94E60717C020E040E050E0BE016F5FB5
S11324E07F4F8091FE079091FF070E94E6070AC084
S11324F020E0AD01BE016F5F7F4FCF010E947808DD
S113250001C080E00F900F900F900F900F90DF911B
S1132510CF911F910F910895AF92BF92CF92DF9206
S1132520EF92FF920F931F93CF93DF936C01A8DA7E
S11325307C018091FA079091FB07E816F90608F0F0
S113254047C02FC00580F681E02DA080B180C681F0
S1132550D7818E010E5F1F4FC8010E940A05E889CA
S1132560F989CE0119958B8982FF1BC08C859D85C5
S11325708A0D9B1DA816B90660F49B838A83D987AC
S1132580C887B80180910208909103080E94D90479
S113259008C000E010E020E030E0A50160E0CE01DA
S11325A074DFE0910208F091030880818111CACFA1
S11325B08091000890910108909303088093020889
S11325C0F0930108E093000881E0F601808302C0E3
S11325D0F6011082F092FB07E092FA07C701DF913F
S11325E0CF911F910F91FF90EF90DF90CF90BF900C
S11325F0AF9008950895279A2F9A2FEF80E792E0DD
S1132600215080409040E1F700C000001F9AF5CFB0
S1132610279A2F9A2FEF87EA91E621508040904025
S1132620E1F700C000001F9AF5CF04D06894B111FF
S113263050C0089533D088F09F5790F0B92F992750
S1132640B751A0F0D1F0660F771F881F991F1AF0B9
S1132650BA95C9F712C0B13081F03AD0B1E008950B
S113266037C0672F782F8827B85F39F0B93FCCF38C
S1132670869577956795B395D9F73EF490958095AF
S1132680709561957F4F8F4F9F4F089557FD9058D8
S1132690440F551F59F05F3F71F04795880F97FB22
S11326A0991F61F09F3F79F08795089512161306DC
S11326B01406551FF2CF4695F1DF08C0161617060B
S11326C01806991FF1CF8695710561050894089540
S11326D0E894BB2766277727CB0197F90895CF9312
S11326E0DF931F92CDB7DEB7BE016F5F7F4F80913E
S11326F01608909117084ED18111F6CF898190E088
S11327000F90DF91CF910895682F809116089091D2
S11327101708CBD080E090E008958F929F92AF92FB
S1132720CF92EF920F93812C912C6894AA24A7F84E
S11327306894CC24C7F8E12C00E023E040E051EE9B
S113274060E070E013D09093170880931608EBEDC7
S1132750F9E086E092E091838083938382830F91F2
S1132760EF90CF90AF909F908F9008952F923F92CB
S11327704F925F926F927F928F929F92AF92CF927D
S1132780EF92FF920F931F93CF93DF93CDB7DEB7F2
S1132790F82E2A013B0188E090E00E945B228C0124
S11327A08F2D90E0880F991FFC01E85EF74F11838D
S11327B00083FC01EC5EFD4F80819181D8018D93F3
S11327C09C936C2D70E084E090E00E9441221C01F7
S11327D061E070E086E090E00E9441227C014C2D93
S11327E0B1014CD3F801F582E4826A2D70E084E0F3
S11327F090E00E9441221C0161E070E086E090E0DC
S11328000E9441227C014A2DB10138D3D80113968C
S1132810FC92EE92129717969C928E921697FFB6A0
S1132820F894ED91FC9111973697808182608083B2
S11328308D909C90C301B2010E94242120E030E0DD
S113284040E051E40E948D219B01AC0160E074E200
S113285084E79BE40E94B92020E030E040E85FE395
S11328600E945220E7DEF40132976083D801ED9193
S1132870FC911197359788E98083ED91FC91349709
S113288086E08083FFBEC801DF91CF911F910F9135
S1132890FF90EF90CF90AF909F908F907F906F902C
S11328A05F904F903F902F900895CF93DF93EC016A
S11328B0EA81FB81938182812581981B9223848103
S11328C09817A1F0938126952923A081B181A20FA5
S11328D0B11D6C939F5F258192239383E881F981D5
S11328E0359780818062808380E001C082E0DF913F
S11328F0CF910895EF92FF920F931F93CF93DF939D
S11329007C01DC011296ED91FC91139793818281F5
S1132910981B858198238481891B861798F16623E7
S113292041F1842F952FDC016150462F50E04F5F19
S11329305F4F480F591FE701EA81FB819381828130
S11329402581981B92238481981779F08C91938127
S113295026952923608171818B01020F111DE801E5
S113296088839F5F8581982393831196A417B50765
S113297011F7D701ED91FC913597808180628083B6
S113298080E001C082E0DF91CF911F910F91FF9011
S1132990EF900895DC011496ED91FC9115979381C5
S11329A08281981789F09281858186958923A081F7
S11329B0B181A80FB11D8C91DB018C939F5F858140
S11329C09823928380E0089583E008951F920F92E4
S11329D00FB60F9211240BB60F922F933F934F9380
S11329E05F936F937F938F939F93AF93BF93CF9393
S11329F0DF93EF93FF93A0911808B09119081097F3
S1132A0011F16091C6001496ED91FC911597938194
S1132A1082812581981B92238481981761F0838198
S1132A2026952823C081D181C20FD11D68838F5F71
S1132A309581892383831696ED91FC91179730979E
S1132A4011F0CD011995FF91EF91DF91CF91BF91D5
S1132A50AF919F918F917F916F915F914F913F9132
S1132A602F910F900BBE0F900FBE0F901F901895D3
S1132A701F920F920FB60F9211240BB60F922F9341
S1132A808F939F93AF93BF93EF93FF93E0911808B5
S1132A90F09119083097B9F00280F381E02D938109
S1132AA082819817B1F092818581282F2695292358
S1132AB0A081B181A20FB11D2C919F5F89238283D4
S1132AC02093C6000BC0E1ECF0E080818F7D808311
S1132AD005C0E1ECF0E080818F7D8083FF91EF9170
S1132AE0BF91AF919F918F912F910F900BBE0F903B
S1132AF00FBE0F901F9018951F920F920FB60F9252
S1132B0011240BB60F922F933F934F935F936F93C0
S1132B107F938F939F93AF93BF93CF93DF93EF9361
S1132B20FF93A0911A08B0911B08109711F16091BE
S1132B30CE001496ED91FC911597938182812581A5
S1132B40981B92238481981761F08381269528230A
S1132B50C081D181C20FD11D68838F5F9581892384
S1132B6083831696ED91FC911797309711F0CD0160
S1132B701995FF91EF91DF91CF91BF91AF919F9103
S1132B808F917F916F915F914F913F912F910F9012
S1132B900BBE0F900FBE0F901F9018951F920F92AF
S1132BA00FB60F9211240BB60F922F938F939F930E
S1132BB0AF93BF93EF93FF93E0911A08F0911B0832
S1132BC03097B9F00280F381E02D938182819817C8
S1132BD0B1F092818581282F26952923A081B18186
S1132BE0A20FB11D2C919F5F892382832093CE0075
S1132BF00BC0E9ECF0E080818F7D808305C0E9ECB7
S1132C00F0E080818F7D8083FF91EF91BF91AF9140
S1132C109F918F912F910F900BBE0F900FBE0F902D
S1132C201F9018951F920F920FB60F9211240BB696
S1132C300F922F933F934F935F936F937F938F9351
S1132C409F93AF93BF93CF93DF93EF93FF93A091A1
S1132C501C08B0911D08109711F16091D6001496CC
S1132C60ED91FC911597938182812581981B922384
S1132C708481981761F0838126952823C081D181AE
S1132C80C20FD11D68838F5F958189238383169634
S1132C90ED91FC911797309711F0CD011995FF91A3
S1132CA0EF91DF91CF91BF91AF919F918F917F91E0
S1132CB06F915F914F913F912F910F900BBE0F90A9
S1132CC00FBE0F901F9018951F920F920FB60F9280
S1132CD011240BB60F922F938F939F93AF93BF93AF
S1132CE0EF93FF93E0911C08F0911D083097B9F021
S1132CF00280F381E02D938182819817B1F0928153
S1132D008581282F26952923A081B181A20FB11D89
S1132D102C919F5F892382832093D6000BC0E1ED21
S1132D20F0E080818F7D808305C0E1EDF0E080815B
S1132D308F7D8083FF91EF91BF91AF919F918F9190
S1132D402F910F900BBE0F900FBE0F901F901895F0
S1132D501F920F920FB60F9211240BB60F922F935E
S1132D603F934F935F936F937F938F939F93AF930F
S1132D70BF93CF93DF93EF93FF93A0911E08B0917D
S1132D801F08109711F1609136011496ED91FC9192
S1132D901597938182812581981B922384819817AA
S1132DA061F0838126952823C081D181C20FD11D72
S1132DB068838F5F9581892383831696ED91FC91B7
S1132DC01797309711F0CD011995FF91EF91DF918D
S1132DD0CF91BF91AF919F918F917F916F915F91AF
S1132DE04F913F912F910F900BBE0F900FBE0F90FC
S1132DF01F9018951F920F920FB60F9211240BB6C5
S1132E000F922F938F939F93AF93BF93EF93FF935F
S1132E10E0911E08F0911F083097B9F00280F38109
S1132E20E02D938182819817B1F092818581282FBA
S1132E3026952923A081B181A20FB11D2C919F5FFA
S1132E4089238283209336010BC0E1E3F1E0808182
S1132E508F7D808305C0E1E3F1E080818F7D8083F5
S1132E60FF91EF91BF91AF919F918F912F910F900F
S1132E700BBE0F900FBE0F901F901895FC014111CF
S1132E8002C00E947C23842F90E09C0121503109D0
S1132E9082239323892B11F00E947C23413810F064
S1132EA00E947C23128213824483440F4150458341
S1132EB07183608380E090E00895E1ECF9E024E31D
S1132EC03CE13183208327E33CE13383228322E402
S1132ED03CE13583248326E43CE1378326832CE4D8
S1132EE03CE13187208728E53CE1338722872DE5C3
S1132EF03CE13587248729E63CE13787268729E4A6
S1132F003CE1318B208B2EE63CE1338B228B2BE78B
S1132F103CE1358B248B682FCF0139C1089565308E
S1132F20F1F4FA0180818F7390E0982F8827218132
S1132F30822B90931F0280931E028281F0E48F9F64
S1132F40C0011124FA01238126952695822B9093A2
S1132F501D0280931C0281E0809320080895643050
S1132F6051F080E090E490931D0280931C029093B2
S1132F701F0280931E0208950F931F930FE817E119
S1132F8020E034E244EF50E060E087E2FFD6909323
S1132F9022088093210821E0892B09F020E0822F68
S1132FA01F910F9108958091210890912208009714
S1132FB051F040E060E070E03AD7843031F4109290
S1132FC0200880E0089582E0089583E008958091C8
S1132FD0210890912208009731F064E073D785307E
S1132FE021F083E0089582E0089580E008956091DF
S1132FF01E0270911F0280E090E00E94242120E0D4
S113300030E048EC52E40E948D2120E038EF4FE795
S113301056E40C94B920089560911C0270911D022D
S113302080E090E00E94242120E030E045E253E477
S11330300E948D2120E038EF4FE756E40E94B9202A
S113304020E030E040E252E40C9452200895CF9303
S1133050DF9390E0FC01EE0FFF1FE80FF91FEE0F66
S1133060FF1FED5DF74F238121110AC0EF01E091AD
S1133070C909F091CA096A8188819981199512C098
S1133080DC01AA0FBB1FED01C80FD91FCC0FDD1F38
S1133090CD5DD74FE091D309F091D4096A8188813D
S11330A099811995DF91CF910895CF93DF9390E0A3
S11330B0FC01EE0FFF1FE80FF91FEE0FFF1FED5D80
S11330C0F74F238121110AC0EF01E091D309F09158
S11330D0D4096A8188819981199512C0DC01AA0FEB
S11330E0BB1FED01C80FD91FCC0FDD1FCD5DD74F1E
S11330F0E091C909F091CA096A8188819981199579
S1133100DF91CF9108958BE994E00E94CD230F2E97
S1133110F1ECCF2EF9E0DF2EF02D04E0C3E2D8E08D
S113312010E08C81813069F0E8F0823039F5D60105
S11331301C96ED91FC911D976A818881998119955E
S11331401DC08D818F5F8A3010F48D8317C01D825E
S1133150D6011C96ED91FC911D976A818881998115
S113316019950CC08D81882331F0812F9EDF8D81CC
S113317081508D8303C00C83812F69DF1F5F2696E6
S1133180143079F685E090E00E94810EC7CFCF928B
S1133190DF92EF92FF920F931F93CF93DF93062F4B
S11331A00F2EF1ECEF2EF9E0FF2EF02DD70118963B
S11331B0ED91FC91199766E087E290E01995C3E2DE
S11331C0D8E00F2EF8E2CF2ED12CF02DD982C88270
S11331D086E08A831B8214E01C8380E038DFD701F9
S11331E01896ED91FC91199767E087E290E01995A4
S11331F0DF82CE8287E0888719861A8781E027DFFD
S1133200D7011896ED91FC91199765E083E390E05E
S11332101995D7011896ED91FC91199761E084E313
S113322090E0199584E390E09D878C8785E08E87F4
S11332301F86188B82E00BDFD7011896ED91FC9165
S1133240199764E081E091E01995D7011896ED9102
S1133250FC91199761E082E091E0199582E091E098
S11332609B8B8A8B1C8B1D8A1E8B83E0F0DEE12CEA
S1133270F12C20E030E040EC50E062EB74E083E8B5
S113328098E10E94F80BDF91CF911F910F91FF906D
S1133290EF90DF90CF9008950F931F93CF93DF9318
S11332A01F921F92CDB7DEB78C0119822DC0E09119
S11332B09F08EC3250F481E08E0F80939F08F0E079
S11332C0EC55F74F8A81808302C010929F088A814F
S11332D08A30D1F440919F0850E0FA01EE55F74F3F
S11332E01082415051099E012F5F3F4F64EA78E0FC
S11332F08091A0089091A1080E94A90A8981811156
S11333000E94DF0510929F08BE016E5F7F4FC801C7
S113331041DB882361F20F900F90DF91CF911F91D1
S11333200F9108950F931F93CF93DF938C01EB01BB
S11333308091A0089091A1080E946A0AB8018BE3C9
S113334098E00E949B23209779F0EBE3F8E001904A
S11333500020E9F7319780E290E091838083BE01F9
S11333608BE398E00E949023EBE3F8E0DF010D90FB
S11333700020E9F711978DE09AE011969C938E93C3
S113338012961C9201900020E9F73197EB53F84014
S1133390AE2F8BE398E0AC016A2F8091A208909144
S11333A0A308A8DA81110FC028E235E04DE250E00D
S11333B06EEF78E08091A0089091A1080E94EB0A3A
S11333C08EEF98E002C080E090E0DF91CF911F91F2
S11333D00F910895AF92BF92CF92DF92EF92FF9236
S11333E00F931F93CF93DF936C01FC010190002096
S11333F0E9F731977F01E81AF90A07E517E0C0E019
S1133400D0E0F80160817181A701C6010E94A22366
S1133410892B49F4FE01EE0FFF1FEC0FFD1FEA5A42
S1133420F84F808107C021960D5F1F4FC131D10530
S113343041F780E1DF91CF911F910F91FF90EF90C1
S1133440DF90CF90BF90AF9008956CDFC3CF089505
S11334508091A0089091A1080C946A0A08958F9213
S11334609F92AF92CF92EF920F93CF93C82F41E0E8
S113347060E070E088EC90E00E943E0A9093A1081E
S11334808093A0080F2EFCE48F2EF9E19F2EF02DDF
S11334906894AA24A6F86894CC24C6F8E12C00E029
S11334A023E040E051EE60E070E08C2F5FD9909310
S11334B0A3088093A208E091C909F091CA0964E0C5
S11334C087E091E01995CF910F91EF90CF90AF9055
S11334D09F908F900895882349F0E091D309F0914B
S11334E0D40964E088E091E019950895E091C90950
S11334F0F091CA0964E088E091E01995089560E0CC
S113350070E089ED94E00EDFEEEFF8E0019000202A
S1133510E9F73197EE5FF84081E0759708F080E0B5
S11335200895CF93DF93EC0160E070E08AEE94E0BD
S1133530F9DEEEEFF8E001900020E9F7EF50F940F2
S113354039F46EEF78E0CE010E949B2380E002C044
S1133550188281E0DF91CF910895FC010190002051
S1133560E9F79F01215131092817390729F4BC01D2
S113357088E195E06ACF089589E00895FC010190FF
S11335800020E9F79F01215131092817390729F44F
S1133590BC0187E295E059CF089589E00895FC01C4
S11335A001900020E9F79F012152310928173907BA
S11335B029F4BC0186E395E048CF089589E0089595
S11335C060E070E085E795E040CF0895E82FF0E0F3
S11335D0EE0FFF1FEE5AF84F608171818EE795E080
S11335E034DF811112C028E235E04DE250E06EEF85
S11335F078E08091A0089091A1080E94EB0A8823AA
S113360021F08EEF98E0E6CE08958EEF98E0E2CEBA
S11336100895813019F06DE975E002C066E776E03F
S113362081EA95E012CF08958830C0F41F928F93F9
S113363089EB95E09F938F9381ED98E09F938F930F
S11336400E94FD2360E070E081ED98E0FEDE0F90C3
S11336500F900F900F900F900F90089589E00895A8
S11336602F923F924F925F926F927F928F929F928E
S1133670AF92BF92CF92DF92EF92FF920F931F937C
S1133680CF93DF9366EE75E082EF95E04BDEA2DE2A
S11336908111A6C06EEF75E084E096E043DE9ADE09
S11336A081119EC0C0E0D0E00F2EF0E68F2EF5EE23
S11336B09F2EFEEAAF2EF3E3BF2EF02D0F2EF7E17F
S11336C0EF2EF6E0FF2EF02D01ED18E00F2EF0E3C3
S11336D0CF2EF6E0DF2EF02D0F2EF7E46F2EF6E05E
S11336E07F2EF02D0F2EF1E64F2EF6E05F2EF02DFB
S11336F0DF93CF93FF92EF921F930F930E94FD23CA
S113370060E070E0C8010EDE65DE0F900F900F9050
S11337100F900F900F90811163C0C33008F44DC017
S1133720BF92AF929F928F92DF93CF93DF92CF920B
S11337301F930F930E94FD2360E070E0C801F2DD47
S113374049DE2DB73EB7265F3F4F0FB6F8943EBF14
S11337500FBE2DBF811144C0DF93CF937F926F9230
S11337601F930F930E94FD2360E070E0C801DADD2F
S113377031DE0F900F900F900F900F900F908111EA
S11337802FC0DF93CF935F924F921F930F930E94AA
S1133790FD2360E070E0C801C5DD1CDE0F900F90D2
S11337A00F900F900F900F9081111AC030E4830E88
S11337B03DE0931E33E0A31EB11C2196C830D10511
S11337C009F096CF60E070E089E796E0ABDD02DEB9
S11337D0811106C060E070E08AE896E0A3DDFADDBE
S11337E0DF91CF911F910F91FF90EF90DF90CF90D9
S11337F0BF90AF909F908F907F906F905F904F900D
S11338003F902F900895EF92FF920F931F93CF93C1
S1133810DF93EC018B017A0181E0FBDE811111C0A1
S1133820CE01ACDE81110DC0C801B9DE811109C021
S1133830C70193DE811105C085E0F6DE811101C068
S1133840BFDEDF91CF911F910F91FF90EF9008950C
S113385090E0FC01EE0FFF1F8E0F9F1FFC01EA5A40
S1133860F84F818192810895FC0180810895FC01C3
S1133870208181E090E002C0880F991F6A95E2F7E9
S113388082230895FC01808186230895FC016083CE
S11338900895FC0110820895FC01408121E030E08C
S11338A002C0220F331F6A95E2F7242B2083089568
S11338B0FC012081622B60830895FC01408121E09A
S11338C030E002C0220F331F6A95E2F724272083D9
S11338D00895FC012081622760830895FC01908192
S11338E021E030E002C0220F331F6A95E2F72095F1
S11338F0292320830895FC019081609569236083C6
S1133900089580912E09860F80932E099091310994
S1133910913079F028F09230A9F0933019F108959C
S11339206F3F09F048C010922E0981E0809331095D
S11339300895663809F03FC010922D0982E0809303
S113394031090895E0912D0981E08E0F80932D09AE
S1133950F0E0E55DF64F6083823069F583E08093A3
S11339603109089590912D0921E0290F20932D0903
S1133970963009F581110EC0EBE2F9E0808190E008
S1133980982F88272181820F911D9093330980936A
S1133990320904C01092330910923209109231098D
S11339A0E0912F09F0913009309729F08091320984
S11339B090913309199508958F929F92AF92CF9267
S11339C0EF920F93CF93DF93EB010F2EF1E88F2E3D
S11339D0FCE19F2EF02D6894AA24A4F86894CC24CA
S11339E0C4F8E12C00E023E040E855E260E070E038
S11339F00E94B6139093350980933409D09330090B
S1133A00C0932F09DF91CF910F91EF90CF90AF909A
S1133A109F908F900895CF93DF93CDB7DEB729970A
S1133A200FB6F894DEBF0FBECDBF89E0E1E2F2E04D
S1133A309E012F5F3F4FD90101900D928A95E1F7C6
S1133A40109233091092320980913409909135090A
S1133A50009739F0422F532F69E00E947A1480E0D6
S1133A6001C082E029960FB6F894DEBF0FBECDBF29
S1133A70DF91CF910895E0913E09F0913F0930978D
S1133A8009F0199508956450623008F03BC0209104
S1133A903D09223079F018F4213031F030C0233060
S1133AA081F02430A1F02BC022E020933D0961E095
S1133AB009C20895FA01808180933A0982E0DBCF3C
S1133AC0089524E020933D0964E0FCC10895FA01BF
S1133AD0818190E0982F88272081822B9093390947
S1133AE080933809838190E0982F88272281822B44
S1133AF0909337098093360981E0BDCF089580E023
S1133B00BACF089510923D0986E0B5CF089520916B
S1133B104009309141092115310541F0462FBC017E
S1133B20C90185D1823021F080E0089587E00895AD
S1133B3085E008950F931F9390933F0980933E0966
S1133B4003E41DE120E034E244EF50E060E089E268
S1133B501DD19093410980934009892B11F080E095
S1133B6001C088E01F910F910895CF93DF931F92B6
S1133B701F92CDB7DEB780EA898383E08A831092EF
S1133B803D0962E0CE010196C2DF0F900F90DF91F4
S1133B90CF910895CF93DF931F92CDB7DEB784EB17
S1133BA0898383E080933D0961E0CE010196AFDF14
S1133BB00F90DF91CF9108952F923F924F925F9291
S1133BC06F927F928F929F92AF92BF92CF92DF9229
S1133BD0EF92FF920F931F93CF93DF93C091360917
S1133BE0D0913709CF3F2FEFD20741F060913809C8
S1133BF0709139096F3FEFEF7E0759F44FEF5FEF94
S1133C006FE77FE7FC01408351836283738383E022
S1133C1099C01C0180E090E017D32B013C01BE0148
S1133C2080E090E011D34B015C0180913B0990E06E
S1133C30019624E6289FB001299F700D11248091DC
S1133C403C09803269F08033A1F08031E1F40F2E19
S1133C50C12CD12CF8ECEF2EF1E4FF2EF02D1BC07B
S1133C600F2EC12CD12CF6EDEF2EF3E4FF2EF02D08
S1133C7012C00F2EC12CF0E5DF2EFAE1EF2EF6E490
S1133C80FF2EF02D08C00F2EC12CD12CF0E8EF2E02
S1133C90FFE3FF2EF02D072E000C880B990BD6D2D4
S1133CA0A70196013AD320E030E04CEC53E461D212
S1133CB06B017C0125E83BEE41ED5FE3C501B401F6
S1133CC02CD39B01AC01C301B201ECD1A701960135
S1133CD050D2162FD72FC82F092F2DE33AE047E1F2
S1133CE05FE3C301B20119D32B013C0126EF38E293
S1133CF04CE55FE3C501B40110D39B01AC01C301E2
S1133D00B201D0D1A701960134D2C62ED72EE82E07
S1133D10F92E262F372F482F592F612F7D2F8C2FC7
S1133D20902FF7D2181624F01C2DDD2DCE2D0F2D3B
S1133D30412F5D2F6C2F702FF101408351836283DB
S1133D40738380E0DF91CF911F910F91FF90EF90EB
S1133D50DF90CF90BF90AF909F908F907F906F90A7
S1133D605F904F903F902F9008958091500981115A
S1133D700CC08CE08093B8008FEF8093BB0084E08C
S1133D808093BC0081E0809350090895AF92BF9264
S1133D90CF92DF92EF92FF920F931F93CF93DF9313
S1133DA0A82EB62E69017A0184E090E084D3EC0158
S1133DB0892B61F1A88281E0B81212C0C701B60153
S1133DC020EA36E841E050E032D3DA01C9014097F5
S1133DD0A109B109B695A79597958795898311C0CF
S1133DE0C701B60120E83AE146E050E020D3DA0109
S1133DF0C9014097A109B109B695A79597958795EB
S1133E0089831B830A838C2F9D2F02C080E090E05E
S1133E10DF91CF911F910F91FF90EF90DF90CF90A2
S1133E20BF90AF9008958091BC0081700895FF9277
S1133E300F931F93CF93DF930097C9F14A30C8F5CE
S1133E40F42E8B01EC01EFDF811135C08091430921
S1133E5090914409C817D90741F087DF898180937D
S1133E60B800D0934409C093430981E08F0D809337
S1133E7045098881880F80934609FF2081F0F80165
S1133E80A7E4B9E04FEF4F0D642F70E06F5F7F4FF1
S1133E90600F711F81918D93E617F707D9F788EFAB
S1133EA08093200285EA8093BC0081E005C086E00F
S1133EB003C087E001C082E0DF91CF911F910F9191
S1133EC0FF9008951F93CF93DF93009729F16B30F0
S1133ED028F5162FEC01A7DF811122C08091430938
S1133EE090914409C817D90741F03FDF8981809335
S1133EF0B800D0934409C0934309109345098881BD
S1133F00880F81608093460988EF8093200285EAB8
S1133F108093BC0081E005C086E003C087E001C057
S1133F2082E0DF91CF911F9108951F920F920FB6F7
S1133F300F9211240BB60F922F933F934F935F93DD
S1133F406F937F938F939F93AF93BF93EF93FF935D
S1133F50E091B9008E2F90E0FC013897E135F1052E
S1133F6008F075C08827E458FF4F8F4F82C2109223
S1133F704209E091420980914509E81770F481E013
S1133F808E0F80934209F0E0EA5BF64F80818093C4
S1133F90BB0085E88093BC0072C084E98093BC00B8
S1133FA08091430990914409DC011296ED91FC91B2
S1133FB01397309709F463C020E040E050E064E0D8
S1133FC019955DC0E091420981E08E0F809342090A
S1133FD08091BB00F0E0EA5BF64F80838091B900EA
S1133FE0803411F4109242092091420930E080910A
S1133FF0450990E001972817390724F485EC80934C
S1134000BC003DC085E88093BC0039C08091BB00F2
S1134010E0914209F0E0EA5BF64F808384E9809303
S1134020BC008091430990914409DC011296ED9102
S1134030FC911397309719F12091450946E459E012
S113404065E019951CC085EA8093BC0018C0809176
S1134050B9008093200284E08093BC0080914309DE
S113406090914409DC011296ED91FC9113973097DD
S113407031F020E040E050E0609120021995FF917A
S1134080EF91BF91AF919F918F917F916F915F91CC
S11340904F913F912F910F900BBE0F900FBE0F9039
S11340A01F9018955058BB27AA270ED021C112D1B2
S11340B030F017D120F031F49F3F11F41EF407C102
S11340C00EF4E095E7FBFDC0E92F0E94461378F358
S11340D0BA17620773078407950720F079F4A6F5E9
S11340E00C9468130EF4E0950B2EBA2FA02D0B013F
S11340F0B90190010C01CA01A0011124FF27591B29
S113410099F0593F50F4503E68F11A16F040A22F2E
S1134110232F342F4427585FF3CF4695379527959F
S1134120A795F0405395C9F77EF41F16BA0B620B9E
S1134130730B840BBAF09150A1F0FF0FBB1F661FE5
S1134140771F881FC2F70EC0BA0F621F731F841F28
S113415048F4879577956795B795F7959E3F08F04E
S1134160B1CF9395880F08F09927EE0F979587950F
S113417008950DD0BDC0B5D048F0ACD038F021F4CE
S11341805F3F21F09EC051110C946913A0C00E949E
S1134190461388F39923B9F35523A1F3951B550BC3
S11341A0BB27AA2762177307840738F09F5F5F4F06
S11341B0220F331F441FAA1FA9F334D00E2E3AF046
S11341C0E0E831D091505040E695001CCAF72AD05F
S11341D0FE2F28D0660F771F881FBB1F26173707AF
S11341E04807AB07B0E809F0BB0B802DBF01FF27E0
S11341F093585F4F32F09E3F510570F062C00C94AB
S113420069135F3FE4F3983ED4F3869577956795F9
S1134210B795F7959F5FC9F7880F911D9695879578
S113422097F90895E1E0660F771F881FBB1F621797
S113423073078407BA0720F0621B730B840BBA0B55
S1134240EE1F88F7E0950895E89409C097FB3EF4C3
S113425090958095709561957F4F8F4F9F4F9923CF
S1134260A9F0F92F96E9BB279395F695879577954D
S11342706795B795F111F8CFFAF4BB0F11F460FF0D
S11342801BC06F5F7F4F8F4F9F4F16C0882311F065
S113429096E911C0772321F09EE8872F762F05C079
S11342A0662371F096E8862F70E060E02AF09A9514
S11342B0660F771F881FDAF7880F9695879597F909
S11342C0089597F99F6780E870E060E008959FEF94
S11342D080EC089500240A94161617061806090699
S11342E0089500240A941216130614060506089568
S11342F0092E0394000C11F4882352F0BB0F40F4F0
S1134300BF2B11F460FF04C06F5F7F4F8F4F9F4F2F
S1134310089569D008F48FEF08950CD0E9CFDADF5F
S113432028F0DFDF18F0952309F0CBCFD0CF11248C
S11343300C9469130E94461390F3959FC1F3950F53
S113434050E0551F629FF001729FBB27F00DB11D15
S1134350639FAA27F00DB11DAA1F649F6627B00DA5
S1134360A11D661F829F2227B00DA11D621F739F8E
S1134370B00DA11D621F839FA00D611D221F749F9C
S11343803327A00D611D231F849F600D211D822FE3
S1134390762F6A2F11249F57504092F0E9F088231A
S11343A04AF0EE0FFF1FBB1F661F771F881F915037
S11343B05040A9F79E3F510578F083CF0C946913C0
S11343C05F3FE4F3983ED4F3869577956795B79568
S11343D0F795E7959F5FC1F7FE2B880F911D969582
S11343E0879597F90895990F0008550FAA0BE0E8EF
S11343F0FEEF16161706E807F907C0F012161306A3
S1134400E407F50798F0621B730B840B950B39F4E2
S11344100A2661F0232B242B252B21F408950A2648
S113442009F4A140A6958FEF811D811D0895A1E295
S11344301A2EAA1BBB1BFD010DC0AA1FBB1FEE1F1A
S1134440FF1FA217B307E407F50720F0A21BB30B65
S1134450E40BF50B661F771F881F991F1A9469F7E1
S113446060957095809590959B01AC01BD01CF013D
S11344700895EE0FFF1F881F8BBF0790F691E02D64
S113448019940F931F93CF93DF93869F8001879F87
S1134490100D969F100D1124C8010DD0EC0100974A
S11344A021F0A80160E070E034D1CE01DF91CF911A
S11344B01F910F9108950F931F93CF93DF93823031
S11344C0910510F482E090E0E091D909F091DA09C5
S11344D020E030E0A0E0B0E0309719F14081518154
S11344E00281138148175907C8F08417950769F4A6
S11344F0109731F012960C93129713961C9327C0C1
S11345000093D9091093DA0922C02115310519F055
S11345104217530718F49A01BD01EF01DF01F801B6
S1134520DBCF21153105F9F0281B390B2430310577
S113453080F48A819B816115710521F0FB019383CD
S1134540828304C09093DA098093D909FE013296DC
S113455044C0FE01E20FF31F81939193225031096D
S1134560398328833AC02091D7093091D809232B65
S113457041F420910202309103023093D809209330
S1134580D70920910002309101022115310541F42F
S11345902DB73EB74091040250910502241B350B00
S11345A0E091D709F091D809E217F307A0F42E1B84
S11345B03F0B2817390778F0AC014E5F5F4F241783
S11345C0350748F04E0F5F1F5093D8094093D70921
S11345D08193919302C0E0E0F0E0CF01DF91CF91AD
S11345E01F910F910895CF93DF93009709F481C031
S11345F0FC01329713821282A091D909B091DA0991
S1134600109781F420813181820F931F2091D70963
S11346103091D8092817390751F5F093D809E09358
S1134620D70967C0ED0120E030E0CE17DF0740F482
S11346304A815B819E0141155105F1F0EA01F5CFF4
S1134640D383C28340815181840F951FC817D90732
S113465059F488819981840F951F029691838083F0
S11346608A819B81938382832115310529F4F093F8
S1134670DA09E093D9093DC0E901FB83EA83499152
S11346805991C40FD51FEC17FD0761F48081918106
S1134690840F951F0296E90199838883828193810F
S11346A09B838A83E0E0F0E012968D919C911397AE
S11346B0009719F0FD01DC01F7CF8D919C911197C2
S11346C09D012E5F3F4F820F931F2091D709309198
S11346D0D8092817390769F4309729F41092DA09B0
S11346E01092D90902C013821282B093D809A09300
S11346F0D709DF91CF91089581E090E0F89458C3F1
S1134700FB01DC0102C001900D9241505040D8F7EA
S11347100895DC0101C06D9341505040E0F70895C5
S1134720FB01DC010D900020E9F7119701900D9237
S11347300020E1F70895FB01DC0101900D920020B7
S1134740E1F70895FB01DC014150504088F08D9160
S113475081341CF08B350CF4805E619161341CF063
S11347606B350CF4605E861B611171F3990B08952F
S1134770881BFCCFCF93DF93CDB7DEB7AE014A5F82
S11347805F4FFA0161917191AF018091DD099091C0
S1134790DE0961D0DF91CF9108950F931F93CF93DA
S11347A0DF93E091DD09F091DE09238121FF1BC035
S11347B08C01D0E0C0E0F80181918F016091DD09A6
S11347C07091DE09DB011896ED91FC91199788230D
S11347D031F01995892B79F3DFEFCFEFECCF8AE035
S11347E01995892B19F08FEF9FEF02C08D2F9C2F05
S11347F0DF91CF911F910F9108950F931F93CF9342
S1134800DF93CDB7DEB72E970FB6F894DEBF0FBE99
S1134810CDBF0E891F8986E08C831A8309838FEFAD
S11348209FE79E838D83AE01465E5F4F688D798DD1
S1134830CE01019610D0EF81F885E00FF11F1082B0
S11348402E960FB6F894DEBF0FBECDBFDF91CF9189
S11348501F910F9108952F923F924F925F926F9202
S11348607F928F929F92AF92BF92CF92DF92EF92FC
S1134870FF920F931F93CF93DF93CDB7DEB72B97A0
S11348800FB6F894DEBF0FBECDBF6C017B018A0169
S1134890FC0117821682838181FFBFC1CE0101967C
S11348A03C01F6019381F70193FD859193FF81917A
S11348B07F01882309F4ADC1853239F493FD8591D4
S11348C093FF81917F01853221F4B60190E0D6D126
S11348D0E8CF912C212C312CFFE1F315D8F08B3249
S11348E079F038F4803279F08332A1F4232D2061F9
S11348F01DC08D3261F0803369F4232D216016C010
S1134900832D8260382EE32DE4603E2E2AC0F32DE1
S1134910F8601DC037FC2DC020ED280F2A3040F070
S11349208E32B9F436FC75C1232D2064322E19C0A1
S113493036FE06C08AE0989E200D1124922E11C0E6
S1134940EAE02E9E200D1124222EF32DF0623F2E3C
S113495008C08C3621F4832D8068382E02C0883636
S113496041F4F70193FD859193FF81917F018111BA
S1134970B3CF982F9F7D9554933028F40C5F1F4F2D
S11349809FE399830DC0833631F0833771F083350B
S113499009F055C020C0F801808189830E5F1F4F44
S11349A088248394912C530112C02801F2E04F0E05
S11349B0511CF801A080B18036FE03C0692D70E05F
S11349C002C06FEF7FEFC5014ED14C018201F32D80
S11349D0FF773F2E15C0280122E0420E511CF8013A
S11349E0A080B18036FE03C0692D70E002C06FEF75
S11349F07FEFC5012DD14C01F32DF0683F2E8201CC
S1134A0033FC19C0822D90E088169906A0F4B601F3
S1134A1080E290E033D12A94F5CFF50137FC8591FB
S1134A2037FE81915F01B60190E028D121102A94CC
S1134A3021E0821A91088114910479F7E1C0843647
S1134A4011F0893639F5F80137FE07C060817181AC
S1134A50828193810C5F1F4F08C060817181072E92
S1134A60000C880B990B0E5F1F4FF32DFF763F2E22
S1134A7097FF09C090958095709561957F4F8F4FF2
S1134A809F4FF0683F2E2AE030E0A30133D1882EF7
S1134A90861844C0853731F4232D2F7EB22E2AE0A8
S1134AA030E025C0932D997FB92E8F36C1F018F4CC
S1134AB0883579F0AEC0803719F0883721F0A9C065
S1134AC0E92FE061BE2EB4FE0DC0FB2DF460BF2EB5
S1134AD009C034FE0AC0292F2660B22E06C028E081
S1134AE030E005C020E130E002C020E132E0F8010E
S1134AF0B7FE07C060817181828193810C5F1F4F73
S1134B0006C06081718180E090E00E5F1F4FA301B9
S1134B10F1D0882E8618FB2DFF773F2E36FE0DC070
S1134B20232D2E7FA22E891458F434FE0BC032FCA0
S1134B3009C0832D8E7EA82E05C0B82CA32C03C0DB
S1134B40B82C01C0B92CA4FE0FC0FE01E80DF11D64
S1134B508081803321F49A2D997EA92E09C0A2FE6A
S1134B6006C0B394B39404C08A2D867809F0B39434
S1134B70A3FC10C0A0FE06C0B21480F4280C922C32
S1134B809B180DC0B21458F4B60180E290E076D0C0
S1134B90B394F8CFB21418F42B1802C0982C212C1B
S1134BA0A4FE0FC0B60180E390E068D0A2FE16C058
S1134BB0A1FC03C088E790E002C088E590E0B6015C
S1134BC00CC08A2D867851F0A1FE02C08BE201C090
S1134BD080E2A7FC8DE2B60190E050D0891430F455
S1134BE0B60180E390E04AD09A94F8CF8A94F30116
S1134BF0E80DF11D8081B60190E040D08110F6CF20
S1134C00222009F44ECEB60180E290E037D02A94F7
S1134C10F7CFF6018681978102C08FEF9FEF2B9625
S1134C200FB6F894DEBF0FBECDBFDF91CF911F91B9
S1134C300F91FF90EF90DF90CF90BF90AF909F9037
S1134C408F907F906F905F904F903F902F9008953A
S1134C50FC010590615070400110D8F78095909543
S1134C608E0F9F1F0895FC01615070400190011048
S1134C70D8F7809590958E0F9F1F08950F931F93DB
S1134C80CF93DF93FB01238121FD03C08FEF9FEFBF
S1134C902CC022FF16C046815781248135814217DA
S1134CA0530744F4A081B1819D012F5F3F4F3183AD
S1134CB020838C93268137812F5F3F4F3783268350
S1134CC014C08B01EC01FB010084F185E02D1995E2
S1134CD0892BE1F6D80116968D919C911797019630
S1134CE017969C938E931697CE01DF91CF911F91C7
S1134CF00F910895FA01AA27283051F1203181F14A
S1134D00E8946F936E7F6E5F7F4F8F4F9F4FAF4FCF
S1134D10B1E03ED0B4E03CD0670F781F891F9A1FE2
S1134D20A11D680F791F8A1F911DA11D6A0F711D96
S1134D30811D911DA11D20D009F468943F912AE0A2
S1134D40269F11243019305D3193DEF6CF0108958A
S1134D50462F4770405D4193B3E00FD0C9F7F6CFBB
S1134D60462F4F70405D4A3318F0495D31FD405283
S1134D70419302D0A9F7EACFB4E0A6959795879519
S1134D8077956795BA95C9F70097610571050895F8
S1134D909B01AC010A2E06945795479537952795A4
S1134DA0BA95C9F7620F731F841F951FA01D08953C
S1074DB0F894FFCFA1
S1134DB40000E10920000000000300000000841347
S1134DC46F130000C600CE00D60036010040004038
S1134DD4F8FF0186000000000079FF0179A00000BB
S1134DE40000E6FF0179000000000086FF0187004F
S1134DF40000000078FF0188000000000000434F19
S1134E0432206C6576656C3A2025750A0074656DEC
S1134E14702D77616B65206572726F723A20256418
S1134E240A0054656D702D72656164206572726F39
S1134E34723A2025640A0048756D3A2025642020BE
S1134E4454656D703A2025640A00434F322073651B
S1134E546E736F723A202564004661696C65642040
S1134E64746F206665746368206C69676874206471
S1134E746174613A2025640A004C6967687420737C
S1134E84656E736F72206E6F74207265616479004D
S1134E944C696768743A2025640A004C7578206F5D
S1134EA4766572666C6F7700466163746F727952CB
S1134EB4657374203E25733C0A00436F6E6669670C
S1134EC475726520746F204555383638203E257335
S1134ED43C0A004765742048574555493A202573D0
S1134EE4203E25733C200A005365742044657645AE
S1134EF455493A202573203E25733C0A00536574B2
S1134F04204F544141204964656E74697479206169
S1134F1470704555493A2573206170704B45593A70
S1134F242573206465764555493A2573203E2573D7
S1134F343C0A0053617665206D6163203E25733C11
S1134F440A00536574204164617074697665204471
S1134F5461746120526174653A204F4E203E25737A
S1134F643C0A004A6F696E204E6574776F726B2039
S1134F7454726965734C6566743A2564203E2573DE
S1134F843C0A0054656D7065726174757265206DB8
S1134F946561737572656D656E7400434F32206D7F
S1134FA46561737572656D656E74004C69676874C8
S1134FB4206D6561737572656D656E7400576174F7
S1134FC4657220736572766F004C6564004661698E
S1134FD46C656420746F20696E697469616C697AA4
S1134FE4652074656D70657261747572652073658E
S1134FF46E736F72004661696C656420746F206916
S11350046E697469616C697A65206C696768742077
S113501473656E736F723A2025640A004661696C85
S1135024656420746F20656E61626C65206C6967C9
S113503468742073656E736F722025640A00494492
S11350444C4500546D72205376630048414C206CE7
S11350546564207461736B20737461727465642174
S1135064210048414C5F4C454400737973207265B8
S1135074736574006D6163207061757365006D619F
S11350846320726573756D6500737973206661635B
S1135094746F72795245534554007379732067656C
S11350A474206877657569006D6163206765742091
S11350B467776E62006D616320736574206C696E3A
S11350C46B63686B202564006D61632073657420D1
S11350D4646576657569006D616320736574206128
S11350E47070657569006D61632073657420617007
S11350F4706B6579006D616320736574206E776BE2
S1135104736B6579006D61632073657420617070DD
S1135114736B6579006D61632073657420646576CF
S113512461646472006D61632073617665006D610E
S113513463206A6F696E00756E636E66006D6163E9
S1135144207478202573202564202573006F6666F7
S1135154006D61632073657420616472006D616322
S11351642067657420616472006D616320736574E3
S1135174206472202564006D616320676574206473
S113518472006D61632073657420727864656C6168
S113519479312025640033203836393532353030BE
S11351A430006D616320736574207278320031209D
S11351B4302036006D616320736574206368206455
S11351C47272616E6765006D616320736574206338
S11351D46820646379636C65202564203739390059
S11351E46D61632073657420636820667265712041
S11351F4256420256C75006D6163207365742063D8
S11352046820647272616E676520256420302035DD
S1135214006D616320736574206368207374617422
S11352247573202564206F6E006D6163207365744B
S1135234207077726964782031006D61632073652E
S11352447420726574782037006F74616100616240
S113525470004B4559535F4E4F545F494E495400B7
S11352644E4F5F465245455F43480053494C454EB3
S1135274540042555359004D41435F5041555345E1
S1135284440044454E494544004143434550544534
S11352944400494E56414C49445F504152414D00EB
S11352A44E4F545F4A4F494E454400494E56414C73
S11352B449445F444154415F4C454E004652414D7C
S11352C4455F434F554E5445525F4552525F5245D4
S11352D44A4F494E5F4E4545444544004D41435F62
S11352E454585F4F4B004D41435F52585F4F4B003E
S11352F44D41435F4552524F5200554E4B4E4F570A
S11353044E0099069E06003D0701440702A20603C7
S1135314B00604BB0605C20606C70607D20608D9AA
S11353240609E2060AF0060BFB060C0C070D2C0713
S10D53340E36070F4007104A070069
S9030000FC
